:040000006F102071EC
:100004000000000000000000002C0000042C000090
:10001400000000004001000000000000000000009B
:100024004001000010170000000000000000000064
:10003400101700000000000010170000000000006E
:100044001017000010170000101700001017000010
:100054001017000010170000E22A0000042B000013
:10006400242B0000442B0000642B00001017000018
:1000740010170000101700001017000010170000E0
:1000840010170000101700001017000010170000D0
:10009400101700001017000010170000842B000038
:1000A40010170000101700001017000010170000B0
:1000B40010170000101700001017000010170000A0
:1000C4001017000010170000101700001017000090
:1000D4001017000010170000C029000010170000BE
:1000E400101700003C280000101700001017000033
:1000F400101700001017000010170000142C000047
:100104002014000010170000101700001017000042
:10011400101700001017000000000000000000008D
:1001240000000000000000000000000000000000CB
:0C013400000000000000000000000000BF
:100140009305000273A04580824573901534924058
:100150002242B2424243D2436244F2440255925593
:100160002256B2564257D2576258F258064996491B
:10017000264AB64A464BD64B664CF64C065D965D13
:10018000265EB65E465FD65F096173002030EF32AF
:100190008003C52BFDBF23AC05FE1C4181E70CC1CC
:1001A0008280BA8703A787FF6DFF23ACB7FE8280EA
:1001B000411126C24AC0B744024006C622C403A960
:1001C000C42023A604200F10000009E923A624213F
:1001D000B240224492440249410182802A8421058E
:1001E000BD654205C18D4181EF10C00001CDFD57B5
:1001F00023200500231285002303F50023A62421D4
:100200002105F9B723A624210145D9B701114AC810
:100210004EC6B747024006CE22CC26CA83A9C720C5
:100220002A8923A607200F10000097270020938714
:10023000A7BB80438144014619E499E8A1654A853A
:10024000EF40406F15A08347E4FF639B270395CCE5
:10025000A68517250020130525B9EF40402779DC36
:10026000A1654A85EF402047F2406244B74702400B
:1002700023A6372126854249D244B24905618280AE
:1002800091E02286032484FF45BFA284E5BF97271F
:100290000020938767BA9C4399E33E85828003D709
:1002A00027006316B70003C70700E308A7FEDC4773
:1002B000E5B7B747024003A7C72023A607200F10C2
:1002C000000001C599C1814711E6B747024023A646
:1002D000E7208280B386F50003C80600B306F50068
:1002E000850723800601E317F6FEC5B737470240AE
:1002F0008327C720232607200F10000019C191C1B2
:1003000011E6374702402326F7208280910503A794
:10031000C5FF11057D16232EE5FEDDB737470240E8
:100320008327C720232607200F10000001C53307AD
:10033000C50011E6374702402326F72082800505D5
:10034000A30FB5FEE31DE5FEF5B7B747024083A650
:10035000C72023A607200F10000081473307F500B0
:100360000307070019E7374702402326D7203E85B9
:1003700082808507E5B7011126CA4AC8B7470240FF
:1003800006CE22CC83A4C7202A892E8623A6072046
:100390000F100000131506019305F004418132C6C9
:1003A000EF0050652A8401C53246CA851937228577
:1003B000F2406244B747024023A697204249D24404
:1003C00005618280B747024003A7C72023A6072004
:1003D0000F10000001C599C1814711EAB7470240DB
:1003E00023A6E720054582808507E309F6FE33084A
:1003F000F500B386F5000348080083C60600E30550
:10040000D8FEB747024023A6E72001458280B747C0
:10041000024003A7C72023A607200F100000930760
:10042000F6FFBE952A966317C500B747024023A67C
:10043000E7208280FD1583C715000505A30FF5FE93
:10044000DDB7374702408327C720232607200F1038
:10045000000001C53307C50019E6374702402326CF
:10046000F7200145828005058346F5FFE397B6FE38
:10047000E31BE5FE374702402326F720054582802F
:100480007971972700209387279B22D4804306D633
:1004900026D24AD04ECE52CC56CA5AC85EC669C081
:1004A000B7C4C901014B97290020938969989384A7
:1004B000F437172A0020130A6A98972A0020938A93
:1004C000EA92172900201309E99B8357240095E33A
:1004D0005C44631D0B0017270020232FF794832B08
:1004E000C4002285EF00F05F5E84A9A82326FB00EC
:1004F000FDB783A7090082971C443307F540637654
:10050000F500032749001D8F2A9763E0E408972729
:10051000002023A5078E8355240003450400EF40E7
:10052000801B5C405844A1CB0C4403264900AE9785
:10053000BE8663E4B70063E4C700B386C74014C453
:10054000228B3A8459F0972700209387278A9C4B67
:1005500005476372F706FD17172700202320F78A47
:10056000B250225492540259F249624AD24A424B42
:10057000B24B4561828063170B009727002023ADA3
:10058000E78AB1BF2326EB0099BF03278A0209CF70
:1005900063EFA7003385A74083A70A016376F500C0
:1005A0009727002023ACA784228B404461BF0327F8
:1005B0004900BA97C5B79727002023A107844DB7F4
:1005C00001114EC6B747024006CE22CC26CA4AC801
:1005D00052C483A9C72023A607200F1000001729A3
:1005E00000201309298A9727002083C7678A0325DB
:1005F0004900ADC39727002083D78795A1CF9727C0
:1006000000209387A78903A4070B6305A404971709
:1006100000209387A77D984B3E8A6307A7109724F5
:1006200000209384E4809C408297636BA40E9C40DE
:10063000098C829703270A016373E4002287B307BA
:10064000A7003E858326490063E4E70063E4D70002
:100650003385D740B747024023A637218327490077
:10066000639FA702171400201304447818489717B3
:1006700000209387E77B9C43631AA70A829783260F
:100680004900B74736FE938707C8B6973387A70058
:100690003A856364F7006364D7003305D7401724B5
:1006A0000020130464935C5081CF97270020938728
:1006B000679A94433707CDFF7D179C46F98F9CC6F8
:1006C00019E103254900854717270020232CF790BF
:1006D00097170020938787769C57829711ED5C507F
:1006E00099CB5C4489CBEF401071EF4010119727F4
:1006F000002023A9078E69335C5099CB97270020EF
:10070000938747959843B70633001C47D58F1CC77E
:10071000F2406244D2444249B249224A0561828091
:10072000832749003E9421B722852DB7829714482C
:1007300003274900B387A6003E8563E4D700E3E0C2
:10074000E7F63385E740A1BF23AAA18201C585470B
:10075000238CF1828280938741839C4381CF411116
:1007600006C6829783C7818399E323AA0182B24098
:100770004101828083C7818381E723AA018282802D
:100780008280411126C206C622C49717002083C763
:10079000277097140020938424689DE797270020F2
:1007A00083C7D783858B172700201307E78289CF5C
:1007B0008347770099466395F60C97270020A38F0F
:1007C00007802526DC4482979C4491C382971714A6
:1007D00000201304246618401716002003461661F3
:1007E0009717002083C7876093961700BA9683D621
:1007F0000600DDC29717002083C7475F63E8C70A7A
:10080000971700202384075E9717002083C7577D22
:10081000971400209384447C639607129717002056
:10082000938707619C43638A07109717002093877B
:100830006765DC43171700202322F75C9131971777
:1008400000209387A75F9C576389070E83C77400B6
:1008500011476364F70E9717002083C7677D918B5C
:10086000E9EF83C78183F1EB10409716002083C620
:10087000F65763C6D70E2244B2409244410189B371
:10088000834777001D47E311F7F497170020A387EC
:100890000774A12C9C4805BF850793F7F70F97169F
:1008A00000202385F654E3EDC7F2A9B786073E97EB
:1008B0008355070023100700971700202398075639
:1008C00097170020938707559C4317150020034571
:1008D000E55113172500BA979C438297971700207C
:1008E00083D7C754171700200347475093C7F7FF14
:1008F0007D8D9317170018403E97835707005D8D35
:100900002310A7009717002083C7474E91C785077C
:1009100017170020230CF74C9C4091C7829797171C
:10092000002023AB074E171700200347274C9717CB
:10093000002083C7B74BE375F7ECB24022449244E2
:100940004101828083C7740093F7F70FE39807ECA7
:1009500097170020A3860768EF403017C1B513979B
:10096000170032970357070069FB850719B7374708
:1009700002408326C720F177FD17F58F2326F72045
:10098000010001009717002093874746C84F83272F
:1009900087262326D7206A0593C7F7FF99835D8DA5
:1009A00082809717002083C7974499CF971700201C
:1009B00083C7074E81CF971700209387A74D03A3C6
:1009C0000700630703000283054582800945828092
:1009D0001305F00F8280971600209386265F9842B9
:1009E000411126C21C5F06C622C49983858BB6843A
:1009F000CDC3930700061CDF9717002083C7C75D90
:100A000093F70704171400201304045D9DC3971780
:100A100000209387E7419C4382979717002023ABE0
:100A2000A75C8347040093F7F70B171700202305F3
:100A3000F75A8347040093F707029DC383470400D6
:100A4000A16693F7F70D171700202307F75817171C
:100A500000201307E75A5C481843860714C77CD761
:100A60008347440093F707048DE785471717002055
:100A7000A306F75697170020938787589C4309676A
:100A800098C7130700FC971600202389E6541848DE
:100A9000F8D398401C5F9183858B81CBC1471CDFC5
:100AA000854797160020238BF6521C5F9D83858B0C
:100AB00089CB930700081CDF854717170020230FF9
:100AC000F75097170020938727509C43D8430583FE
:100AD000058B19C7D843759BD8C3D843799BD8C316
:100AE000B2402244924441018280971700209387AC
:100AF00027519443971700209387074E03C7070099
:100B0000058B09EB03C71700058B09E7F8527DF742
:100B100083C7570097170020A382074C82801718BD
:100B200000201308A84A032708001C5F9583858BC3
:100B3000BDEB09C61C5BBD832300F60085CA832775
:100B40000800985B4607935767016356070093E7D1
:100B500007C0C207C18303970600C207C18709C740
:100B6000BA970947B3C7E7022390F60095C18347B8
:100B7000150099CF3E95834795000547194593F693
:100B8000F7066393E602E207E187394563CE070083
:100B90008327080001459C5FED838D8B171700208C
:100BA000A301F744828005458280411122C406C614
:100BB000171400201304C44418403DE5AE87745355
:100BC000FDFE3E85B2859717002023880740EF4041
:100BD0008048971700209387673F9C43B7068000A3
:100BE0009843558F98C3D857719BD8D79717002033
:100BF000A386073E97170020A380073E1C400947A5
:100C000098C31440171700201307073D8347270098
:100C1000858B99E783473700858B99E3FC52FDF775
:100C2000B2402244410182808D476310F50297173C
:100C300000209387A7399C43B70680009843558FBF
:100C400098C3D857719BD8D76DBF8547E31BF5FA7A
:100C50005447F977FD17F58F5CC70F1000001C4053
:100C6000096798C7130700F8171600202308E6360F
:100C700017170020130787351043184231830D8B57
:100C800011E713076019F8D3D4C7A5BF1842094666
:100C900031830D8B6315C7001307E043EDB71307CE
:100CA000E01BD5B75D7152DC171A0020130A0A3217
:100CB00003270A0086C6A2C4A6C2CAC04EDE1C43D1
:100CC000971900209389093917190020130949330E
:100CD00093F7F7E793E707081CC383A609003707D4
:100CE000CEFF7D179C46130680022A84F98F9CC68E
:100CF000832709002800AE8423A807049305100861
:100D0000EFF0CFE13545EF40E06E83270A009376A0
:100D1000F41F3706330023A40700984B370FFCFF5E
:100D20004E881367F70398CBF84FCA88130510F85D
:100D3000137707E0558FF8CF9843F576FD16758F3A
:100D400098C317170020A30B07288326090017173D
:100D50000020A3030728054798C29843D285B7020D
:100D600004001377F7E798C398439303802511494C
:100D70001377F7E71367071098C303A709007D1FD0
:100D800085491C47930F8002D18F1CC7930790059C
:100D9000BCCA01473400135337002693834703002E
:100DA00013767700B3D7C740858BDDCF9C41832E68
:100DB0000800239C07042390070603AECE02137E8F
:100DC000DEFF23A6CE0383AE0700137EF70793FE54
:100DD0000EF833EECE0123A0C70103AE4702336EF7
:100DE0005E0023A2C70383AE0800014E23A27E0645
:100DF00003DA070663074E0303AE0703038A060000
:100E0000135EFE00620E135E8E416358CA0103AE8C
:100E10000703135EFE002380C60103DE0706137E70
:100E2000FE0F03AA4E0663060A0003DA8705E37F76
:100E300049FB03AE4702337EEE0123A2C70383873B
:100E40000600635CF400034E03003396C9001346AA
:100E5000F6FF3376C6012300C3003E8663D3A700A6
:100E60002A8613158601618505071377F70F850616
:100E7000E313F7F3B640264496440649F259625A02
:100E80006161828097170020938787179C43D8471A
:100E90009316170163D5060298479316170163D07E
:100EA00006027D57B8D717170020130727F4584FAD
:100EB00005079716002023A9E6F4116798C79847FD
:100EC0000D83058B1DC317170020034707111367F8
:100ED0001700971600202382E610130700F89716D4
:100EE0000020238DE60E214798C79847058B09CF30
:100EF000171700200347570E136717009716002097
:100F0000A38CE60C054798C798470983058B09E72A
:100F100098470583058B35C317170020A300070CDE
:100F20009847171600201306260B97160020938665
:100F3000E6090983058B9442B28563000710984245
:100F400031830D8B65EBB04BD85113760602034706
:100F500017005DCA69EF1307D005D8CF03C7050096
:100F600013671700171600202308E606114798C7D5
:100F7000D856719B13671700D8D698479316370138
:100F800063D606029716002083C606F9C18A171792
:100F900000201307A7F0C5CE0347C7071367070252
:100FA00097160020238AE6F6056798C79847931698
:100FB000270163D1060217170020034727026207A3
:100FC0006187635707000547971600202388E600CE
:100FD000096798C798479316070163D606029716C4
:100FE000002083C676F3858A17170020130707EBC6
:100FF000ADCE0347D7071367270097160020A38DB0
:10100000E6F0216798C7828039D705466315C70087
:101010001307100699B709466315C7001307500652
:101020002DBF0D466315C700130790063DB7130784
:10103000B00625B71307C0060DB703473600136780
:10104000170017160020A30AE6F809470DB78346D4
:10105000C7070946BD8A6388C6000347C7078D4690
:101060003D8BE313D7F4114725BF8346D707918AF9
:10107000C9DA0347D7071367870041B797170020DE
:10108000938707F89C4398479716002023A2E6F61B
:10109000944717170020130727F48D82858A8DC285
:1010A0008346270093E61600171600202307D6F282
:1010B000930600F8171600202302D6F2A14694C723
:1010C0009447858A99CA8346170093E61600171637
:1010D0000020A303D6F0854694C794478982858A69
:1010E00089E694478582858AA1CE97160020A3873A
:1010F00006EE944717160020130646ED104289822B
:10110000858AD5C21442B1828D8AD9EAAC4B545338
:1011100093F5050283C61600B1CDC1E29306D00552
:10112000D4CF8346070093E6160097150020238549
:10113000D5EA914694C75456F19A93E6160054D6D0
:10114000944713962601635F060003474700620732
:101150006187635707000547971600202380E6E85C
:10116000096798C798479316070163D4060021675B
:1011700098C78280C5D685456395B600930610064C
:1011800045B789456395B6009306500651BF8D4516
:101190006395B6009306900661B79306B00649B70B
:1011A0009306C006B5BF8346370093E61600971531
:1011B0000020A384D5E28946B5BF97170020938706
:1011C00027E498438567938707777CD39717002098
:1011D000938747E89C4383A60709139656006358F4
:1011E000060083A60709139666006344060074533D
:1011F000FDF28280411122C4B747024006C603A413
:10120000C72023A607200F10000011C199E5B7479A
:10121000024023A6872001457DA893073500C20719
:10122000C183F19BC207C183130740036369F702BF
:10123000171700201307C7E90843171700201307E3
:10124000A7E814436392A60217170020130707BFED
:10125000585B55DFC207DD8D054502974DBF171757
:1012600000201307A7E6C9BF035765002DEB0357FE
:1012700045006366F706B306F7402146637CD60255
:1012800003280500938687001D8FAA9661171716FD
:101290000020035606B62392E60023A006012393FE
:1012A000060014C12312F500130786FF97160020CD
:1012B0002391E6B42313B5009715002083D565B3B9
:1012C000B387F540171700202315F7B2B747024040
:1012D00023A687202105B240224441018280084193
:1012E00095B7B747024003A8C72023A607200F10D1
:1012F000000001E523A6072182809717002093872D
:1013000027DD03AE0700971700209387E7DB03A3D1
:1013100007008146F28763F0670C83A80700636FBC
:10132000F50A63EDA80A138787006366E50A03D60A
:101330006700216705076317E60003C79183050768
:10134000A38CE18297150020938545AA03D6470018
:1013500003D765002393070032974207418317158F
:1013600000202318E5A8638AC7031715002013057A
:10137000E5D508416303F50203D5660019ED83D76F
:10138000460023A0160121073E9621062392C6009F
:1013900097170020239FE7A4B6879843630D670241
:1013A00097160020938686D294426306D70283560E
:1013B000670095E283D64700035647001843A1060D
:1013C000B2962392D70098C383D76500A107171759
:1013D00000202310F7A2B747024029BFBE86C68768
:1013E0001DBF971700209387A7CE971600209386DE
:1013F000A6CD9C4390422A87B305B5406314F600FE
:101400003A8529A8938687009C43E369D7FEE37752
:10141000F7FE2E85E3E4D5FEE3F2F5FE82800000C0
:10142000197106C212C416C61AC81ECA22CC26CE0C
:101430002AD02ED232D436D63AD83EDA42DC46DE34
:10144000CAC0CEC2D2C4D6C6DAC8DECAE2CCE6CEA4
:10145000EAD0EED2F2D4F6D6FAD8FEDA93854182FB
:101460008841E700050092402242B2424243D24303
:101470006244F244025592552256B2564257D25710
:101480006258F25806499649264AB64A464BD64B08
:10149000664CF64C065D965D265EB65E465FD65F90
:1014A0000961730020300000EFF0EFAA7300000024
:1014B00000000000938281830383020023800200E6
:1014C000630F0300F32510342EC0970500009385A9
:1014D000E5FD73901534EFF07FBA7300203086DCA1
:0C14E000EFF05F9AE650828000000000F0
:1014EC00EF12B04D93970501C1872E8463DA070480
:1014FC00EFE01FD1AA841DC90C21C147639CF502E2
:10150C00B707002003C507098945EF30001C1D658E
:10151C00130585FCEF10B06390308C201D6513050E
:10152C00C5FFEF10F04E2685EF20907B2165218DB5
:10153C006F10F04A1D6513050502EF10704DE5B7ED
:10154C0093F715008DCF3145EFE0DFC5AA840DC5AB
:10155C00C5471CA1B7050020930770071CB19385E4
:10156C00050029460905EF105048B707002003C5B0
:10157C001709A685EF20707B1345140055BF13F592
:10158C0025005DD51D6513054503EF10505C134513
:10159C00240079BFEF12D04093970501C1872E84A8
:1015AC0063D60706EFE0DFC5AA8439C50C21C54711
:1015BC006398F5041D651305C507EF10505990305D
:1015CC008C201D651305C5FFEF1090441D65130598
:1015DC00050BEF10F043138924009389C4001D6A96
:1015EC008345090013058A0B0509EF107042E39936
:1015FC0029FF2685EF20D06E2165218D6F10903D3F
:10160C001D6513050502EF10B040E5B793F7150003
:10161C009DC7854513059002EF10004AB7070020BF
:10162C0003C51709130600328945EF3000131D65F9
:10163C001305C50BEF10B05113451400C1B793F748
:10164C00250085CF814513059002EF10E0461D65FE
:10165C001305C50DEF10B04FB704002003C51409D6
:10166C00130600648545EF30400F03C514099145FE
:10167C00EF30A0051345240051B713F545003DDDAF
:10168C001D651305C50FEF10904C0945EFE09FB198
:10169C00AA8501CDC1471CA1930750051CB1B70702
:1016AC00002003C50709EF20506813454400B9B763
:1016BC00EF12B03005651305055AEF308041370441
:1016CC000020A308A40805651305C54EEF30604043
:1016DC00B70400202388A408034514098545EF208E
:1016EC00D07E03451409130600648945EF30E006EB
:1016FC0003C504090566130606C88545EF30A01B13
:10170C006F10F02D01A097F1FF1F9381E11717F1D6
:10171C0000201301618E176500001305251E97F537
:10172C00FF1F9385658D1386C18163FAC5008322E3
:10173C00050023A0550011059105E3EAC5FE1385AC
:10174C00018297150020938565986377B500232057
:10175C0005001105E36DB5FEFD42739002BC8D4290
:10176C0073904280930280087390023097F2FFFFCF
:10177C009382C28893E2320073905230EF10604C27
:10178C009712000093820249739012347300203038
:10179C00EF12B022B727014093870740631CF50076
:1017AC008545130500205D23814513050020792B09
:1017BC006F10F022B737014093870780E31AF5FECC
:1017CC008545130500405923814513050040C5B7D5
:1017DC005841B707F1E09387F7EF944D7D8F9C410B
:1017EC00D58FD44DD58FD441A206D58FD98F5CC15E
:1017FC001845B7F7F1FF9387D77FD4457D8F9C4968
:10180C00D58F94458606D58FD98F1CC55855B707EB
:10181C0010FFFD177D8FDC29FD1793F7F70FD2070B
:10182C00D98F5CD582801C4589C593E717001CC5F0
:10183C008280F99BEDBF1C4591C537075000D98FAD
:10184C001CC582803707B0FF7D17F98FD5BFA54720
:10185C0063F7B7048D47138765FF3307F702032837
:10186C00C5009D47B397E70093C7F7FFB3F7070190
:10187C00B396E600DD8E54C5994763E3C7049547DC
:10188C007D163306F6025859FD47B397C70093C728
:10189C00F7FFF98F3396C5005D8E50D982800D47C6
:1018AC003387E502032805019D47B397E70093C7EB
:1018BC00F7FFB3F70701B396E600DD8E14C96DBFD1
:1018CC00B14763E2C702954765163306F60218590D
:1018DC00FD47B397C70093C7F7FFF98F3396C50041
:1018EC005D8E10D9828095474D163306F6025855F9
:1018FC00FD47B397C70093C7F7FFF98FB395C500A2
:10190C00DD8D4CD582806845420541818280B727A8
:10191C00014093870740984711C5B7068000558F43
:10192C0098C78280B70680FFFD16758FD5BF1C4106
:10193C0033F5F5003335A00082805C4191C5370743
:10194C000004D98F5CC18280370700FC7D17F98FAA
:10195C00D5BFB7070140938707409443DC4B2A87D8
:10196C007D8D01C5F98E3335D0008280B7070140DB
:10197C0093870740C8CB8280B7066745B7270240DC
:10198C00938636123797EFCDD4C31307B79AD8C3C3
:10199C00D4D3D8D38280372702401C4BA166D58F75
:1019AC001CCB8280B7270240984BB70602001375F8
:1019BC0005F0558F98CBC8CB984B1367070498CB81
:1019CC00D847058B75FF984B8176FD16758F98CB94
:1019DC008280372702401C4BC166137505F0D58FEA
:1019EC001CCB5C47858BF5FF372702405C47898B06
:1019FC00F5FF3727024013060010B386F50003A845
:101A0C000600B386A70023A006015447898AF5FE79
:101A1C009107E394C7FE1C4BB7062000D58F1CCB57
:101A2C00B7270240D847058B75FF984BC176FD163A
:101A3C00758F98CB828037F7FF1F8327877E93D6CD
:101A4C0087001CA114B193D60701E18334A13CB1EA
:101A5C008327C77E5CA1A1835CB182809C4513F770
:101A6C00070113F8F70001C7D8413368E8008E214D
:101A7C0013F7F50F31C318418146054E930E8002C2
:101A8C003D4F930F800421433316DE00B3F8C5009D
:101A9C0063101603639AD70750C913962600B31820
:101AAC00CF0093C8F8FF33F7E8003316C800518F06
:101ABC008506E39B66FC18C11307F00F6375B7042A
:101ACC0054410146054E930E8002130F80042143AE
:101ADC00130786003317EE00B3F8E5006311170304
:101AEC006398D70358C9931826003D47331717013D
:101AFC001347F7FFF98EB3181801B3E6D8000506A3
:101B0C00E31866FC54C18280E399F7F910C971B7E8
:101B1C00E39BE7FD18C9C1BF19C20CC982804CC92F
:101B2C00828003A70182854714216310F7021C31C0
:101B3C00639CE7023C21960793E707F837E700E040
:101B4C0093F7F70F36972300F740054793D75600C6
:101B5C003317D700544189CE938707048A07B7E619
:101B6C0000E0B69798C38280EDF33C219607F9B755
:101B7C0093870706B7E600E08A07B69798C30F105D
:101B8C0000008280377700401C4309C593E707109B
:101B9C001CC3828093F7F7EFE5BFB7160240DC4217
:101BAC0051777D17F98FC98FDCC28280B71702403D
:101BBC00238007022380070205476306E5001147CF
:101BCC006306E50082802380A7028280154723806C
:101BDC00E7028280371702405C5309C593E7170070
:101BEC005CD38280F99BEDBF371702401C53C98F21
:101BFC001CD3828001C9371702401C53A166D58FB4
:101C0C001CD38280B71602409C5261777D17F98FE6
:101C1C009CD28280371702405C439146B18B638023
:101C2C00D70CA1466392D70C5C435843C166C98359
:101C3C00BD8B758F8907C5466393D700C94701EFE4
:101C4C003747024003270780418B49C737177A0073
:101C5C001307072029A8B7160240D8423706C00040
:101C6C00718F6314C7063727F40013070740B38737
:101C7C00E7021CC1371602405442370700201307F5
:101C8C00C7009182BD8ABA969422B3D7D7005CC1A3
:101C9C005442A1829D8ABA969422B3D6D70014C519
:101CAC005442AD829D8A36971823B706002093863E
:101CBC004609B3D7E7005CC5584239830D8B36977C
:101CCC001823B3D7E7021CC98280D842B70602009A
:101CDC00758F2DDF37173D001307079049BFB75796
:101CEC00E8019387078071B7B7177A0093870720AD
:101CFC0049B799C5371702405C4BC98F5CCB8280C2
:101D0C00B7170240D84B1345F5FF798DC8CB8280AD
:101D1C0099C5371702401C4FC98F1CCF8280B7174B
:101D2C000240984F1345F5FF798D88CF828099C575
:101D3C00371702405C4FC98F5CCF8280B7170240C7
:101D4C00D84F1345F5FF798DC8CF828099C53717C9
:101D5C0002405C47C98F5CC78280B7170240D847E6
:101D6C001345F5FF798DC8C7828005458280B7374A
:101D7C00004003D74780136707012392E7808280D6
:101D8C003737004083574780C207C183BD9BC207CA
:101D9C00C1832312F7808280B73700409387078076
:101DAC00962F9A2F131607014182E39BE6FEB73755
:101DBC00004093870780D62FDA2F13150701418136
:101DCC00E39BE6FE37370040130707800E2F162FD4
:101DDC0093970601C183E39BD5FE630DF60037375D
:101DEC00004013070780522F562F1395060141818F
:101DFC00E31BD6FEC2075D8D8280EF12003C2A8465
:101E0C00BD3713570401B73700404204239CE780C9
:101E1C004180239E8780AD376F10603CEF12E03914
:101E2C002A84B13713570401B73700403D8B420465
:101E3C002394E78041802396878099376F10203A4E
:101E4C0037370040130707805E2393F70702EDDF57
:101E5C008280B737004003D747801345F5FF698F61
:101E6C002392E7808280F5B7EF12203203A701811D
:101E7C00B727024083C697049169938DC70293F6E6
:101E8C00060FA38EDD0083C6DD01B79AE4FF938AAB
:101E9C000A8C93F6F60FA38EDD00938609E8B34700
:101EAC00D702B7460F00938606240964130404F482
:101EBC00B7CB0D003314A4001306803E938B0BBAE2
:101ECC0001118544B394A400AA8C014A014C1169F8
:101EDC00617BFD19B346D7023EC6B34A57033304A0
:101EEC00D402B30750413EC8B34B77033347C70204
:101EFC00B387C602930600101306C02E3344D402D7
:101F0C0091463ECAB3C4D402931734003ECC330777
:101F1C00C7022566130606CAB384E402334DC70212
:101F2C00B3C4C402050A137AFA0F094403C73D026D
:101F3C0013672700A381ED0203D70D023367270136
:101F4C00420741832390ED0203D70D0233676701EB
:101F5C00420741832390ED0203D70D0242074187CC
:101F6C00E35C07FE03D70D0203C73D021377D70FBF
:101F7C00A381ED0203C73D0213672700A381ED0285
:101F8C0003D70D0233672701420741832390ED02EB
:101F9C0003D70D0233676701420741832390ED029B
:101FAC00E53B2A873ACECD3B7247E30DE5FE03D7DE
:101FBC000D0233672701420741832390ED0203D7BB
:101FCC000D0242074187E34C07FE03D70D0242077F
:101FDC004187E35C07FE83D60D0203C72D02B2478F
:101FEC00B3F6360133073703BA969D8E63D5DA0004
:101FFC00C24763CAF60263688403050C1397160084
:10200C0033477703137CFC0F635DD000050783D641
:10201C00AD00334787023697420741832395ED0085
:10202C0031B77D17EDB703C7DD011377070FA38E0B
:10203C00ED0003C7DD0113672700A38EED0003C776
:10204C003D021377D70FA381ED0203C73D0213673F
:10205C002700A381ED0203D70D0233676701420706
:10206C0041832390ED0203D70D023367270142070A
:10207C0041832390ED0203D70D0242074187E35CB5
:10208C0007FE03D70D0203C73D021377D70FA381B9
:10209C00ED0203C73D0213672700A381ED0203D7AE
:1020AC000D0233676701420741832390ED0203D78A
:1020BC000D0233672701420741832390ED02E93972
:1020CC002A873ACED1397247E30DE5FE03D70D02CC
:1020DC0033672701420741832390ED0203D70D029A
:1020EC0042074187E34C07FE03D70D0242074187A5
:1020FC00E35C07FE03D70D0283C62D02D24733776C
:10210C003701B386360336971D8F9306800C635FB9
:10211C00E0023307D7023347A70305078946334745
:10212C00D702635BE00283D6AD001306F07F958285
:10213C00BA96635FD6180D476317EA1A03D7AD003A
:10214C0089668116558F4207418335A03307D70224
:10215C003347A7037D17D9B7630C071683D6AD0099
:10216C003306E040958263D5C6160D476316EA1414
:10217C0003D7AD007D8B2395ED0003C7DD011377ED
:10218C00070FA38EED0003C7DD01336797011377AB
:10219C00F70FA38EED0003C73D021377D70FA38172
:1021AC00ED0203C73D0213672700A381ED0203D79D
:1021BC000D0233676701420741832390ED0203D779
:1021CC000D0233672701420741832390ED0203D7A9
:1021DC000D0242074187E35C07FE03D70D0203C7DC
:1021EC003D021377D70FA381ED0203C73D0213679E
:1021FC002700A381ED0203D70D0233676701420765
:10220C0041832390ED0203D70D0233672701420768
:10221C0041832390ED0249362A873ACEB53E724768
:10222C00E30DE5FE03D70D02336727014207418317
:10223C002390ED0203D70D0242074187E34C07FEC2
:10224C0003D70D0242074187E35C07FE03C73D023B
:10225C001377D70FA381ED0203D70D0283C62D028E
:10226C00E24733773701B386360336971D8F9306D3
:10227C00800C6354E0063307D702334797020507F7
:10228C0089463347D7026356E00683D6AD00130662
:10229C00F07F9582BA966354D6080D476315EA040D
:1022AC0003D7AD0089668116558F4207418323956C
:1022BC00ED0005616F00307103D7AD0085661377B3
:1022CC00F70F8116558F420741832395ED0099B97D
:1022DC0083D6AD0016073697BDB53307D702334703
:1022EC0097027D1771BF03D7AD00A1661377F70F67
:1022FC00C9BF15C783D6AD003306E040958263D0C5
:10230C00C6020D476316EA0003D7AD007D8B45B7B7
:10231C0003D7AD001377F70F1367077E7DB7B7268A
:10232C000240FE3A1607BA97C207C183FEBA51B7EC
:10233C00EF02B0681A29F577FD177D8FFE219625DF
:10234C000111D98F1EA9DE215A252A84D58FB625D5
:10235C00AE84D58FFD769386369F758FD98F5EA50B
:10236C005E29DA25C207C18393F7F7CFD98F5EA90F
:10237C006800EFF03F8AB7470140938707806316E8
:10238C00F404E2476545B335F502904081460A06F0
:10239C003305F502EF001025930640063357D5029E
:1023AC001306F063120793574700B387F602B3077F
:1023BC00F540920793872703637BF600410742079A
:1023CC0041831AA405616F009061D24765BFB3D7F2
:1023DC00D7025D8FEDB75E2589C50967D98F5EA5DC
:1023EC00828079777D17F98FDDBF13F7F50F85475D
:1023FC001583B395B7006319F7009307C50098438D
:10240C0001CE4D8F98C38280894693074501E3180E
:10241C00D7FE93070501E5B793C5F5FFF98D8CC37E
:10242C00828093F5F51F4EA1828093C5F5FFC205FE
:10243C00C1810EA1828093F6F50F054695822A87FD
:10244C00B317B6006391C602562533F5F6001E236A
:10245C00C207C18301C9A18105473317B700F98FA2
:10246C003335F000828009466394C6001629F1BF0B
:10247C005629E1BF0D45CDBAEF023054B287139601
:10248C002500AA853E85EFD01FE201456F0030552F
:10249C00EF02B052411132C62A84EFF0EFCD228503
:1024AC00EFF04FD0B2452285EFF0AFD2EFF0AFCEC8
:1024BC000545C126014541016F007052EF02F04CF9
:1024CC0039711306000281450810EF007053372450
:1024DC00014013040440B717024083AD870103ADDC
:1024EC004700832C4400032C8400832BC402032B51
:1024FC000403832A4403032AC40083290401032907
:10250C0044011C4C8545130500203EC45C4CB7248B
:10251C0001403EC61C503EC85C503ECA1C543ECCCA
:10252C001C5C3ECEEFF0CFFE3165EFF00FE722855D
:10253C00EFF00FA6B7070E003ED60C10854722858C
:10254C00230AF10202D002D202D402D8EFF04FA833
:10255C0085452285EFF02FAD85452285EFF0EFBD47
:10256C000545EFF0CFBA9D460546C1452285EFF0F3
:10257C000FAE85452285EFF00FAC89452285EFF033
:10258C000FBB65DD13850440EFF0EFB72A8413858C
:10259C000440EFF0EF9FB717024023ACB70123A222
:1025AC00A7019384044023A2940123A4840123A6AD
:1025BC00740323A8640323AA5403A24723A644014B
:1025CC0023A8340123AA24019CCCB2472285DCCC5D
:1025DC00C2479CD0D247DCD0E2479CD4F2479CDC6B
:1025EC0021616F00503EEF02503D93970501C1876A
:1025FC002E8463DB0700EFD0BFC019C1EF10506E03
:10260C002165218D6F00B03D93F7150013C51500A2
:10261C00F5FB8964B3F7950095C3EF20506D993D98
:10262C0037F60200130606E0896503C58182258C06
:10263C00EF20A012131504014181E9B7916433F521
:10264C00950069D11D651305C511EF005050130697
:10265C0000649165D9BFEF02503685679D651D6595
:10266C005D719387474B5546938505121305856F0E
:10267C0023A2F182EFD05FD419E51D6513058513F4
:10268C00EF00F04C01A0B7270240D857B7060090D6
:10269C00FD16758FD8D7D857B7060030130600042F
:1026AC00558FD8D7D857B70600038145558FD8D743
:1026BC000808EFD0FFC5B70700209387471E3EC818
:1026CC008967938707C0FC82B7870708938707C081
:1026DC003ECC93073050FC87ED472310F1028967FD
:1026EC0093874748BEC489679387C749BEC691671D
:1026FC00938707E82317F10285649307803E23181C
:10270C00F102938794D02312F10289679387874C47
:10271C003EDE89679387074805442800BEC0230125
:10272C008102EFF04FB1A2473ED43C862316F10252
:10273C00C24781C7BC8263F3970001A00808EF2051
:10274C00003DAA8519C51D651305C514EF00502C55
:10275C0001A0854513050004EFF0AFD9B7E700E001
:10276C003707008023A2E71023A4871061616F0054
:10277C001027EF02902409651305255FEF206035C3
:10278C002384A1821D2003C5818237F60200130623
:10279C0006E08965EF10707C03C581821306006426
:1027AC009165EF10907B6F009023EF021021411187
:1027BC0085453705001802C002C202C402C6EFF0FC
:1027CC000FD70545EFF00FBC0545EFF0AFC0014545
:1027DC00EFF0CFBD13050020EFF00FC10545EFF072
:1027EC006FC1EFF0EFE5EFF0AFE50545EFF00FE36C
:1027FC00EFF00FE50145EFF04FE0EFF06FE49D399E
:10280C00FD573EC2B747E803938707E83EC4896784
:10281C00938747DA0A853EC0EF20604B19C5AA851D
:10282C001D651305C516EF00B01E41016F00301B6E
:10283C0005473705020023A6E182EFF02F930945E7
:10284C00EFF06FE2EFF0CFDF7300203083A7018150
:10285C0037177A0013070720B3D7E70293F7F70F60
:10286C002389F1821307803EB387E7022398F18214
:10287C008280B7F700E0D8438146799BD8C303C761
:10288C0021833306A70290CBD4CB9843136707015F
:10289C0098C398431367170298C3D843058B75DF09
:1028AC009843799B98C38280EF02301179712A8406
:1028BC0085453705020002C602C8EFF04FC78545B3
:1028CC001145EFF0EFC49147FC82371501408D475D
:1028DC003ECC4C08E147130505803ECEEFF00F9837
:1028EC0022D037440040B70708000C1013050440F1
:1028FC003ED402D223160102EFF09FA3130504402D
:10290C00054693055052D534054693056062130570
:10291C000440E13C930760237C8689475C87680010
:10292C0085473EC8EFF0EF9F85451305044065349D
:10293C0045616F00D00AEF02B00637440040AE8903
:10294C00B2840149130404406345990026856F0045
:10295C00700883C7C180F5DF01469305606222854C
:10296C00EFF0BFA8B38729018385070022850509ED
:10297C00C205C181EFF0FFAA05469305606222856E
:10298C0023860180EFF07FA6C1B7AA8703A58180BB
:10299C00372700201307470DAA9763EBE70037078B
:1029AC000120130707806365F70023A4F180828060
:1029BC007D558280411122C6374400409305505208
:1029CC0013050440EFF03FA719C5930550521305AA
:1029DC000440EFF09FA53744004093056062130557
:1029EC000440EFF05FA511C90547930500041305DA
:1029FC0004402386E180EFF05FA332444101730071
:102A0C0020309307F00363EBA7009D6712059387B3
:102A1C00872FAA97C84301C53E85828001458280D5
:102A2C00B707002012059387470EAA97D84319C3FE
:102A3C00884702878280EF02407885451145EFF088
:102A4C002FAD85452145EFF0AFAC85454145EFF005
:102A5C002FAC854513050002EFF08FAB01456F00DD
:102A6C000078EF02807541112E8402C202C402C6A6
:102A7C00493F05C91E257C828D473EC4914763E2C0
:102A8C0087029D67938747180A043E941C408287EF
:102A9C009307800248414C003EC6EFE03FFC0145E5
:102AAC0011A0795541016F00807393078004DDB745
:102ABC00D147CDB7C147F9BFEF0220702E849137B3
:102ACC0009C90E2548411306F4FF13361600EFF022
:102ADC00AF846F00C070EF02406E73110134054576
:102AEC00EFE03FE711C50145253F0545EFE01FE845
:102AFC00731101346F00A06EEF02206C731101345E
:102B0C000945EFE01FE511C50545193F0945EFE003
:102B1C00FFE573110134E1A5EF02206A7311013452
:102B2C001145EFE01FE311C50945DD3D1145EFE00F
:102B3C00FFE37311013465A5EF02206873110134B2
:102B4C002145EFE01FE111C50D45D93D2145EFE0D1
:102B5C00FFE17311013461A5EF022066731101349A
:102B6C004145EFE01FDF11C511455D3D4145EFE0EB
:102B7C00FFDF73110134A5A5EF022064731101343A
:102B8C0013050002EFE0FFDC19C51545513D130597
:102B9C000002EFE0BFDD13050004EFE09FDB19C579
:102BAC001945BD3D13050004EFE05FDC130500087B
:102BBC00EFE03FDA19C51D45A53513050008EFE018
:102BCC00FFDA13050010EFE0DFD819C52145893D68
:102BDC0013050010EFE09FD913050020EFE07FD71D
:102BEC0019C52545353D13050020EFE03FD873117D
:102BFC000134F5A373002030B707EFBE37E700E0D0
:102C0C00938707083CC701A0EFD03FDC730020304E
:102C1C00EF02A05A212A1D3971651305052069316F
:102C2C001D651305856F2527EFF0FFA2EFF07FB42C
:102C3C0019358545130590022D35EFE07FA7EFD0B0
:102C4C004FD4B71702409843B706FFF041111367F2
:102C5C00170098C3D84337060200758FD8C3984322
:102C6C00B706F7FEFD16758F98C39843B706FCFFA1
:102C7C00FD16758F98C3D843B70601FFFD16758FE7
:102C8C00D8C337079F0098C702C402C69843C166D1
:102C9C00558F98C3B716024005679C42F18F3EC60C
:102CAC00A24785073EC4B24781E7A247E397E7FEF8
:102CBC00B71702409C4337070200F98FB5C7854709
:102CCC003EC632478547631FF704B7170240D84307
:102CDC00B706C1FFFD16D8C3D843D8C3D843136772
:102CEC000740D8C3D843758FD8C3D843B7063D0027
:102CFC00558FD8C39843B7060001558F98C3B706B4
:102D0C0000029843758F75DFD843B7160240719B4C
:102D1C00D8C3D84313672700D8C32147DC42B18BF3
:102D2C00E39EE7FE4101828002C661BFEF02E048EC
:102D3C00371702405C439146B18B638BD708A14691
:102D4C00639DD70840435C43416749803D88F98FB8
:102D5C00090445476313E400494481EFB747024037
:102D6C0083A70780C18BA5C3B7177A009387072069
:102D7C0015A0B7170240DC433707C000F98F639DDD
:102D8C00E702EFE09FFE85476318F502B727F400D2
:102D9C00938707403304F402B7170240D843B707B0
:102DAC0000209387C70111833D8BBA979C23335422
:102DBC00F40023A8818025A1B7170240DC43370714
:102DCC000200F98FD5D3B7173D0093870790D9B779
:102DDC003754E80113040480C1B737147A00130484
:102DEC0004205DBF3288AA882E87DDEA63F1C51006
:102DFC00C167636DF618B7070001B337F600B30768
:102E0C00F040E19BE1073353F600975600009386A0
:102E1C00A68F9A96942213030002B697B306F3403A
:102E2C00630BF3003397D500B357F5003318D60076
:102E3C005D8FB318D500135608013355C70293168E
:102E4C000801C18293D708013377C702B385A60264
:102E5C004207D98F63FAB700C2971307F5FF63E4F3
:102E6C00070163EDB7303A858D8F33D7C702C2089F
:102E7C0093D80801B3F7C702B386E602C207B3E8DA
:102E8C00F80063FBD800C2989307F7FF63E50801CD
:102E9C00791763E3D8003E874205598D81458280BE
:102EAC0063F5D500814501458280C16763E7F6185B
:102EBC00B7070001B3B7F600B307F040E19BE10799
:102ECC0033D8F600175700001307078442971823CE
:102EDC00930800023E973388E8406394E81863E156
:102EEC00B6283335C50013451500814582804DC683
:102EFC00C167637FF62413370610134717000E07BC
:102F0C00B356E6009757000093870780B6979C232B
:102F1C0093060002BA97B38EF640639EF608B38709
:102F2C00C5409356060142064182854533D5D702EA
:102F3C0013D70801B3F7D7023303C502C207D98FE1
:102F4C0063FA6700C2971307F5FF63E4070163E4B4
:102F5C0067223A85B387674033D7D702C20893D824
:102F6C000801B3F7D7023306C702C207B3E8F8006B
:102F7C0063FBC800C2989307F7FF63E50801791754
:102F8C0063E3C8003E874205598D82809337061053
:102F9C0093C717008E0785BD81469747000093871E
:102FAC00A776B6979C23014793060002BA97B38E77
:102FBC00F640E386F6F63318D60133D3F500935674
:102FCC000801335ED30213160801B395D501418273
:102FDC00B357F500CD8F13D70701B318D501337351
:102FEC00D302B305C603420333676700637BB700A4
:102FFC0042971305FEFF636C0717637AB716791EA9
:10300C0042970D8F3355D702C207C1833377D7024E
:10301C003303A6024207D98F63FB6700C2971307DD
:10302C00F5FF63E2071563F067147915C2979315E2
:10303C000E01B3876740C98DD5BD93B7061093C7F2
:10304C0017008E0733D8F600174700001307C76B1D
:10305C0042971823930800023E973388E840E38098
:10306C00E8E8335EE600B3960601336EDE00B3D8B3
:10307C00E500935E0E01B3D7D80313130E01B3957D
:10308C000501135303013357E5004D8F9356070188
:10309C0033160601B3F8D803B305F302C208B3E63E
:1030AC00160163FBB600F2969388F7FF63E3C60D37
:1030BC0063F1B60CF917F2968D8EB3D5D603420791
:1030CC004183B3F6D603B308B302C206558F637BB4
:1030DC00170172979386F5FF6369C7096377170920
:1030EC00F9157297C207C16ECD8F9386FEFFB3F5AB
:1030FC00D70013D30701F18E4182338ED5023307EB
:10310C001741B306D30293580E01B385C502B69589
:10311C00C6953303C30263F3D500769393D60501AA
:10312C009A966363D7026305D7003E8581458280FA
:10313C00C166FD1633F7D5004207337EDE0033152A
:10314C0005017297E373E5FE1385F7FF81458280D5
:10315C00B70700016377F6029356060141475DB34A
:10316C008145054582803A85D9B5B685A5BF2A8E9D
:10317C0049BDC68791B77915C297E9BB7915C29736
:10318C00E5B1935686016147B5BB397101436EC6F3
:10319C0019A0397141536AC866CA62CC5ECE19A0B7
:1031AC00397101535AD056D252D44ED64AD826DA57
:1031BC0022DC06DE33016140828241114AC026C204
:1031CC0022C406C68282B24D4101024D924C224C61
:1031DC00B24B4101024B924A224AB2494101024987
:1031EC0092442244B240410182802A8309CA8383DB
:1031FC000500230073007D16050385056DFA82809A
:10320C002A8311C62300B3007D16050365FE828058
:10321C005D7122D406D62A842EDA32DC36DEBAC0B0
:10322C00BEC2C2C4C6C603A5418111C51C4D81E7EF
:10323C002AC6912B32450C455418228636CEEF0007
:10324C001021B250225461618280011126CA06CE2F
:10325C0022CC4AC84EC652C4AA8419E11C4502901D
:10326C001C4D2E89ADE305239C4C8044B9CF974768
:10327C0000009387675D631DF404C0407C50858B10
:10328C0099E75E2493F7072099E3284C8D2D5E2453
:10329C00A18B99C31C48D5E3A28526859D2A51CDC7
:1032AC00FD547C50858B99E75E2493F7072099E3B6
:1032BC00284CB925F24062444249B249224A26853B
:1032CC00D2440561828000455DB726856D2945B7DE
:1032DC0097470000938747556314F400804479BFE7
:1032EC009747000093874752E31AF4F8C04479B724
:1032FC001CC4050963C807021C401387170018C0BB
:10330C008CA31C4483450900FD17FDF11CC463D933
:10331C0007022286A94526853D28FD57E302F5F8CC
:10332C00A94441B7184C63C4E700E39745FD2286D6
:10333C0026851520E31735FDA5B7FD59294AD1B7C8
:10334C001C401387170018C0294798A3D1BFAA8522
:10335C0003A54181DDBD011122CC26CA4AC806CE87
:10336C004EC6AA842E89328401C51C4D91E32129B5
:10337C00974700009387474D6317F402C0401C4CDD
:10338C001CC45E24A18B99C31C4895EFA28526858D
:10339C00492015C97D59F2406244D244B2494A854C
:1033AC00424905618280974700009387E747631481
:1033BC00F4008044E9B7974700009387E744E31093
:1033CC00F4FCC0446DBF1C4808409379F90F137985
:1033DC00F90F1D8D5C486346F500A2852685912C5E
:1033EC0055F91C440505FD171CC41C401387170018
:1033FC0018C0238037015C486388A7005E24858B46
:10340C00D9DBA947E319F9F8A28526851D2441D5F6
:10341C0051B7411122C426C24AC006C683A44181B9
:10342C002A892E8489C49C4C99E32685A92E97471A
:10343C000000938767416313F402C0408317C400F4
:10344C0013F7870025E713F707010DEB254723201A
:10345C00E90093E707045EA47D5571A0974700002F
:10346C009387873C6314F4008044C9BF97470000DE
:10347C0093878739E314F4FCC044C9B7918B9DC37F
:10348C004C5889C9930744046384F5004A85B92BC9
:10349C00232A04025E242322040093F7B7FD5EA4C2
:1034AC001C481CC05E2493E787005EA41C4899EB63
:1034BC005E241307002093F707286385E700A28595
:1034CC004A8561298317C40013F717001DC3584898
:1034DC00232404003307E04018CC1848014501E7C9
:1034EC0013F707083DF7B2402244924402494101C8
:1034FC00828013F72700814611E3544814C4F1BFAE
:10350C008397C500011122CC26CA06CE4AC84EC6E6
:10351C0013F78700AA842E8479E3D8416345E00031
:10352C00B8416356E008585459C3B18303A9040049
:10353C00858B23A004000C50A9CB70485E24918B82
:10354C0099C75C401D8E5C5899C33C401D8E5C54E1
:10355C000C50814626858297FD57630CF5041C4858
:10356C000567232204001CC05E24F98F91C368C830
:10357C004C5823A0240185CD930744046384F500A3
:10358C002685AD21232A04021DA0014685462685E9
:10359C000297FD572A86E313F5FA9C40C5D375476D
:1035AC006385E70059476395E70623A0240101458D
:1035BC00B5A098408317C40001CFF5466305D7002A
:1035CC00D9466319D7041C48232204001CC04DB7EC
:1035DC001848B1832322040018C0858B41BF83A9EE
:1035EC000501E38609FC03A905008D8B23A0350199
:1035FC0033093941014791E3D84918C4E35920FBF9
:10360C001C540C50CA864E8626858297634FA000A8
:10361C008317C40093E707045EA47D55F24062440F
:10362C00D2444249B24905618280AA993309A94022
:10363C00F1B79C49411106C622C426C281EB8144D4
:10364C00B24022442685924441018280AA842E8471
:10365C0001C51C4D91E3052A974700009387C71EAF
:10366C00631CF402C0408317C400F1DB7850058B57
:10367C0011E793F7072099E3284C51242685A2855E
:10368C0041357C50AA84858BC5FF5E2493F70720B7
:10369C00C5FB284CB5246DB7974700009387C71816
:1036AC006314F4008044C1B7974700009387C71593
:1036BC00E31BF4FAC04445BF411122C406C62A8458
:1036CC004EA572A523200500232205002324050006
:1036DC002322050623280500232A0500232C050098
:1036EC00214681451305C505EFF09FB197170000E2
:1036FC00938787845CD0971700009387A7861CD488
:10370C00971700009387878A5CD4971700009387DC
:10371C00E78CB24000D01CD822444101828097052E
:10372C000000938545F1BDA2411126C29307800686
:10373C009384F5FFB384F4024AC02E8922C406C6D2
:10374C0093854407692E2A8401CD2320050023226A
:10375C002501310508C4138684068145EFF05FAA64
:10376C00B240228522449244024941018280138551
:10377C00018471A21385018461A21385418441A245
:10378C0013854184B5AA411122C406C62A84F53793
:10379C001C4C89C72244B2404101DDB79707000099
:1037AC00938727F81CD423240404232604042328F9
:1037BC00040483A781816394870085471CCC2285F0
:1037CC003D2048C02285252008C422850D2048C4F0
:1037DC00484001469145CD3508440546A545E93D8F
:1037EC0048440946C945C93D85471CCC65B74111BC
:1037FC0026C24AC006C622C42A89953F83A4818169
:10380C009C4C99E326854137938484048044DC40A6
:10381C00FD1763D607009C40BDC38440C5BF03178A
:10382C00C40039EBC17785075CC4130584052322DA
:10383C000406E920813721462320040023240400B8
:10384C002322040023280400232A0400232C040030
:10385C0081451305C405EFF0BF9A232A0402232CDB
:10386C0004022324040423260404B24022852244A7
:10387C0092440249410182801304840651BF914550
:10388C004A855D3588C02A8449F9ED35B147232036
:10389C00F900E1BF797122D44AD04ECE52CC5AC82D
:1038AC005EC606D626D256CA2A892E8A13048504E9
:1038BC008149054BFD5B0444832A4400FD1A63D007
:1038CC000A0200406DF8B250225492540259624AD6
:1038DC00D24A424BB24B4E85F24945618280DE247E
:1038EC00637BFB008397E40063877701A6854A8599
:1038FC00029AB3E9A90093848406C9B782808280B6
:10390C0082805971A2D42E848395E500A6D2CAD0A8
:10391C0086D6B284368963D205025E2493F70708F3
:10392C008DEB13070040B65026542320F90098C0A5
:10393C00065996540145656182803000D52DE34EC1
:10394C0005FC3247BD67F98F7977BA9793B71700A3
:10395C00C9BF814713070004F9B7DE25797122D45A
:10396C0006D626D24AD04ECE898B2E8491CF930781
:10397C0074041CC01CC885475CC8B25022549254B5
:10398C000259F2494561828074003000AA84953F47
:10399C00A2492A892685CE85992219E98317C40064
:1039AC0013F7072079FBF19B93E727005EA4C1B7BF
:1039BC00970700009387E7D69CD45E2408C008C8FC
:1039CC0093E707085EA4B247232A340199CB8315E9
:1039DC00E4002685512511C55E24F19B93E7170061
:1039EC005EA45E2433E527014AA441BFD1CD83A751
:1039FC00C5FF011122CC06CE1384C5FF63D307008B
:103A0C003E942AC6752D1387C1841C43324581EB25
:103A1C002322040000C36244F240056175A5637D56
:103A2C00F4001040B306C4006396D7009443DC4303
:103A3C00B29614C05CC0F9BF3E87DC4399C3E37DEA
:103A4C00F4FE14433306D700631F86001040B29671
:103A5C0014C33306D700E390C7FC9043DC43B29603
:103A6C0014C35CC34DBF6375C400B1471CC165B7BB
:103A7C001040B306C4006396D7009443DC43B2965F
:103A8C0014C05CC040C341BF828041114AC013893D
:103A9C0081848327090022C426C206C6AA842E84E8
:103AAC0089E78145A5212320A900A2852685B9296E
:103ABC007D59631A25017D54B240228522449244DB
:103ACC00024941018280130435007198E30685FE9A
:103ADC00B305A44026851D29E31025FFE9BF01117C
:103AEC0026CA93843500F1984AC806CE22CC4EC61D
:103AFC00A104B1472A8963F3F406B14463E2B40626
:103B0C004A857D2B9389C18483A709003E8425E4D3
:103B1C00A6854A859D3FFD572A846314F50C03A4A2
:103B2C000900A287D5E78329040081454A85A2991B
:103B3C00F12E6392A90A1C408D049D8CF198A1046E
:103B4C00B14763F3F400B144A6854A853D3FFD5768
:103B5C006303F5081C40A6971CC03DA8E3D004FAEB
:103B6C00B1472320F9000145F2406244D244424956
:103B7C00B249056182801440858E63C806042D47C6
:103B8C00637DD70204C0330794006396870223A099
:103B9C00E9005C4014C35CC34A853D231305B400A3
:103BAC009307440061993307F540E30FF5FA3A9413
:103BBC00898F1CC055BFD8C3E9BF58406395870097
:103BCC0023A0E900D1BFD8C3C1BFA287404081B7B1
:103BDC003E84DC4381BFB1472320F9004A85ED21A7
:103BEC0059B704C155BF1C46FD171CC663DA070044
:103BFC00184E63C5E700A9476394F5006FF0AFF565
:103C0C001C422E851387170018C28CA382800111C9
:103C1C0022CC26CA4AC84EC652C406CE2A89AE89C0
:103C2C003284B304D6007D5A63149400014501A874
:103C3C000C204E864A85453F0504E31745FFF240AC
:103C4C006244D2444249B249224A056182803571AC
:103C5C0022CD26CB4AC94EC706CF52C556C35AC130
:103C6C00DEDEE2DCE6DAAA892E843289B68409C566
:103C7C001C4D99E3EFF03FB1974700009387C7BC09
:103C8C006319F40403A449007C50858B81EB5E24FA
:103C9C0093F7072081E7284CEFF07FC65E24A18BB9
:103CAC0099C31C48ADE3A2854E85EFF08FF621CD6C
:103CBC007C50858BA9C37D55FA406A44DA444A4945
:103CCC00BA492A4A9A4A0A4BF65B665CD65C0D6185
:103CDC00828097470000938727B56315F40003A4EF
:103CEC0089005DB797470000938707B2E31EF4F88D
:103CFC0003A4C90051BF5E2493F70720CDFF284CC5
:103D0C00EFF01FC04DBF93070002A304F10293070D
:103D1C00000302D22305F10226C6930B5002974AE8
:103D2C000000938A6AB4054C294BCA849C2099C321
:103D3C0063997709B38C2441638D2401E6864A8606
:103D4C00A2854E85E935FD576307F5189257E6971E
:103D5C003ED29C2063810718FD571389140002C8BA
:103D6C0002CE3ECA02CCA309010482D483450900C9
:103D7C0015465685152EC2479304190029E513F7ED
:103D8C00070109C713070002A309E10413F7870011
:103D9C0009C71307B002A309E104834609001307FE
:103DAC00A002638AE602F247CA848146254698201F
:103DBC0093851400130707FD6373E6068DC63ECE8C
:103DCC001DA08504A5B7330555413315AC00C98F2B
:103DDC003EC8268961BF324793064700184336C652
:103DEC00634807023ACE98209307E002631CF7045D
:103DFC0098309307A002631AF702B247890413871D
:103E0C0047009C433AC663D30700FD573ECA1DA822
:103E1C003307E04093E727003ACE3EC8E9B7B387B3
:103E2C006703AE848546BA9759B7850402CA8146A2
:103E3C0081472546982093851400130707FD63726C
:103E4C00E606E9F68C200D4617450000130545A241
:103E5C00A12C11CD97470000938787A11D8DC247D8
:103E6C00130700043317A700D98F85043EC88C2094
:103E7C001946174500001305E59F13891400230408
:103E8C00B1021D2435C99307000095E74247B2479C
:103E9C001377071009CF91073EC69257D2973ED29F
:103EAC0069B5B3876703AE848546BA9761B79D073A
:103EBC00E19BA107D5B7780097060000938666D5DD
:103ECC0022860C084E8597000000E7000000FD5785
:103EDC002A8AE314F5FC7C50858B81EB5E2493F7E6
:103EEC00072081E7284CEFF0BFA15E2493F707046D
:103EFC00E39307DC1255C9B378009706000093864C
:103F0C0046D122860C084E85E12CD1B7411122C432
:103F1C002A842E8523A8018406C6EFE01FA7FD572F
:103F2C006316F50083A7018591C31CC0B2402244DF
:103F3C0041018280411122C42E848395E50006C67E
:103F4C00312B634905007C48AA977CC8B2402244B7
:103F5C00410182805E247D777D17F98F5EA4FDB7C9
:103F6C00DE25011122CC26CA4AC84EC606CE93F7CE
:103F7C000710AA842E843289B68991C78395E500EF
:103F8C0089460146ED285E247D777D17F98F8315D0
:103F9C00E4005EA46244F240CE864A86B2494249AD
:103FAC002685D244056125A8411122C42E8483950F
:103FBC00E50006C6E9207D575E24631AE5007D778F
:103FCC007D17F98F5EA4B2402244410182800567BF
:103FDC00D98F5EA468C8C5BF8395E5003DA041118B
:103FEC0022C42A842E85B285368623A8018406C66F
:103FFC00EFE07F94FD576316F50083A7018591C30D
:10400C001CC0B240224441018280411122C42A8446
:10401C002E8523A8018406C6BD21FD576316F50025
:10402C0083A7018591C31CC0B24022444101828008
:10403C00411122C42A842E85B28523A8018406C688
:10404C008929FD576316F50083A7018591C31CC010
:10405C00B240224441018280411122C42A842E851F
:10406C0023A8018406C62529FD576316F50083A7EE
:10407C00018591C31CC0B240224441018280411190
:10408C0022C42A842E85B285368623A8018406C6CE
:10409C002929FD576316F50083A7018591C31CC020
:1040AC00B24022444101828093F5F50F2A966314A5
:1040BC00C500014582801C21E38EB7FE0505C5BFF6
:1040CC001385C1836FF0BF831385C1836FF05F834A
:1040DC00797156CA9C49BA8A984522D44AD04ECE98
:1040EC0052CC06D626D25AC85EC6AA892E843289EC
:1040FC00368A63D3E700BA872320F90003473404D8
:10410C0001C785072320F9001C4093F7070291C7CC
:10411C008327090089072320F9000440998891E836
:10412C00130B9401FD5B5C4403270900998F63CC4E
:10413C00F40483473404B336F0001C4093F70702B1
:10414C00A5EB13063404D2854E85829AFD57630382
:10415C00F5041C4011478144998B6399E700444452
:10416C00832709009D8C63D3040081441C441848A8
:10417C006354F700998FBE94014969047D5B639881
:10418C002405014509A885465A86D2854E85829A12
:10419C00631E75017D55B250225492540259F24956
:1041AC00624AD24A424BB24B456182808504A5BF1C
:1041BC003307D40013060003A301C70403475404B8
:1041CC0093871600A2978906A381E7049DBF8546B5
:1041DC002286D2854E85829AE30E65FB050945B78A
:1041EC00797122D44AD04ECE52CC06D626D256CA9B
:1041FC005AC803C88501930780072A892E84B2897F
:10420C00368A63E20703930720069386350463E13D
:10421C000703630C081C9307800517360000130670
:10422C00E6656308F814930424042301040515A817
:10423C009307D8F993F7F70F5546E366F6FE173652
:10424C000000130626668A07B2979C43B2978287B2
:10425C001C4393842504938647009C4314C32381F9
:10426C00F50485476DA290411C4313750608938590
:10427C00470029C19C430CC3584063DF07129305C8
:10428C00D002A301B40418C4635E0702B307F04064
:10429C00173600001306865E2948B68433F70703E9
:1042AC00FD143297182398A03E87B3D70703E37702
:1042BC0007FF85A09C43137506040CC355DDC2078C
:1042CC00C1875DBF6D9A10C0D1B790411C43137567
:1042DC0006089385470001C50CC39C4331A0137697
:1042EC0006040CC37DDA9E231307F0061736000074
:1042FC001306C6586310E80C2148A3010404584067
:10430C0018C4E34C07F80C40ED990CC0D9F7B684EF
:10431C0049F7A147631EF8001C40858B91CB584090
:10432C001C4863C7E70093070003A38FF4FEFD143A
:10433C00858E14C85287CE867000A2854A85EFF010
:10434C003FD9FD5A6319550D7D55B25022549254E4
:10435C000259F249624AD24A424B456182809C41E1
:10436C0093E707029CC11308800717360000130659
:10437C002652A30204050C401C4313F805081385B0
:10438C0047006305080008C39C4339A013F80504D3
:10439C0008C3E30B08FE9E2313F7150001C793E532
:1043AC0005020CC099C3414889BF18401377F7FD2B
:1043BC0018C0D5BF294891B7173600001306064C14
:1043CC00294835BF90411C43CC4913780608138506
:1043DC0047006306080008C39C438CC339A008C37C
:1043EC00137606049C4375DA8EA323280400B68446
:1043FC0091B71C43D04181459386470014C3844335
:10440C002685EFF07FCA19C1058D48C05C401CC8D9
:10441C00A301040405B714482686CE854A85029A62
:10442C00E30455F31C40898B8DE7B2474844E35EA7
:10443C00F5F03E8519BF85465686CE854A85029A8B
:10444C00E30465F185045C443247998FE3C5F4FEBF
:10445C00E9BF8144930A94017D5BF5B7411122C4F5
:10446C002A842E85B285368623A8018406C6A1200F
:10447C00FD576316F50083A7018591C31CC0B2409C
:10448C002244410182809307800523A8F1847D5545
:10449C0082809307800523A8F1847D558280930741
:1044AC00800523A8F184014582809307800523A809
:1044BC00F1847D5582809307800523A8F1847D5576
:1044CC008280184183A785FF6319B7001CC1FD5773
:1044DC0023AC05FE238FF5FE8280232CF6FEC5BF90
:1044EC00411122C426C23744024006C68324C4208C
:1044FC00232604200F10000009E9232694201545DB
:10450C00B24022449244410182800347E5FF930765
:10451C00F00F6306F700232694201145D5B7EFC0A2
:10452C009FDB014523269420E1BF411126C24AC0DE
:10453C00B744024006C622C403A9C42023A6042003
:10454C000F10000089E523A62421154515A02A8407
:10455C0097E7FF1F83C7D7882E856375F4008947BB
:10456C0063EE8700B53FB747024023A627210D45D0
:10457C00B2402244924402494101828083A785FFC4
:10458C0099E703C7E5FF9307F00F6308F700893F2E
:10459C00B747024023A627214DBF238F85FE17E581
:1045AC00FF1F1305A583EFB05FBEA1652285312ADD
:1045BC00014523A624216DBF97E7FF1F23A0078287
:1045CC008280C9C1797122D406D626D24AD04ECE69
:1045DC0001444147B3D78540858BA5C312053147AC
:1045EC0022953305E50297E7FF1F9387678803A998
:1045FC0007008544B3948400C204C180BE892A9903
:10460C000327090011C7032549002EC60297B2459E
:10461C0031473304E40283A709003E941C4489E724
:10462C002320090023220900B2502254A58D0259DF
:10463C009254F2492E85456182800504E31CE4F80E
:10464C008144DDB72E85828041111397050122C468
:10465C0006C626C24AC041872E84635F0700EFB0AE
:10466C003FBA11C1B53DA1673D8C2285B2402244B1
:10467C009244024941018280EDD9AA870147414603
:10468C00B356E440858A8DCE9207BA97B146B3876C
:10469C00D70297D6FF1F9386A67D03A906008544F3
:1046AC00B394E400C204C1803E998327090003251A
:1046BC00490082972320090023220900258C75B715
:1046CC000507E31FC7FA8144D5BFB747024083A64D
:1046DC00C72023A607200F10000017D7FF1F034782
:1046EC0037706373E50217D6FF1F1306E6731317B3
:1046FC00150008423A9503570500D98D2310B500D3
:10470C0023A6D7200145828023A6D7200D45828081
:10471C00B747024083A6C72023A607200F1000002E
:10472C0017D7FF1F0347D76B6375E50217D6FF1F1B
:10473C001306866F13171500084293C5F5FF3A95BB
:10474C0003570500F98D2310B50023A6D72001458A
:10475C00828023A6D7200D458280797126D24ECE39
:10476C00B744024006D622D44AD052CC56CA5AC8B4
:10477C005EC683A9C42023A604200F10000097D77F
:10478C00FF1F83C7F765637AF50097D7FF1F9387E1
:10479C00676983AB070063970B00B747024023A6FA
:1047AC003721A9A017DBFF1F130B0B6D832A4B00BE
:1047BC00B74736FE938707C82E8A97D5FF1F83D538
:1047CC00256CBE9AB387C5022A8432898146B3B55B
:1047DC00C50213850732B337F50013060064BE9586
:1047EC00EFE04FE063F0AA0223A634210145B2505A
:1047FC00225492540259F249624AD24A424BB24B69
:10480C0045618280829B97D5FF1F83D56567B387EF
:10481C002503AA84130600648146B3B525031385CA
:10482C000732B337F500BE95EFE0CFDBB307950049
:10483C00BE8403274B0063E4A70063E4E700B38462
:10484C00E740D2852285EFB0DFA301C904C5B74785
:10485C00024023A63721054559BF936504F0C205D4
:10486C00C1814145EFC05F9819E997D7FF1F938726
:10487C00275CDC5B9DD3A2851145829739BF97D706
:10488C00FF1F9387A75A9C439DE397D7FF1F23AF26
:10489C00A75885472326050004C52311450123008D
:1048AC008500A300F5002322050055B7BA87D84729
:1048BC0075FFC8C7F9BF011122CC26CA4AC84EC61B
:1048CC00B747024006CE03A9C7202A84AE89B2841A
:1048DC0023A607200F10000049352285CE85EFB0A6
:1048EC005F9A2A8405C597D5FF1F83D56559B38771
:1048FC009502130600648146B3B595021385073201
:10490C00B337F500BE95EFE0EFCD48C0133514007A
:10491C00F2406244B747024023A62721D2444249C1
:10492C00B2490E0505618280011122CC4AC84EC6DF
:10493C00B747024006CE26CA83A9C7202A892E84EF
:10494C0023A607200F100000EFB0BF93AA8419C153
:10495C0023110500A2854A85EFF09FDB97D7FF1F37
:10496C0083C70748639B270197D7FF1F83D7474B04
:10497C005D8C97D7FF1F2395874AB747024023A624
:10498C003721014591E01945F2406244D244424935
:10499C00B24905618280411106C697D7FF1F23AB30
:1049AC00A74C0295B24097D7FF1F23A7A7440145F8
:1049BC004101828041115146814517D5FF1F1305D6
:1049CC00E54406C697D7FF1F23A2074697D7FF1FBC
:1049DC0023A2074A97D7FF1F23A60744EFB05F9384
:1049EC0013068002814517D5FF1F1305653FEFB0F5
:1049FC003F92EF20C03E97D7FF1F83C7B74413D514
:104A0C0027008D8B3E958D473305F502854539057D
:104A1C001375F50F97D7FF1F2385A73C99473305CF
:104A2C00F50213050524EFC02FFC17D7FF1F232118
:104A3C00A74449CD994717D6FF1F0346863A33063C
:104A4C00F602814513060624EFB09F8C97D7FF1F03
:104A5C00938707429C439387072417D7FF1F23256F
:104A6C00F73A17D7FF1F0347C7370A07BA9717D765
:104A7C00FF1F232BF73AEFF03FB4892E97D7FF1F78
:104A8C0093878738944397D7FF1F83C7773513973E
:104A9C0027003697170600001306E6B210C31387DB
:104AAC0017001377F70F0A0736971706000013063F
:104ABC00E6B910C313873700890793F7F70F8A07F6
:104ACC0097D5FF1FA38EE530B69790C3B240410136
:104ADC00828097D7FF1F83C7B73017D7FF1F0347B5
:104AEC00473063F3E70217D7FF1F1307E73118436B
:104AFC009386170017D6FF1FA304D62E9396270074
:104B0C00369708C33E8582809307F00FE5BF1C41A2
:104B1C00638D071241777D8FB70600208947631795
:104B2C00D7120357450063030712411122C41946DB
:104B3C002A849305F00F610506C6EFB0DF8F054799
:104B4C008D47630FE50E1C4491C7185C99476DCBDC
:104B5C00585C7DC713060004814517D5FF1F13054C
:104B6C00252DEFB0EFFA13060004A28517D5FF1F11
:104B7C001305052CEFB02FF317D7FF1F0357072C86
:104B8C0097D7FF1F9387C72A19E71307001097D6EB
:104B9C00FF1F2395E62A17D7FF1F0347472A11E764
:104BAC00054797D6FF1F238CE62817D7FF1F0357FF
:104BBC00272911E76D4797D6FF1F2393E62817D7B0
:104BCC00FF1F0347D72711E7154797D6FF1FA38869
:104BDC00E62617D7FF1F0347C72611E7054797D6C9
:104BEC00FF1F2380E62617D7FF1F0347972519E7DA
:104BFC0003C7F70097D6FF1FA385E62417D7FF1F1F
:104C0C000347472411E7254797D6FF1F238CE6223D
:104C1C000347640119E71307C00397D6FF1F2384CA
:104C2C00E622DC5791C7829797D7FF1F239EA71ABE
:104C3C00FD5717D7FF1FA303F746EFF0BFD78147E8
:104C4C00B24022443E854101828089473E85828064
:104C5C0001114EC697D9FF1F9389092283A709001A
:104C6C0006CE22CC26CA4AC852C4829713090064C5
:104C7C00B335250303DA89008146528633052503B3
:104C8C00EFE04F9697D7FF1F93878715804FAA8425
:104C9C0001456306940233858440636E940003A53A
:104CAC00490052868146B335A9023305A902EFE0CB
:104CBC006F93018D269597D7FF1F23AF9712F24064
:104CCC006244D2444249B249224A0561828097D754
:104CDC00FF1F23AB071A97D7FF1F938767159C5BA2
:104CEC00011106CEAA8581C72AC68297B245C9CDC5
:104CFC009C410545D9C7DC41C9C783D78500D1C3C1
:104D0C0083D7A500BDCF83C7C50081CF97D7FF1F21
:104D1C0083C7571313F737008983BA970947634240
:104D2C00F706414617D5FF1F13050515EFB0AFD792
:104D3C0097D7FF1F938747149C4317D7FF1F232335
:104D4C00F70E97D7FF1F83C717108DE79307805770
:104D5C0017D5FF1F0355C5123305F50237460F0053
:104D6C001306062481468145EFE0CF8797D7FF1FB6
:104D7C00A38BA70C170500001305C5EDEFF0BFC101
:104D8C000145F2400561828097D7FF1F23A80706D3
:104D9C0097C7FFFF938727BD17D7FF1F232EF70C4D
:104DAC007D5797D7FF1F23ABE70CB787320093874C
:104DBC0027A197D6FF1F23A5F60C97D7FF1F238398
:104DCC00070CB747024023A4E7269DB7011122CC5C
:104DDC0017D4FF1F1304C405084406CE26CA4AC8BC
:104DEC0001E90545F2406244D244424905618280A2
:104DFC001C5CE5DB585C75D77000854582971844C0
:104E0C00B247E300F7FE9305E00417D5FF1F0355E7
:104E1C00E502EFC06FBD17D7FF1F2323A7FE71D18B
:104E2C0017D6FF1F035686019305F00FEFB04FCE38
:104E3C00814417D9FF1F1309A9FA97D7FF1F83C7FE
:104E4C0007000326090263CFF4003285EFC0AFC818
:104E5C00014597D7FF1F23A507FA97D7FF1F23A359
:104E6C0007FA49B797D5FF1F83D545FDB387950240
:104E7C000844585C898185043E9508C2029775BF29
:104E8C0097D6FF1F83C6F6141547638BE60097D79A
:104E9C00FF1F9387A71303C777008D46639FE60018
:104EAC0097D7FF1F83C717136392071493076010DC
:104EBC0017D7FF1F2310F7128280411122C426C27C
:104ECC004AC006C683C7770097D4FF1F9384841209
:104EDC009C4017D7FF1F1307A7FB0324070823A227
:104EEC000706096798C7194597D7FF1F2382070E36
:104EFC0017D9FF1F1309C90CC52903270900B7C708
:104F0C00898E938767ED1CC7B75755009387575504
:104F1C005CC3834724021307F00F6387E700A300E9
:104F2C00F402FD572301F40203451402894763037D
:104F3C00F5000145984001469305F00F5C4393E75B
:104F4C0017005CC3930710FA2305F400994717D791
:104F5C00FF1FA300F70897D7FF1F23890706992483
:104F6C0017D7FF1F1307470E1443DC56F59BDCD6EF
:104F7C0083479400032609003A8493F6F7071C42F2
:104F8C0093F707F8D58F1CC297D7FF1F83C787EFFE
:104F9C0081CB97D7FF1F938727028843EFB00FFA77
:104FAC0003270900B70633001C4393F7F7E71CC32C
:104FBC001C4393F7F7E793E707101CC31840B24064
:104FCC0022441C470249D58F1CC79C4013079005EF
:104FDC009244B8CB17D7FF1FA30C07FE17D7FF1FA0
:104FEC00A30607FE054798C341018280828097D7AC
:104FFC00FF1F9387E7FC9C43B706800037160180A0
:10500C009843130686EC558F98C39843B706001047
:10501C00558F98C31307001DD8DB17D7FF1F034705
:10502C0067E293169701D18ED4D7D45737060082F6
:10503C001377F7037D166607F18E558FD8D7370790
:10504C0009001307370898D3828097D7FF1F9387DF
:10505C0067F79C4399CB944BD04B9842518F98C295
:10506C0094439C479842D98F9CC297D7FF1F938734
:10507C0027F517D6FF1F1306E6F705489C4317D7ED
:10508C00FF1F034747F514426312050588437578E3
:10509C007D183375050188C3C846F977FD17E98F6C
:1050AC00DCC60100010014428967AD059CC693075C
:1050BC0000F817D6FF1F230DF6F0939725009305E4
:1050CC00E709BE958605ECD2C8C682807578137345
:1050DC0025009308F8FF630B030803A80700890554
:1050EC000D433378180189683368180123A0070130
:1050FC0051781307E70B8E057D18631165048843FF
:10510C003375050111683365050188C3C846F97705
:10511C00FD17E98FDCC6010001001C42930600F864
:10512C009385750D23A4170117D6FF1F2302D6EA0A
:10513C008605BA958605ECD3C8C78280884333753B
:10514C00050188C3C846F977FD17E98FDCC6010055
:10515C0001001C42930600F89385A50423A41701B3
:10516C0017D6FF1F2306D6E68E05E1B788430568E0
:10517C00337515013365050188C3C846F977FD17EA
:10518C00E98FDCC6010001001C428966A90594C7A1
:10519C00930600F817D6FF1F230CD6E28E051307D3
:1051AC00E70941BF97D7FF1F9387C7E19C4389CF7E
:1051BC00D44303A8870098423367070198C2D447A9
:1051CC00DC4B9842D98F9CC297D7FF1F938747DF40
:1051DC0097D6FF1F83C646DF137725009C43858A2D
:1051EC002DCB984375757D15698F0965498F98C3CB
:1051FC00370709001307670898D337273008451776
:10520C00D8CB371703001307976198CF0D67130797
:10521C00E78D98D73767000113070731D8D337A725
:10522C003F0099E237A734001307F74D9E0598CB42
:10523C009385453697D7FF1F23A2B7DA11C606060A
:10524C0097D7FF1F23ACC7D897D7FF1F238207D848
:10525C008280370709001307370898D337271008BF
:10526C0013071790D8CB371703001307476298CF53
:10527C000D671307E78B98D73767000113070731C2
:10528C00D8D385C637A73F001307E72C98CB757783
:10529C009306F7FF984305489505758F631C050128
:1052AC0098C38E059385C50371B737273200130752
:1052BC00072DE9BF8566558F98C39205E5B7411157
:1052CC0006C617D7FF1F0347E7D0A1476310F704A3
:1052DC0097D7FF1F83C747D2858B17D6FF1F03466F
:1052EC00D6D397D6FF1F83C646D3BDC797D7FF1F0C
:1052FC00938787D2C8432DC1834515000905292101
:10530C0011C5854717D7FF1FA306F7CC17D7FF1F6B
:10531C00034747CC9947631DF70097D7FF1F938727
:10532C0027B783A7070883C7B70095CBEFF05FB506
:10533C0017D7FF1F034707CA9D476312F70297D77A
:10534C00FF1F9387E7B483A7470983C7770081CBF7
:10535C00B24041016F105030814501454DB7B2400C
:10536C004101828017D7FF1F1307C7C81C43B44BDA
:10537C00E19AB4CB944393E6860094C39C438D830B
:10538C00858B89C7010001000100010097D7FF1F21
:10539C00938707C394439C4293F7F7E793E7070877
:1053AC009CC297D7FF1F938727CA9043B706CEFF9F
:1053BC00FD161C46F58F1CC61C4323A8070497D763
:1053CC00FF1F938727C09C4399CBD44390479842A7
:1053DC00518F98C2944BDC4B9842D98F9CC297D773
:1053EC00FF1FA38807BE828041114AC0B747024005
:1053FC0006C622C426C203A9C72023A607200F1065
:10540C00000097D7FF1F9387E7BE9C439C438D8B6F
:10541C00BDC717D7FF1F0347D7BB8D47AA8417D427
:10542C00FF1F1304A4BA631BF70097D7FF1F9387C2
:10543C00A7BC9C4B01468145454582971947639A09
:10544C00E40497D7FF1F83C7F7B899CB97D7FF1FF3
:10545C0083C747B86396970097D7FF1FA38C07B6EF
:10546C008347740021476318F7009307801017D700
:10547C00FF1F2311F7B6238C0182EFF0BFEEB24071
:10548C002244B747024023A62721924402494101F6
:10549C0082809D47639FF40097D7FF1F83C797B304
:1054AC00E1D317D7FF1F0347E7B28D47E31AF7FA8B
:1054BC0065B783467400630BD7000347740063879A
:1054CC00E700834774002147E317F7FA97D7FF1FCC
:1054DC0083C757B0CDF38347740017D7FF1F230B37
:1054EC00F7AE854717D7FF1FA306F7AE69B717D7D7
:1054FC00FF1F034717AE91476308F70E17D7FF1F1F
:10550C001307C7AC034777006380E70E97D7FF1FDD
:10551C009387C7AA0111984322CC3744024006CE88
:10552C0026CA4AC84EC652C4930704306316F70AFB
:10553C008329C420232604200F1000003545EFF0EA
:10554C00BFEA17DAFF1F130AAAA783270A00F5760A
:10555C00FD16984317D9FF1F130909AF97D4FF1FE6
:10556C00938444A9758F8566558F98C39843B70665
:10557C0033001377F7E798C398431377F7E713676C
:10558C00071098C3032709001C47D58F1CC79C40E4
:10559C001307D005B8CBEF00902EEF105000EF00A2
:1055AC003021EF00302A03270A001C4393F7F7E75A
:1055BC0093E707081CC3832609003707CEFF7D1726
:1055CC009C46F98F9CC69C4023A8070497D7FF1FC5
:1055DC00A38107A023263421F2406244D2444249DD
:1055EC00B249224A05618280828097D7FF1F938738
:1055FC0067A09C431307C0089306C006D8CBD4CF32
:10560C00D8D31306C003D0D7D8DBD0DFF8C317D755
:10561C00FF1F1307A79B5853F4C7F8DB41677D178F
:10562C0098C73D673D07D8C7828097D7FF1F9387E0
:10563C00A7A1984317D6FF1F1306069C97D7FF1FE9
:10564C009387079894438347160013F8F707D9C537
:10565C0088425C42137505F83365050188C213F561
:10566C00150001C993F5050341456386A50693878B
:10567C0087C14C574168130808A093E525004CD707
:10568C00B3D50703B70810FEFD18B3F70703FD8960
:10569C00139545016C43B3F51501C98D6CC3930586
:1056AC00A00F3705FCFFAA07B3D7B7026C43E98DEF
:1056BC00BA07B983CD8F7CC383470600898B99CBFE
:1056CC009C4293F7F70713E707049C4293F707F8FC
:1056DC00D98F9CC282809387078361BF5C57F59BEF
:1056EC005CD79C4293F707F8B3E707019CC2E9B774
:1056FC00411106C697D7FF1F23870792EFF09FC66D
:10570C00B24001454101828079714AD0B7470240CD
:10571C0006D622D426D24ECE52CC56CA03A9C720C6
:10572C0023A607200F10000017D4FF1F1304C48CEE
:10573C00184409EF23A627210545B2502254925450
:10574C000259F249624AD24A4561828017C7FF1F4B
:10575C00130707740327870A09C723A627210945BE
:10576C00E9BF83470400328AB689858B2E86AA8AC4
:10577C00B9CF97D4FF1F9384248ADC4085E317D5D7
:10578C00FF1F034535892EC6090593059004EFB01C
:10579C00BFA5324697D7FF1F23A2A788DC4099E705
:1057AC00B747024023A627210D4541BF17D7FF1F3E
:1057BC000347A7862380E700DC40638C0A0431CAC8
:1057CC00A380C700C840D6850905EFA0DFAD17D769
:1057DC00FF1F034717809547630CF70097C7FF1F00
:1057EC0083C7477F19476385E7000D476396E70238
:1057FC0097C7FF1F83C7177E99E79307801017C7BA
:10580C00FF1F2319F77CB747024023A62721014528
:10581C002DB7A380070065BF97C4FF1F9384847DB9
:10582C009C4098430D8B15C3238C0182B84B619B14
:10583C00B8CB98431367870098C39C438D83858BA3
:10584C0089C701000100010001009C40096797CA4B
:10585C00FF1F938A6A7C23A2070698C797C7FF1F6E
:10586C002388077697C7FF1F83C7C77B918B89EB6C
:10587C0097C5FF1F83C5457893F7050463980710F8
:10588C00814517C5FF1F03453577EFF01FDA17C5A4
:10589C00FF1F034565761185014697C5FF1F83C51C
:1058AC0065770D89EFF01F9017C7FF1F130747711E
:1058BC0014441C4394C75444D4C3944083470400F9
:1058CC003A8413F61700DC42F99BD18FDCC283A714
:1058DC004A00BCDA97C7FF1FA381477597C7FF1F04
:1058EC00238D377383C7EA0093E7470097C6FF1FE2
:1058FC00238BF6729307000497C6FF1F2388F66C60
:10590C00A14797C6FF1FA386F66C97C7FF1F938707
:10591C002752DC5791CB13060064C14517C5FF1FF6
:10592C0003458570EFE07FE39C40170500001305ED
:10593C006530DC43858B89E71705000013050506E8
:10594C00EFA0DFDF1840B70633001C4393F7F7E7EF
:10595C001CC31C4393F7F7E793E707101CC397C7C7
:10596C00FF1F9387676E98431C47D58F1CC79C40BD
:10597C0013079005B8CB17C7FF1FA30B076417C7F6
:10598C00FF1FA3050764054798C3B5BD93F5050331
:10599C0093E515004840D5BD011197C7FF1F83C77C
:1059AC00F76206CE22CC26CA4AC8858B17C7FF1FC2
:1059BC001307C7616380072497C7FF1FA38807607D
:1059CC003A84A30701004453EFF09FD297C7FF1FFF
:1059DC0083C74765918B97C6FF1F9386E66317C9EC
:1059EC00FF1F130969616386071A83C71400A69702
:1059FC0003C7070093070008631AF70083470900E1
:105A0C0093E7870017C7FF1F2308F75E5C4C0D4711
:105A1C00637BF710F11717C7FF1F2327F75C5C4C4C
:105A2C00984663E9E7103387E74083C7140003C641
:105A3C00C600A69783C71700620661868E07635C53
:105A4C00061063F0E7101D8F9306000263EBE6006F
:105A5C00584C636BF70EB307F74017C7FF1F232192
:105A6C00F75C894517C5FF1F0345055CEFE0FFC5D3
:105A7C0083470900A18B6389071097C7FF1F938782
:105A8C00675794439307800C1307F00FFCD21C50FC
:105A9C0037063300014598C397C7FF1F2389075268
:105AAC0097C7FF1FA385075297C7FF1FA3820752F3
:105ABC0097C7FF1F238E075097C7FF1F9387475029
:105ACC0098431C4393F7F7E71CC31C4393F7F7E782
