:040000006F20306BD2
:100004000000000000000000EC140000F0140000E8
:100014000000000048010000000000000000000093
:1000240048010000B02E00000000000000000000A5
:10003400B02E000000000000B02E00000000000000
:10004400B02E0000B02E0000B02E0000B02E000034
:10005400B02E0000B02E00006C18000090180000B4
:10006400B4180000D8180000FC180000B02E0000DE
:10007400B02E0000B02E0000B02E0000B02E000004
:10008400B02E0000B02E0000B02E0000B02E0000F4
:10009400B02E0000B02E0000B02E00002019000089
:1000A400B02E0000B02E0000B02E0000B02E0000D4
:1000B400B02E0000B02E0000B02E0000B02E0000C4
:1000C400B02E0000B02E0000B02E0000B02E0000B4
:1000D400B02E0000B02E00003C1B0000B02E00002B
:1000E400B02E00006A1F0000B02E0000B02E0000E9
:1000F400B02E0000B02E0000B02E0000001500004D
:1001040020140000B02E0000B02E0000B02E00001D
:10011400B02E0000B02E000000000000000000001F
:1001240000000000000000000000000000000000CB
:0C013400000000000000000000000000BF
:10014000EF3200413D2DFDBF9305000273A04580B5
:1001500082457390153492402242B2424243D243C8
:100160006244F244025592552256B2564257D25733
:100170006258F25806499649264AB64A464BD64B2B
:10018000664CF64C065D965D265EB65E465FD65FB3
:1001900009617300203023AC05FE1C4181E70CC1CE
:1001A0008280BA8703A787FF6DFF23ACB7FE8280EA
:1001B000411126C24AC0B744024006C622C403A960
:1001C000C42023A604200F10000009E923A624213F
:1001D000B240224492440249410182802A8421058E
:1001E000BD654205C18D4181EF10C00001CDFD57B5
:1001F00023200500231285002303F50023A62421D4
:100200002105F9B723A624210145D9B701114AC810
:100210004EC6B747024006CE22CC26CA83A9C720C5
:100220002A8923A607200F10000097270020938714
:10023000A7BB80438144014619E499E8A1654A853A
:10024000EF40702615A08347E4FF639B270395CCFE
:10025000A68517250020130525B9EF40205E79DC1F
:10026000A1654A85EF40207EF2406244B7470240D4
:1002700023A6372126854249D244B24905618280AE
:1002800091E02286032484FF45BFA284E5BF97271F
:100290000020938767BA9C4399E33E85828003D709
:1002A00027006316B70003C70700E308A7FEDC4773
:1002B000E5B7B747024003A7C72023A607200F10C2
:1002C000000001C599C1814711E6B747024023A646
:1002D000E7208280B386F50003C80600B306F50068
:1002E000850723800601E317F6FEC5B737470240AE
:1002F0008327C720232607200F10000019C191C1B2
:1003000011E6374702402326F7208280910503A794
:10031000C5FF11057D16232EE5FEDDB737470240E8
:100320008327C720232607200F10000001C53307AD
:10033000C50011E6374702402326F72082800505D5
:10034000A30FB5FEE31DE5FEF5B7B747024083A650
:10035000C72023A607200F10000081473307F500B0
:100360000307070019E7374702402326D7203E85B9
:1003700082808507E5B7011126CA4AC8B7470240FF
:1003800006CE22CC83A4C7202A892E8623A6072046
:100390000F100000131506019305F004418132C6C9
:1003A000EF0050652A8401C53246CA851937228577
:1003B000F2406244B747024023A697204249D24404
:1003C00005618280B747024003A7C72023A6072004
:1003D0000F10000001C599C1814711EAB7470240DB
:1003E00023A6E720054582808507E309F6FE33084A
:1003F000F500B386F5000348080083C60600E30550
:10040000D8FEB747024023A6E72001458280B747C0
:10041000024003A7C72023A607200F100000930760
:10042000F6FFBE952A966317C500B747024023A67C
:10043000E7208280FD1583C715000505A30FF5FE93
:10044000DDB7374702408327C720232607200F1038
:10045000000001C53307C50019E6374702402326CF
:10046000F7200145828005058346F5FFE397B6FE38
:10047000E31BE5FE374702402326F720054582802F
:100480007971972700209387279B22D4804306D633
:1004900026D24AD04ECE52CC56CA5AC85EC669C081
:1004A000B7C4C901014B97290020938969989384A7
:1004B000F437172A0020130A6A98972A0020938A93
:1004C000EA92172900201309E99B8357240095E33A
:1004D0005C44631D0B0017270020232FF794832B08
:1004E000C4002285EF00F05F5E84A9A82326FB00EC
:1004F000FDB783A7090082971C443307F540637654
:10050000F500032749001D8F2A9763E0E408972729
:10051000002023A5078E8355240003450400EF40E7
:1005200080525C405844A1CB0C4403264900AE974E
:10053000BE8663E4B70063E4C700B386C74014C453
:10054000228B3A8459F0972700209387278A9C4B67
:1005500005476372F706FD17172700202320F78A47
:10056000B250225492540259F249624AD24A424B42
:10057000B24B4561828063170B009727002023ADA3
:10058000E78AB1BF2326EB0099BF03278A0209CF70
:1005900063EFA7003385A74083A70A016376F500C0
:1005A0009727002023ACA784228B404461BF0327F8
:1005B0004900BA97C5B79727002023A107844DB7F4
:1005C00001114EC6B747024006CE22CC26CA4AC801
:1005D00052C483A9C72023A607200F1000001729A3
:1005E00000201309298A9727002083C7678A0325DB
:1005F0004900ADC39727002083D78795A1CF9727C0
:1006000000209387A78903A4070B6305A404971709
:1006100000209387A77D984B3E8A6307A7109724F5
:1006200000209384E4809C408297636BA40E9C40DE
:10063000098C829703270A016373E4002287B307BA
:10064000A7003E858326490063E4E70063E4D70002
:100650003385D740B747024023A637218327490077
:10066000639FA702171400201304447818489717B3
:1006700000209387E77B9C43631AA70A829783260F
:100680004900B74736FE938707C8B6973387A70058
:100690003A856364F7006364D7003305D7401724B5
:1006A0000020130464935C5081CF97270020938728
:1006B000679A94433707CDFF7D179C46F98F9CC6F8
:1006C00019E103254900854717270020232CF790BF
:1006D00097170020938787769C57829711ED5C507F
:1006E00099CB5C4489CBEF502028EF4030489727C6
:1006F000002023A9078E69335C5099CB97270020EF
:10070000938747959843B70633001C47D58F1CC77E
:10071000F2406244D2444249B249224A0561828091
:10072000832749003E9421B722852DB7829714482C
:1007300003274900B387A6003E8563E4D700E3E0C2
:10074000E7F63385E740A1BF23AAA18201C585470B
:10075000238CF1828280938741839C4381CF411116
:1007600006C6829783C7818399E323AA0182B24098
:100770004101828083C7818381E723AA018282802D
:100780008280411126C206C622C49717002083C763
:10079000277097140020938424689DE797270020F2
:1007A00083C7D783858B172700201307E78289CF5C
:1007B0008347770099466395F60C97270020A38F0F
:1007C00007802526DC4482979C4491C382971714A6
:1007D00000201304246618401716002003461661F3
:1007E0009717002083C7876093961700BA9683D621
:1007F0000600DDC29717002083C7475F63E8C70A7A
:10080000971700202384075E9717002083C7577D22
:10081000971400209384447C639607129717002056
:10082000938707619C43638A07109717002093877B
:100830006765DC43171700202322F75C9131971777
:1008400000209387A75F9C576389070E83C77400B6
:1008500011476364F70E9717002083C7677D918B5C
:10086000E9EF83C78183F1EB10409716002083C620
:10087000F65763C6D70E2244B2409244410189B371
:10088000834777001D47E311F7F497170020A387EC
:100890000774A12C9C4805BF850793F7F70F97169F
:1008A00000202385F654E3EDC7F2A9B786073E97EB
:1008B0008355070023100700971700202398075639
:1008C00097170020938707559C4317150020034571
:1008D000E55113172500BA979C438297971700207C
:1008E00083D7C754171700200347475093C7F7FF14
:1008F0007D8D9317170018403E97835707005D8D35
:100900002310A7009717002083C7474E91C785077C
:1009100017170020230CF74C9C4091C7829797171C
:10092000002023AB074E171700200347274C9717CB
:10093000002083C7B74BE375F7ECB24022449244E2
:100940004101828083C7740093F7F70FE39807ECA7
:1009500097170020A3860768EF40504EC1B5139744
:10096000170032970357070069FB850719B7374708
:1009700002408326C720F177FD17F58F2326F72045
:10098000010001009717002093874746C84F83272F
:1009900087262326D7206A0593C7F7FF99835D8DA5
:1009A00082809717002083C7974499CF971700201C
:1009B00083C7074E81CF971700209387A74D03A3C6
:1009C0000700630703000283054582800945828092
:1009D0001305F00F8280971600209386265F9842B9
:1009E000411126C21C5F06C622C49983858BB6843A
:1009F000CDC3930700061CDF9717002083C7C75D90
:100A000093F70704171400201304045D9DC3971780
:100A100000209387E7419C4382979717002023ABE0
:100A2000A75C8347040093F7F70B171700202305F3
:100A3000F75A8347040093F707029DC383470400D6
:100A4000A16693F7F70D171700202307F75817171C
:100A500000201307E75A5C481843860714C77CD761
:100A60008347440093F707048DE785471717002055
:100A7000A306F75697170020938787589C4309676A
:100A800098C7130700FC971600202389E6541848DE
:100A9000F8D398401C5F9183858B81CBC1471CDFC5
:100AA000854797160020238BF6521C5F9D83858B0C
:100AB00089CB930700081CDF854717170020230FF9
:100AC000F75097170020938727509C43D8430583FE
:100AD000058B19C7D843759BD8C3D843799BD8C316
:100AE000B2402244924441018280971700209387AC
:100AF00027519443971700209387074E03C7070099
:100B0000058B09EB03C71700058B09E7F8527DF742
:100B100083C7570097170020A382074C82801718BD
:100B200000201308A84A032708001C5F9583858BC3
:100B3000BDEB09C61C5BBD832300F60085CA832775
:100B40000800985B4607935767016356070093E7D1
:100B500007C0C207C18303970600C207C18709C740
:100B6000BA970947B3C7E7022390F60095C18347B8
:100B7000150099CF3E95834795000547194593F693
:100B8000F7066393E602E207E187394563CE070083
:100B90008327080001459C5FED838D8B171700208C
:100BA000A301F744828005458280411122C406C614
:100BB000171400201304C44418403DE5AE87745355
:100BC000FDFE3E85B2859717002023880740EF4041
:100BD000A07F971700209387673F9C43B70680004C
:100BE0009843558F98C3D857719BD8D79717002033
:100BF000A386073E97170020A380073E1C400947A5
:100C000098C31440171700201307073D8347270098
:100C1000858B99E783473700858B99E3FC52FDF775
:100C2000B2402244410182808D476310F50297173C
:100C300000209387A7399C43B70680009843558FBF
:100C400098C3D857719BD8D76DBF8547E31BF5FA7A
:100C50005447F977FD17F58F5CC70F1000001C4053
:100C6000096798C7130700F8171600202308E6360F
:100C700017170020130787351043184231830D8B57
:100C800011E713076019F8D3D4C7A5BF1842094666
:100C900031830D8B6315C7001307E043EDB71307CE
:100CA000E01BD5B75D7152DC171A0020130A0A3217
:100CB00003270A0086C6A2C4A6C2CAC04EDE1C43D1
:100CC000971900209389093917190020130949330E
:100CD00093F7F7E793E707081CC383A609003707D4
:100CE000CEFF7D179C46130680022A84F98F9CC68E
:100CF000832709002800AE8423A807049305100861
:100D0000EFF0CFE13545EF40102683270A009376B8
:100D1000F41F3706330023A40700984B370FFCFF5E
:100D20004E881367F70398CBF84FCA88130510F85D
:100D3000137707E0558FF8CF9843F576FD16758F3A
:100D400098C317170020A30B07288326090017173D
:100D50000020A3030728054798C29843D285B7020D
:100D600004001377F7E798C398439303802511494C
:100D70001377F7E71367071098C303A709007D1FD0
:100D800085491C47930F8002D18F1CC7930790059C
:100D9000BCCA01473400135337002693834703002E
:100DA00013767700B3D7C740858BDDCF9C41832E68
:100DB0000800239C07042390070603AECE02137E8F
:100DC000DEFF23A6CE0383AE0700137EF70793FE54
:100DD0000EF833EECE0123A0C70103AE4702336EF7
:100DE0005E0023A2C70383AE0800014E23A27E0645
:100DF00003DA070663074E0303AE0703038A060000
:100E0000135EFE00620E135E8E416358CA0103AE8C
:100E10000703135EFE002380C60103DE0706137E70
:100E2000FE0F03AA4E0663060A0003DA8705E37F76
:100E300049FB03AE4702337EEE0123A2C70383873B
:100E40000600635CF400034E03003396C9001346AA
:100E5000F6FF3376C6012300C3003E8663D3A700A6
:100E60002A8613158601618505071377F70F850616
:100E7000E313F7F3B640264496440649F259625A02
:100E80006161828097170020938787179C43D8471A
:100E90009316170163D5060298479316170163D07E
:100EA00006027D57B8D717170020130727F4584FAD
:100EB00005079716002023A9E6F4116798C79847FD
:100EC0000D83058B1DC317170020034707111367F8
:100ED0001700971600202382E610130700F89716D4
:100EE0000020238DE60E214798C79847058B09CF30
:100EF000171700200347570E136717009716002097
:100F0000A38CE60C054798C798470983058B09E72A
:100F100098470583058B35C317170020A300070CDE
:100F20009847171600201306260B97160020938665
:100F3000E6090983058B9442B28563000710984245
:100F400031830D8B65EBB04BD85113760602034706
:100F500017005DCA69EF1307D005D8CF03C7050096
:100F600013671700171600202308E606114798C7D5
:100F7000D856719B13671700D8D698479316370138
:100F800063D606029716002083C606F9C18A171792
:100F900000201307A7F0C5CE0347C7071367070252
:100FA00097160020238AE6F6056798C79847931698
:100FB000270163D1060217170020034727026207A3
:100FC0006187635707000547971600202388E600CE
:100FD000096798C798479316070163D606029716C4
:100FE000002083C676F3858A17170020130707EBC6
:100FF000ADCE0347D7071367270097160020A38DB0
:10100000E6F0216798C7828039D705466315C70087
:101010001307100699B709466315C7001307500652
:101020002DBF0D466315C700130790063DB7130784
:10103000B00625B71307C0060DB703473600136780
:10104000170017160020A30AE6F809470DB78346D4
:10105000C7070946BD8A6388C6000347C7078D4690
:101060003D8BE313D7F4114725BF8346D707918AF9
:10107000C9DA0347D7071367870041B797170020DE
:10108000938707F89C4398479716002023A2E6F61B
:10109000944717170020130727F48D82858A8DC285
:1010A0008346270093E61600171600202307D6F282
:1010B000930600F8171600202302D6F2A14694C723
:1010C0009447858A99CA8346170093E61600171637
:1010D0000020A303D6F0854694C794478982858A69
:1010E00089E694478582858AA1CE97160020A3873A
:1010F00006EE944717160020130646ED104289822B
:10110000858AD5C21442B1828D8AD9EAAC4B545338
:1011100093F5050283C61600B1CDC1E29306D00552
:10112000D4CF8346070093E6160097150020238549
:10113000D5EA914694C75456F19A93E6160054D6D0
:10114000944713962601635F060003474700620732
:101150006187635707000547971600202380E6E85C
:10116000096798C798479316070163D4060021675B
:1011700098C78280C5D685456395B600930610064C
:1011800045B789456395B6009306500651BF8D4516
:101190006395B6009306900661B79306B00649B70B
:1011A0009306C006B5BF8346370093E61600971531
:1011B0000020A384D5E28946B5BF97170020938706
:1011C00027E498438567938707777CD39717002098
:1011D000938747E89C4383A60709139656006358F4
:1011E000060083A60709139666006344060074533D
:1011F000FDF28280411122C4B747024006C603A413
:10120000C72023A607200F10000011C199E5B7479A
:10121000024023A6872001457DA893073500C20719
:10122000C183F19BC207C183130740036369F702BF
:10123000171700201307C7E90843171700201307E3
:10124000A7E814436392A60217170020130707BFED
:10125000585B55DFC207DD8D054502974DBF171757
:1012600000201307A7E6C9BF035765002DEB0357FE
:1012700045006366F706B306F7402146637CD60255
:1012800003280500938687001D8FAA9661171716FD
:101290000020035606B62392E60023A006012393FE
:1012A000060014C12312F500130786FF97160020CD
:1012B0002391E6B42313B5009715002083D565B3B9
:1012C000B387F540171700202315F7B2B747024040
:1012D00023A687202105B240224441018280084193
:1012E00095B7B747024003A8C72023A607200F10D1
:1012F000000001E523A6072182809717002093872D
:1013000027DD03AE0700971700209387E7DB03A3D1
:1013100007008146F28763F0670C83A80700636FBC
:10132000F50A63EDA80A138787006366E50A03D60A
:101330006700216705076317E60003C79183050768
:10134000A38CE18297150020938545AA03D6470018
:1013500003D765002393070032974207418317158F
:1013600000202318E5A8638AC7031715002013057A
:10137000E5D508416303F50203D5660019ED83D76F
:10138000460023A0160121073E9621062392C6009F
:1013900097170020239FE7A4B6879843630D670241
:1013A00097160020938686D294426306D70283560E
:1013B000670095E283D64700035647001843A1060D
:1013C000B2962392D70098C383D76500A107171759
:1013D00000202310F7A2B747024029BFBE86C68768
:1013E0001DBF971700209387A7CE971600209386DE
:1013F000A6CD9C4390422A87B305B5406314F600FE
:101400003A8529A8938687009C43E369D7FEE37752
:10141000F7FE2E85E3E4D5FEE3F2F5FE82800000C0
:10142000197106C212C416C61AC81ECA22CC26CE0C
:101430002AD02ED232D436D63AD83EDA42DC46DE34
:10144000CAC0CEC2D2C4D6C6DAC8DECAE2CCE6CEA4
:10145000EAD0EED2F2D4F6D6FAD8FEDA93854182FB
:101460008841E700050092402242B2424243D24303
:101470006244F244025592552256B2564257D25710
:101480006258F25806499649264AB64A464BD64B08
:10149000664CF64C065D965D265EB65E465FD65F90
:1014A0000961730020300000EFF0EFAA7300000024
:1014B00000000000938281830383020023800200E6
:1014C000630F0300F32510342EC0970500009385A9
:1014D000E5FD73901534EFF07FBA7300203086DCA1
:0C14E000EFF05F9AE650828000000000F0
:1014EC007300203037E700E0B707EFBE938707089B
:1014FC003CC701A0EFF06FCD73002030EF228004C9
:10150C0035226929716513050520ED29216513051F
:10151C00C5A6EF20001AEF009005EF00D018412C63
:10152C00854513059002552CEF10D03FEFE09FC07E
:10153C00411102C602C4371702401C43C166D58F45
:10154C001CC3B71702409C4337070200F98F3EC4F7
:10155C00B24785073EC6A24789E732478567E31243
:10156C00F7FEB71702409C4337070200F98F89CB6F
:10157C0085473EC4224785476306F70041018280B8
:10158C0002C4CDBFB7170240D843D8C3D843D8C381
:10159C00D84313670740D8C3D843B706C1FFFD161D
:1015AC00758FD8C3D843B7063D00558FD8C3984321
:1015BC00B7060001558F98C3B71702409C433707F5
:1015CC000002F98FF5DBB7170240D843719BD8C3E3
:1015DC00D84313672700D8C3B7170240DC43B18B3D
:1015EC002147E39BE7FE59BFA1B7B71702409843C9
:1015FC001367170098C3D843B706FFF0758FD8C38D
:10160C009843B706F7FEFD16758F98C39843B70637
:10161C00FCFFFD16758F98C3D843B70601FFFD1666
:10162C00758FD8C337079F0098C77DBFEF12907195
:10163C00B7170240DC43B18B1147638CE704214799
:10164C006382E70691CB37070020B7177A009387A0
:10165C0007202328F70809A837070020B7177A00B6
:10166C00938707202328F708B7170240D843118324
:10167C003D8BB707002093870700BA979423370751
:10168C00002083270709B3D7D7002328F7086F104A
:10169C00B06D37070020B757E801938707802328E0
:1016AC00F708D9B7B7170240C043DC434167F98F3D
:1016BC0049803D88090445476304E4029DEFB74720
:1016CC00024083A70780C18B91CFB7177A0093870D
:1016DC000720B307F402370700202328F70869B75F
:1016EC004944E9BFB7173D0093870790B307F4024D
:1016FC00370700202328F70885BFB7170240DC43C3
:10170C003707C000F98F6384E702B7170240DC4348
:10171C0037070200F98F85CFB7173D0093870790E5
:10172C00B307F402370700202328F70835BFEF0072
:10173C00D05C8547E31BF5FCB727F4009387074083
:10174C00B307F402370700202328F70831BFB71777
:10175C007A00938707203304F402B707002023A8EC
:10176C00870819B79307F00363ECA70012059D6770
:10177C009387074B3E955C4191C382803E85828066
:10178C000145E5BFBD4763E3A702B7270020131748
:10179C004500938747CEBA97D84309CBB72700208B
:1017AC001205938747CEAA97884702878280EF124B
:1017BC00705985451145EF00B04E85452145EF0028
:1017CC00304E85454145EF00B04D8545130500026F
:1017DC00EF00104D01456F103059EF12B05641110A
:1017EC002E8402C202C402C6B53F21C91E257C82CA
:1017FC008D473EC4914763E487040A049D67938731
:10180C00C7333E941C408287C1473EC64C004841BA
:10181C00EF00B026014541016F101055930780026F
:10182C003EC6EDB7930780043EC6CDB79307800242
:10183C003EC6E9BFD1473EC6D1BF7955E9BF795500
:10184C00D9BFEF1230502E84313F09C91306F4FF73
:10185C00133616000E254841EF00302F6F10D05074
:10186C00EF12504E731101340545EF00D00E09E50F
:10187C00731101346F10504F014529370545EF00A6
:10188C00D00FFDB7EF12104C731101340945EF0066
:10189C00900C09E5731101346F10104D0545DD35C1
:1018AC000945EF00900DFDB7EF12D04973110134CB
:1018BC001145EF00500A09E5731101346F10D04A3D
:1018CC000945C9351145EF00500BFDB7EF12904794
:1018DC00731101342145EF00100809E5731101342F
:1018EC006F1090480D45793D2145EF001009FDB76B
:1018FC00EF125045731101344145EF00D00509E555
:10190C00731101346F1050461145AD3D4145EF0048
:10191C00D006FDB7EF12104373110134130500020A
:10192C00EF0070030DE913050004EF00D0021DE970
:10193C0013050008EF0030020DED13050010EF0049
:10194C0090011DED13050020EF00F00029E173114B
:10195C0001346F1070411545353513050002EF0049
:10196C00D001D1B71945393D13050004EF00F00043
:10197C00C1B71D45013D13050008EF00100075BFF0
:10198C002145093513050010EF00207F65BF254563
:10199C00D53B13050020EF00407E55BFB707002054
:1019AC0083A7070937177A0013070720B3D7E70275
:1019BC0093F7F70F2381F1821307803EB387E70279
:1019CC002390F1828280B7F700E0D843799BD8C38B
:1019DC0003C721823306A702814690CBD4CB984310
:1019EC001367070198C398431367170298C3B7F797
:1019FC0000E0DC43858BE5DF37F700E01C43F99B07
:101A0C001CC38280EF12103479712A8402C602C87A
:101A1C00854537050200EF00902A85451145EF00FA
:101A2C00302891472312F1028D473ED4E1473ED630
:101A3C004C103715014013050580EF00100422CA25
:101A4C00231C0100231D0100231E01002310010291
:101A5C00A147FC874C083744004013050440EF10A5
:101A6C00E02E05469305505213050440EF10C03A82
:101A7C0005469305606213050440EF10E0399307A7
:101A8C0060035C868947DC865C8785473EC86800B6
:101A9C00EF00500C854513050440EF1020364561CE
:101AAC006F10902CEF127028AE84328A014989A0F5
:101ABC0083C7818093F7F70FE5DF014693056062DA
:101ACC003744004013050440EF100035938914008F
:101ADC008C2013050440EF108037238401800546C9
:101AEC009305606213050440EF1000330509CE84A2
:101AFC00E34049FD52856F109026AA8737070020D6
:101B0C0003254709AA97372700201307470D63EDD4
:101B1C00E70037070120130707806369F7003707D1
:101B2C000020232AF70882807D5582807D55828093
:101B3C00930550523745004013050540EF106032B5
:101B4C0001ED930560623745004013050540EF1029
:101B5C00403101ED73002030930550523745004061
:101B6C0013050540EF10202FE9BF05472384E180C2
:101B7C00930500043745004013050540EF10A02DD8
:101B8C00D1BF0D456F00703BEF12D01BB28713967F
:101B9C002500AA853E85EFE00FF101456F10D01CA2
:101BAC00EF12501A2A84B284F12B22851125A685B6
:101BBC002285152DFD230545393501456F10D01AA9
:101BCC00EF1250182E8493970501C18763CD07003F
:101BDC0093F715009DE38967ED8F9DE311656D8D7E
:101BEC0029E16F107018EFE0AFE119C1EF2030461A
:101BFC006175218D42054181EDB713C51500D5B72F
:101C0C00EF301046BD3F37F60200130606E089653B
:101C1C0003C58182EF20706B0965218D42054181DE
:101C2C00C9B721651305058BEF10B02813060064A6
:101C3C00916503C58182EF20506991673D8C131526
:101C4C000401418179BFEF12F00C397102D002D23C
:101C5C0002D402D602D802DA02DC02DEB717024046
:101C6C0083AD870103AD47003724014013040440C2
:101C7C00832C4400032C8400832BC402032B040309
:101C8C00832A4403032AC400832904010329440141
:101C9C00044C5C4C3EC41C503EC65C503EC81C54AC
:101CAC003ECA1C5C3ECC854513050020EF00407FEE
:101CBC003165EF0040742285C12402D002D202D4D7
:101CCC00B7070E003ED602D88547230AF1020C1046
:101CDC002285ED24854522852D2E85452285B12929
:101CEC00054505219D460546C1452285992E85450C
:101CFC002285152E894537250140130505400529F8
:101D0C0075D93724014013050440C52E2ACE13057E
:101D1C0004409D24B717024023ACB70123A2A701AE
:101D2C00232294412324844123267443232864438F
:101D3C00232A54432326444123283441232A244173
:101D4C00232C9440A247232EF440B2472320F44284
:101D5C00C2472322F442D2472324F442E247232CE5
:101D6C00F44213040440724521616F10607EEF123F
:101D7C00607D5D7185679387474B23A2F182554641
:101D8C00A1659385458B21651305C5A6EFE0CFE2D0
:101D9C0019E521651305C58CEF10B01101A0B7270B
:101DAC000240D857B7060090FD16758FD8D7D85774
:101DBC00B7060030558FD8D7D857B7060003558FC4
:101DCC00D8D71306000481450808EFE06FD4B70795
:101DDC0000209387470E3EC88967938707C0FC8213
:101DEC00ED472310F1029547A30FF100854723011E
:101DFC00F102A5472302F102B7870708938707C0B2
:101E0C003ECC8D47230FF1008967938747B9BEC439
:101E1C0089679387C7BABEC69167938707E823176C
:101E2C00F1029307803E2318F102B547A302F10299
:101E3C008967938727C53EDE89679387E7B8BEC05D
:101E4C0028000929814719A8138707050A97834693
:101E5C0087FB230CD7FC850793F7F70F1547E37522
:101E6C00F7FEC24789C7B88285676373F70001A084
:101E7C000808EF30E000AA8519C521651305058E09
:101E8C00EF10406F01A0854513050004DD2BB7E76B
:101E9C0000E03707008023A2E710054723A4E710D2
:101EAC0061616F10606CEF12E06909651305C5BCC8
:101EBC00EF2050792384A1821D2037F602001306EF
:101ECC0006E0896503C58182EF203040130600646B
:101EDC00916503C58182EF20503F6F10E068EF12CF
:101EEC006066411102C002C202C402C685453705B4
:101EFC000018F1230545CD210545812301452923F2
:101F0C0013050020892B0545A92BEF00B000EF002D
:101F1C0070000545EF00C07DEF00C07F0145EF006C
:101F2C00007BEF00207FB1399307803E7C85916761
:101F3C00938707E87C84FD573EC289679387C76601
:101F4C003EC00A85EF30C00F01E541016F10C06142
:101F5C00AA85216513050590EF10C061FDB70547F3
:101F6C0023A6E18237050200092C0945EF00A07B6E
:101F7C00EF00407A73002030EF12C05CB7270140AD
:101F8C0093870740630AF500B737014093870780B2
:101F9C00630DF5006F10405D8545130500203D2B4A
:101FAC008145130500201D2BF5B785451305004011
:101FBC0035238145130500401523E9BF5841B70768
:101FCC00F1E09387F7EF7D8F9C41944DD58FD44DE5
:101FDC00D58FD441A206D58FD98F5CC11845B7F7E0
:101FEC00F1FF9387D77F7D8F9C49D445D58F94453E
:101FFC008606D58FD98F1CC55855B70710FFFD170E
:10200C007D8FDC29FD1793F7F70FD207D98F5CD59D
:10201C00828091C51C4593E717001CC582801C4526
:10202C00F99B1CC5828099C51C4537075000D98F78
:10203C001CC582801C453707B0FF7D17F98F1CC566
:10204C008280A54763F7B7040328C500938765FF13
:10205C00139717003E979D47B397E70093C7F7FF79
:10206C00B3F70701B396E600D58F5CC5994763E3D8
:10207C00C70458597D16931726003E96FD47B39713
:10208C00C70093C7F7FFF98F3396C500D18F5CD982
:10209C00828003280501139715002E979D47B3974F
:1020AC00E70093C7F7FFB3F70701B396E600D58FA8
:1020BC001CC96DBFB14763E2C702145965161317EB
:1020CC0026003297FD47B397E70093C7F7FFF58FCC
:1020DC003397E500D98F1CD9828054554D161317B0
:1020EC0026003297FD47B397E70093C7F7FFF58FAC
:1020FC00B395E500CD8F5CD5828068454205418162
:10210C00828019C9B727014003A78740B706800012
:10211C00558F23A4E7408280B727014003A787404F
:10212C00B70680FFFD16758F23A4E74082801C4103
:10213C0033F5F50011C10545828099C55C4137071F
:10214C000004D98F5CC182805C41370700FC7D178D
:10215C00F98F5CC18280B70701409386074083A743
:10216C00074033F7A700DC4AE98F81C709E701452F
:10217C0082800145828005458280B707014023AAF1
:10218C00A7408280B7270240B70667459386361270
:10219C00D4C33797EFCD1307B79AD8C3D4D3D8D3BA
:1021AC008280372702401C4BA166D58F1CCB8280C6
:1021BC00137505F0B7270240984BB7060200558FF0
:1021CC0098CBC8CB984B1367070498CBB727024022
:1021DC00DC47858BE5FFB72602409C4A01777D17CB
:1021EC00F98F9CCA82802E86937605F037270240A1
:1021FC001C4BC165CD8F1CCBB7270240DC47858BB0
:10220C00E5FFB7270240DC47898BE5FF1307000485
:10221C0029A81C429CC2910611067D171377F70F53
:10222C00B7270240DC47898BE5FF65F7372702406B
:10223C001C4BB7062000D58F1CCBB7270240DC47C0
:10224C00858BE5FFB72602409C4A41777D17F98FB5
:10225C009CCA828037F7FF1F8327877E1CA193D6E9
:10226C00870014B193D6070134A1E1833CB18327D5
:10227C00C77E5CA1A1835CB182809C4593F8F7007A
:10228C00C18B81C7DC41B3E8F8009C21B9CB032892
:10229C000500014719A05CC905079D4763E1E704E8
:1022AC008547B397E7009621FD8EE397D7FE13166B
:1022BC002700BD46B396C60093C6F6FF33F8060159
:1022CC003396C80033680601944513068002E384F4
:1022DC00C6FC13068004E391C6FC1CC975BF232001
:1022EC0005019A219307F00F63F0E70603284500D8
:1022FC00014739A09045930680046303D604050773
:10230C009D4763E1E704930687008547B397D700A1
:10231C009621FD8EE395D7FE13162700BD46B39686
:10232C00C60093C6F6FF33F806013396C80033682F
:10233C000601904593068002E31ED6FA5CC95DBF88
:10234C001CC975BF23220501828019C20CC9828069
:10235C004CC9828003A7018385476302F7025C4165
:10236C00A1CF1821935757008546B396E600938763
:10237C0007048A0737E700E0BA9794C382801C31C0
:10238C000547638EE700E1FF14213C21960793F784
:10239C00F70F37E700E036972300F740C9B7142151
:1023AC003C21960793E707F893F7070E37E700E011
:1023BC0036972300F74065B7182193575700854689
:1023CC00B396E600938707068A0737E700E0BA97CB
:1023DC0094C30F100000828001C9377700401C4362
:1023EC0093E707101CC38280377700401C4393F798
:1023FC00F7EF1CC38280B7160240DC4251777D1781
:10240C00F98FC98FDCC28280B71702402380070284
:10241C002380070285476306F50091476309F500A1
:10242C008280B717024005472380E7028280B717E6
:10243C00024015472380E702828001C9371702400A
:10244C005C5393E717005CD38280371702405C53D0
:10245C00F99B5CD38280371702401C53C98F1CD365
:10246C00828001C9371702401C53A166D58F1CD33B
:10247C008280B71602409C5261777D17F98F9CD2EF
:10248C00828099C5371702405C4BC98F5CCB828028
:10249C00371702405C4B1345F5FFE98F5CCB82800C
:1024AC0099C5371702401C4FC98F1CCF8280371734
:1024BC0002401C4F1345F5FFE98F1CCF828099C554
:1024CC00371702405C4FC98F5CCF828037170240B0
:1024DC005C4F1345F5FFE98F5CCF828099C53717A8
:1024EC0002405C47C98F5CC78280371702405C474B
:1024FC001345F5FFE98F5CC7828005458280EF129A
:10250C0060042A84B7170240DC43B18B1147638EF9
:10251C00E70621476381E70899C7B7177A009387C5
:10252C0007201CC131A0B7177A00938707201CC164
:10253C00371602405C429183BD8B3707002013078E
:10254C000701BA9794231C40B3D7D7005CC0544200
:10255C00A1829D8ABA969422B3D6D70014C4544251
:10256C00AD829D8A36971823B3D7E7005CC45842D6
:10257C0039830D8B9386C180369718231377F70F09
:10258C00B3D7E7021CC86F00307EB757E8019387BA
:10259C0007801CC171BFB7170240C443DC434167BD
:1025AC00F98FC980BD88890445476381E4028DEBAE
:1025BC00B747024083A70780C18B99CBB7177A0026
:1025CC0093870720B387F4021CC09DB7C944C5B7D5
:1025DC00B7173D0093870790B387F4021CC089BFDF
:1025EC00B7170240DC433707C000F98F6381E7025D
:1025FC00B7170240DC4337070200F98F8DC7B717B6
:10260C003D0093870790B387F4021CC015B7F535CE
:10261C008547E31FF5FCB727F40093870740B38782
:10262C00F4021CC031B7B7177A0093870720B38424
:10263C00F40204C0F5BDB737004003D747801367D9
:10264C0007012392E7808280373700408357478009
:10265C00C207C183BD9BC207C1832312F78082804E
:10266C00B737004003D787814207418383D68781E0
:10267C00C206C182E316D7FEB737004003D7C78125
:10268C009387078042074183DE2FC207C183E3157E
:10269C00F7FE3737004003568781420641820355C7
:1026AC00878142054181E316A6FE638FA600B737EA
:1026BC00004003D7C7819387078042074183DE2FF1
:1026CC00C207C183E315F7FE42055D8D8280EF02E0
:1026DC0070672A848D3713570401B7370040239C49
:1026EC00E78042044180239E8780B93F6F00D0670A
:1026FC00EF0250652A848137135704013D8BB7379D
:10270C0000402394E78042044180239687802D3F2C
:10271C006F009065B737004093870780DE2393F7EF
:10272C000702EDDB8280B737004003D747801345A3
:10273C00F5FF798D2392A7808280EF02105FAA8922
:10274C00B707002083A40709B727024003C79704E3
:10275C001377070FA384E70403C797041377F70FC6
:10276C00A384E7040149014405091379F90F35A83D
:10277C000947636D871205041374F40F6358F02A2C
:10278C00860737C70D00130707BA33C7E402B3C770
:10279C00E702850713D7F7013E970587B726024056
:1027AC00FE3ABA97C207C183FEBAB727024003C7E5
:1027BC00F70413672700A387E70403D7C7049166C0
:1027CC00558F420741832396E70403D7C704E1766C
:1027DC00558F420741832396E704B727024093871E
:1027EC00C7029E33C207C187E3D907FEB727024051
:1027FC0003D7C70403C7F7041377D70FA387E704DE
:10280C0003C7F70413672700A387E70403D7C7049C
:10281C009166558F420741832396E70403D7C7047B
:10282C00E176558F420741832396E704153D2A8AAA
:10283C00053DE30F45FF372702408357C7049166D8
:10284C00D58FC207C1832316F704B727024093879D
:10285C00C7029E33C207C187E3C907FEB7270240F0
:10286C009387C7029E33C207C187E3D907FEB726F9
:10287C00024083D7C60411671306F7FFF18F03C616
:10288C00E6049316E600918EB697130707E833C754
:10289C00E402998F3797E4FF1307078C33C7E402E0
:1028AC00E358F7EC3307E040E3D4E7ECB7270240FA
:1028BC0003C797041377070FA384E70403C7970490
:1028CC0013672700A384E70403C7F7041377D70F14
:1028DC00A387E70403C7F70413672700A387E7045C
:1028EC0003D7C704E176558F420741832396E7044B
:1028FC0003D7C7049166558F420741832396E7049B
:10290C00B72702409387C7029E33C207C187E3D91A
:10291C0007FEB727024003D7C70403C7F704137792
:10292C00D70FA387E70403C7F70413672700A38710
:10293C00E70403D7C704E176558F420741832396FA
:10294C00E70403D7C7049166558F4207418323964A
:10295C00E70439332A8A2933E30F45FF372702402E
:10296C008357C7049166D58FC207C1832316F7041A
:10297C00B72702409387C7029E33C207C187E3C9BA
:10298C0007FEB72702409387C7029E33C207C18751
:10299C00E3D907FE372702408357C7049166FD161B
:1029AC00F58F8346E7041397E600158FBA97374ADD
:1029BC000F00130A0A2433CA44031307803E33075B
:1029CC00EA02998F6353F0081307800CB387E70270
:1029DC001307803E33C7E4029306C02E3307D70299
:1029EC00A566938606CA3347D702B3C7E7028507A5
:1029FC0013D7F701BA978587635EF0083727024033
:102A0C001307C7023A2715833E979306F07F63D3CB
:102A1C00E608894763F42707372702407E3B89661F
:102A2C008116D58FC207C1837EBB49A0860737C7E5
:102A3C000D00130707BA33C7E402B3C7E702FD174B
:102A4C0013D7F7013E97058791BB1307800CB3870B
:102A5C00E7021307803E33C7E4029306C02E330708
:102A6C00D702A566938606CA3347D702B3C7E702D7
:102A7C00FD1713D7F701BA978587BDBF37270240DB
:102A8C007E3B93F7F70FA1668116D58FC207C183E2
:102A9C007EBBD9B963C4071CB7260240FA3A960725
:102AAC00C207C183BA97C207C183FEBAB7270240D7
:102ABC0003C797041377070FA384E70403C797048E
:102ACC00336737011377F70FA384E70403C7F704C1
:102ADC001377D70FA387E70403C7F70413672700FF
:102AEC00A387E70403D7C704E176558F42074183D8
:102AFC002396E70403D7C7049166558F4207418399
:102B0C002396E704B72702409387C7029E33C20778
:102B1C00C187E3D907FEB727024003D7C70403C711
:102B2C00F7041377D70FA387E70403C7F7041367DA
:102B3C002700A387E70403D7C704E176558F420724
:102B4C0041832396E70403D7C7049166558F420748
:102B5C0041832396E704EFF0BFB0AA8AEFF05FB091
:102B6C00E30E55FF372702408357C7049166D58F74
:102B7C00C207C1832316F704B72702409387C70205
:102B8C009E33C207C187E3C907FEB727024093876C
:102B9C00C7029E33C207C187E3D907FE372702401D
:102BAC008347F70493F7D70FA307F7048357C7049A
:102BBC009166FD16F58F8346E7041397E600158F93
:102BCC00BA970967130707F433173701330AEA0278
:102BDC001357FA411377F70F529721870E07998FE6
:102BEC00635DF00A1307800CB387E7028546B39642
:102BFC00360113D7F6410D8B369709879306803E25
:102C0C00B3C6D4023307D7029306C02E3307D702BC
:102C1C00A566938606CA3347D702B3C7E702850772
:102C2C0013D7F701BA9785876358F00C3727024002
:102C3C001307C7023A2715833E979306F07F63DD8F
:102C4C00E60A894763FE2709372702407E3B8966DF
:102C5C008116D58FC207C1837EBBD9A0372702400E
:102C6C001307C7023A271583B306F040E356D7E2A1
:102C7C00894763F82701B7270240FA3B7D8BFABBE3
:102C8C0035B5372702407E3B93F7F70F85668116E3
:102C9C00D58FC207C1837EBBC1BC1307800CB38721
:102CAC00E7028546B396360113D7F6410D8B36975E
:102CBC0009879306803EB3C6D4023307D702930626
:102CCC00C02E3307D702A566938606CA3347D702B0
:102CDC00B3C7E702FD1713D7F701BA978587A9B7D2
:102CEC00372702407E3B93F7F70FA1668116D58FED
:102CFC00C207C1837EBB8DBC63DF0702372702404E
:102D0C001307C7023A271583B306F0406355D70261
:102D1C00894763F92701B7270240FA3B7D8BFABB41
:102D2C006F00F003372702407E3B93F7F70F93E7D2
:102D3C00077E7EBB15BCB7260240FA3A9607C2073F
:102D4C00C183BA97C207C183FEBAD9BFEF02807F95
:102D5C0001112A84AE841A29FE21F576FD16758F91
:102D6C00D98F1EA95A25D6219225BE25D18ED58F55
:102D7C00FD769386369F758FD98F5EA55E29C20727
:102D8C00C183DA2593F7F7CFD98F5EA96800EFF0EE
:102D9C000FF7B747014093870780630BF404524544
:102DAC0081476547B307F702B335A70290400A067F
:102DBC0081463305A702BE955D2E93064006335718
:102DCC00D502120793574700B387F602B307F540B5
:102DDC00920793872703B3D6D7021306F063637C5D
:102DEC00F6004107420741831AA405616F00C077C2
:102DFC00624581477DB7BD8A558FEDB781C95E2588
:102E0C000967D98FC207C1835EA582805E25797759
:102E1C007D17F98F5EA5828093F7F50F9583054793
:102E2C00B315B700638BE7000947638AE7005105C8
:102E3C0009CA1C41CD8F1CC182803105D5BF41050B
:102E4C00C5BF1C4193C5F5FFED8F1CC1828093F566
:102E5C00F51F4EA1828093C5F5FFC205C1810EA15D
:102E6C00828093F7F50F958385463397B60063817F
:102E7C00D70289466381D7025E297D8FA181854760
:102E8C00B397B7001621FD8E11CB99EA01458280CC
:102E9C005E257D8FE5B71E297D8FCDB701458280DC
:102EAC000545828001A097E1FF1F9381E19D17D119
:102EBC0000201301611417550000130565DB97D52D
:102ECC00FF1F938565131386C18163FAC5008322A6
:102EDC00050023A0550011059105E3EAC5FE1385F5
:102EEC00018297F5FF1F9385651E6377B50023203C
:102EFC0005001105E36DB5FEFD42739002BC8D42D9
:102F0C0073904280930280087390023097D2FFFF37
:102F1C009382C20E93E2320073905230EFE0EFECEA
:102F2C0097E2FFFF9382C25D7390123473002030DE
:102F3C00EF0240610C21C1476387F5002165130541
:102F4C0005970D2D15A52A84894503C50181EF1020
:102F5C00D02E216513058591EF00A07510300C2043
:102F6C0021651305C5943925F1BFEF02A05D2E84B0
:102F7C0093970501C18763C9070093F7150095E383
:102F8C0013F5250051E1CDA3EFD08FA7AA8409C575
:102F9C0045372685EF10B00B6175218D42054181B7
:102FAC00DDB73145EFD00FA0AA8521CDC5471CA1B7
:102FBC00930770071CB1B70700209387070283CED5
:102FCC00070003CE170003C3270083C8370003C8CC
:102FDC004700C833F023F43398279C372381D5015D
:102FEC00A381C50123826500A382150123830501FA
:102FFC00E8B190A594B5B8A5BCB503C51181EF1087
:10300C00B0091345140041B72165130545985525A2
:10301C00134524008DBFEF02E0520C21C547638796
:10302C00F500216513050597B1233DABAA842165F5
:10303C001305C59CBD2D90308C2021651305C594BE
:10304C00152B2165130505A03523014409A8B38769
:10305C008400AC232165130585A0292B0504A54705
:10306C00E3D787FED9B7EF02E04D2E849397050185
:10307C00C18763CC070093F715008DE793F7250004
:10308C00A9E713F5450035E9C5A1EFD06F97AA84E0
:10309C0009C551372685EF10807B6175218D42055E
:1030AC004181DDB7854513059002EFE08FF91306DA
:1030BC000032894503C51181EF10302121651305BC
:1030CC00C5A0C52B13451400C1B78145130590024B
:1030DC00EFE02FF721651305C5A2E12B1306006461
:1030EC00854503C51181EF10501E914503C5118113
:1030FC00EF10B0141345240041BF21651305C5A47E
:10310C004D2B0945EFD00F8AAA8511C9C1471CA1C7
:10311C00930750051CB103C50181EF10E0771345EF
:10312C0044009DB7EF0200420D6513052507EF1013
:10313C007051A388A1800D65130565F7EF109050B1
:10314C002388A180854503C51181EF10100F13064C
:10315C000064894503C51181EF103017056613060D
:10316C0006C8854503C50181EF10F02BF5AE3288FA
:10317C00AA882E87DDEA63F1C510C167636DF61866
:10318C00B7070001B337F600B307F040E19BE10746
:10319C003353F600975600009386468E9A969422E7
:1031AC0013030002B697B306F340630BF300339797
:1031BC00D500B357F5003318D6005D8FB318D50082
:1031CC00135608013355C70293160801C18293D7D1
:1031DC0008013377C702B385A6024207D98F63FA79
:1031EC00B700C2971307F5FF63E4070163EDB7302F
:1031FC003A858D8F33D7C702C20893D80801B3F72D
:10320C00C702B386E602C207B3E8F80063FBD80036
:10321C00C2989307F7FF63E50801791763E3D800B9
:10322C003E874205598D8145828063F5D5008145E5
:10323C0001458280C16763E7F618B7070001B3B791
:10324C00F600B307F040E19BE10733D8F6001757BF
:10325C0000001307A78242971823930800023E9799
:10326C003388E8406394E81863E1B6283335C50029
:10327C0013451500814582804DC6C167637FF624D6
:10328C0013370610134717000E07B356E60097477F
:10329C0000009387A77EB6979C2393060002BA97EB
:1032AC00B38EF640639EF608B387C540935606016D
:1032BC0042064182854533D5D70213D70801B3F7AF
:1032CC00D7023303C502C207D98F63FA6700C297CE
:1032DC001307F5FF63E4070163E467223A85B387BC
:1032EC00674033D7D702C20893D80801B3F7D70287
:1032FC003306C702C207B3E8F80063FBC800C298E4
:10330C009307F7FF63E50801791763E3C8003E876D
:10331C004205598D82809337061093C717008E078C
:10332C0085BD81469747000093874775B6979C23C8
:10333C00014793060002BA97B38EF640E386F6F681
:10334C003318D60133D3F50093560801335ED302FC
:10335C0013160801B395D5014182B357F500CD8FF3
:10336C0013D70701B318D5013373D302B305C603C2
:10337C00420333676700637BB70042971305FEFF78
:10338C00636C0717637AB716791E42970D8F335506
:10339C00D702C207C1833377D7023303A602420791
:1033AC00D98F63FB6700C2971307F5FF63E207151C
:1033BC0063F067147915C29793150E01B3876740B4
:1033CC00C98DD5BD93B7061093C717008E0733D898
:1033DC00F600174700001307676A429718239308F3
:1033EC0000023E973388E840E380E8E8335EE6006D
:1033FC00B3960601336EDE00B3D8E500935E0E0182
:10340C00B3D7D80313130E01B3950501135303015E
:10341C003357E5004D8F9356070133160601B3F869
:10342C00D803B305F302C208B3E6160163FBB6007A
:10343C00F2969388F7FF63E3C60D63F1B60CF917A8
:10344C00F2968D8EB3D5D60342074183B3F6D603DD
:10345C00B308B302C206558F637B1701729793862C
:10346C00F5FF6369C70963771709F9157297C207E6
:10347C00C16ECD8F9386FEFFB3F5D70013D3070132
:10348C00F18E4182338ED50233071741B306D30236
:10349C0093580E01B385C502B695C6953303C30286
:1034AC0063F3D500769393D605019A966363D7029E
:1034BC006305D7003E8581458280C166FD1633F7D2
:1034CC00D5004207337EDE00331505017297E37396
:1034DC00E5FE1385F7FF81458280B707000163770E
:1034EC00F6029356060141475DB38145054582803E
:1034FC003A85D9B5B685A5BF2A8E49BDC68791B781
:10350C007915C297E9BB7915C297E5B19356860137
:10351C006147B5BB397101436EC619A0397141536E
:10352C006AC866CA62CC5ECE19A0397101535AD0F2
:10353C0056D252D44ED64AD826DA22DC06DE3301D5
:10354C006140828241114AC026C222C406C68282D0
:10355C00B24D4101024D924C224CB24B4101024BF7
:10356C00924A224AB2494101024992442244B24051
:10357C00410182805D7122D406D62A842EDA32DC97
:10358C0036DEBAC0BEC2C2C4C6C603A5418111C5CF
:10359C001C4D81E72AC6812B32450C4554182286D6
:1035AC0036CEEF00B021B2502254616182800111FD
:1035BC0026CA06CE22CC4AC84EC652C4AA8419E1E9
:1035CC001C4502901C4D2E89ADE3312B9C4C804444
:1035DC00B9CF974700009387675E631DF404C04022
:1035EC007C50858B99E75E2493F7072099E3284C50
:1035FC00B5255E24A18B99C31C48D5E3A2852685ED
:10360C009D2A51CDFD547C50858B99E75E2493F710
:10361C00072099E3284CA125F24062444249B24963
:10362C00224A2685D2440561828000455DB72685F5
:10363C005D2945B797470000938747566314F400FC
:10364C00804479BF9747000093874753E31AF4F8F7
:10365C00C04479B71CC4050963C807021C40138712
:10366C00170018C08CA31C4483450900FD17FDF1FD
:10367C001CC463D907022286A94526853D28FD571F
:10368C00E302F5F8A94441B7184C63C4E700E3978B
:10369C0045FD228626851520E31735FDA5B7FD5976
:1036AC00294AD1B71C401387170018C0294798A383
:1036BC00D1BFAA8503A54181DDBD011122CC26CA4B
:1036CC004AC806CE4EC6AA842E89328401C51C4D2A
:1036DC0091E31129974700009387474E6317F40233
:1036EC00C0401C4C1CC45E24A18B99C31C4895EF94
:1036FC00A2852685492015C97D59F2406244D244E1
:10370C00B2494A85424905618280974700009387F8
:10371C00E7486314F4008044E9B7974700009387A7
:10372C00E745E310F4FCC0446DBF1C480840937996
:10373C00F90F1379F90F1D8D5C486346F500A285CE
:10374C002685912C55F91C440505FD171CC41C40FD
:10375C001387170018C0238037015C486388A700C3
:10376C005E24858BD9DBA947E319F9F8A285268558
:10377C001D2441D551B7411122C426C24AC006C6E8
:10378C0083A441812A892E8489C49C4C99E3268583
:10379C00992E97470000938767426313F402C04049
:1037AC008317C40013F7870025E713F707010DEB08
:1037BC0025472320E90093E707045EA47D5571A0FB
:1037CC00974700009387873D6314F4008044C9BF7A
:1037DC00974700009387873AE314F4FCC044C9B7B9
:1037EC00918B9DC34C5889C9930744046384F5009D
:1037FC004A85A523232A04025E242322040093F77E
:10380C00B7FD5EA41C481CC05E2493E787005EA431
:10381C001C4899EB5E241307002093F70728638557
:10382C00E700A2854A8549298317C40013F71700BE
:10383C001DC35848232404003307E04018CC184813
:10384C00014501E713F707083DF7B24022449244C3
:10385C0002494101828013F72700814611E3544845
:10386C0014C4F1BF8397C500011122CC26CA06CE21
:10387C004AC84EC613F78700AA842E8479E3D84130
:10388C006345E000B8416356E008585459C3B1830E
:10389C0003A90400858B23A004000C50A9CB70480D
:1038AC005E24918B99C75C401D8E5C5899C33C403B
:1038BC001D8E5C540C50814626858297FD57630CF7
:1038CC00F5041C480567232204001CC05E24F98FF4
:1038DC0091C368C84C5823A0240185CD9307440498
:1038EC006384F50026859529232A04021DA0014630
:1038FC00854626850297FD572A86E313F5FA9C40E8
:10390C00C5D375476385E70059476395E70623A040
:10391C0024010145B5A098408317C40001CFF5469A
:10392C006305D700D9466319D7041C482322040029
:10393C001CC04DB71848B1832322040018C0858BD6
:10394C0041BF83A90501E38609FC03A905008D8B02
:10395C0023A0350133093941014791E3D84918C4F3
:10396C00E35920FB1C540C50CA864E862685829740
:10397C00634FA0008317C40093E707045EA47D5532
:10398C00F2406244D2444249B24905618280AA990C
:10399C003309A940F1B79C49411106C622C426C27D
:1039AC0081EB8144B24022442685924441018280BD
:1039BC00AA842E8401C51C4D91E335229747000043
:1039CC009387C71F631CF402C0408317C400F1DB4C
:1039DC007850058B11E793F7072099E3284CBD2C01
:1039EC002685A28541357C50AA84858BC5FF5E2433
:1039FC0093F70720C5FB284C9D246DB79747000013
:103A0C009387C7196314F4008044C1B7974700002B
:103A1C009387C716E31BF4FAC04445BF411122C477
:103A2C0006C62A844EA572A5232005002322050074
:103A3C00232405002322050623280500232A05003C
:103A4C00232C0500214681451305C505FD2C971730
:103A5C000000938747855CD0971700009387678792
:103A6C001CD4971700009387478B5CD497170000E2
:103A7C009387A78DB24000D01CD82244410182808C
:103A8C0097050000938565F1ADA2411126C29307FD
:103A9C0080069384F5FFB384F4024AC02E8922C4B5
:103AAC0006C6938544075D262A8419C92320050080
:103ABC0023222501310508C413868406814571240F
:103ACC00B2402285224492440249410182801385EE
:103ADC00018469A21385018459A213854184BDAA6E
:103AEC0013854184ADAA411122C406C62A84F53738
:103AFC001C4C89C72244B2404101DDB79707000036
:103B0C00938747F81CD42324040423260404232875
:103B1C00040483A781816394870085471CCC22858C
:103B2C003D2048C02285252008C422850D2048C48C
:103B3C00484001469145DD3508440546A545F93D0B
:103B4C0048440946C945D93D85471CCC65B7411148
:103B5C0026C24AC006C622C42A89953F83A4818105
:103B6C009C4C99E326854137938484048044DC4043
:103B7C00FD1763D607009C40B5C38440C5BF03172F
:103B8C00C40031EBC17785075CC41305840523227F
:103B9C000406E1208137214623200400232404005D
:103BAC002322040023280400232A0400232C0400CD
:103BBC0081451305C405512A232A0402232C04022F
:103BCC002324040423260404B24022852244924474
:103BDC000249410182801304840659BF91454A85EC
:103BEC006D3588C02A8451F9F535B1472320F90089
:103BFC00E1BF797122D44AD04ECE52CC5AC85EC69F
:103C0C0006D626D256CA2A892E8A130485048149DF
:103C1C00054BFD5B0444832A4400FD1A63D00A0261
:103C2C0000406DF8B250225492540259624AD24A62
:103C3C00424BB24B4E85F24945618280DE24637B58
:103C4C00FB008397E40063877701A6854A85029A77
:103C5C00B3E9A90093848406C9B7828082808280EC
:103C6C005971A2D42E848395E500A6D2CAD086D6EB
:103C7C00B284368963D205025E2493F707088DEB74
:103C8C0013070040B65026542320F90098C006595B
:103C9C00965401456561828030001127E34E05FC86
:103CAC003247BD67F98F7977BA9793B71700C9BFB9
:103CBC00814713070004F9B7DE25797122D406D6A3
:103CCC0026D24AD04ECE898B2E8491CF9307740482
:103CDC001CC01CC885475CC8B2502254925402596F
:103CEC00F2494561828074003000AA84953FA24954
:103CFC002A892685CE85992A19E98317C40013F7DA
:103D0C00072079FBF19B93E727005EA4C1B79707C7
:103D1C000000938727D79CD45E2408C008C893E77B
:103D2C0007085EA4B247232A340199CB8315E4001B
:103D3C002685512D11C55E24F19B93E717005EA4D7
:103D4C005E2433E527014AA441BF2A8311C6230010
:103D5C00B3007D16050365FE8280D1CD83A7C5FF18
:103D6C00011122CC06CE1384C5FF63D307003E9409
:103D7C002AC6752D1387C1841C43324581EB23223F
:103D8C00040000C36244F240056175A5637DF40034
:103D9C001040B306C4006396D7009443DC43B2963C
:103DAC0014C05CC0F9BF3E87DC4399C3E37DF4FECD
:103DBC0014433306D700631F86001040B29614C319
:103DCC003306D700E390C7FC9043DC43B29614C390
:103DDC005CC34DBF6375C400B1471CC165B71040CF
:103DEC00B306C4006396D7009443DC43B29614C068
:103DFC005CC040C341BF828041114AC01389818499
:103E0C008327090022C426C206C6AA842E8489E709
:103E1C008145A5212320A900A2852685B9297D5994
:103E2C00631A25017D54B2402285224492440249F2
:103E3C0041018280130435007198E30685FEB305B9
:103E4C00A44026851D29E31025FFE9BF011126CAD0
:103E5C0093843500F1984AC806CE22CC4EC6A104F4
:103E6C00B1472A8963F3F406B14463E2B4064A8588
:103E7C007D2B9389C18483A709003E8425E4A68504
:103E8C004A859D3FFD572A846314F50C03A4090051
:103E9C00A287D5E78329040081454A85A299F12E92
:103EAC006392A90A1C408D049D8CF198A104B14722
:103EBC0063F3F400B144A6854A853D3FFD57630387
:103ECC00F5081C40A6971CC03DA8E3D004FAB147E6
:103EDC002320F9000145F2406244D2444249B249E0
:103EEC00056182801440858E63C806042D47637D6E
:103EFC00D70204C0330794006396870223A0E9001D
:103F0C005C4014C35CC34A853D231305B40093077E
:103F1C00440061993307F540E30FF5FA3A94898F21
:103F2C001CC055BFD8C3E9BF58406395870023A078
:103F3C00E900D1BFD8C3C1BFA287404081B73E843E
:103F4C00DC4381BFB1472320F9004A85ED2159B7E5
:103F5C0004C155BF1C46FD171CC663DA0700184E7A
:103F6C0063C5E700A9476394F5006FF00FF51C4299
:103F7C002E851387170018C28CA38280011122CCC6
:103F8C0026CA4AC84EC652C406CE2A89AE89328485
:103F9C00B304D6007D5A63149400014501A80C208B
:103FAC004E864A85453F0504E31745FFF2406244BF
:103FBC00D2444249B249224A05618280357122CDF0
:103FCC0026CB4AC94EC706CF52C556C35AC1DEDEF0
:103FDC00E2DCE6DAAA892E843289B68409C51C4D46
:103FEC0099E3EFF05FB097470000938727BD631903
:103FFC00F40403A449007C50858B81EB5E2493F779
:10400C00072081E7284CEFF07FC55E24A18B99C374
:10401C001C48ADE3A2854E85EFF0EFF521CD7C5029
:10402C00858BA9C37D55FA406A44DA444A49BA499A
:10403C002A4A9A4A0A4BF65B665CD65C0D61828012
:10404C0097470000938787B56315F40003A4890094
:10405C005DB797470000938767B2E31EF4F803A49B
:10406C00C90051BF5E2493F70720CDFF284CEFF019
:10407C001FBF4DBF93070002A304F1029307000377
:10408C0002D22305F10226C6930B5002974A000078
:10409C00938ACAB4054C294BCA849C2099C3639952
:1040AC007709B38C2441638D2401E6864A86A28568
:1040BC004E85E935FD576307F5189257E6973ED2C2
:1040CC009C2063810718FD571389140002C802CE87
:1040DC003ECA02CCA309010482D4834509001546CB
:1040EC005685152EC2479304190029E513F70701CD
:1040FC0009C713070002A309E10413F7870009C7D6
:10410C001307B002A309E104834609001307A002B8
:10411C00638AE602F247CA84814625469820938535
:10412C001400130707FD6373E6068DC63ECE1DA073
:10413C008504A5B7330555413315AC00C98F3EC86E
:10414C00268961BF324793064700184336C6634839
:10415C0007023ACE98209307E002631CF7049830CC
:10416C009307A002631AF702B2478904138747002A
:10417C009C433AC663D30700FD573ECA1DA83307BC
:10418C00E04093E727003ACE3EC8E9B7B387670310
:10419C00AE848546BA9759B7850402CA81468147D1
:1041AC002546982093851400130707FD6372E606D5
:1041BC00E9F68C200D46174500001305A5A2A12C8D
:1041CC0011CD974700009387E7A11D8DC2471307B8
:1041DC0000043317A700D98F85043EC88C201946DC
:1041EC0017450000130545A0138914002304B102E0
:1041FC001D2435C99307000095E74247B247137752
:10420C00071009CF91073EC69257D2973ED269B597
:10421C00B3876703AE848546BA9761B79D07E19B68
:10422C00A107D5B7780097060000938666D522863D
:10423C000C084E8597000000E7000000FD572A8A05
:10424C00E314F5FC7C50858B81EB5E2493F70720FF
:10425C0081E7284CEFF0BFA05E2493F70704E393AB
:10426C0007DC1255C9B3780097060000938646D137
:10427C0022860C084E85E12CD1B7411122C42A8428
:10428C002E8523A8018406C6EFD03F87FD57631601
:10429C00F50083A7018591C31CC0B24022444101A3
:1042AC008280411122C42E848395E50006C6312BF1
:1042BC00634905007C48AA977CC8B240224441015E
:1042CC0082805E247D777D17F98F5EA4FDB7DE2595
:1042DC00011122CC26CA4AC84EC606CE93F7071047
:1042EC00AA842E843289B68991C78395E5008946C4
:1042FC000146ED285E247D777D17F98F8315E40048
:10430C005EA46244F240CE864A86B2494249268572
:10431C00D244056125A8411122C42E848395E50061
:10432C0006C6E9207D575E24631AE5007D777D176C
:10433C00F98F5EA4B2402244410182800567D98F77
:10434C005EA468C8C5BF8395E5003DA0411122C499
:10435C002A842E85B285368623A8018406C6EFD022
:10436C006FF4FD576316F50083A7018591C31CC03C
:10437C00B240224441018280411122C42A842E85FC
:10438C0023A8018406C6BD21FD576316F50083A73B
:10439C00018591C31CC0B24022444101828041116D
:1043AC0022C42A842E85B28523A8018406C68929B5
:1043BC00FD576316F50083A7018591C31CC0B2405D
:1043CC00224441018280411122C42A842E8523A8D3
:1043DC00018406C62529FD576316F50083A70185C0
:1043EC0091C31CC0B240224441018280411122C4BD
:1043FC002A842E85B285368623A8018406C62929EF
:10440C00FD576316F50083A7018591C31CC0B2400C
:10441C0022444101828093F5F50F2A966314C5005E
:10442C00014582801C21E38EB7FE0505C5BF1385AF
:10443C00C1836FF0BF821385C1836FF05F82797186
:10444C0056CA9C49BA8A984522D44AD04ECE52CCF0
:10445C0006D626D25AC85EC6AA892E843289368AD6
:10446C0063D3E700BA872320F9000347340401C75C
:10447C0085072320F9001C4093F7070291C7832777
:10448C00090089072320F9000440998891E8130B4F
:10449C009401FD5B5C4403270900998F63CCF40401
:1044AC0083473404B336F0001C4093F70702A5EBA6
:1044BC0013063404D2854E85829AFD576303F504A6
:1044CC001C4011478144998B6399E700444483272E
:1044DC0009009D8C63D3040081441C441848635428
:1044EC00F700998FBE94014969047D5B639824059C
:1044FC00014509A885465A86D2854E85829A631E47
:10450C0075017D55B250225492540259F249624AB7
:10451C00D24A424BB24B456182808504A5BF33071A
:10452C00D40013060003A301C70403475404938764
:10453C001600A2978906A381E7049DBF85462286B3
:10454C00D2854E85829AE30E65FB050945B77971D4
:10455C0022D44AD04ECE52CC06D626D256CA5AC8EF
:10456C0003C88501930780072A892E84B289368A6D
:10457C0063E20703930720069386350463E1070380
:10458C00630C081C9307800517360000130646665B
:10459C006308F814930424042301040515A8930755
:1045AC00D8F993F7F70F5546E366F6FE1736000079
:1045BC00130686668A07B2979C43B29782871C4380
:1045CC0093842504938647009C4314C32381F504EC
:1045DC0085476DA290411C431375060893854700CF
:1045EC0029C19C430CC3584063DF07129305D002CA
:1045FC00A301B40418C4635E0702B307F040173676
:10460C0000001306E65E2948B68433F70703FD1451
:10461C003297182398A03E87B3D70703E37707FF99
:10462C0085A09C43137506040CC355DDC207C187D6
:10463C005DBF6D9A10C0D1B790411C43137506082D
:10464C009385470001C50CC39C4331A01376060427
:10465C000CC37DDA9E231307F006173600001306F1
:10466C0026596310E80C2148A3010404584018C4CF
:10467C00E34C07F80C40ED990CC0D9F7B68449F718
:10468C00A147631EF8001C40858B91CB58401C48F9
:10469C0063C7E70093070003A38FF4FEFD14858E18
:1046AC0014C85287CE867000A2854A85EFF03FD998
:1046BC00FD5A6319550D7D55B2502254925402592E
:1046CC00F249624AD24A424B456182809C4193E74F
:1046DC0007029CC113088007173600001306865288
:1046EC00A30204050C401C4313F80508138547006E
:1046FC006305080008C39C4339A013F8050408C3DC
:10470C00E30B08FE9E2313F7150001C793E5050282
:10471C000CC099C3414889BF18401377F7FD18C0E6
:10472C00D5BF294891B7173600001306664C2948A7
:10473C0035BF90411C43CC491378060813854700BC
:10474C006306080008C39C438CC339A008C31376C6
:10475C0006049C4375DA8EA323280400B68491B713
:10476C001C43D04181459386470014C3844326855E
:10477C00EFF07FCA19C1058D48C05C401CC8A3016D
:10478C00040405B714482686CE854A85029AE304AC
:10479C0055F31C40898B8DE7B2474844E35EF5F036
:1047AC003E8519BF85465686CE854A85029AE30416
:1047BC0065F185045C443247998FE3C5F4FEE9BF8B
:1047CC008144930A94017D5BF5B7411122C42A847C
:1047DC002E85B285368623A8018406C6A120FD57F6
:1047EC006316F50083A7018591C31CC0B240224417
:1047FC00410182809307800523A8F1847D55828036
:10480C009307800523A8F1847D558280930780054A
:10481C0023A8F184014582809307800523A8F184A5
:10482C007D5582809307800523A8F1847D55828075
:10483C00184183A785FF6319B7001CC1FD5723AC32
:10484C0005FE238FF5FE8280232CF6FEC5BF411199
:10485C0022C426C23744024006C68324C420232621
:10486C0004200F10000009E9232694201545B240BE
:10487C0022449244410182800347E5FF9307F00FE5
:10488C006306F700232694201145D5B7EFC0BFA4CB
:10489C00014523269420E1BF411126C24AC0B744EA
:1048AC00024006C622C403A9C42023A604200F106C
:1048BC00000089E523A62421154515A02A8497D745
:1048CC00FF1F83C7F7512E856375F400894763EE8C
:1048DC008700B53FB747024023A627210D45B240BC
:1048EC002244924402494101828083A785FF99E7C3
:1048FC0003C7E5FF9307F00F6308F700893FB7473D
:10490C00024023A627214DBF238F85FE17D5FF1FFD
:10491C001305C54CEFB07F87A1652285392A014567
:10492C0023A624216DBF97D7FF1F23A9074A828096
:10493C00C9C1797122D406D626D24AD04ECE0144B2
:10494C004147B3D78540858BA5C3120531472295C6
:10495C003305E50297D7FF1F9387875103A90700FB
:10496C008544B3948400C204C180BE892A9903276C
:10497C00090011C7032549002EC60297B2453147DD
:10498C003304E40283A709003E941C4489E72320E6
:10499C00090023220900B2502254A58D02599254C9
:1049AC00F2492E85456182800504E31CE4F88144BC
:1049BC00DDB72E85828041111397050122C406C6EE
:1049CC0026C24AC041872E8463500702EFB05F8332
:1049DC0019C1EFF0DFE7A1673D8C2285B24022447C
:1049EC009244024941018280EDD9AA870147414690
:1049FC00B356E440858A8DCE9207BA97B146B387F9
:104A0C00D70297D6FF1F9386A64603A906008544B6
:104A1C00B394E400C204C1803E99832709000325A6
:104A2C00490082972320090023220900258C75B7A1
:104A3C000507E31FC7FA8144D5BFB747024083A6D9
:104A4C00C72023A607200F10000017D7FF1F03470E
:104A5C0037396373E50217D6FF1F1306E63C1317AD
:104A6C00150008423A9503570500D98D2310B5005F
:104A7C0023A6D7200145828023A6D7200D4582800E
:104A8C00B747024083A6C72023A607200F100000BB
:104A9C0017D7FF1F0347D7346375E50217D6FF1FDF
:104AAC001306863813171500084293C5F5FF3A957F
:104ABC0003570500F98D2310B50023A6D720014517
:104ACC00828023A6D7200D458280797126D24ECEC6
:104ADC00B744024006D622D44AD052CC56CA5AC841
:104AEC005EC683A9C42023A604200F10000097D70C
:104AFC00FF1F83C7F72E637AF50097D7FF1F9387A5
:104B0C00673283AB070063970B00B747024023A6BD
:104B1C003721A9A017DBFF1F130B0B36832A4B0081
:104B2C00B74736FE938707C82E8A97D5FF1F83D5C4
:104B3C002535BE9AB387C5022A8432898146B3B51E
:104B4C00C50213850732B337F50013060064BE9512
:104B5C00EFE0EFE163F0AA0223A634210145B25045
:104B6C00225492540259F249624AD24A424BB24BF5
:104B7C0045618280829B97D5FF1F83D56530B387B3
:104B8C002503AA84130600648146B3B52503138557
:104B9C000732B337F500BE95EFE06FDDB307950034
:104BAC00BE8403274B0063E4A70063E4E700B384EF
:104BBC00E740D2852285EFB0CFEC01C904C5B747D9
:104BCC00024023A63721054559BF936504F0C20561
:104BDC00C1814145EFC04FE119E997D7FF1F93877A
:104BEC002725DC5B9DD3A2851145829739BF97D7CA
:104BFC00FF1F9387A7239C439DE397D7FF1F23A7F2
:104C0C00A72285472326050004C52311450123004F
:104C1C008500A300F5002322050055B7BA87D847B5
:104C2C0075FFC8C7F9BF011122CC26CA4AC84EC6A7
:104C3C00B747024006CE03A9C7202A84AE89B284A6
:104C4C0023A607200F100000EFF03FE82285CE8549
:104C5C00EFB02FE32A8405C597D5FF1F83D54522D6
:104C6C00B3879502130600648146B3B5950213858C
:104C7C000732B337F500BE95EFE06FCF48C0133560
:104C8C001400F2406244B747024023A62721D244C5
:104C9C004249B2490E0505618280011122CC4AC8F5
:104CAC004EC6B747024006CE26CA83A9C7202A891A
:104CBC002E8423A607200F100000EFB08FDCAA84EF
:104CCC0019C123110500A2854A85EFF07FDB97D728
:104CDC00FF1F83C7E710639B270197D7FF1F83D75D
:104CEC0027145D8C97D7FF1F239C8712B747024070
:104CFC0023A63721014591E01945F2406244D24484
:104D0C004249B24905618280411106C697D7FF1FFF
:104D1C0023A2A7160295B24097D7FF1F23AEA70C6C
:104D2C0001454101828041115146814517D5FF1F34
:104D3C001305C50D06C697D7FF1F23A9070E97D7D6
:104D4C00FF1F23A9071297D7FF1F23AD070CEFB046
:104D5C002FDC13068002814517D5FF1F130545086C
:104D6C00EFB00FDBEF20C03E97D7FF1F83C7970D27
:104D7C0013D527008D8B3E958D473305F502854560
:104D8C0039051375F50F97D7FF1F238CA704994787
:104D9C003305F50213050524EFC00FC517D7FF1F08
:104DAC002328A70C49CD994717D6FF1F0346660346
:104DBC003306F602814513060624EFB06FD597D75C
:104DCC00FF1F9387E70A9C439387072417D7FF1F7E
:104DDC00232CF70217D7FF1F0347A7000A07BA9720
:104DEC0017D7FF1F2322F704EFF0FFB3892E97D7B5
:104DFC00FF1F93876701944397D7FF1F83C757FE05
:104E0C00139727003697170600001306A6B210C397
:104E1C00138717001377F70F0A073697170600004A
:104E2C001306A6B910C313873700890793F7F70F3A
:104E3C008A0797D5FF1FA385E5FAB69790C3B240B2
:104E4C004101828097D7FF1F83C797F917D7FF1FA0
:104E5C00034727F963F3E70217D7FF1F1307C7FAB6
:104E6C0018439386170017D6FF1FA30BD6F69396FD
:104E7C002700369708C33E8582809307F00FE5BF65
:104E8C001C41638D071241777D8FB706002089473F
:104E9C006317D7120357450063030712411122C44D
:104EAC0019462A849305F00F610506C6EFB0AFD8FA
:104EBC0005478D47630FE50E1C4491C7185C994755
:104ECC006DCB585C7DC713060004814517D5FF1FB9
:104EDC00130505F6EFB0CFC313060004A28517D552
:104EEC00FF1F1305E5F4EFB00FBC17D7FF1F0357D7
:104EFC00E7F497D7FF1F9387A7F319E71307001061
:104F0C0097D6FF1F239CE6F217D7FF1F034727F303
:104F1C0011E7054797D6FF1F2383E6F217D7FF1F2C
:104F2C00035707F211E76D4797D6FF1F239AE6F058
:104F3C0017D7FF1F0347B7F011E7154797D6FF1F89
:104F4C00A38FE6EE17D7FF1F0347A7EF11E705471F
:104F5C0097D6FF1F2387E6EE17D7FF1F034777EE81
:104F6C0019E703C7F70097D6FF1FA38CE6EC17D7FA
:104F7C00FF1F034727ED11E7254797D6FF1F238314
:104F8C00E6EC0347640119E71307C00397D6FF1F2C
:104F9C00238BE6EADC5791C7829797D7FF1F23959F
:104FAC00A7E4FD5717D7FF1FA30AF70EEFF0BFD7E3
:104FBC008147B24022443E854101828089473E852B
:104FCC00828001114EC697D9FF1F9389E9EA83A706
:104FDC00090006CE22CC26CA4AC852C482971309AD
:104FEC000064B335250303DA890081465286330504
:104FFC002503EFE0CF9797D7FF1F938767DE804F8E
:10500C00AA8401456306940233858440636E940040
:10501C0003A5490052868146B335A9023305A9027E
:10502C00EFE0EF94018D269597D7FF1F23A697DC11
:10503C00F2406244D2444249B249224A056182801C
:10504C0097D7FF1F23A207E497D7FF1F938747DE4D
:10505C009C5B011106CEAA8581C72AC68297B245F0
:10506C00C9CD9C410545D9C7DC41C9C783D785004B
:10507C00D1C383D7A500BDCF83C7C50081CF97D738
:10508C00FF1F83C737DC13F737008983BA970947AB
:10509C006342F706414617D5FF1F1305E5DDEFB058
:1050AC008FA097D7FF1F938727DD9C4317D7FF1F30
:1050BC00232AF7D697D7FF1F83C7F7D88DE7930717
:1050CC00805717D5FF1F0355A5DB3305F50237466F
:1050DC000F001306062481468145EFE04F8997D7D0
:1050EC00FF1FA382A7D6170500001305C5EDEFF02F
:1050FC00BFC10145F2400561828097D7FF1F23AFE6
:10510C0007CE97C7FFFF9387078617D7FF1F232567
:10511C00F7D67D5797D7FF1F23A2E7D6B787320064
:10512C00938727A197D6FF1F23ACF6D497D7FF1FE1
:10513C00238A07D4B747024023A4E7269DB7011161
:10514C0022CC17D4FF1F1304A4CE084406CE26CAC3
:10515C004AC801E90545F2406244D244424905611E
:10516C0082801C5CE5DB585C75D7700085458297A6
:10517C001844B247E300F7FE9305E00417D5FF1F70
:10518C000355C5CBEFC04F8617D7FF1F232AA7C6E1
:10519C0071D117D6FF1F035666CA9305F00FEFB0F7
:1051AC002F97814417D9FF1F130989C397D7FF1F66
:1051BC0083C7E7C80326090263CFF4003285EFC02A
:1051CC008F91014597D7FF1F23AC07C297D7FF1FBD
:1051DC0023AA07C249B797D5FF1F83D525C6B38726
:1051EC0095020844585C898185043E9508C2029753
:1051FC0075BF97D6FF1F83C6D6DD1547638BE600B8
:10520C0097D7FF1F938787DC03C777008D46639F73
:10521C00E60097D7FF1F83C7F7DB6392071493074A
:10522C00601017D7FF1F2317F7DA8280411122C4B1
:10523C0026C24AC006C683C7770097D4FF1F938443
:10524C0064DB9C4017D7FF1F130787C40324070890
:10525C0023A20706096798C7194597D7FF1F23890B
:10526C0007D617D9FF1F1309A9D5C529032709008C
:10527C00B7C7898E938767ED1CC7B75755009387BF
:10528C0057555CC3834724021307F00F6387E7006D
:10529C00A300F402FD572301F402034514028947CD
:1052AC006303F5000145984001469305F00F5C43FC
:1052BC0093E717005CC3930710FA2305F400994792
:1052CC0017D7FF1FA307F7D097D7FF1F238007D04F
:1052DC00992417D7FF1F130727D71443DC56F59BC8
:1052EC00DCD683479400032609003A8493F6F7072B
:1052FC001C4293F707F8D58F1CC297D7FF1F83C7A3
:10530C0067B881CB97D7FF1F938707CB8843EFB044
:10531C00EFC203270900B70633001C4393F7F7E7E6
:10532C001CC31C4393F7F7E793E707101CC3184003
:10533C00B24022441C470249D58F1CC79C4013071E
:10534C0090059244B8CB17D7FF1FA30307C817D7F4
:10535C00FF1FA30D07C6054798C3410182808280B9
:10536C0097D7FF1F9387C7C59C43B7068000371696
:10537C0001809843130686EC558F98C39843B70663
:10538C000010558F98C31307001DD8DB17D7FF1FCC
:10539C00034747AB93169701D18ED4D7D457370612
:1053AC0000821377F7037D166607F18E558FD8D7D9
:1053BC00370709001307370898D3828097D7FF1F48
:1053CC00938747C09C4399CB944BD04B9842518FB9
:1053DC0098C294439C479842D98F9CC297D7FF1F81
:1053EC00938707BE17D6FF1F1306C6C005489C43FC
:1053FC0017D7FF1F034727BE1442631205058843C6
:10540C0075787D183375050188C3C846F977FD1783
:10541C00E98FDCC60100010014428967AD059CC60A
:10542C00930700F817D6FF1F2304F6BA93972500AD
:10543C009305E709BE958605ECD2C8C682807578BF
:10544C00137325009308F8FF630B030803A80700E8
:10545C0089050D433378180189683368180123A036
:10546C00070151781307E70B8E057D18631165044E
:10547C0088433375050111683365050188C3C84637
:10548C00F977FD17E98FDCC6010001001C42930679
:10549C0000F89385750D23A4170117D6FF1F230958
:1054AC00D6B28605BA958605ECD3C8C782808843E8
:1054BC003375050188C3C846F977FD17E98FDCC63B
:1054CC00010001001C42930600F89385A50423A457
:1054DC00170117D6FF1F230DD6AE8E05E1B78843F3
:1054EC000568337515013365050188C3C846F9771E
:1054FC00FD17E98FDCC6010001001C428966A90575
:10550C0094C7930600F817D6FF1F2303D6AC8E055D
:10551C001307E70941BF97D7FF1F9387A7AA9C439F
:10552C0089CFD44303A8870098423367070198C2F8
:10553C00D447DC4B9842D98F9CC297D7FF1F9387D7
:10554C0027A897D6FF1F83C626A8137725009C4350
:10555C00858A2DCB984375757D15698F0965498FA3
:10556C0098C3370709001307670898D33727300803
:10557C004517D8CB371703001307976198CF0D67E2
:10558C001307E78D98D73767000113070731D8D376
:10559C0037A73F0099E237A734001307F74D9E0554
:1055AC0098CB9385453697D7FF1F23A9B7A211C671
:1055BC00060697D7FF1F23A3C7A297D7FF1F2389E0
:1055CC0007A08280370709001307370898D33727BD
:1055DC00100813071790D8CB37170300130747622F
:1055EC0098CF0D671307E78B98D737670001130720
:1055FC000731D8D385C637A73F001307E72C98CBC4
:10560C0075779306F7FF984305489505758F631CCE
:10561C00050198C38E059385C50371B737273200F2
:10562C001307072DE9BF8566558F98C39205E5B71B
:10563C00411106C617D7FF1F0347C799A14763102F
:10564C00F70497D7FF1F83C7279B858B17D6FF1FA0
:10565C000346B69C97D6FF1F83C6269CBDC797D71B
:10566C00FF1F9387679BC8432DC183451500090510
:10567C00292111C5854717D7FF1FA30DF79417D7FD
:10568C00FF1F034727959947631DF70097D7FF1F07
:10569C009387078083A7070883C7B70095CBEFF0E4
:1056AC005FB517D7FF1F0347E7929D476312F702B9
:1056BC0097C7FF1F9387C77D83A7470983C77700C9
:1056CC0081CBB24041016F105030814501454DB73F
:1056DC00B2404101828017D7FF1F1307A7911C43CB
:1056EC00B44BE19AB4CB944393E6860094C39C43A9
:1056FC008D83858B89C7010001000100010097D7BC
:10570C00FF1F9387E78B94439C4293F7F7E793E74C
:10571C0007089CC297D7FF1F938707939043B70640
:10572C00CEFFFD161C46F58F1CC61C4323A8070490
:10573C0097D7FF1F938707899C4399CBD4439047F6
:10574C009842518F98C2944BDC4B9842D98F9CC293
:10575C0097D7FF1FA38F0786828041114AC0B74796
:10576C00024006C622C426C203A9C72023A60720CE
:10577C000F10000097D7FF1F9387C7879C439C434C
:10578C008D8BBDC717D7FF1F0347B7848D47AA84DE
:10579C0017D4FF1F13048483631BF70097D7FF1FD5
:1057AC00938787859C4B01468145454582971947D0
:1057BC00639AE40497D7FF1F83C7D78199CB97D7F8
:1057CC00FF1F83C727816396970097D7FF1FA3837B
:1057DC0007808347740021476318F70093078010F4
:1057EC0017C7FF1F2318F77E238C0182EFF0BFEE43
:1057FC00B2402244B747024023A6272192440249D3
:10580C00410182809D47639FF40097C7FF1F83C7A8
:10581C00777CE1D317C7FF1F0347C77B8D47E31A7C
:10582C00F7FA65B783467400630BD700034774001F
:10583C006387E700834774002147E317F7FA97C79C
:10584C00FF1F83C73779CDF38347740017C7FF1F3A
:10585C002302F778854717C7FF1FA30DF77669B7A3
:10586C0017C7FF1F0347F77691476308F70E17C753
:10587C00FF1F1307A775034777006380E70E97C7D1
:10588C00FF1F9387A7730111984322CC3744024022
:10589C0006CE26CA4AC84EC652C4930704306316B5
:1058AC00F70A8329C420232604200F100000354555
:1058BC00EFF0BFEA17CAFF1F130A8A7083270A008A
:1058CC00F576FD16984317C9FF1F1309E97797C49E
:1058DC00FF1F93842472758F8566558F98C39843E8
:1058EC00B70633001377F7E798C398431377F7E7B6
:1058FC001367071098C3032709001C47D58F1CC7D3
:10590C009C401307D005B8CBEF00902EEF10500041
:10591C00EF003021EF00302A03270A001C4393F7D5
:10592C00F7E793E707081CC3832609003707CEFF68
:10593C007D179C46F98F9CC69C4023A8070497C7EB
:10594C00FF1FA388076823263421F2406244D24407
:10595C004249B249224A05618280828097C7FF1F63
:10596C00938747699C431307C0089306C006D8CB9E
:10597C00D4CFD8D31306C003D0D7D8DBD0DFF8C32D
:10598C0017C7FF1F130787645853F4C7F8DB416729
:10599C007D1798C73D673D07D8C7828097C7FF1F03
:1059AC009387876A984317C6FF1F1306E66497C749
:1059BC00FF1F9387E76094438347160013F8F7079C
:1059CC00D9C588425C42137505F83365050188C258
:1059DC0013F5150001C993F5050341456386A5062A
:1059EC00938787C14C574168130808A093E525009D
:1059FC004CD7B3D50703B70810FEFD18B3F7070350
:105A0C00FD89139545016C43B3F51501C98D6CC324
:105A1C009305A00F3705FCFFAA07B3D7B7026C4359
:105A2C00E98DBA07B983CD8F7CC383470600898B78
:105A3C0099CB9C4293F7F70713E707049C4293F723
:105A4C0007F8D98F9CC282809387078361BF5C570C
:105A5C00F59B5CD79C4293F707F8B3E707019CC210
:105A6C00E9B7411106C697C7FF1F238E075AEFF0FF
:105A7C009FC6B24001454101828079714AD0B74737
:105A8C00024006D622D426D24ECE52CC56CA03A9F8
:105A9C00C72023A607200F10000017C4FF1F1304F4
:105AAC00A455184409EF23A627210545B2502254CA
:105ABC0092540259F249624AD24A4561828017C710
:105ACC00FF1F1307E73C0327870A09C723A62721D3
