:040000006F20707C81
:100004000000000000000000F8440000FC44000070
:10001400000000004001000000000000000000009B
:1000240040010000C42F0000000000000000000098
:10003400C42F000000000000C42F000000000000D6
:10004400C42F0000C42F0000C42F0000C42F0000E0
:10005400C42F0000C42F0000C42F0000C42F0000D0
:10006400C42F0000C42F0000C42F0000C42F0000C0
:10007400C42F0000C42F0000C42F0000C42F0000B0
:10008400C42F0000C42F0000C42F0000C42F0000A0
:10009400C42F0000C42F0000C42F0000C42F000090
:1000A400C42F0000C42F0000C42F0000C42F000080
:1000B400C42F0000C42F0000C42F0000C42F000070
:1000C400C42F0000C42F0000C42F0000C42F000060
:1000D400C42F0000C42F0000C42F0000C42F000050
:1000E400C42F0000DC440000C42F0000C42F000013
:1000F400C42F0000C42F0000C42F00000C450000D2
:10010400F82E0000C42F0000C42F0000C42F0000EC
:10011400C42F0000C42F00000000000000000000F5
:1001240000000000000000000000000000000000CB
:0C013400000000000000000000000000BF
:100140009305000273A04580824573901534924058
:100150002242B2424243D2436244F2440255925593
:100160002256B2564257D2576258F258064996491B
:10017000264AB64A464BD64B664CF64C065D965D13
:10018000265EB65E465FD65F096173002030EF429F
:10019000706AC52BFDBF23AC05FE1C4181E70CC175
:1001A0008280BA8703A787FF6DFF23ACB7FE8280EA
:1001B000411126C24AC0B744024006C622C403A960
:1001C000C42023A604200F10000009E923A624213F
:1001D000B240224492440249410182802A8421058E
:1001E000BD654205C18D4181EF20607301CDFD5792
:1001F00023200500231285002303F50023A62421D4
:100200002105F9B723A624210145D9B701114AC810
:100210004EC6B747024006CE22CC26CA83A9C720C5
:100220002A8923A607200F10000097270020938714
:10023000A71580438144014619E499E8A1654A85E0
:10024000EF60101115A08347E4FF639B270395CC53
:10025000A6851725002013052513EF60200E79DCF5
:10026000A1654A85EF608046F2406244B74702408C
:1002700023A6372126854249D244B24905618280AE
:1002800091E02286032484FF45BFA284E5BF97271F
:100290000020938767149C4399E33E85828003D7AF
:1002A00027006316B70003C70700E308A7FEDC4773
:1002B000E5B7B747024003A7C72023A607200F10C2
:1002C000000001C599C1814711E6B747024023A646
:1002D000E7208280B386F50003C80600B306F50068
:1002E000850723800601E317F6FEC5B737470240AE
:1002F0008327C720232607200F10000019C191C1B2
:1003000011E6374702402326F7208280910503A794
:10031000C5FF11057D16232EE5FEDDB737470240E8
:100320008327C720232607200F10000001C53307AD
:10033000C50011E6374702402326F72082800505D5
:10034000A30FB5FEE31DE5FEF5B7B747024083A650
:10035000C72023A607200F10000081473307F500B0
:100360000307070019E7374702402326D7203E85B9
:1003700082808507E5B7011126CA4AC8B7470240FF
:1003800006CE22CC83A4C7202A892E8623A6072046
:100390000F100000131506019305F004418132C6C9
:1003A000EF20E0572A8401C53246CA8519372285D5
:1003B000F2406244B747024023A697204249D24404
:1003C00005618280B747024003A7C72023A6072004
:1003D0000F10000001C599C1814711EAB7470240DB
:1003E00023A6E720054582808507E309F6FE33084A
:1003F000F500B386F5000348080083C60600E30550
:10040000D8FEB747024023A6E72001458280B747C0
:10041000024003A7C72023A607200F100000930760
:10042000F6FFBE952A966317C500B747024023A67C
:10043000E7208280FD1583C715000505A30FF5FE93
:10044000DDB7374702408327C720232607200F1038
:10045000000001C53307C50019E6374702402326CF
:10046000F7200145828005058346F5FFE397B6FE38
:10047000E31BE5FE374702402326F720054582802F
:10048000797197270020938727F522D4804306D6D9
:1004900026D24AD04ECE52CC56CA5AC85EC669C081
:1004A000B7C4C901014B97290020938969F293844D
:1004B000F437172A0020130A6AF2972A0020938A39
:1004C000EAEC172900201309E9F58357240095E386
:1004D0005C44631D0B0017270020232FF7EE832BAE
:1004E000C4002285EF2080525E84A9A82326FB0049
:1004F000FDB783A7090082971C443307F540637654
:10050000F500032749001D8F2A9763E0E408972729
:10051000002023A507E88355240003450400EF606D
:10052000E01A5C405844A1CB0C4403264900AE9726
:10053000BE8663E4B70063E4C700B386C74014C453
:10054000228B3A8459F097270020938727E49C4B0D
:1005500005476372F706FD17172700202320F7E4ED
:10056000B250225492540259F249624AD24A424B42
:10057000B24B4561828063170B009727002023ADA3
:10058000E7E4B1BF2326EB0099BF03278A0209CF16
:1005900063EFA7003385A74083A70A016376F500C0
:1005A0009727002023ACA7DE228B404461BF03279E
:1005B0004900BA97C5B79727002023A107DE4DB79A
:1005C00001114EC6B747024006CE22CC26CA4AC801
:1005D00052C483A9C72023A607200F1000001729A3
:1005E0000020130929E49727002083C767E4032527
:1005F0004900ADC39727002083D78706A1CF97274F
:1006000000209387A7FA03A4070B6305A404972788
:1006100000209387A7D7984B3E8A6307A71097249B
:1006200000209384E4DA9C408297636BA40E9C4084
:10063000098C829703270A016373E4002287B307BA
:10064000A7003E858326490063E4E70063E4D70002
:100650003385D740B747024023A637218327490077
:10066000639FA70217240020130444D21848972739
:1006700000209387E7D59C43631AA70A82978326B5
:100680004900B74736FE938707C8B6973387A70058
:100690003A856364F7006364D7003305D7401724B5
:1006A0000020130424065C5081CF972700209387F5
:1006B000270D94433707CDFF7D179C46F98F9CC6C5
:1006C00019E1032549008547172700202322F70455
:1006D00097270020938787D09C57829711ED5C5015
:1006E00099CB5C4489CBEFE0412FEFD09114972751
:1006F000002023AF070069335C5099CB9727002077
:10070000938707089843B70633001C47D58F1CC74B
:10071000F2406244D2444249B249224A0561828091
:10072000832749003E9421B722852DB7829714482C
:1007300003274900B387A6003E8563E4D700E3E0C2
:10074000E7F63385E740A1BF23A4A19001C5854703
:100750002386F1908280938781909C4381CF4111C1
:1007600006C6829783C7C19099E323A40190B24043
:100770004101828083C7C19081E723A401908280D8
:100780008280411126C206C622C49727002083C753
:1007900027CA97240020938424C285EB9727002042
:1007A00083C797F6858B172700201307A7F591CFEE
:1007B0008347770099466396F60C97270020A38518
:1007C00007F4EF103025DC4482979C4491C3829754
:1007D00017240020130404C01840172600200346E5
:1007E000F6BA9727002083C767BA93961700BA9680
:1007F00083D60600C5C69727002083C727B963E9BB
:10080000C70A97270020238307B89727002083C7AC
:10081000F7EF972400209384E4EE6397071297275D
:1008200000209387E7BA9C43638B0710972700202B
:10083000938747BFDC43172700202321F7B6893170
:1008400097270020938787B99C57638A070E83C731
:10085000740011476365F70E9727002083C707F0E0
:10086000918BF1EF83C7C190F9EB104097260020E0
:1008700083C6D6B163C7D70E2244B2409244410129
:1008800081B3834777001D47E311F7F497270020D2
:10089000A38C07E6EF1010189C483DB7850793F727
:1008A000F70F972600202383F6AEE3ECC7F2A1B73B
:1008B00086073E97835507002310070097270020DF
:1008C000239607B0972700209387C7AE9C43172530
:1008D00000200345A5AB13172500BA979C438297C8
:1008E0009727002083D787AE17270020034707AA42
:1008F00093C7F7FF7D8D9317170018403E978357D6
:1009000007005D8D2310A7009727002083C707A845
:1009100091C7850717270020230AF7A69C4091C797
:1009200082979727002023A907A8172700200347AD
:10093000E7A59727002083C777A5E374F7ECB240BB
:10094000224492444101828083C7740093F7F70FD9
:10095000E39707EC97270020A38A07DAEFD0512D01
:100960007DBD1397170032970357070069FB850772
:1009700011B7374702408326C720F177FD17F58F5F
:100980002326F7200100010097270020938707A066
:10099000C84F832787262326D7206A0593C7F7FFEA
:1009A00099835D8D82809727002083C7579E99CFBA
:1009B0009727002083C7C7A781CF97270020938759
:1009C00067A703A30700630703000283054582802E
:1009D000094582801305F00F8280938701999C431B
:1009E00017270020034717BC2A86050781463E8546
:1009F00083D707006388C700850693076500E3E88F
:100A0000E6FE0145828093878198984319E3014669
:100A100015A81C4703D8A700636B0501835847003E
:100A2000B38608016355D5008146639416011843C7
:100A3000F1BF3E86C10703D3A7FF6317A30099C187
:100A400023900501328582808506C206C182F1BFEE
:100A500097270020938707AF984317260020034667
:100A600066B481476315F600814636858280BA8672
:100A70001307C703835567FCE389A5FE850793F732
:100A8000F70FCDB70327851163020712411122C466
:100A900006C68347C5008345E5042A8493F7C70F3C
:100AA0002306F500834697000356C7001395860179
:100AB000618563F2C508635B05060345870093F60D
:100AC000F607A304D700054693E627006314C50084
:100AD00093E617002306D4005C4389075CC3A30A8E
:100AE000B400032504112E864C430905EFF06FFC7A
:100AF0008327841103465401D44303D7C700B29619
:100B0000118FD4C32396E7008947A30DF400034750
:100B100064039727002083C7878D6378F704834792
:100B2000C40093E707012306F40081A093E71700B0
:100B30002306F4006DB79376F60F635D0502034557
:100B40008700854513E627006314B50013E61700F8
:100B50002306C400A30AD400A30407008547A30DFD
:100B6000F400832784119C43DDF3B2402244014505
:100B70004101828093E717002306F400A30AD40002
:100B8000A3040700032504114C430905EFF06FF29D
:100B90008327841103465401D44303D7C700B29678
:100BA000118FD4C32396E7008D4755BF054582803A
:100BB00097270020938747B29C43411122C406C661
:100BC000858B2A84D5EB4165130525F5EF703170CF
:100BD00045C58347A5002315F50083270412BDE70B
:100BE0002320A4122322A41285472311F4042320D6
:100BF00005008347640154412316F5000347D400E0
:100C00002304E5000547A304E50017270020130788
:100C100067AF58531385170215811C437D15137553
:100C2000F50F9CC25C43DCC21C479CC65C47DCC61B
:100C30001C4B9CCA5C4BDCCA1C4F9CCE5C4FDCCE70
:100C400019CD9386060213070702C1BF83274412FA
:100C500088C3835724042322A412850779B79727D2
:100C6000002083D727958507172700202314F794A2
:100C7000B2402244410182808347C400230904001A
:100C8000054593C747002306F400DDB78347850178
:100C900093F7E70FC5EF83479501CDEB0346250199
:100CA0008346C50009CA834565031717002003471B
:100CB000177463E7E50013F7060151CB014709C636
:100CC000C18A0357251E81C68356651E369741C3C8
:100CD0001307C7121715002003554575B335A70232
:100CE00037460F00411113060624814622C426C24E
:100CF00006C67D543305A702EF30707697170020A3
:100D000083C7376FB384A700972700209387078A8C
:100D100003A7C7098327070963F387003E841843A5
:100D200075FB971700209387A76A9C43829781479A
:100D30006364A400B307A440B2402244B3B7970051
:100D400093C7170092443E854101828081473E85CA
:100D50008280972700209387679D98437C53FDFFEF
:100D600082800111972700209387478422CC03A417
:100D7000470A26CA9717002083D7476B8354640815
:100D8000032504094AC8B384F402B7470F00138748
:100D9000F7239387072406CE4EC652C456C21719AE
:100DA000002013092968BA94B3D4F402636E950243
:100DB000971900209389C96183A70900B30495405E
:100DC000829763E7A402898C63C8040283570404F2
:100DD000A30F040085072310F40483470414639FC2
:100DE00007102285352729AA832749003E95C9B7D0
:100DF00083274900BE94C1BF83A7090082970327B8
:100E000084086367E50A198D8357E40317170020E8
:100E10000357C7618E07B387E70213070032938732
:100E20000719B3D7E70263EAA708374A0F00930A06
:100E3000FA23130A0A248357040485072310F404B1
:100E40008347041499E32285E1252285EF60514D03
:100E5000631A0526832604098327C408032749004B
:100E6000B6973E8563E4D70063E4E7003385E74047
:100E70008347F401835464082328A4088507A30F3B
:100E8000F4009717002083D7675AB384F402D694EE
:100E9000B3D44403636C9504B304954083A709005D
:100EA000829763E9A4043385A440E34605F839BF7B
:100EB00083274900998F3E9581BFA1452285EF6028
:100EC000B13DA305A402971700209387275103A3E0
:100ED00047036309031E6244F240D2444249B249C7
:100EE000224A924A8945154505610283B304974019
:100EF000AA946DB783274900BE9475B72285452D06
:100F00002285EF60F141631F051A835764081715A6
:100F100000200355A551B7460F00B387A7021386DB
:100F2000F6239386062403270409230B0402032ACD
:100F30004900B297B3D7D702636FF718B307F740EA
:100F40008326C4082324F408814AB387E600BE84BC
:100F500063E4D70063E44701B38447418357040245
:100F600023289408B1CB8356040403574402374620
:100F70000F002312D4023387E640B387E7020357FA
:100F800024021306062481468145BA97C207C1830D
:100F90003385A7022311F402EF30704C11CD269552
:100FA000B3349500AE94AA8763949A0063644501B4
:100FB000B30745412328F40883A709008297AA8430
:100FC00083A709008297E30D95FE83A70900832478
:100FD0008408829763E6A4103385A4406303051256
:100FE000835764089719002083D94944B7440F00F8
:100FF000B38737031387F42393840424BA97B3D7B2
:101000009702171700200347D73EBA9763EBA70E46
:10101000B3359502035924024E8681463305950265
:10102000EF30F043330AA9003305390337460F0088
:101030001306062481468145EF30704205C1B3375F
:1010400095024E868146B385B4023385A402BE95CF
:10105000EF30F0403305A9402311A4023545EFD00D
:10106000C14F9717002023A5875E8346B40005472C
:101070009717002083C7C73B6398E606130700FD58
:101080002307E40017170020130747660843B5C776
:10109000EFF08FEB971600209386466990429547B4
:1010A00017170020A303F7665846F977FD17F98F45
:1010B0005CC60F1000009C428966060A94C723A2F2
:1010C0004707D8C7F2406244D2444249B249224A53
:1010D000924A05618280B3064701B387F6408DB519
:1010E00083274900BE94CDBD130710FC2307E400FD
:1010F000171700201307075F51BF8145EF50B03D20
:1011000051BF9717002023A507549717002083C7C6
:10111000273299CF971700209387875C8843EF5039
:10112000707DB7E700E03707000223A2E72059BF30
:101130008347940285456244F240D2444249B24911
:10114000224A924AB395F500C205C1810145056165
:101150006F50C057011122CC4AC84EC606CE26CACF
:1011600052C456C25AC00347B50085472A842E8907
:1011700083290509631DF71E83570508035BC50313
:10118000971A002083DA8A2A171A0020130A8A295C
:1011900063F7671B834605016393E61A03278511EE
:1011A000631F07180327450A631B07188346F500CA
:1011B0001D476396E6180355A503330BFB409307C1
:1011C000204E330565038324440937460F00130678
:1011D000062481463305F5029717002083C767214F
:1011E000B3549502B3B5AA02BE94C204C1802313BE
:1011F00094083385AA02EF309026AA9933B5A90046
:101200002E954E8783274A0019E163E4F90033875E
:10121000F940B3845403B7460F009387F6239386AF
:1012200006242320E900BE94B3D4D40293171B00F4
:10123000A6976360F7101D8F2320E90097190020FF
:101240009389091983A7090083240900829763E31E
:10125000A4123385A4406352050C83A7090082972A
:1012600003270900636FE510198D8357E4031717EF
:1012700000200357A71B8E07B387E702130700322E
:1012800093870719B3D7E70263E5A710374A0F0022
:10129000130BFA23971A0020938ACA18130A0A24F8
:1012A0008357040485072310F4048347041499E347
:1012B0002285B92C2285EF60B10665E983260409F1
:1012C0008327C40803A74A00B6973E8563E4D70086
:1012D00063E4E7003385E7408347F40183546408FF
:1012E0002328A4088507A30FF4009717002083D7AD
:1012F000E713B384F402DA94B3D444036366950C21
:10130000B304954083A7090023209900829763E1E5
:10131000A40C3385A440E34505F89717002083C744
:10132000570D63E5A7089717002023A387320145CF
:10133000B5A883264A00B387F6403E97F5BD83578C
:10134000640837470F00B38457039307F723A69722
:1013500093040724B3D4970263E79900B3849940B8
:1013600023209900E1BD83274A00BE99C5BF23A071
:101370003501E9B5971700209387C70ADC43BE946F
:10138000C9BD971700209387E709DC43998F3E95E5
:10139000E9BDA1452285EF602170A305A40297173E
:1013A00000209387A703DC5B81EF7D55F240624408
:1013B000D2444249B249224A924A024B0561828094
:1013C000894515458297D5B7B3049740AA941DBFA8
:1013D00083A74A00BE9435BF31CD01116C0022CCE9
:1013E00006CE2A84853B29C5FD576308F50297166A
:1013F00000209386A6FE945632479717002083C795
:1014000057FF91C28583636EF700B307F7403EC66E
:10141000B24503459402EF506042F24062440561D8
:101420008280971600209386E6FFD4423697F1BF5C
:101430000D3AE5B7828079719717002093870717D7
:1014400026D283A4C70906D622D44AD04ECE094755
:10145000A5C09716002083C6562B95470D47638974
:10146000F604971700209387E729DC472A8989CB60
:10147000EFD0A156EFC0F13B9717002023AA072811
:10148000FD596C002685F93105ED1705000013059F
:10149000858DEFF06FABA147171700202306F726C5
:1014A00097170020938787289C430947F8D30D4757
:1014B000B250225492540259F2493A8545618280D1
:1014C000637435013244AA898440C5FCFD57130773
:1014D000F00FE38FF9FC914763F487029307B4FFA1
:1014E0002320F90017170020232AF7160147E9F3F4
:1014F00097170020938707F3DC432320F9004DBFA3
:1015000097170020938707F2DC43ED17A297C9BF16
:10151000797126D206D622D44AD04ECE52CC56CAA3
:101520005AC85EC68347550303447513AA843E9484
:101530001374F40F9307400263F687001304B4FD9D
:101540001374F40F03AA841383AAC413A38B841205
:1015500022865285D685EF30C06B058905E503CB21
:10156000D41201498149337B6403930B50024A86AC
:101570005285D685EF30E069058915C56391690309
:101580001374F90F238B8412B250225492540259CF
:10159000F249624AD24A424BB24B45618280850988
:1015A000E20993D989410509E31379FDE1BF832756
:1015B000850903560504797193D60701BD8EC206CD
:1015C000C182358E1357764093575640898B058BD1
:1015D0005D8F93573640918B5D8F93571640A18B4B
:1015E0005D8F93171600C18B5D8F9317360093F7AD
:1015F00007025D8F931756009355860093F70704F3
:101600001E065D8F1376F60F518F93D7554013D674
:101610003540118A898BD18F13D67540D18F13D65F
:101620001540218AD18F13961500418AD18F1396C8
:10163000350013760602D18F1396550013760604F3
:101640009E05D18F93F5F50FCD8FA20745465D8F8F
:101650003307C70222D42A8426D252CC56CA032A80
:101660008413832AC4135AC806D636974207418387
:1016700093577740135557400989858BC98F135568
:1016800037401189C98F135517402189C98F131508
:1016900017004189C98F1315370013750502C98FCB
:1016A0001315570093558700137505041E07C98F3E
:1016B0001377F70FD98F13D5354013D755401189BC
:1016C000098B498F13D57540498F13D51540218952
:1016D000498F139515004189498F1395350013756E
:1016E0000502498F13955500137505049E05498F12
:1016F00093F5F50F4D8F2207D98FB387C7024AD0D4
:101700004ECE5EC662C4B697C207C18313D7774078
:1017100013D557400989058B498F13D53740118957
:10172000498F13D517402189498F13951700418997
:10173000498F1395370013750502498F139557008C
:1017400093D58700137505049E07498F93F7F70F0C
:10175000D98F13D5354013D755401189098B498F3F
:1017600013D57540498F13D515402189498F13959D
:1017700015004189498F1395350013750502498F6E
:1017800013955500137505049E05498F93F5F50FC4
:101790004D8F2207D98FB387C70213065002528597
:1017A000D685B697BD8E93940601C18033F6C402E8
:1017B000137BF60FEF30E04505891DE98347D4120E
:1017C00001498149B3849702130C5002C1804A86B3
:1017D0005285D685EF30E0430589937BF90F11C51B
:1017E00063863403850993F9F90F0509E31189FF2D
:1017F000230B6413B250225492540259F249624AA4
:10180000D24A424BB24B224C456182805E8BCDB7AF
:101810008327C50803568508797193D60701BD8EC5
:10182000C206C182358E1357764093575640898B36
:10183000058B5D8F93573640918B5D8F9357164084
:10184000A18B5D8F93171600C18B5D8F93173600A8
:1018500093F707025D8F931756009355860093F711
:1018600007041E065D8F1376F60F518F93D75540F0
:1018700013D63540118A898BD18F13D67540D18FFD
:1018800013D61540218AD18F13961500418AD18F26
:101890001396350013760602D18F139655001376F2
:1018A00006049E05D18F93F5F50FCD8FA20745460F
:1018B0005D8F3307C70222D42A8426D252CC56CA5F
:1018C000032A040A832A440A5AC806D636974207CE
:1018D000418393577740135557400989858BC98FAA
:1018E000135537401189C98F135517402189C98F66
:1018F000131517004189C98F131537001375050299
:10190000C98F1315570093558700137505041E07DB
:10191000C98F1377F70FD98F13D5354013D755409B
:101920001189098B498F13D57540498F13D51540FF
:101930002189498F139515004189498F13953500E9
:1019400013750502498F13955500137505049E05FF
:10195000498F93F5F50F4D8F2207D98FB387C702B3
:101960004AD04ECE5EC662C4B697C207C18313D7B3
:10197000774013D557400989058B498F13D53740D8
:101980001189498F13D517402189498F1395170065
:101990004189498F1395370013750502498F1395B7
:1019A000570093D58700137505049E07498F93F759
:1019B000F70FD98F13D5354013D755401189098BAF
:1019C000498F13D57540498F13D515402189498F0B
:1019D000139515004189498F13953500137505023C
:1019E000498F13955500137505049E05498F93F58E
:1019F000F50F4D8F2207D98FB387C7021306500208
:101A00005285D685B697BD8E93940601C18033F674
:101A1000C402137BF60FEF30C01F05891DE9834711
:101A2000140801498149B3849702130C5002C18004
:101A30004A865285D685EF30C01D0589937BF90F04
:101A400011C563863403850993F9F90F0509E3117C
:101A500089FF230F6407B250225492540259F2496D
:101A6000624AD24A424BB24B224C456182805E8B25
:101A7000CDB78327450903568508797193D60701A9
:101A8000BD8EC206C182358E13577640935756409D
:101A9000898B058B5D8F93573640918B5D8F935764
:101AA0001640A18B5D8F93171600C18B5D8F931726
:101AB000360093F707025D8F931756009355860003
:101AC00093F707041E065D8F1376F60F518F93D799
:101AD000554013D63540118A898BD18F13D6754066
:101AE000D18F13D61540218AD18F13961500418AC4
:101AF000D18F1396350013760602D18F13965500B9
:101B0000137606049E05D18F93F5F50FCD8FA207AE
:101B100045465D8F3307C70222D42A8426D252CC91
:101B200056CA032A040B832A440B5AC806D6369792
:101B30004207418393577740135557400989858B56
:101B4000C98F135537401189C98F13551740218903
:101B5000C98F131517004189C98F131537001375E5
:101B60000502C98F13155700935587001375050497
:101B70001E07C98F1377F70FD98F13D5354013D7A9
:101B800055401189098B498F13D57540498F13D55D
:101B900015402189498F139515004189498F139567
:101BA000350013750502498F13955500137505040B
:101BB0009E05498F93F5F50F4D8F2207D98FB38777
:101BC000C7024AD04ECE5EC662C4B697C207C18372
:101BD00013D7774013D557400989058B498F13D503
:101BE00037401189498F13D517402189498F1395A3
:101BF00017004189498F1395370013750502498FE6
:101C00001395570093D58700137505049E07498FD8
:101C100093F7F70FD98F13D5354013D75540118956
:101C2000098B498F13D57540498F13D515402189EC
:101C3000498F139515004189498F13953500137508
:101C40000502498F13955500137505049E05498FAC
:101C500093F5F50F4D8F2207D98FB387C70213066F
:101C600050025285D685B697BD8E93940601C180E9
:101C700033F6C402137BF60FEF20B07905891DE916
:101C80008347F40801498149B3849702130C500239
:101C9000C1804A865285D685EF20B0770589937B2F
:101CA000F90F11C563863403850993F9F90F050906
:101CB000E31189FF230F6407B25022549254025952
:101CC000F249624AD24A424BB24B224C4561828071
:101CD0005E8BCDB7797122D406D683C735002E84AA
:101CE00023160100A307F10083C74500100802C0B6
:101CF0002307F10083C755008A8502C2A306F100BD
:101D000002C402C802CA02CC02CE812A0347F101F2
:101D10008347040001456310F7020347E10183474D
:101D2000140001456319F7000345D10183472400DE
:101D30001D8D13351500B25022544561828001116A
:101D4000971700209387878622CC03A4C70C26CA46
:101D50004AC84EC606CEAA8413092500854915C077
:101D600083C7140003473400858B6304F700405C8D
:101D7000FDB71946930544004A85EFE0AFE4E31848
:101D800035FF2285F2406244D2444249B24905619E
:101D900082804111971700209387478122C403A4B2
:101DA000C70C26C24AC006C693042500054901E8AF
:101DB0002285B24022449244024941018280A68594
:101DC0001305A402013FE30525FF405CCDB7411197
:101DD000970700209387877D22C403A4C70C26C2DF
:101DE0004AC006C693042500054901E82285B24091
:101DF00022449244024941018280A6851305A40130
:101E0000D13DE30525FF405CCDB7011197070020C8
:101E10009387C77922CC03A4470C26CA06CE2AC4CE
:101E20002EC6854419E40145F2406244D24405615E
:101E300082808347910003471400858B6304F70079
:101E40000044CDB719469305A10013052400EFE027
:101E50006FD7E31795FE0545C1BF971600209386FF
:101E600066899C421307001098C323A0070003470C
:101E70001500034825002207420842970348050041
:101E80004297034835006208429798D703475500A8
:101E900003486500220742084297034845004297DD
:101EA0000348750062084297D8D703479500034856
:101EB000A50022074208429703488500429703483D
:101EC000B5006208429798DB0347D5000348E50058
:101ED0002207420842970348C5000345F500429790
:101EE00062052A97D8DB03C7150003C52500220722
:101EF00042052A9703C505002A9703C535006205E8
:101F00002A9798CF03C7550003C5650022074205ED
:101F10002A9703C545002A9703C5750062052A97CD
:101F2000D8CF03C7950003C5A500220742052A970D
:101F300003C585002A9703C5B50062052A9798D383
:101F400003C7D50003C5E500220742052A9703C54C
:101F5000C50083C5F5002A97E2052E97D8D3D8434C
:101F6000759BD8C3D84313671700D8C3984313672A
:101F7000170098C398425C43858BD9E31C4F0145F9
:101F80002300F6009C429C4FA183A300F6009C42D4
:101F90009C4FC1832301F6009C429C4FE183A30127
:101FA000F6009C42D84F2302E600D84F2183A302BB
:101FB000E600D84F41832303E600D84F6183A30393
:101FC000E60098532304E60098532183A304E60017
:101FD000985341832305E60098536183A305E600E7
:101FE000D8532306E600D8532183A306E600D8532E
:101FF00041832307E600DC53E183A307F6008280D8
:1020000001008DBF970700209387477298431605FC
:10201000136505083C4B93E707083CCB9707002066
:102020009387476D9C4303A7450E88C398CB03A7AE
:10203000850E0145D8CB03A7C50B98CF03A7050C88
:10204000D8CF03A7450C98D303A7850CD8D303A7F3
:10205000C50C98D703A7050DD8D703A7450D98DB66
:1020600003A7850DD8DB03A7C50D98C703A7050EE9
:10207000D8C798431367070498C382809707002046
:102080009387C76A98431605136505083C4B93E789
:1020900007083CCB970700209387C7659C4303A79D
:1020A000C50E88C398CB03A7050F0145D8CB03A75E
:1020B000C50B98CF03A7050CD8CF03A7450C98D321
:1020C00003A7850CD8D303A7C50C98D703A7050D84
:1020D000D8D703A7450D98DB03A7850DD8DB03A749
:1020E000C50D98C703A7050ED8C798431367070403
:1020F00098C3930700F8170700202308F760828031
:10210000970600209386465F9842411126C21C5FC5
:1021100006C622C49983858BB684CDC39307000677
:102120001CDF9707002083C7E75D93F707041704B8
:1021300000201304245D9DC397070020938747293F
:102140009C4382979707002023ACA75C8347040039
:1021500093F7F70B170700202306F75A834704006D
:1021600093F707029DC383470400A16693F7F70D19
:10217000170700202308F758170700201307075BED
:102180005C481843860714C77CD78347440093F7FD
:1021900007048DE7854717070020A307F756970721
:1021A00000209387A7589C43096798C7130700FC32
:1021B00097060020238AE6541848F8D398401C5FFD
:1021C0009183858B81CBC1471CDF85479706002013
:1021D000238CF6521C5F9D83858B89CB9307000867
:1021E0001CDF8547170700202300F75297070020C0
:1021F000938747509C43D8430583058B19C7D84321
:10220000759BD8C3D843799BD8C3B240224492442B
:102210004101828097070020938747519443970795
:1022200000209387274E03C70700058B09EB03C7E0
:102230001700058B09E7F8527DF783C7570097070A
:102240000020A383074C8280170800201308C84A87
:10225000032708001C5F9583858BBDEB09C61C5BBB
:10226000BD832300F60085CA83270800985B4607D4
:10227000935767016356070093E707C0C207C183FE
:1022800003970600C207C18709C7BA970947B3C7B2
:10229000E7022390F60095C18347150099CF3E953C
:1022A000834795000547194593F6F7066393E602C1
:1022B000E207E187394563CE07008327080001451F
:1022C0009C5FED838D8B17070020A302F74482806B
:1022D00005458280411122C406C61704002013045C
:1022E000E44418403DE5AE877453FDFE3E85B2855B
:1022F0009707002023890740EFB0D165970700209A
:102300009387873F9C43B70680009843558F98C3B7
:10231000D857719BD8D797070020A387073E970708
:102320000020A381073E1C40094798C314401707AB
:1023300000201307273D83472700858B99E78347B4
:102340003700858B99E3FC52FDF7B24022444101EE
:1023500082808D476310F502970700209387C73965
:102360009C43B70680009843558F98C3D857719BFC
:10237000D8D76DBF8547E31BF5FA5447F977FD17AA
:10238000F58F5CC70F1000001C40096798C7130742
:1023900000F8170600202309E63617070020130768
:1023A000A7351043184231830D8B11E713076019CD
:1023B000F8D3D4C7A5BF1842094631830D8B6315E6
:1023C000C7001307E043EDB71307E01BD5B75D71F6
:1023D00052DC170A0020130A2A3203270A0086C695
:1023E000A2C4A6C2CAC04EDE1C439709002093892E
:1023F0002939170900201309693393F7F7E793E7A1
:1024000007081CC383A609003707CEFF7D179C462B
:10241000130680022A84F98F9CC6832709002800AE
:10242000AE8423A8070493051008EFD03FEF35458D
:10243000EFC0A11283270A009376F41F37063300FA
:1024400023A40700984B370FFCFF4E881367F70350
:1024500098CBF84FCA88130510F8137707E0558F0B
:10246000F8CF9843F576FD16758F98C317070020AF
:10247000A30C07288326090017070020A3040728B8
:10248000054798C29843D285B70204001377F7E74F
:1024900098C398439303802511491377F7E713678F
:1024A000071098C303A709007D1F85491C47930F98
:1024B0008002D18F1CC793079005BCCA0147340026
:1024C0001353370026938347030013767700B3D75F
:1024D000C740858BDDCF9C41832E0800239C0704D9
:1024E0002390070603AECE02137EDEFF23A6CE03A3
:1024F00083AE0700137EF70793FE0EF833EECE018E
:1025000023A0C70103AE4702336E5E0023A2C703B8
:1025100083AE0800014E23A27E0603DA0706630796
:102520004E0303AE0703038A0600135EFE00620E2D
:10253000135E8E416358CA0103AE0703135EFE00AB
:102540002380C60103DE0706137EFE0F03AA4E0694
:1025500063060A0003DA8705E37F49FB03AE4702FF
:10256000337EEE0123A2C70383870600635CF40079
:10257000034E03003396C9001346F6FF3376C601B7
:102580002300C3003E8663D3A7002A861315860165
:10259000618505071377F70F8506E313F7F3B64058
:1025A000264496440649F259625A6161828097072F
:1025B00000209387A7179C43D8479316170163D52C
:1025C000060298479316170163D006027D57B8D7C5
:1025D00017070020130787DB584F050797060020D1
:1025E00023A4E6DC116798C798470D83058B1DC3AC
:1025F00017070020034727111367170097060020CD
:102600002383E610130700F897060020238EE60EBA
:10261000214798C79847058B09CF17070020034724
:10262000770E1367170097060020A38DE60C054769
:1026300098C798470983058B09E798470583058B59
:1026400035C317070020A301070C98471706002081
:102650001306460B970600209386060A0983058B0E
:102660009442B28563000710984231830D8B65EB6D
:10267000B04BD85113760602034717005DCA69EFC5
:102680001307D005D8CF03C7050013671700170637
:1026900000202309E606114798C7D856719B136797
:1026A0001700D8D698479316370163D606029706C7
:1026B000002083C666F7C18A17070020130707EFBB
:1026C000C5CE0347C7071367070297060020238D6F
:1026D000E6F4056798C798479316270163D1060269
:1026E0001707002003474702620761876357070007
:1026F0000547970600202389E600096798C7984791
:102700009316070163D606029706002083C6D6F10A
:10271000858A17070020130767E9ADCE0347D7075F
:102720001367270097060020A380E6F0216798C76B
:10273000828039D705466315C7001307100699B77D
:1027400009466315C700130750062DBF0D466315D4
:10275000C700130790063DB71307B00625B7130748
:10276000C0060DB703473600136717001706002091
:10277000A30BE6F809470DB78346C7070946BD8A8C
:102780006388C6000347C7078D463D8BE313D7F424
:10279000114725BF8346D707918AC9DA0347D70770
:1027A0001367870041B797070020938727F89C435A
:1027B00098479706002023A3E6F6944717070020C2
:1027C000130747F48D82858A8DC28346270093E6DE
:1027D0001600170600202308D6F2930600F8170605
:1027E00000202303D6F2A14694C79447858A99CA4C
:1027F0008346170093E6160017060020A304D6F0C0
:10280000854694C794478982858A89E6944785825C
:10281000858AA1CE97060020A38806EE9447170666
:102820000020130666ED10428982858AD5C21442C3
:10283000B1828D8AD9EAAC4B545393F5050283C615
:102840001600B1CDC1E29306D005D4CF8346070070
:1028500093E61600970500202386D5EA914694C793
:102860005456F19A93E6160054D6944713962601CF
:10287000635F0600034747006207618763570700ED
:102880000547970600202381E6E8096798C798471F
:102890009316070163D40600216798C78280C5D6C6
:1028A00085456395B6009306100645B7894563953F
:1028B000B6009306500651BF8D456395B60093064A
:1028C000900661B79306B00649B79306C006B5BF38
:1028D0008346370093E6160097050020A385D5E2CE
:1028E0008946B5BF97070020938747E498438567DB
:1028F000938707777CD397070020938767E89C43EB
:1029000083A60709139656006358060083A6070995
:1029100013966600634406007453FDF282804111F1
:1029200022C4B747024006C603A4C72023A6072037
:102930000F10000011C199E5B747024023A6872078
:1029400001457DA893073500C207C183F19BC207EB
:10295000C183130740036369F702170700201307B9
:10296000E7EA0843170700201307C7E914436392F7
:10297000A60217070020130767A6585B55DFC2079A
:10298000DD8D054502974DBF170700201307C7E7E8
:10299000C9BF035765002DEB035745006366F70673
:1029A000B306F7402146637CD602032805009386D0
:1029B00087001D8FAA966117170600200356669D93
:1029C0002392E60023A006012393060014C12312DC
:1029D000F500130786FF97060020239CE69A231331
:1029E000B5009705002083D5C59AB387F540170732
:1029F00000202310F79AB747024023A6872021051D
:102A0000B240224441018280084195B7B747024055
:102A100003A8C72023A607200F10000001E523A666
:102A20000721828097070020938747DE03AE0700C7
:102A300097070020938707DD03A307008146F287ED
:102A400063F0670C83A80700636FF50A63EDA80ABB
:102A5000138787006366E50A03D6670021670507C9
:102A60006317E60003C7419A05072382E19A970599
:102A700000209385A59103D6470003D765002393D3
:102A80000700329742074183170500202313E59082
:102A9000638AC70317050020130505D708416303A0
:102AA000F50203D5660019ED83D7460023A0160171
:102AB00021073E9621062392C60097070020239AFD
:102AC000E78CB6879843630D6702970600209386CC
:102AD000A6D394426306D7028356670095E283D655
:102AE0004700035647001843A106B2962392D70029
:102AF00098C383D76500A10717070020231BF78819
:102B0000B747024029BFBE86C6871DBF9707002072
:102B10009387C7CF970600209386C6CE9C439042EA
:102B20002A87B305B5406314F6003A8529A8938631
:102B300087009C43E369D7FEE377F7FE2E85E3E445
:102B4000D5FEE3F2F5FE82804111970700209387BE
:102B5000E7A526C2A44F06C622C44AC08547C1CCF9
:102B600003A4C40A854741C88347A4001307700A19
:102B7000639AE708034754008347940097060020B0
:102B80009386468AD042B387E7021707002003578F
:102B9000E789B387E7021307003293870719B3D792
:102BA000E70203A74409B6843E973A896364F700B5
:102BB0006364C7003309C7409707002093874781A4
:102BC0009C43232025018297B307A9406374A90081
:102BD000D840BA9781E79307F00F31A80347540014
:102BE0009306204E3307D702E3F7E7FE930780FAF8
:102BF0002305F4008147B2402244924402493E85B5
:102C0000410182801307800AE397E7FC97F7FF1FD3
:102C10009387077C9C4382972A893545EFB0F1134F
:102C2000AD4717070020A302F7AE034754008347C0
:102C3000940017F6FF1F1306E67E5042B387E702A3
:102C400017F7FF1F0357877EB387E702130700328A
:102C500093870719B3D7E70203A744093E97BA86BB
:102C60006364F7006364C700B306C740E315D9F691
:102C70001735020013058507EFD01FAD9707002019
:102C80009387C7AA9C430947F8D7B1B7397152D483
:102C9000170A0020130A0AA783278A0106DE22DC0E
:102CA00026DA4AD84ED656D25AD05ECE62CC66CA02
:102CB0006AC86EC61397070163570720970700205D
:102CC0009387C78EA04F0329C40A8347990003271F
:102CD000C9009207330CF70003452C003147050566
:102CE0003305E50203574C003A9542054181EFD088
:102CF0002FCCAA8B6303051E130DC5002324A50149
:102D000003462C00B145F97A3306B60223130C00B2
:102D1000814497090020938969A1170B0020130BA8
:102D2000AB9D970C0020938CACA5930D9005FD1ADC
:102D30006A962326CC00034679009307D00703A5A3
:102D400009003306F60285671CC5B707330006067F
:102D500030D103260B000C4293F5F5E70CC20C4270
:102D600093F5F5E793E505100CC203A80C00832545
:102D70008800DD8D2324B800832509002328B505AC
:102D80000CC683556C000326CC002E962324CD0060
:102D900003461C00930550022696A301CD0003456F
:102DA0000408014697070020A38E0794EFB0215036
:102DB00003A609004846B37555014CC60F10000024
:102DC00003A60900896503280B000CC6930500F8CB
:102DD00097070020238AB79283250800B1818D8947
:102DE000F1E1930560196CD248C697070020A38DC6
:102DF0000790854597070020A38607900CC2EFF047
:102E00006FC1EFB0416D03461A00058A4DCAEA85CD
:102E10002285EF30727715ED03465D004DC2835574
:102E20006C0003554C00B29563DBA5088345240173
:102E30002848918D8905AA9503258D00EFD06FC78D
:102E400023020D0083455D0003566C002E9623136C
:102E5000CC0083A50900310DB0517DFE03462C0046
:102E6000850493F4F40FE3E8C4EC034784005E8523
:102E7000A381EB0083470C00A3820B002383CB00CC
:102E80002382FB006254F250D2544259B259225A62
:102E9000925A025BF24B624CD24C424DB24D2161D0
:102EA0006F007159832508000948B1818D896395A8
:102EB00005019305E04305BF9305E01B2DB77D5643
:102EC0002302CD0079B797070020938727869C437C
:102ED000FC5781C785472386F190F2506254D25443
:102EE0004259B259225A925A025BF24B624CD24C6E
:102EF000424DB24D21618280197106C212C416C6BC
:102F00001AC81ECA22CC26CE2AD02ED232D436D609
:102F10003AD83EDA42DC46DECAC0CEC2D2C4D6C6F9
:102F2000DAC8DECAE2CCE6CEEAD0EED2F2D4F6D6E9
:102F3000FAD8FEDA9385C18E8841E70005009240F9
:102F40002242B2424243D2436244F2440255925575
:102F50002256B2564257D2576258F25806499649FD
:102F6000264AB64A464BD64B664CF64C065D965DF5
:102F7000265EB65E465FD65F0961730020300000B2
:102F8000EFD06FFD73000000000000009382C1903D
:102F90000383020023800200630F0300F325103433
:102FA0002EC0970500009385E5FD73901534EFF072
:102FB0008FFF7300203086DCEFF06FDFE6508280F9
:042FC000000000000D
:102FC40001A097E1FF1F938121C117D100201301B4
:102FD4002103175502001305A59897D5FF1F938564
:102FE40025021386C18B63FAC5008322050023A042
:102FF400550011059105E3EAC5FE1385018C97057B
:1030040000209385E5806377B50023200500110532
:10301400E36DB5FEFD42739002BC8D427390428015
:10302400930280087390023097D2FFFF938282FD4F
:1030340093E2320073905230EF1050239722000035
:10304400938202A07390123473002030EF12507EEA
:10305400B727014093870740631CF5008545130596
:1030640000200523814513050020212B6F10907E3D
:10307400B737014093870780E31AF5FE85451305AA
:1030840000400123814513050040C5B75841B707E7
:10309400F1E09387F7EF944D7D8F9C41D58FD44D0C
:1030A400D58FD441A206D58FD98F5CC11845B7F707
:1030B400F1FF9387D77FD4457D8F9C49D58F944565
:1030C4008606D58FD98F1CC55855B70710FFFD1735
:1030D4007D8FDC29FD1793F7F70FD207D98F5CD5C5
:1030E40082801C4589C593E717001CC58280F99B23
:1030F400EDBF1C4591C537075000D98F1CC5828090
:103104003707B0FF7D17F98FD5BFA54763F7B7041D
:103114008D47138765FF3307F7020328C5009D47D2
:10312400B397E70093C7F7FFB3F70701B396E60039
:10313400DD8E54C5994763E3C70495477D1633066E
:10314400F6025859FD47B397C70093C7F7FFF98FA5
:103154003396C5005D8E50D982800D473387E502D2
:10316400032805019D47B397E70093C7F7FFB3F71B
:103174000701B396E600DD8E14C96DBFB14763E263
:10318400C702954765163306F6021859FD47B397EB
:10319400C70093C7F7FFF98F3396C5005D8E10D92A
:1031A400828095474D163306F6025855FD47B3976E
:1031B400C70093C7F7FFF98FB395C500DD8D4CD5D4
:1031C40082806845420541818280B7270140938708
:1031D4000740984711C5B7068000558F98C782806D
:1031E400B70680FFFD16758FD5BF1C4133F5F5007A
:1031F4003335A00082805C4191C537070004D98F24
:103204005CC18280370700FC7D17F98FD5BFB707F3
:10321400014093870740C8CB8280B7066745B7272C
:103224000240938636123797EFCDD4C31307B79A6B
:10323400D8C3D4D3D8D38280372702401C4BA1668D
:10324400D58F1CCB8280B7270240984BB70602006B
:10325400137505F0558F98CBC8CB984B13670704AB
:1032640098CBD847058B75FF984B8176FD16758FE3
:1032740098CB8280372702401C4BC166137505F03A
:10328400D58F1CCB5C47858BF5FF372702405C4705
:10329400898BF5FF3727024013060010B386F5002B
:1032A40003A80600B386A70023A006015447898A11
:1032B400F5FE9107E394C7FE1C4BB7062000D58F9B
:1032C4001CCBB7270240D847058B75FF984BC176B6
:1032D400FD16758F98CB828037F7FF1F8327877E73
:1032E40093D687001CA114B193D60701E18334A1BE
:1032F4003CB18327C77E5CA1A1835CB182809C45DD
:1033040013F7070113F8F70001C7D8413368E80041
:103314008E2113F7F50F31C318418146054E930EE4
:1033240080023D4F930F800421433316DE00B3F82F
:10333400C50063101603639AD70750C91396260075
:10334400B318CF0093C8F8FF33F7E8003316C8006A
:10335400518F8506E39B66FC18C11307F00F637554
:10336400B70454410146054E930E8002130F8004A6
:103374002143130786003317EE00B3F8E500631109
:1033840017036398D70358C9931826003D4733178A
:1033940017011347F7FFF98EB3181801B3E6D800E5
:1033A4000506E31866FC54C18280E399F7F910C955
:1033B40071B7E39BE7FD18C9C1BF377700401C43D1
:1033C40009C593E707101CC3828093F7F7EFE5BFA5
:1033D400B7160240DC4251777D17F98FC98FDCC2E2
:1033E4008280B71702402380070223800702054723
:1033F4006306E50011476306E50082802380A70287
:10340400828015472380E7028280371702405C538D
:1034140009C593E717005CD38280F99BEDBF37178A
:1034240002401C53C98F1CD3828001C93717024044
:103434001C53A166D58F1CD38280B71602409C52C0
:1034440061777D17F98F9CD28280371702405C43E5
:103454009146B18B6380D70CA1466392D70C5C4331
:103464005843C166C983BD8B758F8907C54663936D
:10347400D700C94701EF3747024003270780418B34
:1034840049C737177A001307072029A8B71602403F
:10349400D8423706C000718F6314C7063727F4007B
:1034A40013070740B387E7021CC137160240544292
:1034B40037070020130707009182BD8ABA96942229
:1034C400B3D7D7005CC15442A1829D8ABA96942294
:1034D400B3D6D70014C55442AD829D8A36971823BB
:1034E400B70600209386863DB3D7E7005CC55842F3
:1034F40039830D8B36971823B3D7E7021CC9828012
:10350400D842B7060200758F2DDF37173D00130729
:10351400079049BFB757E8019387078071B7B7177A
:103524007A009387072049B799C5371702405C4B47
:10353400C98F5CCB8280B7170240D84B1345F5FF87
:10354400798DC8CB828099C5371702401C4FC98F2B
:103554001CCF8280B7170240984F1345F5FF798D31
:1035640088CF828099C5371702405C4FC98F5CCFE2
:103574008280B7170240D84F1345F5FF798DC8CF25
:10358400828099C5371702405C47C98F5CC7828027
:10359400B7170240D8471345F5FF798DC8C7828015
:1035A40005458280B737004003D74780136707017A
:1035B4002392E78082803737004083574780C207D1
:1035C400C183BD9BC207C1832312F7808280B737B2
:1035D400004093870780962F9A2F13160701418284
:1035E400E39BE6FEB737004093870780D62FDA2F98
:1035F400131507014181E39BE6FE373700401307AB
:1036040007800E2F162F93970601C183E39BD5FEE7
:10361400630DF6003737004013070780522F562FEB
:10362400139506014181E31BD6FEC2075D8D82809E
:10363400EF1210202A84BD3713570401B737004016
:103644004204239CE7804180239E8780AD376F101E
:103654007020EF12F01D2A84B13713570401B737D5
:1036640000403D8B42042394E78041802396878069
:1036740099376F10301E37370040130707805E23D9
:1036840093F70702EDDF8280B737004003D7478006
:103694001345F5FF698F2392E7808280F5B7EF1217
:1036A400301603A70183B727024083C697049169A4
:1036B400938DC70293F6060FA38EDD0083C6DD014A
:1036C400B79AE4FF938A0A8C93F6F60FA38EDD0073
:1036D400938609E8B347D702B7460F0093860624BA
:1036E4000964130404F4B7CB0D003314A4001306C7
:1036F400803E938B0BBA01118544B394A400AA8C29
:10370400014A014C1169617BFD19B346D7023EC6DB
:10371400B34A57033304D402B30750413EC8B34BF2
:1037240077033347C702B387C60293060010130614
:10373400C02E3344D40291463ECAB3C4D402931774
:1037440034003ECC3307C7022566130606CAB38489
:10375400E402334DC702B3C4C402050A137AFA0F54
:10376400094403C73D0213672700A381ED0203D771
:103774000D0233672701420741832390ED0203D7EB
:103784000D0233676701420741832390ED0203D79B
:103794000D0242074187E35C07FE03D70D0203C70E
:1037A4003D021377D70FA381ED0203C73D021367D0
:1037B4002700A381ED0203D70D02336727014207D7
:1037C40041832390ED0203D70D023367670142075B
:1037D40041832390ED02E53B2A873ACECD3B7247E5
:1037E400E30DE5FE03D70D0233672701420741834A
:1037F4002390ED0203D70D0242074187E34C07FEF5
:1038040003D70D0242074187E35C07FE83D60D020E
:1038140003C72D02B247B3F6360133073703BA960E
:103824009D8E63D5DA00C24763CAF60263688403D7
:10383400050C1397160033477703137CFC0F635D65
:10384400D000050783D6AD00334787023697420779
:1038540041832395ED0031B77D17EDB703C7DD0133
:103864001377070FA38EED0003C7DD01136727004D
:10387400A38EED0003C73D021377D70FA381ED029A
:1038840003C73D0213672700A381ED0203D70D028E
:1038940033676701420741832390ED0203D70D028A
:1038A40033672701420741832390ED0203D70D02BA
:1038B40042074187E35C07FE03D70D0203C73D02BD
:1038C4001377D70FA381ED0203C73D0213672700C7
:1038D400A381ED0203D70D023367670142074183D9
:1038E4002390ED0203D70D0233672701420741837A
:1038F4002390ED02E9392A873ACED1397247E30D94
:10390400E5FE03D70D023367270142074183239065
:10391400ED0203D70D0242074187E34C07FE03D7AC
:103924000D0242074187E35C07FE03D70D0283C6FD
:103934002D02D24733773701B386360336971D8F6E
:103944009306800C635FE0023307D7023347A70373
:10395400050789463347D702635BE00283D6AD008F
:103964001306F07F9582BA96635FD6180D476317E6
:10397400EA1A03D7AD0089668116558F4207418341
:1039840035A03307D7023347A7037D17D9B7630C94
:10399400071683D6AD003306E040958263D5C6167C
:1039A4000D476316EA1403D7AD007D8B2395ED0014
:1039B40003C7DD011377070FA38EED0003C7DD01F5
:1039C400336797011377F70FA38EED0003C73D020A
:1039D4001377D70FA381ED0203C73D0213672700B6
:1039E400A381ED0203D70D023367670142074183C8
:1039F4002390ED0203D70D02336727014207418369
:103A04002390ED0203D70D0242074187E35C07FED2
:103A140003D70D0203C73D021377D70FA381ED022D
:103A240003C73D0213672700A381ED0203D70D02EC
:103A340033676701420741832390ED0203D70D02E8
:103A440033672701420741832390ED0249362A87D1
:103A54003ACEB53E7247E30DE5FE03D70D02336758
:103A64002701420741832390ED0203D70D02420749
:103A74004187E34C07FE03D70D0242074187E35C0D
:103A840007FE03C73D021377D70FA381ED0203D7C7
:103A94000D0283C62D02E24733773701B38636031E
:103AA40036971D8F9306800C6354E0063307D702C4
:103AB40033479702050789463347D7026356E00622
:103AC40083D6AD001306F07F9582BA966354D60868
:103AD4000D476315EA0403D7AD0089668116558F37
:103AE400420741832395ED0005616F10205503D7EC
:103AF400AD0085661377F70F8116558F4207418312
:103B04002395ED0099B983D6AD0016073697BDB558
:103B14003307D702334797027D1771BF03D7AD0030
:103B2400A1661377F70FC9BF15C783D6AD00330657
:103B3400E040958263D0C6020D476316EA0003D7BE
:103B4400AD007D8B45B703D7AD001377F70F13672F
:103B5400077E7DB7B7260240FE3A1607BA97C2071A
:103B6400C183FEBA51B7EF12A04C1A29F577FD179D
:103B74007D8FFE2196250111D98F1EA9DE215A259C
:103B84002A84D58FB625AE84D58FFD769386369F4D
:103B9400758FD98F5EA55E29DA25C207C18393F795
:103BA400F7CFD98F5EA968004D30B747014093879E
:103BB40007806316F404E2476545B335F502904087
:103BC40081460A063305F502EF10200993064006E4
:103BD4003357D5021306F063120793574700B38790
:103BE400F602B307F540920793872703637BF60039
:103BF4004107420741831AA405616F10A045D247CB
:103C040065BFB3D7D7025D8FEDB75E2589C5096758
:103C1400D98F5EA5828079777D17F98FDDBF93F503
:103C2400F51F4EA182800A216D8D3335A00082805C
:103C340083A7018337177A0013070720B3D7E70256
:103C440093F7F70F2381F18C1307803EB387E702C4
:103C54002390F18C8280B7F700E0D8438146799BAA
:103C6400D8C303C7218C3306A70290CBD4CB984387
:103C74001367070198C398431367170298C3D8437F
:103C8400058B75DF9843799B98C38280EF12403A85
:103C940001112A84854537050200E930854511451F
:103CA4005D3091477C82371501408D473EC44C00FE
:103CB400E147130505803EC6EFF06FE422C83744A0
:103CC4000040B70708000C08130504403ECC02CAA4
:103CD400231E0100493D8545130504403D37056118
:103CE4006F104037EF12203337490040AE893284D9
:103CF40081441309094063C5840022856F10E034B0
:103D0400930500044A85053765DDB38799008385EB
:103D140007004A858504C205C1811137E9BFB7068A
:103D24000020AA8703A5C63D373700201307078163
:103D3400AA9763EBE7003707012013070780636541
:103D4400F70023AEF63C82807D558280EF12402E30
:103D54003285D0410C32034806000D66A205B3E556
:103D6400050113980501135808419308A6A263C7D7
:103D74000803130626A26357060375761306C65D69
:103D8400B295C205C18119466362B6023776020054
:103D9400130646E68A05B29590410286130606A5E7
:103DA4006302C81023900600A9450DA01D469D4539
:103DB400636EE6002146198E63F3C7003E8692A225
:103DC4009385418CBA95EFC08FCE81452E856F10B7
:103DD40060282D469D45E36BE6FE3146198E63F35C
:103DE400C7003E86B775020092A2938505EFD9BF3E
:103DF40031469D45E36CE6FC3546198E63F3C700F6
:103E04003E86B775020092A2938505EE65BF4146D2
:103E14009D45E36DE6FA4546198E63F3C7003E8679
:103E2400B775020092A29385C5EC69BF41469D45D2
:103E3400E36EE6F84546198E63F3C7003E86B77510
:103E4400020092A2938585EBB5BF41469D45E36F81
:103E5400E6F64546198E63F3C7003E86B775020041
:103E640092A2938545EAB9BF41469D45E360E6F6D3
:103E74004546198E63F3C7003E86B775020092A2C9
:103E8400938505E981B735469D45E361E6F43946F6
:103E9400198E63F3C7003E86B775020092A293851C
:103EA40005E80DB719469D45E362E6F23386E54021
:103EB40063F3C7003E86B705002092A29385053EB2
:103EC40011B7B70600203705002093860601414646
:103ED400CD451305C5016F9050752D483DE73285DA
:103EE400902109476310E606EF128014D84110238D
:103EF40018332207518F4166130846FE63070703F0
:103F0400636CE8007D07420741830546637FE60052
:103F140023900600294825A01516E31BC7FE154764
:103F24003E866377F700154621A03E8691C3054679
:103F3400CC4592A242064182EFC06FB70148428548
:103F44006F10401123900600054842858280EF12CD
:103F5400800C80251374040249E483C905000948D0
:103F6400AE876392090903A84500B28436890343E6
:103F74000800034818002208336868004163130EE0
:103F840013FE6302C8030D13630368048D679387EC
:103F9400279029446316F8008547EF80A0382A84C7
:103FA40022856F10800A31E305476362D704C8474E
:103FB4000546A685EFC0AFAF814983A7818EEDD3B7
:103FC4009C43F9DF4A86A6854E858297D1BF11EFBF
:103FD4000547636ED700C8470546A685EFC02FADD9
:103FE400E9BF214475BF054465BF2D4455BF354421
:103FF40045BFC167F9176307F502EF1260038547F0
:104004002A846399F5009385418D2285EF90906C05
:104014006F1040048947E39DF5FE8545EFC0001904
:104024007DD1FDB78280EF12A0002A84416593857B
:10403400418D7D15EF90106A1165130565FFEFC082
:10404400A00E0588014509CCB706002037050020DD
:104054009386C6144146C54513058515EF90F05C5B
:104064006F00507F09C523A4A18E01458280454578
:1040740082801147636AA706EF02907B37770200BC
:10408400130707F00A053A951841AE87B2850287EF
:10409400054761456398E70005461385418EEFC0E7
:1040A4000FA101456F00107B05476145E39CE7FEC6
:1040B40005461385018EE5B705476145E394E7FEA0
:1040C40005461385C18DE1BF05476145E39CE7FCC7
:1040D40005461385818DE1B715476145E394E7FCF7
:1040E40015461385C18C65BF09458280EF02507463
:1040F4002E849385418DAA84EF80801D058909CD86
:10410400B707002083D727210146A2851EA0268554
:10411400EF80906E6F0010744945EDBF0D456FF050
:104124000FD8EF02F070B28713962500AA853E855A
:10413400EFC0EF9701456F00F071EF02706F41110E
:1041440032C62A84EFF06F8D2285EFF0CF8FB2450F
:104154002285EFF02F92EFF02F8E0545ED3C0145BF
:1041640041016F00306FEF02B0693971130600022C
:1041740081450810EF0030703724014013040440D7
:10418400B717024083AD870103AD4700832C440079
:10419400032C8400832BC402032B0403832A4403CB
:1041A400032AC40083290401032944011C4C8545C6
:1041B400130500203EC45C4CB72401403EC61C508D
:1041C4003EC85C503ECA1C543ECC1C5C3ECEEFF054
:1041D4008FB73165EFF0CF9F2285EFE03FE7B70758
:1041E4000E003ED60C1085472285230AF10202D028
:1041F40002D202D402D8EFE07FE985452285EFE0C0
:104204005FEE85452285EFE01FFF0545EFE0FFFBEC
:104214009D460546C1452285EFE03FEF8545228551
:10422400EFE03FED89452285EFE03FFC65DD138536
:104234000440EFE01FF92A8413850440EFE01FE1F6
:10424400B717024023ACB70123A2A701938404400B
:1042540023A2940123A4840123A6740323A8640342
:1042640023AA5403A24723A6440123A8340123AA62
:1042740024019CCCB2472285DCCCC2479CD0D247D7
:10428400DCD0E2479CD4F2479CDC21616F00105BD8
:10429400EF02105A93970501C1872E8463DB070050
:1042A400EFB09FF619C1EF20000B2165218D6F003F
:1042B400705A93F7150013C51500F5FB8964B3F71D
:1042C400950095C3EFA0C159913D37F6020013063E
:1042D40006E0896503C5018F258CEF20E05D131589
:1042E40004014181E9B7916433F5950069D13775CB
:1042F4000200130545F1EF00F06C130600649165AC
:10430400D1BFEF02F0528D67B77502003775020016
:104314005D719387C7F85546938585F11305054666
:1043240023A6F18EEFC0CF8901E93775020013058A
:1043340005F3EF00306901A0B7270240D857B7064C
:104344000090FD16758FD8D7D857B70600301306DE
:104354000004558FD8D7D857B70600038145558F29
:10436400D8D70808EFB05FFBB70700209387075F33
:104374003EC88967938707C0FC82B787070893877D
:1043840007C03ECC93073050FC87ED472310F10261
:10439400916793876712BEC491679387E713BEC67C
:1043A4009167938707E82317F10285649307803E9A
:1043B4002318F102938794D02312F1029167938713
:1043C400A7163EDE91679387071205442800BEC0F6
:1043D40023018102EFE05FF0A2473ED43C8623161E
:1043E400F102C24781C7BC8263F3970001A00808A9
:1043F400EF203025AA8501C937750200130545F45D
:10440400EF00704801A0854513050004EFF0CF913B
:10441400B7E700E03707008023A2E71023A4871042
:1044240061616F003043EF02B04011651305452907
:10443400EF20701D2388A18E212803C5018F37F634
:104444000200130606E08965EF2000476F009040E4
:10445400EF02103E411185453705001802C002C223
:1044640002C402C6EFF00F900545EFE01FF50545C5
:10447400EFE0BFF90145EFE0DFF613050020EFE0C0
:104484001FFA0545EFE07FFAEFF0EF9EEFF0AF9EE5
:104494000545EFF00F9CEFF00F9E0145EFF04F99AB
:1044A400EFF06F9DA539FD573EC2B747E8039387E8
:1044B40007E83EC48D679387275D0A853EC0EF20D9
:1044C400F04901C9AA8537750200130545F6EF00C6
:1044D400903B41016F00103805473705020023AABD
:1044E400E18EEFE0DFD20945EFF04F9BEFF0AF989C
:1044F4007300203073002030B707EFBE37E700E0C9
:10450400938707083CC701A0EFD05FBF730020303A
:104514002A8637750200B305B0401305C5F76F004E
:104524009036EF02F030411119C58947630FF50049
:1045340041016F0030326800EFB07FD73775020059
:10454400130545F9EF001048E5B76800EFB03FD612
:1045540037750200130505FBF5B7EF02702D93873D
:1045640001902E878E23639EA50037750200D2A387
:104574001305C5FC3A86BAA3F6A3EF00D0306F004A
:10458400702D37750200130545FEEF00B043C5BF1B
:10459400EF02102A1387019052211E234111631E3A
:1045A400F60203C5F182C167F917894523A0F1908A
:1045B40023220700EF20805903C5F1829145EF20A3
:1045C400E05885471306F100854513055030DC8714
:1045D400EF00A24B41016F00F0273775020013056D
:1045E40045FEEF00303EFDB73D897D15954763ECF0
:1045F400A712EF02F023B77702009387470A0A0550
:104604003E951C412E848287377502001305C5FE32
:10461400EF00503B35A0BC2119476390E7022E857B
:10462400853F6C20377502001305C5FFEF00B025E8
:104634003775020013058501E1BF0D47E38AE7FEE4
:104644006F005021B8219547E31CF7FE9387019032
:10465400962341677917AA25638FE600EF00C27499
:104664003775020013058502EF00D0353775020057
:104674001305050571BFFA258AA3BAA39A2903C5B0
:10468400F18213060064DAA3BA298945FAA35D47C7
:104694002392E182EF20402203C5F18209661306CA
:1046A4000690A145EF20402103C5F182056613065B
:1046B40006C89145EF20402072242E24377502004D
:1046C4001305C503EF00301C55B7B8218D47E31916
:1046D400F7F6377502001305C5051DBFAC219147D8
:1046E4006397F500377502001305450715B7994719
:1046F400639CF5002285693D6C2037750200130523
:10470400C5FFEF0050182DBF95476399F5001C3085
:10471400F1FB3775020013050509DDBD377502008D
:1047240013058509F9BF8280EF0290109397050164
:10473400C1874111AE8463D5070803C5F182EFB088
:10474400BFAC2A8429C11C211307000B638BE70427
:104754001307000D6396E7023C214547638AE7028D
:104764006547639FE7000348A5001C35182574318D
:1047740070214C31377502001305C50BEF00B010E2
:104784002285EF10503D2165258D41016F00900C6D
:1047940070216C31377502001305C50EEF00B00EA1
:1047A400C5B758219307F007E31CF7FC0E253775AE
:1047B4000200130585102392B182EF00D00CC9B713
:1047C40093F7150091CF03C5F18237060020130635
:1047D400C62C9385C1A0EFF0917913C5140075B769
:1047E40093F72500A5C703C5F18213060064894524
:1047F400EF20800C930780F85C8203D741828D47B9
:1048040063EBE700377502001305C511EF00901B39
:1048140013C524009DBF138401900A2085470147D6
:1048240081460546ED457C85EF7040652AC66DD10D
:1048340030854C00EFB0BFA70A202C00EFF01F8B8F
:1048440061D9ED452800EF70E07AD9B793F7850078
:1048540085C383C7F18203D50190130740068146BF
:10486400130640069945EFF0F16913C5840031BF82
:1048740093F705019DC303D5019001478946094675
:104884008145EF00A254AA85377502001305C512AD
:10489400EF00607F13C50401CDBD13F54500E306A9
:1048A40005EE03D50190EF00E24F03C5F1820566E2
:1048B400130606C89145EF20200013C54400F1B546
:1048C400EF020077116501111305C572EF20A053A3
:1048D40099470544A387A182FC82100893074006E8
:1048E400854513055030FC8423088100EF00E2194C
:1048F400370600201306062FF14513057030EF002C
:10490400C218138681829D4513056030EF00E217BB
:104914005008894513051031EF00221730088945E6
:1049240013052031EF006216930500050D45EF4095
:104934006026930500051145EF40C025854579455E
:10494400EF4040253008914513057040408440866F
:104954002308810002CC230A0100EFE0F16030005B
:10496400854513050040EFE031607000854513056F
:104974001040EFE0715F5008854513052040EFE0DB
:10498400B15E1008854513055040EFE0F15D130555
:104994003003EF60105913053003EF908050EFF0AF
:1049A4004FD213053003EFF00FE83706002013064B
:1049B400862DD5450145EF60B03889475C868D4723
:1049C4002308F1009147230AF100B70703049387F2
:1049D40017203ECC3000954785450145230EF10054
:1049E4004084EFF00FE9700085450545EFF06FE86E
:1049F400100885450945EFF0CFE7500885450D457A
:104A0400EFF02FE7300895451145EFF08FE6416749
:104A1400791723A0E190138501829387019023A243
:104A24000700EFF02FE41385818FEFD0113C03C50D
:104A3400F1828545EF105049056129ADEF02405FD1
:104A4400192AEFF0EF9E716513050520EFF00FA40E
:104A54003775020013050546B527EFF09F8AEFF07E
:104A64009F9CEF00E236A93DEFB02FF2B71702404A
:104A74009843B706FFF041111367170098C3D84352
:104A840037060200758FD8C39843B706F7FEFD16A4
:104A9400758F98C39843B706FCFFFD16758F98C3AE
:104AA400D843B70601FFFD16758FD8C337079F009B
:104AB40098C702C402C69843C166558F98C3B716F7
:104AC400024005679C42F18F3EC6A24785073EC45B
:104AD400B24781E7A247E397E7FEB71702409C433A
:104AE40037070200F98FB5C785473EC63247854769
:104AF400631FF704B7170240D843B706C1FFFD167A
:104B0400D8C3D843D8C3D84313670740D8C3D843BE
:104B1400758FD8C3D843B7062900558FD8C3984397
:104B2400B7060001558F98C3B70600029843758FE6
:104B340075DFD843B7160240719BD8C3D8431367B7
:104B44002700D8C32147DC42B18BE39EE7FE410135
:104B5400828002C661BFEF02A04D371702405C435A
:104B64009146B18B638BD708A146639DD708404318
:104B74005C43416749803D88F98F090445476313C5
:104B8400E400494481EFB747024083A70780C18B03
:104B9400A5C3B7177A009387072015A0B71702405B
:104BA400DC433707C000F98F639DE702EFE05F9FA6
:104BB40085476318F502B727F40093870740330449
:104BC400F402B7170240D843B70700209387C730D1
:104BD40011833D8BBA979C233354F40023A881821C
:104BE40095A9B7170240DC4337070200F98FD5D3E4
:104BF400B7173D0093870790D9B73754E8011304DA
:104C04000480C1B737147A00130404205DBF09CEB1
:104C140093070002918F635AF000B397F500335560
:104C2400C500B3D5C5005D8D8280011633D5C5009E
:104C34008145828009CE93070002918F635AF00068
:104C4400B357F500B395C5003315C500DD8D8280DB
:104C54000116B315C500014582803288AA882E87C3
:104C6400DDEA63F1C510C167636DF618B70700018B
:104C7400B337F600B307F040E19BE1073353F60086
:104C840097360200938606AA9A969422130300028A
:104C9400B697B306F340630BF3003397D500B357CD
:104CA400F5003318D6005D8FB318D50013560801EC
:104CB4003355C70293160801C18293D7080133778D
:104CC400C702B385A6024207D98F63FAB700C29719
:104CD4001307F5FF63E4070163EDB7303A858D8F61
:104CE40033D7C702C20893D80801B3F7C702B38603
:104CF400E602C207B3E8F80063FBD800C298930742
:104D0400F7FF63E50801791763E3D8003E8742059E
:104D1400598D8145828063F5D500814501458280A6
:104D2400C16763E7F618B7070001B3B7F600B30726
:104D3400F040E19BE10733D8F60017370200130770
:104D4400679E42971823930800023E973388E840F1
:104D54006394E81863E1B6283335C500134515009C
:104D6400814582804DC6C167637FF62413370610E0
:104D7400134717000E07B356E600973702009387D0
:104D8400679AB6979C2393060002BA97B38EF640AF
:104D9400639EF608B387C5409356060142064182D6
:104DA400854533D5D70213D70801B3F7D7023303A8
:104DB400C502C207D98F63FA6700C2971307F5FFCC
:104DC40063E4070163E467223A85B387674033D716
:104DD400D702C20893D80801B3F7D7023306C70233
:104DE400C207B3E8F80063FBC800C2989307F7FF53
:104DF40063E50801791763E3C8003E874205598DCE
:104E040082809337061093C717008E0785BD8146AD
:104E14009737020093870791B6979C23014793061F
:104E24000002BA97B38EF640E386F6F63318D6013D
:104E340033D3F50093560801335ED30213160801E9
:104E4400B395D5014182B357F500CD8F13D7070130
:104E5400B318D5013373D302B305C60342033367D2
:104E64006700637BB70042971305FEFF636C071767
:104E7400637AB716791E42970D8F3355D702C2074E
:104E8400C1833377D7023303A6024207D98F63FB6A
:104E94006700C2971307F5FF63E2071563F0671411
:104EA4007915C29793150E01B3876740C98DD5BD97
:104EB40093B7061093C717008E0733D8F600173739
:104EC40002001307278642971823930800023E978F
:104ED4003388E840E380E8E8335EE600B3960601F1
:104EE400336EDE00B3D8E500935E0E01B3D7D8036A
:104EF40013130E01B3950501135303013357E50052
:104F04004D8F9356070133160601B3F8D803B30542
:104F1400F302C208B3E6160163FBB600F296938867
:104F2400F7FF63E3C60D63F1B60CF917F2968D8EA5
:104F3400B3D5D60342074183B3F6D603B308B3020D
:104F4400C206558F637B170172979386F5FF6369D9
:104F5400C70963771709F9157297C207C16ECD8F18
:104F64009386FEFFB3F5D70013D30701F18E418278
:104F7400338ED50233071741B306D30293580E017B
:104F8400B385C502B695C6953303C30263F3D50052
:104F9400769393D605019A966363D7026305D70087
:104FA4003E8581458280C166FD1633F7D5004207F0
:104FB400337EDE00331505017297E373E5FE138536
:104FC400F7FF81458280B70700016377F6029356A5
:104FD400060141475DB38145054582803A85D9B5CF
:104FE400B685A5BF2A8E49BDC68791B77915C297E4
:104FF400E9BB7915C297E5B1935686016147B5BB04
:10500400397101436EC619A0397141536AC866CA21
:1050140062CC5ECE19A0397101535AD056D252D403
:105024004ED64AD826DA22DC06DE3301614082827B
:1050340041114AC026C222C406C68282B24D410131
:10504400024D924C224CB24B4101024B924A224AED
:10505400B2494101024992442244B2404101828052
:105064002A8309CA83830500230073007D16050380
:1050740085056DFA82802A8311C62300B3007D164C
:10508400050365FE82805D7122D406D62A842EDA59
:1050940032DC36DEBAC0BEC2C2C4C6C603A541866F
:1050A40011C51C4D81E72AC6912B32450C45541875
:1050B400228636CEEF001021B250225461618280E4
:1050C400011126CA06CE22CC4AC84EC652C4AA84AE
:1050D40019E11C4502901C4D2E89ADE305239C4C1F
:1050E4008044B9CF972702009387C777631DF404E0
:1050F400C0407C50858B99E75E2493F7072099E3A1
:10510400284C8D2D5E24A18B99C31C48D5E3A28520
:1051140026859D2A51CDFD547C50858B99E75E24CC
:1051240093F7072099E3284CB925F2406244424999
:10513400B249224A2685D2440561828000455DB782
:1051440026856D2945B7972702009387A76F6314B7
:10515400F400804479BF972702009387A76CE31A71
:10516400F4F8C04479B71CC4050963C807021C409D
:105174001387170018C08CA31C4483450900FD172E
:10518400FDF11CC463D907022286A94526853D2862
:10519400FD57E302F5F8A94441B7184C63C4E7008E
:1051A400E39745FD228626851520E31735FDA5B72F
:1051B400FD59294AD1B71C401387170018C0294745
:1051C40098A3D1BFAA8503A54186DDBD011122CCD8
:1051D40026CA4AC806CE4EC6AA842E89328401C580
:1051E4001C4D91E32129972702009387A767631732
:1051F400F402C0401C4C1CC45E24A18B99C31C48FF
:1052040095EFA2852685492015C97D59F24062444F
:10521400D244B2494A8542490561828097270200F7
:10522400938747626314F4008044E9B79727020028
:105234009387475FE310F4FCC0446DBF1C480840EB
:105244009379F90F1379F90F1D8D5C486346F500C6
:10525400A2852685912C55F91C440505FD171CC40F
:105264001C401387170018C0238037015C486388EB
:10527400A7005E24858BD9DBA947E319F9F8A28539
:1052840026851D2441D551B7411122C426C24AC0E6
:1052940006C683A441862A892E8489C49C4C99E33A
:1052A4002685A92E972702009387C75B6313F40210
:1052B400C0408317C40013F7870025E713F70701DD
:1052C4000DEB25472320E90093E707045EA47D55F1
:1052D40071A0972702009387E7566314F400804473
:1052E400C9BF972702009387E753E314F4FCC04433
:1052F400C9B7918B9DC34C5889C9930744046384EF
:10530400F5004A85B92B232A04025E2423220400D3
:1053140093F7B7FD5EA41C481CC05E2493E7870086
:105324005EA41C4899EB5E241307002093F707281A
:105334006385E700A2854A8561298317C40013F7B2
:1053440017001DC35848232404003307E04018CC39
:105354001848014501E713F707083DF7B240224416
:10536400924402494101828013F72700814611E3E8
:10537400544814C4F1BF8397C500011122CC26CA36
:1053840006CE4AC84EC613F78700AA842E8479E352
:10539400D8416345E000B8416356E008585459C306
:1053A400B18303A90400858B23A004000C50A9CB6E
:1053B40070485E24918B99C75C401D8E5C5899C3DC
:1053C4003C401D8E5C540C50814626858297FD57C7
:1053D400630CF5041C480567232204001CC05E24EA
:1053E400F98F91C368C84C5823A0240185CD930735
:1053F40044046384F5002685AD21232A04021DA0FC
:105404000146854626850297FD572A86E313F5FA59
:105414009C40C5D375476385E70059476395E70604
:1054240023A024010145B5A098408317C40001CFEF
:10543400F5466305D700D9466319D7041C482322CF
:1054440004001CC04DB71848B1832322040018C0BF
:10545400858B41BF83A90501E38609FC03A90500E7
:105464008D8B23A0350133093941014791E3D84994
:1054740018C4E35920FB1C540C50CA864E8626855A
:105484008297634FA0008317C40093E707045EA4C8
:105494007D55F2406244D2444249B249056182805A
:1054A400AA993309A940F1B79C49411106C622C4FF
:1054B40026C281EB8144B2402244268592444101B4
:1054C4008280AA842E8401C51C4D91E3052A972766
:1054D400020093872739631CF402C0408317C40079
:1054E400F1DB7850058B11E793F7072099E3284CFB
:1054F40051242685A28541357C50AA84858BC5FF1D
:105504005E2493F70720C5FB284CB5246DB7972775
:105514000200938727336314F4008044C1B79727AC
:10552400020093872730E31BF4FAC04445BF4111BE
:1055340022C406C62A844EA572A523200500232270
:105544000500232405002322050623280500232A19
:105554000500232C0500214681451305C505EFF000
:105564009FB197170000938787845CD0971700003A
:105574009387A7861CD4971700009387878A5CD4E7
:10558400971700009387E78CB24000D01CD82244C0
:105594004101828097050000938545F1BDA2411128
:1055A40026C2930780069384F5FFB384F4024AC0AD
:1055B4002E8922C406C693854407692E2A8401CD08
:1055C4002320050023222501310508C413868406FF
:1055D4008145EFF05FAAB2402285224492440249F9
:1055E400410182801385819F71A21385819F61A2ED
:1055F4001385C19F41A21385C19FB5AA411122C43D
:1056040006C62A84F5371C4C89C72244B24041019E
:10561400DDB797070000938727F81CD423240404DC
:10562400232604042328040483A7818B639487001E
:1056340085471CCC22853D2048C02285252008C4EE
:1056440022850D2048C4484001469145CD35084483
:105654000546A545E93D48440946C945C93D854730
:105664001CCC65B7411126C24AC006C622C42A8989
:10567400953F83A4818B9C4C99E326854137938481
:1056840084048044DC40FD1763D607009C40BDC3FE
:105694008440C5BF0317C40039EBC17785075CC4D8
:1056A4001305840523220406E9208137214623209B
:1056B4000400232404002322040023280400232AB2
:1056C4000400232C040081451305C405EFF0BF9AA0
:1056D400232A0402232C040223240404232604047E
:1056E400B24022852244924402494101828013043B
:1056F400840651BF91454A855D3588C02A8449F99D
:10570400ED35B1472320F900E1BF797122D44AD0A5
:105714004ECE52CC5AC85EC606D626D256CA2A895E
:105724002E8A130485048149054BFD5B0444832AB6
:105734004400FD1A63D00A0200406DF8B2502254AE
:1057440092540259624AD24A424BB24B4E85F249B4
:1057540045618280DE24637BFB008397E4006387DA
:105764007701A6854A85029AB3E9A9009384840641
:10577400C9B78280828082805971A2D42E84839595
:10578400E500A6D2CAD086D6B284368963D2050291
:105794005E2493F707088DEB13070040B650265498
:1057A4002320F90098C0065996540145656182800A
:1057B4003000D52DE34E05FC3247BD67F98F79776C
:1057C400BA9793B71700C9BF814713070004F9B705
:1057D400DE25797122D406D626D24AD04ECE898BC4
:1057E4002E8491CF930774041CC01CC885475CC8E1
:1057F400B250225492540259F24945618280740095
:105804003000AA84953FA2492A892685CE8599220B
:1058140019E98317C40013F7072079FBF19B93E779
:1058240027005EA4C1B7970700009387E7D69CD4EE
:105834005E2408C008C893E707085EA4B247232A79
:10584400340199CB8315E4002685512511C55E24C6
:10585400F19B93E717005EA45E2433E527014AA475
:1058640041BFD1CD83A7C5FF011122CC06CE13843D
:10587400C5FF63D307003E942AC6752D138741A044
:105884001C43324581EB2322040000C36244F240EE
:10589400056175A5637DF4001040B306C4006396EA
:1058A400D7009443DC43B29614C05CC0F9BF3E8772
:1058B400DC4399C3E37DF4FE14433306D700631F2E
:1058C40086001040B29614C33306D700E390C7FC99
:1058D4009043DC43B29614C35CC34DBF6375C400EC
:1058E400B1471CC165B71040B306C4006396D70026
:1058F4009443DC43B29614C05CC040C341BF828071
:1059040041114AC0138901A08327090022C426C279
:1059140006C6AA842E8489E78145A5212320A900EF
:10592400A2852685B9297D59631A25017D54B24083
:1059340022852244924402494101828013043500A5
:105944007198E30685FEB305A44026851D29E3105E
:1059540025FFE9BF011126CA93843500F1984AC88E
:1059640006CE22CC4EC6A104B1472A8963F3F406BD
:10597400B14463E2B4064A857D2B938941A083A791
:1059840009003E8425E4A6854A859D3FFD572A8467
:105994006314F50C03A40900A287D5E78329040046
:1059A40081454A85A299F12E6392A90A1C408D046F
:1059B4009D8CF198A104B14763F3F400B144A6852A
:1059C4004A853D3FFD576303F5081C40A6971CC05C
:1059D4003DA8E3D004FAB1472320F9000145F24081
:1059E4006244D2444249B249056182801440858EA2
:1059F40063C806042D47637DD70204C033079400AF
:105A04006396870223A0E9005C4014C35CC34A8503
:105A14003D231305B4009307440061993307F5400F
:105A2400E30FF5FA3A94898F1CC055BFD8C3E9BF78
:105A340058406395870023A0E900D1BFD8C3C1BFF4
:105A4400A287404081B73E84DC4381BFB147232015
:105A5400F9004A85ED2159B704C155BF1C46FD170D
:105A64001CC663DA0700184E63C5E700A9476394B0
:105A7400F5006FF0AFF51C422E851387170018C28E
:105A84008CA38280011122CC26CA4AC84EC652C4B5
:105A940006CE2A89AE893284B304D6007D5A6314B3
:105AA4009400014501A80C204E864A85453F050413
:105AB400E31745FFF2406244D2444249B249224AC4
:105AC40005618280357122CD26CB4AC94EC706CFE7
