:040000006F405017E6
:10000400000000000000000044A2000054A2000010
:10001400000000004001000000000000000000009B
:1000240040010000724900000000000000000000D0
:100034007249000000000000724900000000000046
:1000440072490000724900007249000072490000C0
:100054007249000072490000DC9200000C93000019
:100064003C9300006C9300009C93000072490000D4
:100074007249000072490000724900007249000090
:100084007249000072490000724900007249000080
:10009400363800007249000072490000CC93000019
:1000A4007249000072490000724900007249000060
:1000B40080A20000724900007249000072490000E9
:1000C4007249000072490000724900007249000040
:1000D40072490000724900005C8700007249000008
:1000E40072490000108400001E38000072490000AC
:1000F4007249000072490000724900006CA20000BD
:100104002414000072490000724900007249000082
:100114007249000072490000000000000000000065
:1001240000000000000000000000000000000000CB
:0C013400000000000000000000000000BF
:100140009305000273A04580824573901534924058
:100150002242B2424243D2436244F2440255925593
:100160002256B2564257D2576258F258064996491B
:10017000264AB64A464BD64B664CF64C065D965D13
:10018000265EB65E465FD65F09617300203041117E
:1001900006C622C40008C52BFDBF23AC05FE1C41CA
:1001A00081E70CC18280BA8703A787FF6DFF23AC6C
:1001B000B7FE8280411126C24AC0B744024006C63B
:1001C00022C403A9C42023A604200F10000009E9BB
:1001D00023A62421B2402244924402494101828054
:1001E0002A842105BD654205C18D4181EF10C00003
:1001F00001CDFD5723200500231285002303F500C0
:1002000023A624212105F9B723A624210145D9B726
:1002100001114AC84EC6B747024006CE22CC26CAB4
:1002200083A9C7202A8923A607200F10000097372B
:100230000020938727B080438144014619E499E860
:10024000A1654A85EFB0703A15A08347E4FF639B30
:10025000270395CCA685173500201305A5ADEFB073
:10026000E07179DCA1654A85EFB03012F24062445A
:10027000B747024023A6372126854249D244B249D6
:100280000561828091E02286032484FF45BFA28419
:10029000E5BF973700209387E7AE9C4399E33E85FF
:1002A000828003D727006316B70003C70700E3085F
:1002B000A7FEDC47E5B7B747024003A7C72023A640
:1002C00007200F10000001C599C1814711E6B7470B
:1002D000024023A6E7208280B386F50003C806000B
:1002E000B306F500850723800601E317F6FEC5B7C0
:1002F000374702408327C720232607200F1000001E
:1003000019C191C111E6374702402326F7208280A8
:10031000910503A7C5FF11057D16232EE5FEDDB768
:10032000374702408327C720232607200F100000ED
:1003300001C53307C50011E6374702402326F720E1
:1003400082800505A30FB5FEE31DE5FEF5B7B747AF
:10035000024083A6C72023A607200F100000814774
:100360003307F5000307070019E737470240232644
:10037000D7203E8582808507E5B7011126CA4AC885
:10038000B747024006CE22CC83A4C7202A892E86F6
:1003900023A607200F100000131506019305F00493
:1003A000418132C6EF0050652A8401C53246CA85B4
:1003B00019372285F2406244B747024023A69720AE
:1003C0004249D24405618280B747024003A7C72053
:1003D00023A607200F10000001C599C1814711EA2B
:1003E000B747024023A6E720054582808507E30939
:1003F000F6FE3308F500B386F5000348080083C60F
:100400000600E305D8FEB747024023A6E7200145D2
:100410008280B747024003A7C72023A607200F10FA
:1004200000009307F6FFBE952A966317C500B747ED
:10043000024023A6E7208280FD1583C7150005052D
:10044000A30FF5FEDDB7374702408327C7202326D9
:1004500007200F10000001C53307C50019E6374714
:1004600002402326F7200145828005058346F5FFDB
:10047000E397B6FEE31BE5FE374702402326F7204D
:10048000054582807971973700209387A78F22D402
:10049000804306D626D24AD04ECE52CC56CA5AC82F
:1004A0005EC669C0B7C4C901014B97390020938962
:1004B000E98C9384F437173A0020130AEA8C973AB0
:1004C0000020938A6A87173900201309699083579F
:1004D000240095E35C44631D0B00173700202323A1
:1004E000F78A832BC4002285EF00F05F5E84A9A801
:1004F0002326FB00FDB783A7090082971C4433071E
:10050000F5406376F500032749001D8F2A9763E0C5
:10051000E4089737002023A9078283552400034568
:100520000400EFB080665C405844A1CB0C44032625
:100530004900AE97BE8663E4B70063E4C700B386A4
:10054000C74014C4228B3A8459F097270020938720
:10055000A77E9C4B05476372F706FD1717270020FF
:100560002324F77EB250225492540259F249624A2F
:10057000D24A424BB24B4561828063170B009737DA
:10058000002023A1E780B1BF2326EB0099BF0327FA
:100590008A0209CF63EFA7003385A74083A70A012A
:1005A0006376F5009727002023A0A77A228B40448A
:1005B00061BF03274900BA97C5B79727002023A535
:1005C00007784DB701114EC6B747024006CE22CC80
:1005D00026CA4AC852C483A9C72023A607200F10E1
:1005E0000000172900201309A97E9727002083C740
:1005F000E77E03254900ADC39737002083D7C7891D
:10060000A1CF972700209387E77D03A4070B6305FD
:10061000A4049727002093872772984B3E8A63078C
:10062000A71097240020938464759C408297636B85
:10063000A40E9C40098C829703270A016373E4008F
:100640002287B307A7003E858326490063E4E700BD
:1006500063E4D7003385D740B747024023A637214C
:1006600083274900639FA702172400201304C46C4A
:10067000184897270020938767709C43631AA70A3E
:10068000829783264900B74736FE938707C8B697F7
:100690003387A7003A856364F7006364D7003305A6
:1006A000D740173400201304A4875C5081CF9737BC
:1006B00000209387A78E94433707CDFF7D179C4674
:1006C000F98F9CC619E1032549008547173700209B
:1006D000232EF784972700209387076B9C578297D8
:1006E00011ED5C5099CB5C4489CBEFC0203CEFB05E
:1006F000305C9737002023AB078269335C5099CB7D
:1007000097370020938787899843B70633001C47A3
:10071000D58F1CC7F2406244D2444249B249224AB2
:1007200005618280832749003E9421B722852DB739
:100730008297144803274900B387A6003E8563E4E7
:10074000D700E3E0E7F63385E740A1BF23A2A18805
:1007500001C585472384F1888280938741889C4323
:1007600081CF411106C6829783C7818899E323A26E
:100770000188B2404101828083C7818881E723A23A
:10078000018882808280411126C206C622C4972732
:10079000002083C7A764972400209384A45C9DE76E
:1007A0009727002083C71778858B1727002013070A
:1007B000277789CF8347770099466395F60C97276B
:1007C0000020A38107762526DC4482979C4491C3B0
:1007D0008297172400201304A45A184017260020DB
:1007E000034696559727002083C707559396170011
:1007F000BA9683D60600DDC29727002083C7C75369
:1008000063E8C70A9727002023880752972700200C
:1008100083C797719724002093848470639607128E
:1008200097270020938787559C43638A0710972753
:1008300000209387E759DC43172700202326F75031
:10084000913197270020938727549C576389070E7F
:1008500083C7740011476364F70E9727002083C78E
:10086000A771918BE9EF83C78188F1EB1040972640
:10087000002083C6764C63C6D70E2244B240924411
:10088000410189B3834777001D47E311F7F49727A8
:100890000020A3890768A12C9C4805BF850793F712
:1008A000F70F972600202389F648E3EDC7F2A9B792
:1008B00086073E97835507002310070097270020DF
:1008C000239C074A97270020938787499C43172535
:1008D00000200345654613172500BA979C4382976D
:1008E0009727002083D74749172700200347C7448D
:1008F00093C7F7FF7D8D9317170018403E978357D6
:1009000007005D8D2310A7009727002083C7C742EB
:1009100091C78507172700202300F7429C4091C705
:1009200082979727002023AF07421727002003470D
:10093000A7409727002083C73740E375F7ECB24004
:10094000224492444101828083C7740093F7F70FD9
:10095000E39807EC97270020A388075CEFB050626C
:10096000C1B51397170032970357070069FB850736
:1009700019B7374702408326C720F177FD17F58F57
:100980002326F72001000100972700209387C73A0C
:10099000C84F832787262326D7206A0593C7F7FFEA
:1009A00099835D8D82809727002083C7173999CF5F
:1009B0009727002083C7874281CF972700209387FE
:1009C000274203A3070063070300028305458280D3
:1009D000094582801305F00F8280972600209386B8
:1009E00066539842411126C21C5F06C622C49983F1
:1009F000858BB684CDC3930700061CDF97270020A4
:100A000083C7075293F707041724002013044451A7
:100A10009DC397270020938767369C43829797272B
:100A2000002023ADA7508347040093F7F70B172747
:100A300000202307F74E8347040093F707029DC366
:100A400083470400A16693F7F70D172700202309B9
:100A5000F74C172700201307274F5C4818438607D9
:100A600014C77CD78347440093F707048DE7854775
:100A700017270020A308F74A972700209387C74C21
:100A80009C43096798C7130700FC97260020238B17
:100A9000E6481848F8D398401C5F9183858B81CB3A
:100AA000C1471CDF854797260020238DF6461C5F33
:100AB0009D83858B89CB930700081CDF854717270B
:100AC00000202301F74697270020938767449C4323
:100AD000D8430583058B19C7D843759BD8C3D84322
:100AE000799BD8C3B2402244924441018280972727
:100AF00000209387674594439727002093874742B8
:100B000003C70700058B09EB03C71700058B09E72F
:100B1000F8527DF783C7570097270020A38407402A
:100B20008280172800201308E83E032708001C5F76
:100B30009583858BBDEB09C61C5BBD832300F60046
:100B400085CA83270800985B460793576701635659
:100B5000070093E707C0C207C18303970600C207D7
:100B6000C18709C7BA970947B3C7E7022390F600C0
:100B700095C18347150099CF3E958347950005475A
:100B8000194593F6F7066393E602E207E1873945D4
:100B900063CE07008327080001459C5FED838D8BA2
:100BA00017270020A303F738828005458280411172
:100BB00022C406C6172400201304043918403DE55A
:100BC000AE877453FDFE3E85B28597270020238AA9
:100BD0000734EFB0B013972700209387A7339C43C7
:100BE000B70680009843558F98C3D857719BD8D7C4
:100BF00097270020A388073297270020A382073277
:100C00001C40094798C31440172700201307473199
:100C100083472700858B99E783473700858B99E3C6
:100C2000FC52FDF7B2402244410182808D4763109F
:100C3000F502972700209387E72D9C43B706800095
:100C40009843558F98C3D857719BD8D76DBF8547A8
:100C5000E31BF5FA5447F977FD17F58F5CC70F10C2
:100C600000001C40096798C7130700F817260020EA
:100C7000230AE62A172700201307C7291043184222
:100C800031830D8B11E713076019F8D3D4C7A5BFC3
:100C90001842094631830D8B6315C7001307E043E3
:100CA000EDB71307E01BD5B75D7152DC172A0020A2
:100CB000130A4A2603270A0086C6A2C4A6C2CAC0CF
:100CC0004EDE1C43972900209389492D17290020C7
:100CD0001309892793F7F7E793E707081CC383A64F
:100CE00009003707CEFF7D179C46130680022A8431
:100CF000F98F9CC6832709002800AE8423A8070427
:100D000093051008EFF0CFE13545EFB0103A832797
:100D10000A009376F41F3706330023A40700984B8C
:100D2000370FFCFF4E881367F70398CBF84FCA883C
:100D3000130510F8137707E0558FF8CF9843F57631
:100D4000FD16758F98C317270020A30D071C832657
:100D5000090017270020A305071C054798C29843E0
:100D6000D285B70204001377F7E798C3984393033B
:100D7000802511491377F7E71367071098C303A776
:100D800009007D1F85491C47930F8002D18F1CC726
:100D900093079005BCCA01473400135337002693CC
:100DA0008347030013767700B3D7C740858BDDCF29
:100DB0009C41832E0800239C07042390070603AE62
:100DC000CE02137EDEFF23A6CE0383AE0700137E82
:100DD000F70793FE0EF833EECE0123A0C70103AE52
:100DE0004702336E5E0023A2C70383AE0800014EA4
:100DF00023A27E0603DA070663074E0303AE07034A
:100E0000038A0600135EFE00620E135E8E41635875
:100E1000CA0103AE0703135EFE002380C60103DE92
:100E20000706137EFE0F03AA4E0663060A0003DAC6
:100E30008705E37F49FB03AE4702337EEE0123A221
:100E4000C70383870600635CF400034E03003396F8
:100E5000C9001346F6FF3376C6012300C3003E8661
:100E600063D3A7002A8613158601618505071377CA
:100E7000F70F8506E313F7F3B64026449644064978
:100E8000F259625A61618280972700209387C70BCD
:100E90009C43D8479316170163D5060298479316CB
:100EA000170163D006027D57B8D717270020130714
:100EB000A7E8584F05079726002023ADE6E81167FD
:100EC00098C798470D83058B1DC31727002003473C
:100ED000470513671700972600202384E6041307AD
:100EE00000F897260020238FE602214798C79847ED
:100EF000058B09CF172700200347970213671700B8
:100F000097260020A38EE600054798C798470983D7
:100F1000058B09E798470583058B35C31727002004
:100F2000A3020700984717260020130666FF97269E
:100F30000020938626FE0983058B9442B2856300C8
:100F40000710984231830D8B65EBB04BD851137667
:100F50000602034717005DCA69EF1307D005D8CF13
:100F600003C705001367170017260020230AE6FAB7
:100F7000114798C7D856719B13671700D8D6984762
:100F80009316370163D606029726002083C646EDE6
:100F9000C18A172700201307E7E4C5CE0347C70718
:100FA0001367070297260020238CE6EA056798C797
:100FB00098479316270163D106021727002003479D
:100FC00067F6620761876357070005479726002089
:100FD000238AE6F4096798C798479316070163D6F2
:100FE00006029726002083C6B6E7858A17270020C9
:100FF000130747DFADCE0347D707136727009726B0
:101000000020A38FE6E4216798C7828039D7054680
:101010006315C7001307100699B709466315C70083
:10102000130750062DBF0D466315C7001307900622
:101030003DB71307B00625B71307C0060DB7034722
:1010400036001367170017260020A30CE6EC0947AB
:101050000DB78346C7070946BD8A6388C6000347A4
:10106000C7078D463D8BE313D7F4114725BF834651
:10107000D707918AC9DA0347D7071367870041B7B3
:1010800097270020938747EC9C439847972600209A
:1010900023A4E6EA944717270020130767E88D8208
:1010A000858A8DC28346270093E616001726002006
:1010B0002309D6E6930600F8172600202304D6E677
:1010C000A14694C79447858A99CA8346170093E638
:1010D000160017260020A305D6E4854694C794473A
:1010E0008982858A89E694478582858AA1CE97265A
:1010F0000020A38906E2944717260020130686E104
:1011000010428982858AD5C21442B1828D8AD9EA79
:10111000AC4B545393F5050283C61600B1CDC1E222
:101120009306D005D4CF8346070093E61600972593
:1011300000202387D5DE914694C75456F19A93E652
:10114000160054D6944713962601635F06000347A2
:10115000470062076187635707000547972600200D
:101160002382E6DC096798C798479316070163D482
:101170000600216798C78280C5D685456395B6006D
:101180009306100645B789456395B6009306500649
:1011900051BF8D456395B6009306900661B79306DF
:1011A000B00649B79306C006B5BF8346370093E63D
:1011B000160097250020A386D5D68946B5BF972768
:1011C0000020938767D898438567938707777CD3F8
:1011D00097270020938787DC9C4383A607091396F3
:1011E00056006358060083A60709139666006344F9
:1011F00006007453FDF28280411122C4B7470240B9
:1012000006C603A4C72023A607200F10000011C1A3
:1012100099E5B747024023A6872001457DA893079B
:101220003500C207C183F19BC207C1831307400386
:101230006369F70217270020130707DE0843172703
:1012400000201307E7DC14436392A602172700204F
:10125000130787B3585B55DFC207DD8D054502973D
:101260004DBF172700201307E7DAC9BF03576500F2
:101270002DEB035745006366F706B306F74021469A
:10128000637CD60203280500938687001D8FAA96EB
:10129000611717260020035686AA2392E60023A092
:1012A00006012393060014C12312F500130786FFDD
:1012B000972600202395E6A82313B5009725002044
:1012C00083D5E5A7B387F540172700202319F7A694
:1012D000B747024023A687202105B240224441019E
:1012E0008280084195B7B747024003A8C72023A6CC
:1012F00007200F10000001E523A607218280972711
:101300000020938767D103AE0700972700209387BB
:1013100027D003A307008146F28763F0670C83A8F8
:101320000700636FF50A63EDA80A138787006366F9
:10133000E50A03D66700216705076317E60003C7C0
:1013400091880507A384E188972500209385C59E91
:1013500003D6470003D7650023930700329742075F
:10136000418317250020231CE59C638AC7031725AA
:101370000020130525CA08416303F50203D5660062
:1013800019ED83D7460023A0160121073E962106BA
:101390002392C600972700202393E79AB6879843A5
:1013A000630D6702972600209386C6C694426306A3
:1013B000D7028356670095E283D64700035647005D
:1013C0001843A106B2962392D70098C383D765002D
:1013D000A107172700202314F796B747024029BF1B
:1013E000BE86C6871DBF972700209387E7C2972632
:1013F00000209386E6C19C4390422A87B305B540FE
:101400006314F6003A8529A8938687009C43E36914
:10141000D7FEE377F7FE2E85E3E4D5FEE3F2F5FE93
:1014200082800000197106C212C416C61AC81ECAEC
:1014300022CC26CE2AD02ED232D436D63AD83EDA94
:1014400042DC46DECAC0CEC2D2C4D6C6DAC8DECAC4
:10145000E2CCE6CEEAD0EED2F2D4F6D6FAD8FEDA74
:10146000938501878841E700050092402242B242FD
:101470004243D2436244F244025592552256B25638
:101480004257D2576258F25806499649264AB64AF8
:10149000464BD64B664CF64C065D965D265EB65EB8
:1014A000465FD65F0961730020300000EFF0EFAABD
:1014B0007300000000000000938281880383020013
:1014C00023800200630F0300F32510342EC097051C
:1014D00000009385E5FD73901534EFF07FBA73003B
:1014E000203086DCEFF05F9AE6508280000000003A
:1014F000011106CE22CC0010AA872317F4FE8357D1
:10150000E4FE99E783A7418305479AAB814701A889
:1015100083A701849C43829783A74183A9073E85C3
:10152000F240624405618280411106C622C400086F
:1015300083A74183B833B7070020938787129C3372
:1015400063E6E70283A74183BC238DE383A741833E
:10155000DE2389EF03A7418383A741833833B8A7EC
:1015600083A70184DC438297814711A089473E8588
:10157000B240224441018280011106CE22CC0010EB
:10158000AA872317F4FE8357E4FE99E783A74183D4
:1015900005479AAB814701A883A701849C4782979E
:1015A00083A74183B1073E85F24062440561828092
:1015B000011106CE22CC001083A781839C4F03A784
:1015C0004183543303A741833833BA8536858297E4
:1015D0002326A4FE83A74183BC27B9C38327C4FE67
:1015E00089EB83A74183DC2389E783A74183BC235D
:1015F00099C389473DA08327C4FE9DE383A7018447
:10160000DC47829703A7418383A741835833B8B748
:1016100003A7418383A741833833D8A7814711A00B
:1016200089473E85F240624405618280797106D621
:1016300022D40018AA87231FF4FC8357E4FD99E7FE
:1016400083A7418309479AAB81473DA22398018232
:1016500083A741839C2393F7F707ADE383A74183D7
:101660009C37A306F4FE8347D4FE93F7070291CB81
:1016700083C7018393E7270013F7F70F2388E182DD
:1016800001A883C70183F59B13F7F70F2388E18235
:101690008347D4FE93F7070491CB83C7018393E775
:1016A000170013F7F70F2388E182C9A083C70183CE
:1016B000F99B13F7F70F2388E1824DA883A7418395
:1016C0009C2313F7F70785476315F700938701837A
:1016D00065A083A741839C2313F7F7078947631508
:1016E000F70883A74183DC33A307F4FE8347F4FEA6
:1016F000BD8B2307F4FE8307F4FE63DC07028347F8
:10170000E4FE13972700B7670040938707C0BA9796
:101710009C43C207C18313F70703C1476318F7044B
:1017200083C7018393E7170013F7F70F2388E1823C
:1017300035A88347E4FE13972700B76700409387D7
:1017400007C0BA979C43C207C1833E878D677D8FD0
:101750008567631DF70083C7018393E7170013F7BD
:10176000F70F2388E18219A0814739A083A701845C
:101770009C4B8297938701833E85B25022544561EA
:101780008280797106D622D426D2001883A741839D
:101790009C2393F7F7072324F4FE832784FE89EF25
:1017A00083A74183983783A741831377F7FD137786
:1017B000F70F98B78147D1A4032784FE8947631D9B
:1017C000F72A83A74183BE2389E783A74183DC23CC
:1017D00099C389475DA4B707002093878712232206
:1017E000F4FE83A74183DC332320F4FE832704FE29
:1017F00093F7F7F7232EF4FC8327C4FD232CF4FC86
:1018000083A74183DC33E207E18763D307028327A1
:1018100084FD13972700B7670040938707C0BA97E6
:101820009C43C207C18393F707032326F4FE15A048
:10183000832784FD13972700B7670040938707C06D
:10184000BA979C43C207C1833E878D67F98F2326D1
:10185000F4FE832744FE9C233E878327C4FD63F95F
:10186000E7008327C4FE89C783A74183BC2799E388
:10187000894721A4832704FE93F70708B9C3832768
:1018800084FD13972700B7670040938707C0BA9776
:101890009C43C207C18313F70703C1476318F71CB2
:1018A000832784FD93F7F70F3E85EF10703683276B
:1018B00084FD93F7F70F930500033E85EF10E07C5E
:1018C00075A2832784FD13972700B767004093878D
:1018D00007C0BA979C43C207C1833E878D677D8F3F
:1018E00085676315F718832784FDE9E7832784FD5F
:1018F00013F7F70FB70700209387070583C7C702C1
:10190000BE853A85EF10704F832784FD139727001B
:10191000B7670040938707C0BA979C4313970701A6
:101920004183F1779387F7F8F98F93940701C1808A
:101930008567A58F93940701C1808967A58F9394CC
:101940000701C180E17793870708C58F9396070148
:10195000C182832784FD13972700B76700409387D0
:1019600007C0BA97368798C31DA0E1779387070809
:10197000C58F93960701C182832784FD13972700A3
:10198000B7670040938707C0BA97368798C3832705
:1019900084FD13972700B7670040938707C0BA9765
:1019A0009C43C207C1833E878D677D8F8D67E31E91
:1019B000F7FA6DA8832784FD93F7F70F3E85EF10A4
:1019C000901D832784FD13972700B76700409387F6
:1019D00007C0BA979C43139707014183F177938718
:1019E000F7F8F98F93940701C1808567A58F9394C9
:1019F0000701C1808967A58F93940701C180E177B2
:101A000093870708C58F93960701C182832784FDBA
:101A100013972700B7670040938707C0BA973687A8
:101A200098C31DA0E17793870708C58F9396070198
:101A3000C182832784FD13972700B76700409387EF
:101A400007C0BA97368798C3832784FD139727006A
:101A5000B7670040938707C0BA979C43C207C1830A
:101A60003E878D677D8F8D67E31EF7FA83A701841C
:101A7000DC4B8297814711A089473E85B2502254A2
:101A8000925445618280011106CE22CC26CA0010F4
:101A900083A74183DC332324F4FE832784FE93F75A
:101AA000F7F72322F4FE832744FE2320F4FE83A7C6
:101AB0004183DC33E207E18763D30702832704FE17
:101AC00013972700B7670040938707C0BA979C43D6
:101AD000C207C18393F707032326F4FE15A08327CB
:101AE00004FE13972700B7670040938707C0BA9793
:101AF0009C43C207C1833E878D67F98F2326F4FE7E
:101B0000B707002083C787123E87832704FE63FD43
:101B1000E70083A74183BE2381EB8327C4FE89C7E7
:101B200083A74183BC2799E3894799AA832784FE29
:101B300093F70708CDC3832704FE13972700B767E1
:101B40000040938707C0BA979C43139707014183CE
:101B5000E5779387F7FBF98F93940701C18093C7CB
:101B6000040193940701C180E17793870708C58F2B
:101B700093960701C182832704FE13972700B76756
:101B80000040938707C0BA97368798C31DA0E177B6
:101B900093870708C58F93960701C182832704FEA8
:101BA00013972700B7670040938707C0BA97368717
:101BB00098C3832704FE13972700B76700409387D5
:101BC00007C0BA979C43C207C18313F70703C147F5
:101BD000E31FF7FA4DA0832704FE13972700B7678A
:101BE0000040938707C0BA979C431397070141832E
:101BF000F1779387F7F8F98F93940701C180856790
:101C0000A58F93940701C180E17793870708C58F5B
:101C100093960701C182832704FE13972700B767B5
:101C20000040938707C0BA97368798C31DA0E17715
:101C300093870708C58F93960701C182832704FE07
:101C400013972700B7670040938707C0BA97368776
:101C500098C3832704FE13972700B7670040938734
:101C600007C0BA979C43C207C1833E878D677D8FAB
:101C70008567E31EF7FA83A701849C4F829781470B
:101C80003E85F2406244D24405618280411106C61D
:101C900022C4000883A74183983783A74183136731
:101CA00007021377F70F98B783A70184DC4F829759
:101CB00081473E85B240224441018280797106D637
:101CC00022D40018AA87232CB4FC231FF4FC83A77A
:101CD0004183BE2B2326F4FE8357E4FD95E383273F
:101CE00084FDD6238327C4FE13970701418383A76E
:101CF00041833387E640420741839AAB814739A04D
:101D0000832784FD98438327C4FEBA973E85B2504B
:101D1000225445618280011106CE22CC001083A797
:101D20004183C1072324F4FE832784FE9E232322BC
:101D3000F4FE832784FE9C47D1CB832744FED9C77A
:101D4000832784FEDE232326F4FE0327C4FE832795
:101D500044FE63F6E700832744FE2326F4FE832730
:101D600084FE9C470327C4FE420741833A8582973D
:101D70002320A4FE832784FE9A238327C4FEC20760
:101D8000C183B307F740139707014183832784FE7C
:101D90009AA3832784FEBA238327C4FEC207C18384
:101DA000BA97139707014183832784FEBAA301459D
:101DB000EF10007CAA873E878327C4FEC207C18339
:101DC0003E86BA85032504FEEF10001A832784FEA1
:101DD0009E2381CF0D672392E18481450145EF1059
:101DE000207D130700032393E184832784FE9A2335
:101DF000832784FEDE236367F70083A741830D47B3
:101E000098A7A9A0832784FE9E2391C783A7418317
:101E1000154798A725A8832784FE9E2385EB83A7D3
:101E20004183194798A7B7670040938707C59C432C
:101E3000C207C1833E87B73700208907BA97860754
:101E400023A00700130700032393E1840100F2405D
:101E5000624405618280797106D622D4001883A776
:101E60004183C1072322F4FE832744FE9E232320BF
:101E7000F4FE83A741839C272326F4FE832704FED8
:101E8000A9EB0327C4FE91476315F70483C7218399
:101E900095CBB7670040938707C59C43C207C183B2
:101EA0003E87B73700208907BA97860723A0070027
:101EB000130700032393E18491472326F4FE23892B
:101EC0000182D1A89D472326F4FE41472393E18454
:101ED000D9A0832744FEDE232324F4FE032704FE37
:101EE000832784FE63E6E70091472326F4FE21A0C2
:101EF00089472326F4FE032784FE832704FE63F626
:101F0000E700832704FE2324F4FE832744FE9C4736
:101F1000032784FE420741833A858297232EA4FC3F
:101F20000145EF100061AA873E87832784FEC20720
:101F3000C1833E86BA850325C4FDEF003078832730
:101F400084FEC207C183BE850145EF10606683270A
:101F500044FE9A23832784FEC207C183B307F74058
:101F6000139707014183832744FE9AA3832744FEE6
:101F7000BA23832784FEC207C183BA971397070148
:101F80004183832744FEBAA3130700032393E1840C
:101F90000D672392E18483A741830327C4FE13774F
:101FA000F70F98A70100B2502254456182800111B9
:101FB00006CE22CC001089472326F4FE83A7418356
:101FC0009C332322F4FE83A741839C2393F7F707D6
:101FD000DDEF032744FEA5476317F700EFF0CFD4EA
:101FE0002326A4FE31A2032744FE9547631CF70273
:101FF00083A74183BC33E207E18763CE070083A751
:102000004183BC2389EB83A74183DE2389E783A730
:102010004183BC2789C7A1472324F4FE35AA232680
:1020200004FEF9A0032744FE8D476314F70283A73B
:102030004183B8338547631AF70083A74183DE23C2
:1020400089E7A9312326A4FE65A089472326F4FE4B
:1020500045A0032744FE8547631CF70883A74183F7
:10206000B83385476311F70283A74183DE2381EFED
:1020700083A741839C3793F7070291C7EFF06FF076
:102080002326A4FEB5A089472326F4FE95A083A7A6
:1020900041839C2313F7F7078547631CF700032749
:1020A00044FEAD476316F704EFF08FD02326A4FE5D
:1020B00081A083A741839C2313F7F7078947631601
:1020C000F702032744FE85476317F700EFF06FEB35
:1020D0002326A4FE31A8032744FE8D47631AF70088
:1020E000EFF07F9A2326A4FE21A089472326F4FE41
:1020F0008327C4FE8DC783A78183DC4B032744FE5F
:102100001377F70F3A8582972326A4FE0327C4FE90
:102110008D476316F700A5472324F4FE35A88327CF
:10212000C4FE89C7A1472324F4FE3DA09947232478
:10213000F4FEB7670040938707C59C43C207C1837D
:102140003E87B73700208907BA97860723A0070084
:10215000130700032393E18483A74183032784FEAD
:102160001377F70F98A70100F2406244056182805F
:10217000397106DE22DC800083A741839C33232053
:10218000F4FE232604FE232E04FC032704FE9947B5
:10219000631FF70483A741839C2393F7F70763909A
:1021A000072083A74183BC23A309F4FC034734FD24
:1021B00085476318F70083A78183DC4F2326F4FE4D
:1021C000F9AA034734FD89476318F70083A7818381
:1021D0009C532326F4FEE1A2034734FD8D47631090
:1021E000F71C83A78183DC532326F4FE4DAA8327A3
:1021F00004FE6394071283A74183BE23639F0710E5
:1022000083A74183FA2389476319F71083A7418382
:10221000DC236394071083A741839C2393F7F7077C
:1022200099EB83A74183DE2399E785679387C7628C
:102230002326F4FEA5A283A741839C2313F7F70767
:1022400085476319F70283A781839C4F03A74183C6
:10225000583381453A858297AA876391071483A7EB
:102260004183BC27638C071285679387C762232647
:10227000F4FE2DA283A741839C2313F7F707894718
:10228000631EF71083A74183DC33BD8B232CF4FC42
:1022900083A74183DC3393F70707232AF4FC83A742
:1022A0004183DC33E207E18763D30702832784FDA0
:1022B00013972700B7670040938707C0BA979C43DE
:1022C000C207C18393F707032322F4FE15A08327D7
:1022D00084FD13972700B7670040938707C0BA971C
:1022E0009C43C207C1833E878D67F98F2322F4FE8A
:1022F000B707002083C787123E87832784FD63FFCB
:10230000E708832744FDD9EB832744FEC1CB8567CB
:102310009387C7622326F4FE51A0032704FEA1473A
:10232000631EF70083A741839C2393F7F707A5EB70
:1023300085679387074F2326F4FE95A0032704FEA5
:10234000A947631EF70483A741839C2313F7F7076C
:1023500085476316F70483A74183BC27A9C383A7D6
:102360004183BE238DEF83A74183DC238DEB83A7BD
:102370004183FA2385476314F70283A781839C4F27
:1023800003A74183583381453A858297AA8781EB19
:102390008567938787572326F4FE11A001008327C2
:1023A000C4FE85C783A741830327C4FD4207418339
:1023B000BAAB83A741830327C4FE98CF8327C4FE0B
:1023C00001458297232404FE2DA083A781839C4B83
:1023D00003A7418318333A8582972324A4FE032759
:1023E00084FE8D476317F70083A74183254798A78D
:1023F000D9A883A741839A2BC167FD176317F700FC
:1024000083A74183254798A77DA8032784FE894792
:102410006306F70083A741839E2B91E783A741833F
:10242000214798A74DA083A741839C23E207E1871A
:1024300063D3070883A74183FE232326F4FC83A7E5
:1024400041839E2B3E878327C4FC63FAE700032762
:10245000C4FC83A74183420741839AAB99A083A719
:1024600041839A2B83A74183FE23637CF70283A7D2
:1024700041839E2B03A781830347C70263F5E700CF
:102480002389018239A883A741839E2B3E8783A796
:10249000818383C7C702B367F70281E705472389B2
:1024A000E18283A7818303C7C70283A74183DAAB95
:1024B000EFF07F9A01A883A741830D4798A70D6786
:1024C0002392E1840100F250625421618280011163
:1024D00006CE22CC26CA001085472317F4FEB76724
:1024E0000040938707C59C43C207C1833E87B73727
:1024F00000209107BA9786079C43C207C1838607CD
:102500003E87B7670040BA972324F4FE83A7418330
:102510009827A5476300F70A832784FE13871700CF
:102520002324E4FE03A741839C231CA3832784FE6A
:10253000138717002324E4FE03A741839C231CB3C5
:10254000032784FE8357E4FE8607BA972324F4FE0C
:10255000832784FE138727002324E4FE9A2383A481
:1025600041833A85EF106023AA87BEA0032784FE2B
:102570008357E4FE8607BA972324F4FE832784FE5C
:10258000138727002324E4FE9A2383A441833A85FA
:10259000EF10A020AA87DEA0032784FE8357E4FE65
:1025A0008607BA972324F4FE032784FE83A741837A
:1025B0001A23FAA383A74183054798A783A74183DA
:1025C000FE2381E7EFF0BF9E11A05D362D2AAA877A
:1025D0003E85F2406244D24405618280011106CEFC
:1025E00022CC001083A741839C272326F4FE0327D7
:1025F000C4FE89476307F7000327C4FE9147631AA7
:10260000F700EFF05F8583A741839C272326F4FE24
:10261000B1A00327C4FE9947631FF70283A7418334
:10262000983395476311F70283A741839C2393F75F
:10263000F70791EB83A74183BC333E85212A83A70B
:1026400001849C53829783A781839C478297A147EB
:102650002326F4FE21A0A1472326F4FE83A741836D
:102660000327C4FE1377F70F98A77128AA873E8522
:10267000F240624405618280011106CE22CC001036
:1026800083A741839C272326F4FE0327C4FE8947A2
:102690006307F7000327C4FE91476316F700A147BD
:1026A0002326F4FE99A00327C4FE8D476307F70095
:1026B0000327C4FE9547631AF700EFF0CFE583A721
:1026C00041839C272326F4FE0DA00327C4FE9D47CB
:1026D000631AF70083A78183DC478297A1472326EB
:1026E000F4FE21A0A1472326F4FE83A741830327FC
:1026F000C4FE1377F70F98A73920AA873E85F240CA
:10270000624405618280411106C622C40008B707F1
:1027100000209387070583C7C702BE850145EF00E8
:10272000D06D83A741839827A1476318F7000567F9
:102730002392E18441472393E18483A741839C272B
:10274000DD1793B7170093F7F70F3E85B240224489
:1027500041018280797106D622D40018AA87A30F7E
:10276000F4FCB707002083C787122324F4FE232636
:1027700004FE85A08327C4FE93F7F70F1397270065
:10278000B7670040938707C0BA979C43C207C183CD
:102790003E8785679387F7F07D8FA167938707084A
:1027A000D98F0327C4FE1377F70FB3E6E70083271B
:1027B000C4FE93F7F70F13972700B767004093877E
:1027C00007C0BA97368798C38327C4FE8507232698
:1027D000F4FE0327C4FE832784FEE36DF7F88347E6
:1027E000F4FD93E707F813F7F70FB76700409387F7
:1027F000C7C498C30100B250225445618280411180
:1028000006C622C400080100B24022444101828071
:10281000411106C622C400081387C18923AAE18298
:1028200083A74183094798A73707002013070705A7
:1028300023ACE182370700201307070823A0E184B7
:1028400083A781839C4382970100B24022444101C7
:102850008280011106CE22CC26CA4AC80010231756
:1028600004FE15AD83D7C184C207C18393F7F70F68
:10287000BD8B13F7F70FA389E18283C7318363937D
:102880000754B7670040938707C09C43139707011D
:1028900041832392E18483D74184C207C18393F7A4
:1028A00007031397070141832393E18483D741846E
:1028B0001397070141838D67F98F139707014183B0
:1028C0002392E184B7670040938707C09C43C20707
:1028D000C1833E87A5679387F7FB3379F700B76716
:1028E0000040938707C09C43C207C1833E87B167FE
:1028F0009387F7F8B374F7008967BD8C1349090211
:1029000093170901C183B3E6F400B76700409387CA
:1029100007C0216713070708558F98C305A0131731
:1029200009014183E17793870708D98F139707013E
:102930004183B7670040938707C098C3B7670040DB
:10294000938707C09C43C207C18313F7070393070C
:102950000002E316F7FC05A0139704014183E17719
:1029600093870708D98F139707014183B767004002
:10297000938707C098C3B7670040938707C09C43FD
:10298000C207C1833E878D677D8F8967E316F7FC99
:1029900083D7C184C207C183C18B63990714B7670A
:1029A0000040938707C09C43C207C183BE86B767B8
:1029B0000040938707C025671307F7F0758F98C30A
:1029C0003139B7670040938707C09C43C207C18372
:1029D0003E87A5679387F7FB3379F700B767004019
:1029E000938707C09C43C207C1833E87B167938723
:1029F000F7F8B374F70083D7418413970701418335
:102A00008567F98FC207C18399C38567BD8C83D75A
:102A100041841397070141838967F98FC207C183F6
:102A200099C38967BD8C83D76184C207C183C18B79
:102A3000C207C18399C31349090183D76184C207BF
:102A4000C18393F70702C207C18399C313490902DF
:102A500093170901C183B3E6F400B7670040938779
:102A600007C0216713070708558F98C305A01317E0
:102A700009014183E17793870708D98F13970701ED
:102A80004183B7670040938707C098C3B76700408A
:102A9000938707C09C43C207C18393F7070303D7FB
:102AA000618442074183E394E7FC05A01397040186
:102AB0004183E17793870708D98F139707014183F3
:102AC000B7670040938707C098C3B76700409387F4
:102AD00007C09C43C207C1833E878D67F98F03D728
:102AE000418442074183E393E7FCD9A6B7670040DE
:102AF000938707C09C43C207C1832317F4FE835703
:102B0000E4FEC207C1833E87856793870780F98FFC
:102B1000638A0714B7670040938707C09C43C207C6
:102B2000C183BE86B7670040938707C00567130758
:102B3000F7F8758F98C3EFF09F99B76700409387B8
:102B400007C09C43C207C1833E87A5679387F7FBF5
:102B50003379F700B7670040938707C09C43C207EB
:102B6000C1833E87B1679387F7F8B374F70083D7C3
:102B700041841397070141838567F98FC207C18399
:102B800099C38567BD8C83D741841397070141831F
:102B90008967F98FC207C18399C38967BD8C83D7C1
:102BA0006184C207C183C18BC207C18399C3134922
:102BB000090183D76184C207C18393F70702C20763
:102BC000C18399C31349090293170901C183B3E66D
:102BD000F400B7670040938707C021671307070811
:102BE000558F98C305A0131709014183E177938797
:102BF0000708D98F139707014183B7670040938770
:102C000007C098C3B7670040938707C09C43C207BB
:102C1000C18393F7070303D7618442074183E39499
:102C2000E7FC05A0139704014183E1779387070828
:102C3000D98F139707014183B7670040938707C077
:102C400098C3B7670040938707C09C43C207C183FE
:102C50003E878D67F98F03D7418442074183E39311
:102C6000E7FCB9A48357E4FEC207C183C207C1874A
:102C700063D30722B7670040938707C09C43C2070E
:102C8000C183BE86B7670040938707C005671307F7
:102C9000F7F8758F98C3EFF03F9EB76700409387B2
:102CA00007C09C43C207C1833E87A5679387F7FB94
:102CB0003379F700B7670040938707C09C43C2078A
:102CC000C1833E87B1679387F7F8B374F70083D762
:102CD00041841397070141838567F98FC207C18338
:102CE00099C38567BD8C83D74184139707014183BE
:102CF0008967F98FC207C18399C38967BD8C83D760
:102D00006184C207C183C18BC207C18399C31349C0
:102D1000090183D76184C207C18393F70702C20701
:102D2000C18399C31349090293170901C183B3E60B
:102D3000F400B7670040938707C0216713070708AF
:102D4000558F98C305A0131709014183E177938735
:102D50000708D98F139707014183B767004093870E
:102D600007C098C3B7670040938707C09C43C2075A
:102D7000C18393F7070303D7618442074183E39438
:102D8000E7FC05A0139704014183E17793870708C7
:102D9000D98F139707014183B7670040938707C016
:102DA00098C3B7670040938707C09C43C207C1839D
:102DB0003E878D67F98F03D7418442074183E393B0
:102DC000E7FCFDA083C7318313972700B767004056
:102DD000938707C0BA979C43C207C1832317F4FEA9
:102DE0008357E4FEC207C183C207C18763D80704C3
:102DF00083C7318313972700B7670040938707C0C5
:102E0000BA979C43C207C183BE8683C73183139799
:102E10002700B7670040938707C0BA970567130775
:102E2000F7F8758F98C383C73183FD1737070020E4
:102E3000130747038A07BA979C4382978357E4FE98
:102E4000C207C18393F70708B9C783C731831397B4
:102E50002700B7670040938707C0BA979C43C20713
:102E6000C183BE8683C7318313972700B7670040AD
:102E7000938707C0BA9725671307F7F0758F98C334
:102E800083C73183FD1737070020130787018A079F
:102E9000BA979C438297B7670040938747C49C4387
:102EA000C207C1832396F184C207C187E3CC079A86
:102EB000F2406244D244424905618280397106DEA3
:102EC00022DC80002326A4FCAE8732872315F4FC85
:102ED000BA872314F4FC835784FC85078587232253
:102EE000F4FE0357A4FCB7370020BA9786072324C3
:102EF000F4FE832744FE2326F4FEB1A88327C4FCF6
:102F00009C232320F4FE8327C4FC85072326F4FC9E
:102F10008327C4FC9C23A207032704FED98F232EFA
:102F2000F4FC832784FE138727002324E4FE032771
:102F3000C4FD420741839AA3832784FE8907232483
:102F4000F4FE8327C4FC85072326F4FC8327C4FEF4
:102F5000FD172326F4FE8327C4FECDF301000100F4
:102F6000F250625421618280797106D622D4001811
:102F7000232EA4FCAE873287231DF4FCBA87231CC2
:102F8000F4FC835784FD850785872322F4FE0357CD
:102F9000A4FDB7370020BA9786072324F4FE8327C1
:102FA00044FE2326F4FE25A8832784FE13874700CA
:102FB0002324E4FE94438327C4FD13871700232EA4
:102FC000E4FC1397060141839AA38327C4FD850778
:102FD000232EF4FC8327C4FEFD172326F4FE83274B
:102FE000C4FEF9F301000100B25022544561828011
:102FF000011106CE22CC0010AA872317F4FE8356B7
:10300000E4FEB7670040938707C541676117758F76
:1030100098C30100F240624405618280011106CE2E
:1030200022CC0010AA872E87A307F4FEBA872316A6
:10303000F4FE8347F4FE13972700B7670040938799
:1030400007C0BA979C43139707014187E577938799
:10305000F798F98F1397070141878317C4FED98F1B
:10306000C207C18793960701C1828347F4FE139775
:103070002700B7670040938707C0BA97368798C381
:103080000100F240624405618280011106CE22CC2B
:1030900026CA0010AA872E87A307F4FEBA87231634
:1030A000F4FE8347F4FE13972700B7670040938729
:1030B00007C0BA979C43139707014183E57793872D
:1030C000F7FBF98F93940701C1808357C4FEC18B2E
:1030D000C207C18391C793C7040193940701C180BC
:1030E0008357C4FE93F70702C207C18391C793C7F2
:1030F000040293940701C180E17793870708C58F85
:1031000093960701C1828347F4FE13972700B767A0
:103110000040938707C0BA97368798C31DA0E17710
:1031200093870708C58F93960701C1828347F4FEF2
:1031300013972700B7670040938707C0BA97368771
:1031400098C38347F4FE13972700B767004093871F
:1031500007C0BA979C43C207C18313F7070383577D
:10316000C4FEE31EF7FA01000100F2406244D244BB
:1031700005618280011106CE22CC26CA0010AA87E2
:103180002E87A307F4FEBA872316F4FE8347F4FEC6
:1031900013972700B7670040938707C0BA979C43EF
:1031A000139707014183F1779387F7F8F98F939489
:1031B0000701C1808357C4FE3E878567F98FC20728
:1031C000C18391C78567A58F93940701C1808357F9
:1031D000C4FE3E878967F98FC207C18391C789679B
:1031E000A58F93940701C180E17793870708C58F66
:1031F00093960701C1828347F4FE13972700B767B0
:103200000040938707C0BA97368798C31DA0E1771F
:1032100093870708C58F93960701C1828347F4FE01
:1032200013972700B7670040938707C0BA97368780
:1032300098C38347F4FE13972700B767004093872E
:1032400007C0BA979C43C207C1833E878D677D8FB5
:103250008357C4FEE31DF7FA01000100F240624407
:10326000D24405618280011106CE22CC26CA00100C
:10327000AA87A307F4FE8347F4FE13972700B767D6
:103280000040938707C0BA979C4313970701418377
:10329000F1779387F7F8F98F93940701C1808567D9
:1032A000A58F93940701C1808967A58F9394070127
:1032B000C180E17793870708C58F93960701C18284
:1032C0008347F4FE13972700B7670040938707C032
:1032D000BA97368798C31DA0E17793870708C58FF3
:1032E00093960701C1828347F4FE13972700B767BF
:1032F0000040938707C0BA97368798C38347F4FE88
:1033000013972700B7670040938707C0BA979C437D
:10331000C207C1833E878D677D8F8D67E31EF7FAF5
:1033200001000100F2406244D24405618280011133
:1033300006CE22CC0010AA87A307F4FE8347F4FE32
:1033400013972700B7670040938707C0BA979C433D
:1033500013970701418785679387F7E0F98F1397E4
:1033600007014187E17793870708D98FC207C18793
:1033700093960701C1828347F4FE13972700B7672E
:103380000040938707C0BA97368798C30100F24080
:10339000624405618280011106CE22CC0010AA870A
:1033A000A307F4FE8347F4FE13972700B767004096
:1033B000938707C0BA979C43C207C1833E87916732
:1033C000F98FB1C38347F4FE13972700B767004016
:1033D000938707C0BA979C43C207C1833E8785671E
:1033E0009387F7F07D8FB16793870708B366F7007F
:1033F0008347F4FE13972700B7670040938707C001
:10340000BA97368798C30100F24062440561828012
:10341000011106CE22CC0010AA87A307F4FE834731
:10342000F4FE13972700B7670040938707C0BA9749
:103430009C43C207C18393F70704B1C38347F4FEDB
:1034400013972700B7670040938707C0BA979C433C
:10345000C207C1833E8785679387F7F07D8FA16799
:103460009387070CB366F7008347F4FE1397270092
:10347000B7670040938707C0BA97368798C30100A3
:10348000F240624405618280011106CE22CC001018
:10349000AA872E87A307F4FEBA872316F4FE835764
:1034A000C4FE8583C207C183BE86B7670040938789
:1034B00007C59C43C207C1833E878347F4FE8E073E
:1034C0003E97B7370020BA9786073E879397160036
:1034D0001CC30100F240624405618280011106CEE6
:1034E00022CC0010AA872E87A307F4FEBA872316E2
:1034F000F4FE8357C4FE8583C207C183BE86B767C7
:103500000040938707C59C43C207C1833E8783471A
:10351000F4FE8E073E97B73700209107BA978607CB
:103520003E87939716001CC30100F2406244056178
:103530008280011106CE22CC0010AA87A307F4FED8
:10354000B7670040938707C59C43C207C1833E8786
:103550008347F4FE8E073E97B7370020BA97860759
:103560009C43C207C1833E85F2406244056182806C
:10357000011106CE22CC0010AA87A307F4FEB7677C
:103580000040938707C59C43C207C1833E8783479A
:10359000F4FE8E073E97B73700209107BA9786074B
:1035A0009C43C207C1833E85F2406244056182802C
:1035B000011106CE22CC0010AA872E87A307F4FEA5
:1035C000BA872316F4FEB7670040938707C59C436C
:1035D000C207C1833E878347F4FE8E073E97B73705
:1035E00000208907BA9786073E878357C4FE1CC30D
:1035F0000100F240624405618280797106D622D4CE
:103600000018AA872E87A30FF4FCBA87231EF4FCA8
:10361000B7670040938707C59C43C207C1833E87B5
:103620008347F4FD8E073E97B73700209907BA9776
:1036300086072324F4FE0357C4FD9307E00363FBCE
:10364000E7028357C4FD95832317F4FE8357C4FD17
:10365000FD8B91E78357E4FEFD172317F4FE835794
:10366000E4FE1397A700A167D98F3E87832784FEC6
:1036700098C335A08357C4FD85832317F4FE835771
:10368000C4FD858B91C78357E4FE85072317F4FE9D
:103690008357E4FE1397A700832784FE98C38347CC
:1036A000F4FDDDE3B70700209387070503C7C702D2
:1036B0009307E00363FAE704B70700209387070541
:1036C00083C7C702958393F7F70F2316F4FEB70756
:1036D00000209387070583C7C702FD8B91E78357B7
:1036E000C4FEFD172316F4FE8317C4FEAA07139722
:1036F00007014187E177D98FC207C1871397070177
:1037000041832395E18489A0B707002093870705AB
:1037100083C7C702858393F7F70F2316F4FEB70715
:1037200000209387070583C7C702858B91C78357FE
:10373000C4FE85072316F4FE8357C4FEAA07139719
:10374000070141832395E1840100B2502254456171
:103750008280011106CE22CC0010AA87A307F4FEB6
:10376000B7670040938707C59C43C207C1833E8764
:103770008347F4FE8E073E97B73700209907BA9724
:1037800086079C43C207C18393F7F73FC207C183F3
:103790003E85F240624405618280797106D622D46A
:1037A0000018AA87231FF4FC8357E4FDA307F4FE47
:1037B0008357E4FDA183C207C183139707014187A3
:1037C0008347F4FEC207C187A207C207C187D98F0A
:1037D000C207C1872316F4FE8357C4FE3E85B2504C
:1037E000225445618280411106C622C40008B76791
:1037F0000040938747C423A007007177130707F0A1
:10380000239EE18203D7C183B7670040938707C433
:1038100098C381473E85B2402244410182804111D4
:1038200022C6000837050400EF109028010032443A
:10383000410173002030411122C600081D21010002
:103840003244410173002030797106D622D4001829
:10385000232E04FC232004FE232204FE232404FE42
:10386000232604FE9307C4FD3E85EF20701E032728
:10387000C4FDB7479508938707406316F7000945CD
:10388000EF20500491A80327C4FDB7E7B80593873C
:1038900007806316F7000545EF20D00235A80327FF
:1038A000C4FDB777DC02938707C06316F7000145B4
:1038B000EF20500115A00327C4FDB7274E0E9387B4
:1038C00007C0631BF700EF2010582A878547631550
:1038D000F7000D45EF20007F854537058000EF207C
:1038E000B0480100B250225445618280411106C6A1
:1038F00022C400080D4723ACE1840100B2402244F9
:1039000041018280011106CE22CC00109387C1892B
:103910002326F4FE8327C4FEBC2789C7154723ACA2
:10392000E18421A0054723ACE1840100F240624418
:1039300005618280797106D622D40018370504000B
:10394000EF101017B7070400232CF4FC232E04FCFF
:10395000C1472320F4FE85472322F4FE930784FD0C
:103960003E85EF100078930740022304F4FE894758
:10397000A304F4FE85472305F4FE85472326F4FEC1
:10398000930784FE3E85EF20805F9307A003230406
:10399000F4FEA30404FE930784FE3E85EF20205E20
:1039A0000100B250225445618280011106CE22CC22
:1039B00000102326A4FE2324B4FE85451145EF20E4
:1039C00010368327C4FEADCBB7670040938707C48A
:1039D0009C43C207C1833E87B7670040938707C4F3
:1039E000759B98C3B717014093870780D443B717D7
:1039F0000140938707803717F0FF7D17758FD8C375
:103A0000B717014093870780D447B71701409387C2
:103A1000078079771307F77F758FD8C7B7170140ED
:103A200093870780D443B7170140938707803747B0
:103A30000400558FD8C39DA8B7670040938707C47B
:103A40009C43C207C18393E7270013970701418373
:103A5000B7670040938707C498C3B717014093879F
:103A60000780D443B7170140938707803717F0FFCB
:103A70007D17758FD8C3B717014093870780D44748
:103A8000B71701409387078079771307F77F758F02
:103A9000D8C7B717014093870780D443B7170140B1
:103AA0009387078037370300558FD8C3832784FE59
:103AB00091CFB7470240938707809843B7470240AA
:103AC000938707801367270098C321A8B747024050
:103AD000938707809843B747024093870780759B79
:103AE00098C30100F240624405618280411106C61C
:103AF00022C400080100B240224441018280011129
:103B000006CE22CC26CA00100945A131AA87232659
:103B1000F4FE938781CD98271377F70F9C3793F79F
:103B2000F70FA207D98FC207C18313976700938746
:103B300001D2B304F7000945EFF09FA3AA873E879F
:103B40008327C4FEC207C1833E86BA852685EFF06F
:103B5000AFC1938781CD98271377F70F9C3793F7E1
:103B6000F70FA207D98FC207C18313976700938706
:103B700001D2BA970327C4FE42074183BA853E8526
:103B8000EF600028938781CD98271377F70F9C3734
:103B900093F7F70FA207D98FC207C1833E86832709
:103BA000C4FE139707014183938681CD93171600B6
:103BB000B6979376F70FF027018AD18EF4A7218369
:103BC00042074183F437818A558FF8B7938781CDB7
:103BD00098271377F70F9C3793F7F70FA207D98F22
:103BE000C207C1838507139707014183938781CD5E
:103BF0009376F70F9027018AD18E94A721834207ED
:103C000041839437818A558F98B7938781CD9827C0
:103C10001377F70F9C3793F7F70FA207D98F1397F6
:103C200007014183BD4763FAE700938781CD982759
:103C3000018B98A79837018B98B70945EFF0AFE251
:103C40000100F2406244D24405618280411106C6FF
:103C500022C40008238401840100B24022444101AF
:103C60008280397106DE22DC8000232604FEB767DD
:103C70000040938707C59C43C207C1833E87B7377F
:103C800000209907BA9786079843C167938707C0B2
:103C9000F98F03D7A1846382E704B7670040938755
:103CA00007C5944393970601C1833E87B737002029
:103CB0009907BA978607984383D7A1843E86C16740
:103CC000938707C0F18FC206C1823686B7360020BF
:103CD0009906B2968606D98F9CC2B7670040938733
:103CE00047C49C431397070141832396E18483D7FC
:103CF000C184C207C18393F7072003D7C183F98F1B
:103D000095C3B7670040938747C441671307F7DF40
:103D100098C383C7E18493F7F70F850713F7F70F6D
:103D20002387E18483D7C184C207C1833E87A1670B
:103D3000F98F03D7C183F98F99C3EFE09FB183D780
:103D4000C184C207C18393F7074003D7C183F98FAA
:103D500099CFB7670040938747C441671307F7BF00
:103D600098C3B707002093870705DC43829783D762
:103D7000C184C207C1833E878967F98F03D7C18396
:103D8000F98F81CBB7670040938747C439677D17A8
:103D900098C383D7C184C207C1833E878567F98FE3
:103DA00003D7C183F98F99CBB7670040938747C486
:103DB0003D677D1798C30145EF00502483D7C18428
:103DC000C207C1833E87856793870780F98F03D732
:103DD000C183F98F85C783C7418193F7F70F81C7E7
:103DE000EF00F00621A00945EF005021B767004021
:103DF000938747C43D671307F77F98C383D7C18470
:103E0000C207C18393F7071003D7C183F98F63807B
:103E10000716B7670040938747C441671307F7EF5A
:103E200098C3B7670040938787C49C43C207C18784
:103E300063DA071283A701851387170023A8E1849B
:103E400003A701858D4763F1E712B76700409387A9
:103E500007C49C43C207C183A18B63970710B76750
:103E60000040938707C49C43C207C1833E8723AAAF
:103E7000E184232604FE15A88327C4FE1397270098
:103E8000B7670040938707C0BA979C43C207C183B6
:103E9000BE860327C4FE9307C4FC0A07BA9794C3DF
:103EA0008327C4FE85072326F4FE0327C4FE9D470F
:103EB000E3F4E7FC83A7418513E7170023AAE18415
:103EC00083A74185139707014183B7670040938714
:103ED00007C498C383A7418513F7E7FF23AAE184AA
:103EE00083A74185139707014183B76700409387F4
:103EF00007C498C30100B7670040938747C49C4339
:103F0000C207C18393F70740FDD7B7670040938787
:103F100047C441671307F7BF98C3232604FE1DA8B3
:103F20000327C4FE9307C4FC0A07BA979C439396E1
:103F30000701C1828327C4FE13972700B76700409B
:103F4000938707C0BA97368798C38327C4FE85072F
:103F50002326F4FE0327C4FE9D47E3F3E7FC23A8D2
:103F6000018419A023A801841D45EF003009010038
:103F7000F250625421618280011106CE22CC0010E1
:103F80009387C1892326F4FE8327C4FEBC2781C7FB
:103F9000154723ACE1840100F24062440561828050
:103FA000411106C622C40008114723ACE184010078
:103FB000B240224441018280411106C622C4000859
:103FC0000100B240224441018280411106C622C450
:103FD00000080100B240224441018280011106CE56
:103FE00022CC001083A741839C332326F4FE83A7B1
:103FF00041839C2313F7F70793071002631AF70016
:104000000327C4FE930700026314F700EF403075E6
:104010000100F240624405618280411106C622C45B
:1040200000080100B240224441018280011106CE05
:1040300022CC001083A7418323850700552BA307BB
:1040400004FE89A08347F4FE13972700B76700405A
:10405000938707C0BA979C43C207C183BE86834734
:10406000F4FE13972700B7670040938707C0BA97FD
:1040700005671307F7F0758F98C38347F4FE85072C
:10408000A307F4FE0347F4FE9D47E3FDE7FAB76795
:104090000040938747C41307F00F98C3EFF0AFF4C5
:1040A00023AC018481450145EFF03F905145EF403D
:1040B000404585450545EFF05F8F0100F2406244C1
:1040C00005618280411106C622C4000883A741838E
:1040D0002385070083A741833D67130787867833CD
:1040E00098B783A74183A38507000145EFE05FF000
:1040F000930500200145EFE07FF2C1450145EFE067
:10410000DFF8930500040145EFF04FBD930500086B
:104110000145EFF06FB70145EFF06FA1B707002041
:104120009387070583C7C702BE850145EFF0EFCC33
:104130000145EFF04F93B7670040938707C09C435A
:10414000C207C1833E879167F98F95C7B767004063
:10415000938707C09C43C207C1833E8785679387C7
:10416000F7F07D8FB167938707085D8FB7670040D1
:10417000938707C098C3B7670040938707C09C43E5
:10418000C207C18393F7070495C7B76700409387B9
:1041900007C09C43C207C1833E8785679387F7F0BA
:1041A0007D8FA1679387070C5D8FB767004093876A
:1041B00007C098C3930500600545EFE03FE693050F
:1041C00000020545EFE07FEC9305000C0545EFF09C
:1041D000AFAB81450545EFE0FFF9B7670040938736
:1041E00047C09C43C207C18393F7070495C7B767CD
:1041F0000040938747C09C43C207C1833E878567C1
:104200009387F7F07D8FA1679387070C5D8FB76762
:104210000040938747C098C3B7670040938747C063
:104220009C43C207C1833E879167F98F95C7B767E3
:104230000040938747C09C43C207C1833E87856780
:104240009387F7F07D8FB167938707085D8FB76716
:104250000040938747C098C381450945EFE01FDCC4
:1042600081450945EFE07FE2930500100945EFF035
:10427000EFA6930500040945EFF02FB88D650945B9
:10428000EFE05FEFB7670040938787C09C43C207AA
:10429000C1833E879167F98F95C7B76700409387C1
:1042A00087C09C43C207C1833E8785679387F7F029
:1042B0007D8FB167938707085D8FB767004093874D
:1042C00087C098C3B7670040938787C09C43C207E5
:1042D000C18393F7070495C7B7670040938787C0EA
:1042E0009C43C207C1833E8785679387F7F07D8F24
:1042F000A1679387070C5D8FB7670040938787C0DE
:1043000098C381450D45EFE07FD1930500020D452F
:10431000EFE0BFD7930500140D45EFF0EF96814510
:104320000D45EFE03FE5B76700409387C7C09C436A
:10433000C207C18393F7070495C7B7670040938707
:10434000C7C09C43C207C1833E8785679387F7F048
:104350007D8FA1679387070C5D8FB76700409387B8
:10436000C7C098C3B76700409387C7C09C43C207C4
:10437000C1833E879167F98F95C7B76700409387E0
:10438000C7C09C43C207C1833E8785679387F7F008
:104390007D8FB167938707085D8FB767004093876C
:1043A000C7C098C30145EFE0EFBA238401840547F5
:1043B00023ACE1840100B24022444101828001111A
:1043C00006CE22CC0010AA872317F4FE0357E4FE82
:1043D000B70700209385C7123A85EFD03F8EAA8792
:1043E0003E85F240624405618280011106CE22CCF6
:1043F0000010AA872317F4FE0357E4FE9385C180BB
:104400003A85EFD0BF8BAA873E85F24062440561B2
:104410008280797106D622D40018AA87231FF4FC63
:1044200083A74183BC33A307F4FE0347F4FE9147FF
:1044300063F4E70081470DA08347F4FE139737002C
:10444000B70700209387470A3E978357E4FDBA8554
:104450003E85EFD0BF86AA873E85B2502254456183
:104460008280011106CE22CC0010AA872E87A307D6
:10447000F4FEBA872307F4FE8347E4FE99C3894715
:1044800009A80347F4FE854763F4E700894711A0B4
:1044900081473E85F240624405618280011106CE6B
:1044A00022CC0010AA872317F4FE8357E4FE99E775
:1044B00083A741831D479AAB814719A0938721D1D8
:1044C0003E85F240624405618280011106CE22CC15
:1044D0000010AA872317F4FE8357E4FE99E783A709
:1044E00041831D479AAB814719A0938721D13E850F
:1044F000F240624405618280797106D622D40018A8
:10450000AA87A30FF4FC83A741839C332324F4FEE2
:10451000232604FE83A741839C2313F7F7078547CF
:104520006314F7008947BDA083A741839C2313F739
:10453000F70793071002631CF702032784FE930713
:1045400010026318F70091679387C7492326F4FE8A
:1045500039A8032784FE930700026318F7009167C8
:104560009387A74C2326F4FE19A0894725A083270B
:10457000C4FE85C383A741830327C4FE98CF83A7C6
:104580004183239907008327C4FE01458297814711
:1045900011A089473E85B2502254456182807971CD
:1045A00006D622D40018AA87A30FF4FC83A7418360
:1045B0009C332326F4FE83A741839C2313F7F7073C
:1045C000930710026310F7020327C4FE930720022B
:1045D000630AF7000327C4FE930730026304F70061
:1045E000894711A081473E85B2502254456182809F
:1045F000011106CE22CC001085472317F4FEB767C1
:104600000040938707C40357E4FE98C3239E0182AA
:1046100003D7C183B7670040938707C498C3B767C0
:104620000040938747C423A007000967130707C00A
:10463000239EE18203D7C183B7670040938707C4F5
:1046400098C381473E85F240624405618280011132
:1046500006CE22CC0010232604FEB76700409387C5
:1046600007C49C432315F4FE232604FE15A88327C4
:10467000C4FE13972700B7670040938707C0BA9717
:104680009C43C207C183BE861387818B8327C4FEE8
:104690008A07BA9794C38327C4FE85072326F4FEAE
:1046A0000327C4FE9D47E3F4E7FC8357A4FE93E78A
:1046B00007402315F4FEB7670040938707C40357EC
:1046C000A4FE98C38357A4FE93E717002315F4FEB6
:1046D000B7670040938707C40357A4FE98C3835766
:1046E000A4FEF99B2315F4FEB7670040938707C427
:1046F0000357A4FE98C30100B7670040938747C4DF
:104700009C43C207C18393F70740FDD7B7670040BA
:10471000938747C441671307F7BF98C3232604FE56
:104720001DA81387818B8327C4FE8A07BA979C43F1
:1047300093960701C1828327C4FE13972700B767AA
:104740000040938707C0BA97368798C38327C4FE73
:1047500085072326F4FE0327C4FE9D47E3F3E7FC09
:104760008357A4FE93E787002315F4FEB767004044
:10477000938707C40357A4FE98C3B7670040938785
:1047800007C49C432315F4FE8357A4FE93E7470018
:104790002315F4FEB7670040938707C40357A4FEB0
:1047A00098C3EFF0AF940100F2406244056182804B
:1047B000011106CE22CC0010B7670040938707C4D2
:1047C0009C432317F4FE8357E4FEED9B2317F4FE6E
:1047D000B7670040938707C40357E4FE98C3EFF020
:1047E0006F92B7670040938707C43167130707F0DC
:1047F00098C30100F240624405618280797106D657
:1048000022D40018232EA4FC0327C4FD9D47630770
:10481000F7009387C1850327C4FD98C39387C1859B
:104820009C431547638FE70C15476367F7121147E1
:10483000638CE70811476361F7120D476380E70651
:104840000D47636BF71009476381E7040947636508
:10485000F71089C705476381E702FDA883A7418652
:1048600099E7B9379387C185194798C3F5A8938706
:10487000C185154798C3CDA8253F9387C1851147AA
:1048800098C3054723A2E186C5A09387C185094740
:10489000D8A39387C1850D4798C3F9A09387C18595
:1048A000DC2393F7F70FFD1713F7F70F9387C185F5
:1048B000D8A39387C185DC2393F7F70FDDE39387B4
:1048C000C185114798C371A8B7670040938707C493
:1048D0009C432317F4FE8357E4FE93E70701231755
:1048E000F4FEB7670040938707C40357E4FE98C3FC
:1048F0009387C185154798C39387C1852947D8A356
:10490000A5A09387C185DC2393F7F70FFD1713F755
:10491000F70F9387C185D8A39387C185DC2393F7CD
:10492000F70FB1E3B7670040938707C49C43231791
:10493000F4FE8357E4FEBD9B2317F4FEB7670040E7
:10494000938707C40357E4FE98C39387C18519472B
:1049500098C323A2018601A89387C185194798C3EC
:1049600021A0010011A001000100B25022544561B4
:10497000828001A097C1FF1F938141FB17B10020E6
:104980001301416817B50000130585D797B5FF1FC0
:104990009385456717B6FF1F1306467C63FAC5006B
:1049A0008322050023A0550011059105E3EAC5FE09
:1049B0001385018397E5FF1F938585666377B500AF
:1049C000232005001105E36DB5FEFD42739002BC86
:1049D0008D4273904280930280087390023097B2A8
:1049E000FFFF9382626293E2320073905230EF5085
:1049F0003010976200009382628A739012347300C1
:104A00002030011106CE22CC00102326A4FE03275D
:104A1000C4FEB727014093870740631DF700854513
:104A200013050020EF10F038814513050020EF102A
:104A300050381DA00327C4FEB73701409387078075
:104A4000631CF700854513050040EF109036814543
:104A500013050040EF10F0350100F240624405619B
:104A60008280797106D622D40018232EA4FC232C30
:104A7000B4FC232604FEA30504FE8327C4FDDC4307
:104A80002326F4FE0327C4FEB707F1E09387F7EF70
:104A9000F98F2326F4FE832784FD9843832784FD22
:104AA0009C4F5D8F832784FDDC4F5D8F832784FDC2
:104AB000DC43A207D98F0327C4FED98F2326F4FE37
:104AC0008327C4FD0327C4FED8C38327C4FD9C47A6
:104AD0002326F4FE0327C4FEB7F7F1FF9387D77FA1
:104AE000F98F2326F4FE832784FD984B832784FDCA
:104AF000DC475D8F832784FD9C478607D98F03277A
:104B0000C4FED98F2326F4FE8327C4FD0327C4FEE9
:104B100098C78327C4FDDC572326F4FE0327C4FE71
:104B2000B70710FFFD17F98F2326F4FE832784FDB6
:104B3000DC2BFD1793F7F70F0347B4FED98FA305BE
:104B4000F4FE8347B4FED2070327C4FED98F232681
:104B5000F4FE8327C4FD0327C4FED8D70100B2505A
:104B6000225445618280011106CE22CC00102326FA
:104B7000A4FE2324B4FE832784FE91CB8327C4FEA6
:104B80009C4713E717008327C4FE98C709A883270B
:104B9000C4FE9C4713F7E7FF8327C4FE98C70100B4
:104BA000F240624405618280011106CE22CC0010E1
:104BB0002326A4FE2324B4FE832784FE99CB8327D7
:104BC000C4FE9847B70750005D8F8327C4FE98C77F
:104BD00019A88327C4FE9847B707B0FFFD177D8F3C
:104BE0008327C4FE98C70100F240624405618280B9
:104BF000797106D622D40018232EA4FCAE873687FE
:104C0000A30DF4FCB287230DF4FCBA87A30CF4FCCB
:104C1000232604FE232404FE0347B4FDA54763F6C0
:104C2000E7068327C4FDDC472326F4FE8347B4FD53
:104C3000138767FFBA878607BA971D47B317F70030
:104C40002324F4FE832784FE93C7F7FF0327C4FEC3
:104C5000F98F2326F4FE834694FD8347B4FD138722
:104C600067FFBA878607BA97B397F6002324F4FE46
:104C70000327C4FE832784FED98F2326F4FE8327CF
:104C8000C4FD0327C4FED8C785A08327C4FD9C4B61
:104C90002326F4FE0347B4FDBA878607BA971D475B
:104CA000B317F7002324F4FE832784FE93C7F7FF8E
:104CB0000327C4FEF98F2326F4FE834694FD0347A1
:104CC000B4FDBA878607BA97B397F6002324F4FE9B
:104CD0000327C4FE832784FED98F2326F4FE83276F
:104CE000C4FD0327C4FE98CB0347A4FD994763E6A0
:104CF000E7068327C4FDDC5B2326F4FE8347A4FD7F
:104D00001387F7FFBA878A07BA977D47B317F7006B
:104D10002324F4FE832784FE93C7F7FF0327C4FEF2
:104D2000F98F2326F4FE8346B4FD8347A4FD138741
:104D3000F7FFBA878A07BA97B397F6002324F4FEE1
:104D40000327C4FE832784FED98F2326F4FE8327FE
:104D5000C4FD0327C4FED8DBE9A80347A4FDB1477F
:104D600063E6E7068327C4FD9C5B2326F4FE8347A6
:104D7000A4FD138797FFBA878A07BA977D47B317B1
:104D8000F7002324F4FE832784FE93C7F7FF03274D
:104D9000C4FEF98F2326F4FE8346B4FD8347A4FDA9
:104DA000138797FFBA878A07BA97B397F600232429
:104DB000F4FE0327C4FE832784FED98F2326F4FE46
:104DC0008327C4FD0327C4FE98DBA5A08327C4FD69
:104DD000DC572326F4FE8347A4FD138737FFBA87E9
:104DE0008A07BA977D47B317F7002324F4FE832779
:104DF00084FE93C7F7FF0327C4FEF98F2326F4FE32
:104E00008346B4FD8347A4FD138737FFBA878A071B
:104E1000BA97B397F6002324F4FE0327C4FE832732
:104E200084FED98F2326F4FE8327C4FD0327C4FE06
:104E3000D8D70100B250225445618280011106CEBC
:104E400022CC00102326A4FE8327C4FEFC47C20701
:104E5000C1833E85F240624405618280011106CE25
:104E600022CC00102326A4FE8327C4FE99CFB727A7
:104E70000140938707409447B72701409387074035
:104E800037078000558F98C739A8B7270140938707
:104E900007409447B727014093870740370780FFB3
:104EA0007D17758F98C70100F240624405618280CA
:104EB000797106D622D40018232EA4FCAE87A30D48
:104EC000F4FC232604FE8327C4FD98438347B4FDE6
:104ED000F98F89C785472326F4FE19A0232604FEEF
:104EE0008327C4FE3E85B250225445618280011161
:104EF00006CE22CC00102326A4FE2324B4FE832752
:104F000084FE99CB8327C4FED843B70700045D8F86
:104F10008327C4FED8C319A88327C4FED843B70784
:104F200000FCFD177D8F8327C4FED8C30100F2402B
:104F3000624405618280797106D622D40018232E3E
:104F4000A4FC232CB4FC232604FE8327C4FD9C432D
:104F50002326F4FE0327C4FEE177BD07F98F23263D
:104F6000F4FE832784FD9847832784FD9C535D8F3F
:104F7000832784FD9C4B5D8F832784FDDC4B5D8FF5
:104F8000832784FD9C4F5D8F832784FDDC4F5D8FDD
:104F9000832784FDDC535D8F832784FD9C57D98F45
:104FA0000327C4FED98F2326F4FE8327C4FD0327DD
:104FB000C4FE98C3832784FDD8478327C4FDD8C384
:104FC000832784FD98438327C4FD98C7832784FDE6
:104FD000D8438327C4FDD8C70100B250225445618D
:104FE0008280011106CE22CC00102326A4FE832746
:104FF000C4FE23A007008327C4FE23A20700832743
:10500000C4FE23A407008327C4FE23A6070083272A
:10501000C4FE23A807008327C4FE23AA0700832712
:10502000C4FE23AC07008327C4FE23AE07008327FA
:10503000C4FE23A007028327C4FE23A207028327FE
:10504000C4FE23A407020100F2406244056182808D
:10505000011106CE22CC00102326A4FE2324B4FE88
:10506000832784FE91CB8327C4FE9C4313E717005C
:105070008327C4FE98C311A88327C4FE9843C16741
:10508000F9177D8F8327C4FE98C30100F240624464
:1050900005618280011106CE22CC00102326A4FED9
:1050A0002324B4FE2322C4FE832744FE99CB832706
:1050B000C4FE9843832784FE5D8F8327C4FE98C374
:1050C00021A88327C4FE9843832784FE93C7F7FF54
:1050D0007D8F8327C4FE98C30100F24062440561BE
:1050E0008280797106D622D40018232EA4FC2326B0
:1050F00004FEB7070140938707402326F4FE832769
:10510000C4FDDC4763800712B7070140938707405F
:1051100094438327C4FD9C4313C7F7FFB70701409F
:1051200093870740758F98C3B7070140938707405F
:10513000D4438327C4FD9C4313C7F7FFB70701403F
:1051400093870740758FD8C38327C4FDDC430327AB
:10515000C4FEBA972326F4FE8327C4FE9443832714
:10516000C4FD98438327C4FE558F98C3B7070140F9
:105170009387074094478327C4FD9C4313C7F7FFD9
:10518000B707014093870740758F98C7B70701405D
:1051900093870740D4478327C4FD9C4313C7F7FF79
:1051A000B707014093870740758FD8C78327C4FD91
:1051B0009847C147631FF702B7070140938707402D
:1051C00094478327C4FD9843B7070140938707405E
:1051D000558F98C7B707014093870740D447832767
:1051E000C4FD9843B707014093870740558FD8C740
:1051F000B1A8B7070140938707402326F4FE832711
:10520000C4FD9C470327C4FEBA972326F4FE8327D8
:10521000C4FE94438327C4FD98438327C4FE558F5F
:1052200098C32DA08327C4FDDC430327C4FEBA978F
:105230002326F4FE8327C4FE94438327C4FD9C43A6
:1052400013C7F7FF8327C4FE758F98C30100B250C0
:10525000225445618280797106D622D40018232E0B
:10526000A4FC232604FE232404FEB70701409387F1
:1052700007409C430327C4FDF98F2324F4FEB7079E
:10528000014093870740D84B8327C4FDF98F81CB1A
:10529000832784FE89C785472326F4FE19A0232689
:1052A00004FE8327C4FE3E85B250225445618280AD
:1052B000011106CE22CC00102326A4FEB707014020
:1052C000938707400327C4FED8CB0100F240624415
:1052D00005618280411106C622C40008B72702403A
:1052E0003707674513073712D8C3B72702403797E8
:1052F000EFCD1307B79AD8C3B727024037076745E2
:1053000013073712D8D3B72702403797EFCD1307CB
:10531000B79AD8D30100B2402244410182804111A2
:1053200006C622C40008B7270240944BB7270240A4
:105330002167558F98CB0100B24022444101828001
:10534000011106CE22CC00102326A4FE8327C4FE22
:1053500093F707F02326F4FEB7270240944BB727B4
:10536000024037070200558F98CBB727024003272A
:10537000C4FED8CBB7270240984BB727024013672B
:10538000070498CB0100B7270240DC47858BE5FF77
:10539000B7270240944BB727024001777D17758FDE
:1053A00098CB0100F240624405618280797106D693
:1053B00022D40018232EA4FC232CB4FC9307000451
:1053C000A307F4FE8327C4FD93F707F0232EF4FC14
:1053D000B7270240944BB72702404167558F98CBBF
:1053E0000100B7270240DC47858BE5FF0100B727A6
:1053F0000240DC47898BE5FF25A88327C4FD0327EE
:1054000084FD184398C38327C4FD9107232EF4FC21
:10541000832784FD9107232CF4FC8347F4FEFD17BA
:10542000A307F4FE0100B7270240DC47898BE5FFA4
:105430008347F4FEF9F3B7270240944BB7270240A5
:1054400037072000558F98CB0100B7270240DC4773
:10545000858BE5FFB7270240944BB7270240417781
:105460007D17758F98CB0100B25022544561828020
:10547000797106D622D40018232EA4FCB7F7FF1F9B
:105480009387877E9C432326F4FE8327C4FE13F76D
:10549000F70F8327C4FD98A38327C4FE13D7870083
:1054A0008327C4FD85071377F70F98A38327C4FECE
:1054B00013D707018327C4FD89071377F70F98A334
:1054C0008327C4FE13D787018327C4FD8D07137775
:1054D000F70F98A3B7F7FF1F9387C77E9C43232638
:1054E000F4FE8327C4FD91070327C4FE1377F70F4B
:1054F00098A38327C4FE13D787008327C4FD95078D
:105500001377F70F98A30100B250225445618280AF
:10551000397106DE22DC80002326A4FC2324B4FC9F
:10552000232604FE232004FE232404FE232E04FC51
:10553000232204FE232C04FC832784FC9C47BD8B80
:105540002326F4FE832784FC9C47C18B89CB8327C9
:1055500084FCDC430327C4FED98F2326F4FE832773
:1055600084FC9E2393F7F70FE9CF8327C4FC9C4369
:105570002322F4FE232404FE5DA8832784FE05472E
:10558000B317F700232EF4FC832784FC9E233E8769
:105590008327C4FDF98F2320F4FE032704FE83270D
:1055A000C4FD6311F708832784FE8A07232EF4FCC9
:1055B0008327C4FD3D47B317F700232CF4FC832752
:1055C00084FD93C7F7FF032744FEF98F2322F4FEDF
:1055D0008327C4FD0327C4FEB317F700032744FE47
:1055E000D98F2322F4FE832784FC984793078002F7
:1055F000631BF700832784FE05473317F7008327D3
:10560000C4FCD8CB05A0832784FC9847930780046B
:10561000631AF700832784FE05473317F7008327B3
:10562000C4FC98CB832784FE85072324F4FE03273C
:1056300084FE9D47E3F3E7F48327C4FC032744FE7D
:1056400098C3832784FC9A239307F00F63F0E70E37
:105650008327C4FCDC432322F4FE232404FE6DA82C
:10566000832784FEA1070547B317F700232EF4FC18
:10567000832784FC9E233E878327C4FDF98F232044
:10568000F4FE032704FE8327C4FD6312F708832773
:1056900084FE8A07232EF4FC8327C4FD3D47B317FD
:1056A000F700232CF4FC832784FD93C7F7FF03271F
:1056B00044FEF98F2322F4FE8327C4FD0327C4FE92
:1056C000B317F700032744FED98F2322F4FE832764
:1056D00084FC984793078002631BF700832784FEAE
:1056E000A10705473317F7008327C4FCD8CB8327CE
:1056F00084FC984793078004631BF700832784FE8C
:10570000A10705473317F7008327C4FC98CB8327ED
:1057100084FE85072324F4FE032784FE9D47E3F1DE
:10572000E7F48327C4FC032744FED8C30100F250EA
:10573000625421618280011106CE22CC0010232602
:10574000A4FEAE872322C4FE2315F4FE832744FE65
:1057500099C70357A4FE8327C4FE98CB31A00357F3
:10576000A4FE8327C4FED8CB0100F2406244056149
:105770008280797106D622D40018232EA4FC232C13
:10578000B4FC232404FE232204FE232604FE23204B
:1057900004FE8327C4FD63D80700B7070140DC4F30
:1057A0002326F4FE2DA8B7070140DC432326F4FE90
:1057B000B7270240938707039843B707000FF98F75
:1057C00099EF8327C4FE13D71700F9777D8F8326BF
:1057D000C4FE8967FD17F58FD98F2326F4FE832732
:1057E000C4FDC183BD8B2320F4FE8327C4FDC20703
:1057F000C1832324F4FE8327C4FD63D6070803274F
:10580000C4FDB70730007D8FB70730006314F7027F
:10581000832704FEC1070D47B317F7002322F4FEC8
:10582000832744FE93C7F7FF0327C4FEF98F23267F
:10583000F4FED5A80327C4FDB7071000F98F95C360
:10584000832704FE0D47B317F7002322F4FE8327B6
:1058500044FE93C7F7FF0327C4FEF98F2326F4FE07
:10586000D9A08327C4FDD58393F7F73F9207032779
:1058700084FEB317F70093C7F7FF0327C4FEF98F21
:105880002326F4FE4DA00327C4FDB70730007D8F0B
:10589000B70730006315F7020327C4FEB70700F10E
:1058A000FD17F98F2326F4FEB7070140D443B7074D
:1058B0000140370700F17D17758FD8C3ADA00327CE
:1058C000C4FDB7071000F98F8DCB832704FE0D4769
:1058D000B317F7002322F4FE832744FE93C7F7FF94
:1058E0000327C4FEF98F2326F4FE0327C4FEB7075F
:1058F000000FD98F2326F4FE3DA08327C4FDD58356
:105900009207032784FEB317F70093C7F7FF032717
:10591000C4FEF98F2326F4FE0327C4FEB707000F49
:10592000D98F2326F4FE832784FD85C38327C4FDF6
:10593000D58393F7F73F9207032784FEB317F70049
:105940000327C4FED98F2326F4FE8327C4FD63D822
:105950000700B70701400327C4FED8CF31A0B7071F
:1059600001400327C4FED8C30100B2502254456150
:105970008280397106DE22DC80002326A4FC2324E9
:10598000B4FC231704FE231604FE91472315F4FEEE
:10599000B7177A00938707202322F4FE8327C4FCDD
:1059A000DE232317F4FE8357E4FE93F707FC231747
:1059B000F4FE930704FD3E85EF009009832784FDE4
:1059C0002322F4FE032744FEB7E71B43938737E8FF
:1059D000B337F702C9832316F4FE8357E4FE3E87EC
:1059E0008357C4FED98F2317F4FE0357C4FE9307D1
:1059F000B00363F6E7009307C0032316F4FE832782
:105A0000C4FC0357E4FEDAA38327C4FC9E23C20729
:105A1000C183F99B1397070141838327C4FC9AA391
:105A2000231704FE832784FC9843E1679387076A62
:105A300063E6E704832784FC9C438607032744FE30
:105A4000B357F7022315F4FE0357A4FE8D4763E511
:105A5000E70091472315F4FE8357E4FE3E87835702
:105A6000A4FED98F2317F4FE8357C4FE850713972E
:105A7000070141838327C4FC9AB365A8832784FC6C
:105A8000FA23B167FD17631FF700832784FC98434F
:105A9000BA878607BA97032744FEB357F702231540
:105AA000F4FE35A0832784FC9843BA878607BA970B
:105AB0008E07BA97032744FEB357F7022315F4FE67
:105AC0008357A4FE3E879167D98F2315F4FE0357B1
:105AD000A4FE8567FD17F98F99E78357A4FE93E726
