:040000006F20B07C41
:1000040000000000000000001E6300002E630000DA
:10001400000000004001000000000000000000009B
:1000240040010000C82F0000000000000000000094
:10003400C82F000000000000C82F000000000000CE
:10004400C82F0000C82F0000C82F0000C82F0000D0
:10005400C82F0000C82F0000C82F0000C82F0000C0
:10006400C82F0000C82F0000C82F0000C82F0000B0
:10007400C82F0000C82F0000C82F0000C82F0000A0
:10008400C82F0000C82F0000C82F0000C82F000090
:10009400C82F0000C82F0000C82F0000C82F000080
:1000A400C82F0000C82F0000C82F0000C82F000070
:1000B400C82F0000C82F0000C82F0000C82F000060
:1000C400C82F0000C82F0000C82F0000C82F000050
:1000D400C82F0000C82F0000C82F0000C82F000040
:1000E400C82F0000F6620000C82F0000C82F0000CF
:1000F400C82F0000C82F0000C82F0000466300006E
:10010400FC2E0000C82F0000C82F0000C82F0000DC
:10011400C82F0000C82F00000000000000000000ED
:1001240000000000000000000000000000000000CB
:0C013400000000000000000000000000BF
:100140009305000273A04580824573901534924058
:100150002242B2424243D2436244F2440255925593
:100160002256B2564257D2576258F258064996491B
:10017000264AB64A464BD64B664CF64C065D965D13
:10018000265EB65E465FD65F09617300203041117E
:1001900006C622C40008C52BFDBF23AC05FE1C41CA
:1001A00081E70CC18280BA8703A787FF6DFF23AC6C
:1001B000B7FE8280411126C24AC0B744024006C63B
:1001C00022C403A9C42023A604200F10000009E9BB
:1001D00023A62421B2402244924402494101828054
:1001E0002A842105BD654205C18D4181EF206073E0
:1001F00001CDFD5723200500231285002303F500C0
:1002000023A624212105F9B723A624210145D9B726
:1002100001114AC84EC6B747024006CE22CC26CAB4
:1002200083A9C7202A8923A607200F10000097273B
:1002300000209387A71580438144014619E499E87B
:10024000A1654A85EF80D04815A08347E4FF639BF2
:10025000270395CCA6851725002013052513EF80CD
:10026000E04579DCA1654A85EF80407EF24062443A
:10027000B747024023A6372126854249D244B249D6
:100280000561828091E02286032484FF45BFA28419
:10029000E5BF97270020938767149C4399E33E8529
:1002A000828003D727006316B70003C70700E3085F
:1002B000A7FEDC47E5B7B747024003A7C72023A640
:1002C00007200F10000001C599C1814711E6B7470B
:1002D000024023A6E7208280B386F50003C806000B
:1002E000B306F500850723800601E317F6FEC5B7C0
:1002F000374702408327C720232607200F1000001E
:1003000019C191C111E6374702402326F7208280A8
:10031000910503A7C5FF11057D16232EE5FEDDB768
:10032000374702408327C720232607200F100000ED
:1003300001C53307C50011E6374702402326F720E1
:1003400082800505A30FB5FEE31DE5FEF5B7B747AF
:10035000024083A6C72023A607200F100000814774
:100360003307F5000307070019E737470240232644
:10037000D7203E8582808507E5B7011126CA4AC885
:10038000B747024006CE22CC83A4C7202A892E86F6
:1003900023A607200F100000131506019305F00493
:1003A000418132C6EF20E0572A8401C53246CA8512
:1003B00019372285F2406244B747024023A69720AE
:1003C0004249D24405618280B747024003A7C72053
:1003D00023A607200F10000001C599C1814711EA2B
:1003E000B747024023A6E720054582808507E30939
:1003F000F6FE3308F500B386F5000348080083C60F
:100400000600E305D8FEB747024023A6E7200145D2
:100410008280B747024003A7C72023A607200F10FA
:1004200000009307F6FFBE952A966317C500B747ED
:10043000024023A6E7208280FD1583C7150005052D
:10044000A30FF5FEDDB7374702408327C7202326D9
:1004500007200F10000001C53307C50019E6374714
:1004600002402326F7200145828005058346F5FFDB
:10047000E397B6FEE31BE5FE374702402326F7204D
:1004800005458280797197270020938727F522D42C
:10049000804306D626D24AD04ECE52CC56CA5AC82F
:1004A0005EC669C0B7C4C901014B97290020938972
:1004B00069F29384F437172A0020130A6AF2972A04
:1004C0000020938AEAEC172900201309E9F58357E5
:1004D000240095E35C44631D0B0017270020232FA5
:1004E000F7EE832BC4002285EF2080525E84A9A8FA
:1004F0002326FB00FDB783A7090082971C4433071E
:10050000F5406376F500032749001D8F2A9763E0C5
:10051000E4089727002023A507E883552400034516
:100520000400EF80A0525C405844A1CB0C44032649
:100530004900AE97BE8663E4B70063E4C700B386A4
:10054000C74014C4228B3A8459F097270020938720
:1005500027E49C4B05476372F706FD171727002019
:100560002320F7E4B250225492540259F249624ACD
:10057000D24A424BB24B4561828063170B009727EA
:10058000002023ADE7E4B1BF2326EB0099BF03278A
:100590008A0209CF63EFA7003385A74083A70A012A
:1005A0006376F5009727002023ACA7DE228B40441A
:1005B00061BF03274900BA97C5B79727002023A139
:1005C00007DE4DB701114EC6B747024006CE22CC1A
:1005D00026CA4AC852C483A9C72023A607200F10E1
:1005E000000017290020130929E49727002083C75A
:1005F00067E403254900ADC39727002083D747064A
:10060000A1CF97270020938767FA03A4070B630500
:10061000A404972700209387A7D7984B3E8A6307A7
:10062000A710972400209384E4DA9C408297636BA0
:10063000A40E9C40098C829703270A016373E4008F
:100640002287B307A7003E858326490063E4E700BD
:1006500063E4D7003385D740B747024023A637214C
:1006600083274900639FA70217240020130444D264
:100670001848972700209387E7D59C43631AA70A59
:10068000829783264900B74736FE938707C8B697F7
:100690003387A7003A856364F7006364D7003305A6
:1006A000D740172400201304E4055C5081CF97271E
:1006B00000209387E70C94433707CDFF7D179C46B6
:1006C000F98F9CC619E103254900854717270020AB
:1006D0002320F70497270020938787D09C57829781
:1006E00011ED5C5099CB5C4489CBEF000267EFF0D1
:1006F000514C9727002023AD070069335C5099CBFC
:10070000972700209387C7079843B70633001C47F5
:10071000D58F1CC7F2406244D2444249B249224AB2
:1007200005618280832749003E9421B722852DB739
:100730008297144803274900B387A6003E8563E4E7
:10074000D700E3E0E7F63385E740A1BF23A6A190F9
:1007500001C585472388F19082809387C1909C438F
:1007600081CF411106C6829783C7019199E323A6E1
:100770000190B2404101828083C7019181E723A6A5
:10078000019082808280411126C206C622C497272A
:10079000002083C727CA97240020938424C285EBB6
:1007A0009727002083C757F6858B1727002013074C
:1007B00067F591CF8347770099466396F60C9727A4
:1007C0000020A38307F4EF103025DC4482979C447B
:1007D00091C3829717240020130404C018401726E1
:1007E00000200346F6BA9727002083C767BA93967E
:1007F0001700BA9683D60600C5C69727002083C780
:1008000027B963E9C70A97270020238307B89727EA
:10081000002083C7B7EF972400209384A4EE63974A
:100820000712972700209387E7BA9C43638B071032
:1008300097270020938747BFDC43172700202321F9
:10084000F7B6893197270020938787B99C57638A29
:10085000070E83C7740011476365F70E97270020C2
:1008600083C7C7EF918BF1EF83C70191F9EB10407C
:100870009726002083C6D6B163C7D70E2244B24064
:100880009244410181B3834777001D47E311F7F498
:1008900097270020A38A07E6EF1010189C483DB761
:1008A000850793F7F70F972600202383F6AEE3EC36
:1008B000C7F2A1B786073E978355070023100700AC
:1008C00097270020239607B0972700209387C7AE6D
:1008D0009C43172500200345A5AB13172500BA97A5
:1008E0009C4382979727002083D787AE1727002045
:1008F000034707AA93C7F7FF7D8D9317170018408A
:100900003E97835707005D8D2310A700972700208F
:1009100083C707A891C7850717270020230AF7A6D2
:100920009C4091C782979727002023A907A81727E3
:1009300000200347E7A59727002083C777A5E37426
:10094000F7ECB240224492444101828083C7740094
:1009500093F7F70FE39707EC97270020A38807DAB0
:10096000EFF011657DBD139717003297035707000D
:1009700069FB850711B7374702408326C720F17707
:10098000FD17F58F2326F72001000100972700208F
:10099000938707A0C84F832787262326D7206A0579
:1009A00093C7F7FF99835D8D82809727002083C7C7
:1009B000579E99CF9727002083C7C7A781CF972736
:1009C0000020938767A703A3070063070300028340
:1009D00005458280094582801305F00F8280938748
:1009E00041999C4317270020034717BC2A86050717
:1009F00081463E8583D707006388C7008506930735
:100A00006500E3E8E6FE014582809387C19898433C
:100A100019E3014615A81C4703D8A700636B05011D
:100A200083584700B38608016355D5008146639417
:100A300016011843F1BF3E86C10703D3A7FF631712
:100A4000A30099C123900501328582808506C206E4
:100A5000C182F1BF97270020938707AF98431726DD
:100A60000020034666B481476315F600814636854B
:100A70008280BA861307C703835567FCE389A5FE06
:100A8000850793F7F70FCDB7032785116302071288
:100A9000411122C406C68347C5008345E5042A8464
:100AA00093F7C70F2306F500834697000356C70048
:100AB00013958601618563F2C508635B05060345EE
:100AC000870093F6F607A304D700054693E62700B0
:100AD0006314C50093E617002306D4005C4389071E
:100AE0005CC3A30AB400032504112E864C430905F8
:100AF000EFF06FFC8327841103465401D44303D7DE
:100B0000C700B296118FD4C32396E7008947A30D7F
:100B1000F400034764039727002083C7878D637819
:100B2000F7048347C40093E707012306F40081A07C
:100B300093E717002306F4006DB79376F60F635D15
:100B4000050203458700854513E627006314B500B9
:100B500013E617002306C400A30AD400A304070069
:100B60008547A30DF400832784119C43DDF3B24035
:100B7000224401454101828093E717002306F400D7
:100B8000A30AD400A3040700032504114C4309055C
:100B9000EFF06FF28327841103465401D44303D747
:100BA000C700B296118FD4C32396E7008D4755BF77
:100BB0000545828097270020938707B29C43411107
:100BC00022C406C6858B2A84D5EB4165130525F51D
:100BD000EFA0E12745C58347A5002315F50083272E
:100BE0000412BDE72320A4122322A4128547231157
:100BF000F404232005008347640154412316F500C3
:100C00000347D4002304E5000547A304E5001727A4
:100C10000020130727AF58531385170215811C4373
:100C20007D151375F50F9CC25C43DCC21C479CC646
:100C30005C47DCC61C4B9CCA5C4BDCCA1C4F9CCE80
:100C40005C4FDCCE19CD9386060213070702C1BFA5
:100C50008327441288C3835724042322A4128507C0
:100C600079B79727002083D7E794850717270020B7
:100C70002312F794B2402244410182808347C4008A
:100C800023090400054593C747002306F400DDB798
:100C90008347850193F7E70FC5EF83479501CDEBB8
:100CA000034625018346C50009CA83456503171716
:100CB00000200347177463E7E50013F7060151CBE3
:100CC000014709C6C18A0357251E81C68356651E82
:100CD000369741C31307C7121715002003554575F2
:100CE000B335A70237460F0041111306062481468B
:100CF00022C426C206C67D543305A702EF608034A5
:100D00009717002083C7376FB384A7009727002069
:100D10009387C78903A7C7098327070963F3870058
:100D20003E84184375FB971700209387A76A9C435E
:100D3000829781476364A400B307A440B240224471
:100D4000B3B7970093C7170092443E854101828054
:100D500081473E858280972700209387279D98436F
:100D60007C53FDFF82800111972700209387078421
:100D700022CC03A4470A26CA9717002083D7476BC3
:100D800083546408032504094AC8B384F402B747AE
:100D90000F001387F7239387072406CE4EC652C44D
:100DA00056C21719002013092968BA94B3D4F40263
:100DB000636E9502971900209389C96183A7090082
:100DC000B3049540829763E7A402898C63C8040248
:100DD00083570404A30F040085072310F4048347FA
:100DE0000414639F07102285352729AA8327490009
:100DF0003E95C9B783274900BE94C1BF83A70900A8
:100E00008297032784086367E50A198D8357E403F3
:100E1000171700200357C7618E07B387E702130730
:100E2000003293870719B3D7E70263EAA708374A66
:100E30000F00930AFA23130A0A2483570404850730
:100E40002310F4048347041499E32285E1252285C5
:100E5000EF900105631A0526832604098327C40839
:100E600003274900B6973E8563E4D70063E4E700B3
:100E70003385E7408347F401835464082328A4089A
:100E80008507A30FF4009717002083D7675AB38410
:100E9000F402D694B3D44403636C9504B304954030
:100EA00083A70900829763E9A4043385A440E3463D
:100EB00005F839BF83274900998F3E9581BFA14529
:100EC0002285EF807175A305A402971700209387F0
:100ED000275103A347036309031E6244F240D2442F
:100EE0004249B249224A924A894515450561028321
:100EF000B3049740AA946DB783274900BE9475B791
:100F00002285452D2285EF80B179631F051A83570D
:100F10006408171500200355A551B7460F00B38785
:100F2000A7021386F6239386062403270409230BBE
:100F30000402032A4900B297B3D7D702636FF718A8
:100F4000B307F7408326C4082324F408814AB387F3
:100F5000E600BE8463E4D70063E44701B3844741FD
:100F60008357040223289408B1CB83560404035703
:100F7000440237460F002312D4023387E640B3877A
:100F8000E702035724021306062481468145BA97D7
:100F9000C207C1833385A7022311F402EF60800AE0
:100FA00011CD2695B3349500AE94AA8763949A0028
:100FB00063644501B30745412328F40883A709006A
:100FC0008297AA8483A709008297E30D95FE83A7E1
:100FD000090083248408829763E6A4103385A44023
:100FE00063030512835764089719002083D9494485
:100FF000B7440F00B38737031387F4239384042483
:10100000BA97B3D79702171700200347D73EBA976E
:1010100063EBA70EB3359502035924024E86814631
:1010200033059502EF600002330AA9003305390346
:1010300037460F001306062481468145EF60800085
:1010400005C1B33795024E868146B385B402338518
:10105000A402BE95EF50107F3305A9402311A402CE
:101060003545EFF091079717002023A3875E83464D
:10107000B40005479717002083C7C73B6398E6066F
:10108000130700FD2307E400171700201307076666
:101090000843B5C7EFF08FEB9716002093860669DB
:1010A0009042954717170020A301F7665846F97735
:1010B000FD17F98F5CC60F1000009C428966060A76
:1010C00094C723A24707D8C7F2406244D24442499A
:1010D000B249224A924A05618280B3064701B3872A
:1010E000F6408DB583274900BE94CDBD130710FC93
:1010F0002307E400171700201307C75E51BF81457F
:10110000EF70707551BF9717002023A307549717EE
:10111000002083C7273299CF971700209387475C19
:101120008843EF802035B7E700E03707000223A2AD
:10113000E72059BF8347940285456244F240D24478
:101140004249B249224A924AB395F500C205C1818B
:10115000014505616F70900F011122CC4AC84EC63F
:1011600006CE26CA52C456C25AC00347B5008547A8
:101170002A842E8983290509631DF71E83570508D4
:10118000035BC503971A002083DA8A2A171A002006
:10119000130A8A2963F7671B834605016393E61ADE
:1011A00003278511631F07180327450A631B0718C8
:1011B0008346F5001D476396E6180355A503330BD8
:1011C000FB409307204E33056503832444093746CB
:1011D0000F001306062481463305F50297170020F9
:1011E00083C76721B3549502B3B5AA02BE94C20463
:1011F000C180231394083385AA02EF50B064AA99E2
:1012000033B5A9002E954E8783274A0019E163E480
:10121000F9003387F940B3845403B7460F0093872E
:10122000F623938606242320E900BE94B3D4D40287
:1012300093171B00A6976360F7101D8F2320E9000A
:10124000971900209389091983A7090083240900AD
:10125000829763E3A4123385A4406352050C83A7ED
:101260000900829703270900636FE510198D8357E2
:10127000E403171700200357A71B8E07B387E70265
:101280001307003293870719B3D7E70263E5A71066
:10129000374A0F00130BFA23971A0020938ACA18B3
:1012A000130A0A248357040485072310F404834790
:1012B000041499E32285B92C2285EF80713E65E9FB
:1012C000832604098327C40803A74A00B6973E85EE
:1012D00063E4D70063E4E7003385E7408347F40124
:1012E000835464082328A4088507A30FF4009717E4
:1012F000002083D7E713B384F402DA94B3D4440311
:101300006366950CB304954083A7090023209900D8
:10131000829763E1A40C3385A440E34505F8971751
:10132000002083C7570D63E5A7089717002023A166
:1013300087320145B5A883264A00B387F6403E9719
:10134000F5BD8357640837470F00B38457039307ED
:10135000F723A69793040724B3D4970263E7990071
:10136000B384994023209900E1BD83274A00BE99A8
:10137000C5BF23A03501E9B5971700209387C70A99
:10138000DC43BE94C9BD971700209387E709DC436F
:10139000998F3E95E9BDA1452285EF80F127A305F0
:1013A000A402971700209387A703DC5B81EF7D558C
:1013B000F2406244D2444249B249224A924A024B24
:1013C00005618280894515458297D5B7B30497405A
:1013D000AA941DBF83A74A00BE9435BF31CD011129
:1013E0006C0022CC06CE2A84853B29C5FD576308B4
:1013F000F502971600209386A6FE9456324797175B
:10140000002083C757FF91C28583636EF700B3073F
:10141000F7403EC6B24503459402EF70207AF24091
:10142000624405618280971600209386E6FFD442CD
:101430003697F1BF0D3AE5B7828079719717002092
:101440009387C71626D283A4C70906D622D44AD0CA
:101450004ECE0947A5C09716002083C6162B954788
:101460000D476389F604971700209387A729DC4767
:101470002A8989CBEFF0710EEFE0B1739717002046
:1014800023A80728FD596C002685F93105ED1705BD
:1014900000001305858DEFF06FABA14717170020F3
:1014A0002304F72697170020938747289C43094772
:1014B000F8D30D47B250225492540259F2493A855A
:1014C00045618280637435013244AA898440C5FC39
:1014D000FD571307F00FE38FF9FC914763F4870280
:1014E0009307B4FF2320F900171700202328F716CD
:1014F0000147E9F397170020938707F3DC43232084
:10150000F9004DBF97170020938707F2DC43ED17D2
:10151000A297C9BF797126D206D622D44AD04ECE20
:1015200052CC56CA5AC85EC6834755030344751346
:10153000AA843E941374F40F9307400263F6870065
:101540001304B4FD1374F40F03AA841383AAC41301
:10155000A38B841222865285D685EF50F029058907
:1015600005E503CBD41201498149337B6403930B16
:1015700050024A865285D685EF501028058915C538
:10158000639169031374F90F238B8412B2502254B0
:1015900092540259F249624AD24A424BB24B4561D7
:1015A00082808509E20993D989410509E31379FD10
:1015B000E1BF8327850903560504797193D6070196
:1015C000BD8EC206C182358E135776409357564062
:1015D000898B058B5D8F93573640918B5D8F935729
:1015E0001640A18B5D8F93171600C18B5D8F9317EB
:1015F000360093F707025D8F9317560093558600C8
:1016000093F707041E065D8F1376F60F518F93D75D
:10161000554013D63540118A898BD18F13D675402A
:10162000D18F13D61540218AD18F13961500418A88
:10163000D18F1396350013760602D18F139655007D
:10164000137606049E05D18F93F5F50FCD8FA20773
:1016500045465D8F3307C70222D42A8426D252CC56
:1016600056CA032A8413832AC4135AC806D6369747
:101670004207418393577740135557400989858B1B
:10168000C98F135537401189C98F135517402189C8
:10169000C98F131517004189C98F131537001375AA
:1016A0000502C98F1315570093558700137505045C
:1016B0001E07C98F1377F70FD98F13D5354013D76E
:1016C00055401189098B498F13D57540498F13D522
:1016D00015402189498F139515004189498F13952C
:1016E000350013750502498F1395550013750504D0
:1016F0009E05498F93F5F50F4D8F2207D98FB3873C
:10170000C7024AD04ECE5EC662C4B697C207C18336
:1017100013D7774013D557400989058B498F13D5C7
:1017200037401189498F13D517402189498F139567
:1017300017004189498F1395370013750502498FAA
:101740001395570093D58700137505049E07498F9D
:1017500093F7F70FD98F13D5354013D7554011891B
:10176000098B498F13D57540498F13D515402189B1
:10177000498F139515004189498F139535001375CD
:101780000502498F13955500137505049E05498F71
:1017900093F5F50F4D8F2207D98FB387C702130634
:1017A00050025285D685B697BD8E93940601C180AE
:1017B00033F6C402137BF60FEF50100405891DE9C0
:1017C0008347D41201498149B3849702130C500214
:1017D000C1804A865285D685EF5010020589937BD9
:1017E000F90F11C563863403850993F9F90F0509CB
:1017F000E31189FF230B6413B2502254925402590F
:10180000F249624AD24A424BB24B224C4561828035
:101810005E8BCDB78327C50803568508797193D6AB
:101820000701BD8EC206C182358E1357764093578D
:101830005640898B058B5D8F93573640918B5D8F1A
:1018400093571640A18B5D8F93171600C18B5D8F48
:101850009317360093F707025D8F93175600935541
:10186000860093F707041E065D8F1376F60F518FDF
:1018700093D7554013D63540118A898BD18F13D613
:101880007540D18F13D61540218AD18F139615003C
:10189000418AD18F1396350013760602D18F1396A5
:1018A0005500137606049E05D18F93F5F50FCD8F65
:1018B000A20745465D8F3307C70222D42A8426D269
:1018C00052CC56CA032A040A832A440A5AC806D6A6
:1018D00036974207418393577740135557400989FC
:1018E000858BC98F135537401189C98F1355174000
:1018F0002189C98F131517004189C98F1315370026
:1019000013750502C98F131557009355870013757A
:1019100005041E07C98F1377F70FD98F13D53540EC
:1019200013D755401189098B498F13D57540498FBD
:1019300013D515402189498F139515004189498F89
:101940001395350013750502498F139555001375CE
:1019500005049E05498F93F5F50F4D8F2207D98F0A
:10196000B387C7024AD04ECE5EC662C4B697C207DE
:10197000C18313D7774013D557400989058B498F09
:1019800013D537401189498F13D517402189498FC5
:10199000139517004189498F139537001375050278
:1019A000498F1395570093D58700137505049E073B
:1019B000498F93F7F70FD98F13D5354013D755407B
:1019C0001189098B498F13D57540498F13D515405F
:1019D0002189498F139515004189498F1395350049
:1019E00013750502498F13955500137505049E055F
:1019F000498F93F5F50F4D8F2207D98FB387C70213
:101A0000130650025285D685B697BD8E9394060173
:101A1000C18033F6C402137BF60FEF50E05D0589F9
:101A20001DE98347140801498149B3849702130CC7
:101A30005002C1804A865285D685EF50E05B058909
:101A4000937BF90F11C563863403850993F9F90F68
:101A50000509E31189FF230F6407B2502254925401
:101A60000259F249624AD24A424BB24B224C45617A
:101A700082805E8BCDB7832745090356850879712F
:101A800093D60701BD8EC206C182358E13577640AC
:101A900093575640898B058B5D8F93573640918BBA
:101AA0005D8F93571640A18B5D8F93171600C18BE6
:101AB0005D8F9317360093F707025D8F93175600DB
:101AC0009355860093F707041E065D8F1376F60F75
:101AD000518F93D7554013D63540118A898BD18FBA
:101AE00013D67540D18F13D61540218AD18F139606
:101AF0001500418AD18F1396350013760602D18FD7
:101B000013965500137606049E05D18F93F5F50FB5
:101B1000CD8FA20745465D8F3307C70222D42A84A2
:101B200026D252CC56CA032A040B832A440B5AC825
:101B300006D636974207418393577740135557404F
:101B40000989858BC98F135537401189C98F135562
:101B500017402189C98F131517004189C98F1315A3
:101B6000370013750502C98F131557009355870069
:101B7000137505041E07C98F1377F70FD98F13D577
:101B8000354013D755401189098B498F13D57540BE
:101B9000498F13D515402189498F13951500418927
:101BA000498F1395350013750502498F139555001C
:101BB000137505049E05498F93F5F50F4D8F220788
:101BC000D98FB387C7024AD04ECE5EC662C4B697DD
:101BD000C207C18313D7774013D557400989058BB6
:101BE000498F13D537401189498F13D51740218963
:101BF000498F139517004189498F13953700137545
:101C00000502498F1395570093D587001375050476
:101C10009E07498F93F7F70FD98F13D5354013D708
:101C200055401189098B498F13D57540498F13D5BC
:101C300015402189498F139515004189498F1395C6
:101C4000350013750502498F13955500137505046A
:101C50009E05498F93F5F50F4D8F2207D98FB387D6
:101C6000C702130650025285D685B697BD8E93944F
:101C70000601C18033F6C402137BF60FEF50C03764
:101C800005891DE98347F40801498149B384970216
:101C9000130C5002C1804A865285D685EF50C0355C
:101CA0000589937BF90F11C563863403850993F980
:101CB000F90F0509E31189FF230F6407B25022547D
:101CC00092540259F249624AD24A424BB24B224CD8
:101CD000456182805E8BCDB7797122D406D683C7E9
:101CE00035002E8423160100A307F10083C74500A9
:101CF000100802C02307F10083C755008A8502C27D
:101D0000A306F10002C402C802CA02CC02CE812A94
:101D10000347F1018347040001456310F7020347BD
:101D2000E1018347140001456319F7000345D10120
:101D3000834724001D8D13351500B2502254456190
:101D400082800111971700209387478622CC03A435
:101D5000C70C26CA4AC84EC606CEAA841309250057
:101D6000854915C083C7140003473400858B63047D
:101D7000F700405CFDB71946930544004A85EFE043
:101D8000AFE4E31835FF2285F2406244D244424971
:101D9000B24905618280411197170020938707811E
:101DA00022C403A4C70C26C24AC006C69304250059
:101DB000054901E82285B24022449244024941018A
:101DC0008280A6851305A402013FE30525FF405C40
:101DD000CDB74111970700209387477D22C403A404
:101DE000C70C26C24AC006C693042500054901E86F
:101DF0002285B24022449244024941018280A68554
:101E00001305A401D13DE30525FF405CCDB70111C9
:101E1000970700209387877922CC03A4470C26CA12
:101E200006CE2AC42EC6854419E40145F240624418
:101E3000D244056182808347910003471400858B5B
:101E40006304F7000044CDB719469305A1001305BC
:101E50002400EFE06FD7E31795FE0545C1BF971645
:101E60000020938626899C421307001098C323A064
:101E70000700034715000348250022074208429740
:101E8000034805004297034835006208429798D7F7
:101E9000034755000348650022074208429703485C
:101EA000450042970348750062084297D8D7034718
:101EB00095000348A5002207420842970348850081
:101EC00042970348B5006208429798DB0347D50064
:101ED0000348E5002207420842970348C50003452E
:101EE000F500429762052A97D8DB03C7150003C5A2
:101EF0002500220742052A9703C505002A9703C536
:101F0000350062052A9798CF03C7550003C56500C1
:101F1000220742052A9703C545002A9703C5750085
:101F200062052A97D8CF03C7950003C5A5002207ED
:101F300042052A9703C585002A9703C5B5006205A7
:101F40002A9798D303C7D50003C5E50022074205A9
:101F50002A9703C5C50083C5F5002A97E2052E9789
:101F6000D8D3D843759BD8C3D84313671700D8C3B9
:101F700098431367170098C398425C43858BD9E355
:101F80001C4F01452300F6009C429C4FA183A300F7
:101F9000F6009C429C4FC1832301F6009C429C4F5B
:101FA000E183A301F6009C42D84F2302E600D84FFC
:101FB0002183A302E600D84F41832303E600D84FD4
:101FC0006183A303E60098532304E600985321831A
:101FD000A304E600985341832305E60098536183E8
:101FE000A305E600D8532306E600D8532183A306B1
:101FF000E600D85341832307E600DC53E183A307BF
:10200000F600828001008DBF97070020938707723A
:1020100098431605136505083C4B93E707083CCB2E
:10202000970700209387076D9C4303A7450E88C33D
:1020300098CB03A7850E0145D8CB03A7C50B98CF36
:1020400003A7050CD8CF03A7450C98D303A7850C8D
:10205000D8D303A7C50C98D703A7050DD8D703A7D6
:10206000450D98DB03A7850DD8DB03A7C50D98C7E1
:1020700003A7050ED8C798431367070498C3828047
:10208000970700209387876A98431605136505080C
:102090003C4B93E707083CCB970700209387876565
:1020A0009C4303A7C50E88C398CB03A7050F014522
:1020B000D8CB03A7C50B98CF03A7050CD8CF03A790
:1020C000450C98D303A7850CD8D303A7C50C98D784
:1020D00003A7050DD8D703A7450D98DB03A7850DEA
:1020E000D8DB03A7C50D98C703A7050ED8C798432B
:1020F0001367070498C3930700F817070020230607
:10210000F7608280970600209386065F984241110F
:1021100026C21C5F06C622C49983858BB684CDC3B4
:10212000930700061CDF9707002083C7A75D93F77E
:102130000704170400201304E45C9DC397070020E4
:10214000938747299C4382979707002023AAA75C7F
:102150008347040093F7F70B170700202304F75A6F
:102160008347040093F707029DC383470400A166D9
:1021700093F7F70D170700202306F75817070020DD
:102180001307C75A5C481843860714C77CD7834790
:10219000440093F707048DE7854717070020A30540
:1021A000F75697070020938767589C43096798C79D
:1021B000130700FC970600202388E6541848F8D33C
:1021C00098401C5F9183858B81CBC1471CDF85477D
:1021D00097060020238AF6521C5F9D83858B89CB4E
:1021E000930700081CDF854717070020230EF750D0
:1021F00097070020938707509C43D8430583058B9E
:1022000019C7D843759BD8C3D843799BD8C3B2406C
:10221000224492444101828097070020938707510E
:102220009443970700209387E74D03C70700058B6A
:1022300009EB03C71700058B09E7F8527DF783C741
:10224000570097070020A381074C828017080020C1
:102250001308884A032708001C5F9583858BBDEB14
:1022600009C61C5BBD832300F60085CA83270800CE
:10227000985B4607935767016356070093E707C0CB
:10228000C207C18303970600C207C18709C7BA976F
:102290000947B3C7E7022390F60095C183471500AD
:1022A00099CF3E95834795000547194593F6F70664
:1022B0006393E602E207E187394563CE070083278F
:1022C000080001459C5FED838D8B17070020A3005C
:1022D000F744828005458280411122C406C6170456
:1022E00000201304A44418403DE5AE877453FDFE5E
:1022F0003E85B2859707002023870740EFE0811DC8
:10230000970700209387473F9C43B7068000984378
:10231000558F98C3D857719BD8D797070020A385AE
:10232000073E97070020A38F073C1C40094798C32E
:102330001440170700201307E73C83472700858BCD
:1023400099E783473700858B99E3FC52FDF7B2404C
:102350002244410182808D476310F50297070020D7
:10236000938787399C43B70680009843558F98C35D
:10237000D857719BD8D76DBF8547E31BF5FA5447F3
:10238000F977FD17F58F5CC70F1000001C40096737
:1023900098C7130700F8170600202307E63617072B
:1023A0000020130767351043184231830D8B11E766
:1023B00013076019F8D3D4C7A5BF18420946318363
:1023C0000D8B6315C7001307E043EDB71307E01B40
:1023D000D5B75D7152DC170A0020130AEA310327D2
:1023E0000A0086C6A2C4A6C2CAC04EDE1C43970914
:1023F00000209389E938170900201309293393F73E
:10240000F7E793E707081CC383A609003707CEFF49
:102410007D179C46130680022A84F98F9CC6832769
:1024200009002800AE8423A8070493051008EFD004
:102430003FEF3545EFE0614A83270A009376F41FAA
:102440003706330023A40700984B370FFCFF4E8854
:102450001367F70398CBF84FCA88130510F8137762
:1024600007E0558FF8CF9843F576FD16758F98C322
:1024700017070020A30A0728832609001707002052
:10248000A3020728054798C29843D285B7020400E3
:102490001377F7E798C3984393038025114913777F
:1024A000F7E71367071098C303A709007D1F854945
:1024B0001C47930F8002D18F1CC793079005BCCA9D
:1024C00001473400135337002693834703001376E4
:1024D0007700B3D7C740858BDDCF9C41832E0800A2
:1024E000239C07042390070603AECE02137EDEFF73
:1024F00023A6CE0383AE0700137EF70793FE0EF8E4
:1025000033EECE0123A0C70103AE4702336E5E0057
:1025100023A2C70383AE0800014E23A27E0603DA7E
:10252000070663074E0303AE0703038A0600135E24
:10253000FE00620E135E8E416358CA0103AE0703AC
:10254000135EFE002380C60103DE0706137EFE0F26
:1025500003AA4E0663060A0003DA8705E37F49FBF8
:1025600003AE4702337EEE0123A2C7038387060032
:10257000635CF400034E03003396C9001346F6FF74
:102580003376C6012300C3003E8663D3A7002A86A4
:1025900013158601618505071377F70F8506E31389
:1025A000F7F3B640264496440649F259625A6161EF
:1025B000828097070020938767179C43D84793161C
:1025C000170163D5060298479316170163D00602D8
:1025D0007D57B8D717070020130787DB584F05072B
:1025E0009706002023A4E6DC116798C798470D835F
:1025F000058B1DC3170700200347E710136717005B
:10260000970600202381E610130700F897060020A4
:10261000238CE60E214798C79847058B09CF1707EB
:1026200000200347370E1367170097060020A38B7F
:10263000E60C054798C798470983058B09E7984733
:102640000583058B35C317070020A30F070A98479A
:10265000170600201306060B970600209386C6096E
:102660000983058B9442B285630007109842318339
:102670000D8B65EBB04BD85113760602034717005C
:102680005DCA69EF1307D005D8CF03C705001367EC
:102690001700170600202307E606114798C7D856EB
:1026A000719B13671700D8D698479316370163D6E6
:1026B00006029706002083C626F7C18A1707002066
:1026C0001307C7EEC5CE0347C70713670702970670
:1026D0000020238BE6F4056798C7984793162701D7
:1026E00063D10602170700200347070262076187CC
:1026F000635707000547970600202387E600096710
:1027000098C798479316070163D6060297060020DC
:1027100083C696F1858A17070020130727E9ADCEF7
:102720000347D7071367270097060020A38EE6EE1E
:10273000216798C7828039D705466315C7001307FC
:10274000100699B709466315C700130750062DBF39
:102750000D466315C700130790063DB71307B00673
:1027600025B71307C0060DB70347360013671700D8
:1027700017060020A309E6F809470DB78346C707E7
:102780000946BD8A6388C6000347C7078D463D8B4F
:10279000E313D7F4114725BF8346D707918AC9DAD7
:1027A0000347D7071367870041B797070020938730
:1027B000E7F79C4398479706002023A1E6F6944745
:1027C00017070020130707F48D82858A8DC2834680
:1027D000270093E61600170600202306D6F293067C
:1027E00000F8170600202301D6F2A14694C79447AB
:1027F000858A99CA8346170093E6160017060020BB
:10280000A302D6F0854694C794478982858A89E6D3
:1028100094478582858AA1CE97060020A38606EE7E
:10282000944717060020130626ED10428982858AF8
:10283000D5C21442B1828D8AD9EAAC4B545393F578
:10284000050283C61600B1CDC1E29306D005D4CFF0
:102850008346070093E61600970500202384D5EAF7
:10286000914694C75456F19A93E6160054D694476D
:1028700013962601635F06000347470062076187DE
:1028800063570700054797060020238FE6E6096790
:1028900098C798479316070163D40600216798C725
:1028A0008280C5D685456395B6009306100645B768
:1028B00089456395B6009306500651BF8D456395D3
:1028C000B6009306900661B79306B00649B7930623
:1028D000C006B5BF8346370093E616009705002073
:1028E000A383D5E28946B5BF97070020938707E405
:1028F00098438567938707777CD397070020938752
:1029000027E89C4383A607091396560063580600E0
:1029100083A6070913966600634406007453FDF20C
:102920008280411122C4B747024006C603A4C720D3
:1029300023A607200F10000011C199E5B7470240F8
:1029400023A6872001457DA893073500C207C183D0
:10295000F19BC207C183130740036369F70217079E
:1029600000201307A7EA084317070020130787E989
:1029700014436392A60217070020130767A6585B4B
:1029800055DFC207DD8D054502974DBF17070020B3
:10299000130787E7C9BF035765002DEB03574500B1
:1029A0006366F706B306F7402146637CD602032828
:1029B0000500938687001D8FAA96611717060020D1
:1029C0000356669D2392E60023A00601239306008A
:1029D00014C12312F500130786FF97060020239CDD
:1029E000E69A2313B5009705002083D5C59AB387CF
:1029F000F540170700202310F79AB747024023A697
:102A000087202105B240224441018280084195B7C8
:102A1000B747024003A8C72023A607200F100000D5
:102A200001E523A60721828097070020938707DE10
:102A300003AE0700970700209387C7DC03A30700B6
:102A40008146F28763F0670C83A80700636FF50A7D
:102A500063EDA80A138787006366E50A03D667005B
:102A6000216705076317E60003C7819A05072384DA
:102A7000E19A970500209385A59103D6470003D7D7
:102A80006500239307003297420741831705002012
:102A90002313E590638AC703170500201305C5D6E5
:102AA00008416303F50203D5660019ED83D746009C
:102AB00023A0160121073E9621062392C600970700
:102AC0000020239AE78CB6879843630D6702970628
:102AD0000020938666D394426306D702835667002C
:102AE00095E283D64700035647001843A106B296E5
:102AF0002392D70098C383D76500A107170700204A
:102B0000231BF788B747024029BFBE86C6871DBF73
:102B100097070020938787CF97060020938686CE5D
:102B20009C4390422A87B305B5406314F6003A856A
:102B300029A8938687009C43E369D7FEE377F7FED5
:102B40002E85E3E4D5FEE3F2F5FE8280411197077E
:102B500000209387A7A526C2A44F06C622C44AC058
:102B60008547C1CC03A4C40A854741C88347A40054
:102B70001307700A639AE7080347540083479400D9
:102B8000970600209386468AD042B387E70217074C
:102B900000200357E789B387E702130700329387C2
:102BA0000719B3D7E70203A74409B6843E973A89C9
:102BB0006364F7006364C7003309C74097070020C8
:102BC000938747819C43232025018297B307A9401F
:102BD0006374A900D840BA9781E79307F00F31A832
:102BE000034754009306204E3307D702E3F7E7FE6E
:102BF000930780FA2305F4008147B24022449244AF
:102C000002493E85410182801307800AE397E7FC71
:102C100097F7FF1F9387077C9C4382972A89354546
:102C2000EFD0B14BAD4717070020A300F7AE034725
:102C300054008347940017F6FF1F1306E67E5042A8
:102C4000B387E70217F7FF1F0357877EB387E702B3
:102C50001307003293870719B3D7E70203A7440984
:102C60003E97BA866364F7006364C700B306C74043
:102C7000E315D9F6175502001305453FEFD01FADF8
:102C800097070020938787AA9C430947F8D7B1B7D5
:102C9000397152D4170A0020130ACAA683278A0161
:102CA00006DE22DC26DA4AD84ED656D25AD05ECE7E
:102CB00062CC66CA6AC86EC61397070163570720BD
:102CC000970700209387878EA04F0329C40A834764
:102CD00099000327C9009207330CF70003452C0025
:102CE000314705053305E50203574C003A95420587
:102CF0004181EFD02FCCAA8B6303051E130DC500B5
:102D00002324A50103462C00B145F97A3306B60207
:102D100023130C00814497090020938929A1170BE4
:102D20000020130B6B9D970C0020938C6CA5930DCA
:102D30009005FD1A6A962326CC0003467900930776
:102D4000D00703A509003306F60285671CC5B7073F
:102D50003300060630D103260B000C4293F5F5E74D
:102D60000CC20C4293F5F5E793E505100CC203A8DD
:102D70000C0083258800DD8D2324B80083250900FD
:102D80002328B5050CC683556C000326CC002E966F
:102D90002324CD0003461C00930550022696A30170
:102DA000CD0003450408014697070020A38C079433
:102DB000EFD0F10703A609004846B37555014CC68C
:102DC0000F10000003A60900896503280B000CC63C
:102DD000930500F8970700202388B7928325080001
:102DE000B1818D89F1E1930560196CD248C69707CE
:102DF0000020A38B0790854597070020A3840790A8
:102E00000CC2EFF06FC1EFD0112503461A00058AFE
:102E10004DCAEA852285EF60222F15ED03465D003D
:102E20004DC283556C0003554C00B29563DBA50879
:102E3000834524012848918D8905AA9503258D0095
:102E4000EFD06FC723020D0083455D0003566C0071
:102E50002E962313CC0083A50900310DB0517DFEC1
:102E600003462C00850493F4F40FE3E8C4EC034715
:102E700084005E85A381EB0083470C00A3820B00D6
:102E80002383CB002382FB006254F250D254425978
:102E9000B259225A925A025BF24B624CD24C424DCA
:102EA000B24D21616F302111832508000948B1819D
:102EB0008D89639505019305E04305BF9305E01BEC
:102EC0002DB77D562302CD0079B797070020938751
:102ED000E7859C43FC5781C785472388F190F250D2
:102EE0006254D2544259B259225A925A025BF24B5E
:102EF000624CD24C424DB24D21618280197106C2A2
:102F000012C416C61AC81ECA22CC26CE2AD02ED269
:102F100032D436D63AD83EDA42DC46DECAC0CEC219
:102F2000D2C4D6C6DAC8DECAE2CCE6CEEAD0EED249
:102F3000F2D4F6D6FAD8FEDA9385418F8841E700BD
:102F4000050092402242B2424243D2436244F244DC
:102F5000025592552256B2564257D2576258F258ED
:102F600006499649264AB64A464BD64B664CF64C1D
:102F7000065D965D265EB65E465FD65F09617300AC
:102F800020300000EFD06FFD730000000000000053
:102F9000938201910383020023800200630F0300E8
:102FA000F32510342EC0970500009385E5FD73903E
:102FB0001534EFF08FFF7300203086DCEFF06FDF09
:082FC000E650828000000000D1
:102FC80001A097E1FF1F9381E1C017D100201301F1
:102FD800E10217750200130565DA97D5FF1F93857F
:102FE800E5011386418C63FAC5008322050023A0FE
:102FF800550011059105E3EAC5FE1385818C9705F7
:1030080000209385A5806377B5002320050011056E
:10301800E36DB5FEFD42739002BC8D427390428011
:10302800930280087390023097D2FFFF938242FD8B
:1030380093E2320073905230EF30704697420000AE
:103048009382E2C17390123473002030011106CECE
:1030580022CC00102326A4FE0327C4FEB727014074
:1030680093870740631DF700854513050020EF008F
:10307800F062814513050020EF0050621DA0032770
:10308800C4FEB737014093870780631CF700854566
:1030980013050040EF009060814513050040EF00E4
:1030A800F05F0100F240624405618280797122D6A6
:1030B8000018232EA4FC232CB4FC232604FEA3050D
:1030C80004FE8327C4FDDC432326F4FE0327C4FE45
:1030D800B707F1E09387F7EFF98F2326F4FE8327EC
:1030E80084FD9843832784FD9C4F5D8F832784FD4F
:1030F800DC4F5D8F832784FDDC43A207D98F03272C
:10310800C4FED98F2326F4FE8327C4FD0327C4FEFB
:10311800D8C38327C4FD9C472326F4FE0327C4FE97
:10312800B7F7F1FF9387D77FF98F2326F4FE83271C
:1031380084FD984B832784FDDC475D8F832784FDBE
:103148009C478607D98F0327C4FED98F2326F4FE10
:103158008327C4FD0327C4FE98C78327C4FDDC5713
:103168002326F4FE0327C4FEB70710FFFD17F98FC7
:103178002326F4FE832784FDDC2BFD1793F7F70F36
:103188000347B4FED98FA305F4FE8347B4FED207E4
:103198000327C4FED98F2326F4FE8327C4FD032703
:1031A800C4FED8D70100325445618280011122CE75
:1031B80000102326A4FE2324B4FE832784FE91CB8B
:1031C8008327C4FE9C4713E717008327C4FE98C7CC
:1031D80009A88327C4FE9C4713F7E7FF8327C4FE8B
:1031E80098C70100724405618280011122CE001047
:1031F8002326A4FE2324B4FE832784FE99CB8327A9
:10320800C4FE9847B70750005D8F8327C4FE98C750
:1032180019A88327C4FE9847B707B0FFFD177D8F0D
:103228008327C4FE98C701007244056182807971C2
:1032380022D60018232EA4FCAE873687A30DF4FCF3
:10324800B287230DF4FCBA87A30CF4FC232604FEF2
:10325800232404FE0347B4FDA54763F6E706832746
:10326800C4FDDC472326F4FE8347B4FD138767FFBC
:10327800BA878607BA971D47B317F7002324F4FEC9
:10328800832784FE93C7F7FF0327C4FEF98F2326FD
:10329800F4FE834694FD8347B4FD138767FFBA871E
:1032A8008607BA97B397F6002324F4FE0327C4FED3
:1032B800832784FED98F2326F4FE8327C4FD0327A2
:1032C800C4FED8C785A08327C4FD9C4B2326F4FEE3
:1032D8000347B4FDBA878607BA971D47B317F700A7
:1032E8002324F4FE832784FE93C7F7FF0327C4FE35
:1032F800F98F2326F4FE834694FD0347B4FDBA876D
:103308008607BA97B397F6002324F4FE0327C4FE72
:10331800832784FED98F2326F4FE8327C4FD032741
:10332800C4FE98CB0347A4FD994763E6E7068327C5
:10333800C4FDDC5B2326F4FE8347A4FD1387F7FF57
:10334800BA878A07BA977D47B317F7002324F4FE94
:10335800832784FE93C7F7FF0327C4FEF98F23262C
:10336800F4FE8346B4FD8347A4FD1387F7FFBA87AD
:103378008A07BA97B397F6002324F4FE0327C4FEFE
:10338800832784FED98F2326F4FE8327C4FD0327D1
:10339800C4FED8DBE9A80347A4FDB14763E6E70606
:1033A8008327C4FD9C5B2326F4FE8347A4FD138773
:1033B80097FFBA878A07BA977D47B317F700232480
:1033C800F4FE832784FE93C7F7FF0327C4FEF98F13
:1033D8002326F4FE8346B4FD8347A4FD138797FF95
:1033E800BA878A07BA97B397F6002324F4FE03270F
:1033F800C4FE832784FED98F2326F4FE8327C4FDC9
:103408000327C4FE98DBA5A08327C4FDDC57232629
:10341800F4FE8347A4FD138737FFBA878A07BA9754
:103428007D47B317F7002324F4FE832784FE93C750
:10343800F7FF0327C4FEF98F2326F4FE8346B4FD65
:103448008347A4FD138737FFBA878A07BA97B397CC
:10345800F6002324F4FE0327C4FE832784FED98FB5
:103468002326F4FE8327C4FD0327C4FED8D7010012
:10347800325445618280011122CE00102326A4FE19
:103488008327C4FEFC47C207C1833E857244056199
:103498008280011122CE00102326A4FE8327C4FEB9
:1034A80099CFB7270140938707409447B727014032
:1034B8009387074037078000558F98C739A8B727E3
:1034C8000140938707409447B727014093870740F7
:1034D800370780FF7D17758F98C701007244056113
:1034E8008280797122D60018232EA4FCAE87A30D02
:1034F800F4FC232604FE8327C4FD98438347B4FDC8
:10350800F98F89C785472326F4FE19A0232604FED0
:103518008327C4FE3E85325445618280011122CE44
:1035280000102326A4FE2324B4FE832784FE99CB0F
:103538008327C4FED843B70700045D8F8327C4FEE2
:10354800D8C319A88327C4FED843B70700FCFD17C2
:103558007D8F8327C4FED8C3010072440561828031
:10356800011122CE00102326A4FEB707014093873D
:1035780007400327C4FED8CB01007244056182804E
:10358800411122C60008B7270240370767451307CD
:103598003712D8C3B72702403797EFCD1307B79A2A
:1035A800D8C3B72702403707674513073712D8D360
:1035B800B72702403797EFCD1307B79AD8D3010042
:1035C800324441018280411122C60008B7270240D7
:1035D800944BB72702402167558F98CB010032449E
:1035E80041018280011122CE00102326A4FE8327E8
:1035F800C4FE93F707F02326F4FEB7270240944B46
:10360800B727024037070200558F98CBB7270240EB
:103618000327C4FED8CBB7270240984BB7270240F0
:103628001367070498CB0100B7270240DC47858B56
:10363800E5FFB7270240944BB727024001777D1773
:10364800758F98CB0100724405618280797122D60A
:103658000018232EA4FC232CB4FC93070004A30712
:10366800F4FE8327C4FD93F707F0232EF4FCB72755
:103678000240944BB72702404167558F98CB010011
:10368800B7270240DC47858BE5FF0100B7270240DA
:10369800DC47898BE5FF25A88327C4FD032784FD24
:1036A800184398C38327C4FD9107232EF4FC83276E
:1036B80084FD9107232CF4FC8347F4FEFD17A30730
:1036C800F4FE0100B7270240DC47898BE5FF8347FA
:1036D800F4FEF9F3B7270240944BB72702403707A7
:1036E8002000558F98CB0100B7270240DC47858B17
:1036F800E5FFB7270240944BB727024041777D1773
:10370800758F98CB0100325445618280797122D639
:103718000018232EA4FCB7F7FF1F9387877E9C43CE
:103728002326F4FE8327C4FE13F7F70F8327C4FD6F
:1037380098A38327C4FE13D787008327C4FD850772
:103748001377F70F98A38327C4FE13D7070183279E
:10375800C4FD89071377F70F98A38327C4FE13D7EF
:1037680087018327C4FD8D071377F70F98A3B7F751
:10377800FF1F9387C77E9C432326F4FE8327C4FD3F
:1037880091070327C4FE1377F70F98A38327C4FE76
:1037980013D787008327C4FD95071377F70F98A3DE
:1037A8000100325445618280397122DE800023266F
:1037B800A4FC2324B4FC232604FE232004FE232493
:1037C80004FE232E04FC232204FE232C04FC83275E
:1037D80084FC9C47BD8B2326F4FE832784FC9C47EE
:1037E800C18B89CB832784FCDC430327C4FED98F94
:1037F8002326F4FE832784FC9E2393F7F70FE9CF53
:103808008327C4FC9C432322F4FE232404FE5DA8E2
:10381800832784FE0547B317F700232EF4FC83277C
:1038280084FC9E233E878327C4FDF98F2320F4FE62
:10383800032704FE8327C4FD6311F708832784FE4A
:103848008A07232EF4FC8327C4FD3D47B317F700EE
:10385800232CF4FC832784FD93C7F7FF032744FE3A
:10386800F98F2322F4FE8327C4FD0327C4FEB31770
:10387800F700032744FED98F2322F4FE832784FC14
:10388800984793078002631BF700832784FE054748
:103898003317F7008327C4FCD8CB05A0832784FC03
:1038A800984793078004631AF700832784FE054727
:1038B8003317F7008327C4FC98CB832784FE85073A
:1038C8002324F4FE032784FE9D47E3F3E7F48327CC
:1038D800C4FC032744FE98C3832784FC9A239307D8
:1038E800F00F63F0E70E8327C4FCDC432322F4FEC9
:1038F800232404FE6DA8832784FEA1070547B31778
:10390800F700232EF4FC832784FC9E233E8783271D
:10391800C4FDF98F2320F4FE032704FE8327C4FD8A
:103928006312F708832784FE8A07232EF4FC832773
:10393800C4FD3D47B317F700232CF4FC832784FD0F
:1039480093C7F7FF032744FEF98F2322F4FE83274A
:10395800C4FD0327C4FEB317F700032744FED98F1D
:103968002322F4FE832784FC984793078002631B75
:10397800F700832784FEA10705473317F70083273D
:10398800C4FCD8CB832784FC984793078004631B27
:10399800F700832784FEA10705473317F70083271D
:1039A800C4FC98CB832784FE85072324F4FE0327D1
:1039B80084FE9D47E3F1E7F48327C4FC032744FE14
:1039C800D8C30100725421618280011122CE0010F7
:1039D8002326A4FE8327C4FE91CBB77700409843E3
:1039E800B77700401367071098C309A8B777004056
:1039F8009843B77700401377F7EF98C301007244F4
:103A080005618280797122D60018232EA4FC232612
:103A180004FEB7170240DC432326F4FE0327C4FE46
:103A2800D177FD17F98F2326F4FE0327C4FE8327D9
:103A3800C4FDD98F2326F4FEB71702400327C4FE1E
:103A4800D8C30100325445618280011122CE001092
:103A5800AA87A307F4FEB7170240938707022380BB
:103A68000700B717024093870702238007008347A0
:103A7800F4FE05476386E7001147638AE70039A823
:103A8800B717024093870702054798A301A8B717FD
:103A9800024093870702154798A30100010072446A
:103AA80005618280011122CE00102326A4FE8327FF
:103AB800C4FE91CBB7170240D853B717024013671B
:103AC8001700D8D301A8B7170240D853B717024038
:103AD800799BD8D30100724405618280011122CEFE
:103AE80000102326A4FEB71702409453B7170240CC
:103AF8000327C4FE558F98D3010072440561828064
:103B0800011122CE00102326A4FE8327C4FE91CBE8
:103B1800B71702409453B71702402167558F98D3BF
:103B280011A8B71702409453B717024061777D1761
:103B3800758F98D30100724405618280797106D629
:103B480022D40018232EA4FC232404FE232604FEDA
:103B5800232204FE232004FEB7170240DC43B18B66
:103B68002324F4FE032784FEA1476300F7040327F8
:103B780084FEA14763E4E712832784FE99C70327DD
:103B880084FE9147630BF70011AA8327C4FD3717FA
:103B98007A001307072098C311AA8327C4FD375753
:103BA800E8011307078098C311A2B7170240D8434A
:103BB800B7073C00F98F2326F4FEB7170240D84315
:103BC800C167F98F2322F4FE8327C4FEC9838907BE
:103BD8002326F4FE0327C4FEC5476315F700C9472B
:103BE8002326F4FE832744FEA1E3B74702409387C8
:103BF80007809C43C18B89CF0327C4FEB7177A007F
:103C0800938707203307F7028327C4FD98C379A851
:103C18000327C4FEB7173D00938707903307F702C1
:103C28008327C4FD98C359A0B7170240D843B707E4
:103C3800C0007D8FB707C0006313F7025D242A8791
:103C48008547631EF7000327C4FEB727F400938750
:103C580007403307F7028327C4FD98C381A8B71725
:103C68000240D843B7070200F98F89CF0327C4FE63
:103C7800B7173D00938707903307F7028327C4FDE2
:103C880098C32DA00327C4FEB7177A00938707208F
:103C98003307F7028327C4FD98C309A88327C4FD07
:103CA80037177A001307072098C30100B717024097
:103CB800DC4393F7070F2324F4FE832784FE9183C4
:103CC8002324F4FEB707002013870700832784FE08
:103CD800BA979C2393F7F70F2320F4FE8327C4FD9C
:103CE8009843832704FE3357F7008327C4FDD8C3BE
:103CF800B7170240DC4393F707702324F4FE8327A9
:103D080084FEA1832324F4FEB7070020138707004D
:103D1800832784FEBA979C2393F7F70F2320F4FE9A
:103D28008327C4FDD843832704FE3357F70083272E
:103D3800C4FD98C7B7170240D84391679387078097
:103D4800F98F2324F4FE832784FEAD832324F4FE15
:103D5800B707002013870700832784FEBA979C23A0
:103D680093F7F70F2320F4FE8327C4FDD843832756
:103D780004FE3357F7008327C4FDD8C7B71702409E
:103D8800D843B167F98F2324F4FE832784FEB983CF
:103D98002324F4FEB70700201387873D832784FE7A
:103DA800BA979C2393F7F70F2320F4FE8327C4FDCB
:103DB800D847832704FE3357F7028327C4FD98CBDF
:103DC8000100B250225445618280011122CE0010B8
:103DD8002326A4FE2324B4FE832784FE99CBB71799
:103DE8000240D44BB71702400327C4FE558FD8CBE7
:103DF80021A8B7170240D44B8327C4FE13C7F7FF87
:103E0800B7170240758FD8CB0100724405618280D4
:103E1800011122CE00102326A4FE2324B4FE8327FA
:103E280084FE99CBB7170240944FB7170240032777
:103E3800C4FE558F98CF21A8B7170240944F832707
:103E4800C4FE13C7F7FFB7170240758F98CF01005C
:103E5800724405618280011122CE00102326A4FE3F
:103E68002324B4FE832784FE99CBB7170240D44F8E
:103E7800B71702400327C4FE558FD8CF21A8B7171C
:103E88000240D44F8327C4FE13C7F7FFB717024079
:103E9800758FD8CF0100724405618280011122CE4E
:103EA80000102326A4FE2324B4FE832784FE99CB86
:103EB800B7170240D447B71702400327C4FE558FEF
:103EC800D8C721A8B7170240D4478327C4FE13C711
:103ED800F7FFB7170240758FD8C701007244056114
:103EE8008280411122C6000885473E85324441013F
:103EF8008280411122C60008B737004093870780A7
:103F0800DE23139707014183B73700409387078063
:103F18001367070142074183DAA3010032444101D4
:103F28008280411122C60008B73700409387078076
:103F3800DE23139707014183B73700409387078033
:103F48003D9B42074183DAA301003244410182804C
:103F5800011122CE0010231604FE231504FE23149B
:103F680004FE231304FE231204FE231704FEB737AE
:103F78000040938707809E2F2316F4FEB737004032
:103F8800938707809E2F2315F4FE0357C4FE83579B
:103F9800A4FEE31EF7FCB737004093870780DE2FA7
:103FA8002312F4FEB737004093870780DE2F2317CC
:103FB800F4FE035744FE8357E4FEE31EF7FCB737CD
:103FC8000040938707809E2F2314F4FEB7370040E4
:103FD800938707809E2F2313F4FE035784FE83578D
:103FE80064FEE31EF7FC0357A4FE835764FE6306D2
:103FF800F702B737004093870780DE2F2312F4FEBD
:10400800B737004093870780DE2F2317F4FE035746
:1040180044FE8357E4FEE31EF7FC835764FE1397C0
:1040280007018357E4FED98F3E857244056182807B
:10403800011106CE22CC00102326A4FE5D3D832765
:10404800C4FE13D70701B73700409387078042079C
:1040580041839AAFB7370040938707800327C4FE90
:1040680042074183DAAF753D0100F24062440561C1
:104078008280011106CE22CC00102326A4FE953D95
:104088008327C4FEC183139707014183B7370040D4
:10409800938707803D8B420741839AA7B737004033
:1040A800938707800327C4FE42074183DAA7953D1B
:1040B8000100F240624405618280411122C6000875
:1040C8000100B737004093870780DE23C207C1830A
:1040D80093F70702FDD701000100324441018280B5
:1040E800011122CE0010AA872317F4FEB73700402B
:1040F80093870780DE2393960701C1828357E4FEE6
:1041080093C7F7FF139707014183B7370040938799
:104118000780758F42074183DAA301007244056165
:104128008280397106DE22DC80002326A4FC232449
:1041380004FEA30704FE230704FE232204FE83A72C
:1041480041832324F4FEB72702409387C702DC3F4C
:1041580013F7F70FB72702409387C702419B1377DE
:10416800F70FD8BFB72702401387C702B727024007
:104178009387C702583F1377F70FD8BF8347E4FEEA
:1041880085072307F4FEB72702409387C70283C732
:10419800370213F7F70FB72702409387C702136751
:1041A80027001377F70FA381E702B7270240938709
:1041B800C7029E3393960701C182B72702409387AF
:1041C800C7021167558F420741839AB3B727024048
:1041D8009387C7029E3393960701C182B72702408F
:1041E8009387C7026177558F420741839AB30100CD
:1041F800B72702409387C7029E33C207C183C2070D
:10420800C187E3D707FEB72702409387C7029E33CB
:10421800C207C1832320F4FEB72702409387C70251
:1042280083C7370213F7F70FB72702409387C702F0
:10423800759B1377F70FA381E702B727024093878F
:10424800C70283C7370213F7F70FB72702409387D0
:10425800C702136727001377F70FA381E702B72771
:1042680002409387C7029E3393960701C182B727FE
:1042780002409387C7021167558F420741839AB35B
:10428800B72702409387C7029E3393960701C182DE
:10429800B72702409387C7026177558F420741834A
:1042A8009AB37D312322A4FE01005D312A8783273A
:1042B80044FEE38CE7FEB72702409387C7029E338C
:1042C80093960701C182B72702409387C7021167F7
:1042D800558F420741839AB30100B727024093875D
:1042E800C7029E33C207C183C207C187E3C707FE5F
:1042F8000100B72702409387C7029E33C207C183D4
:10430800C207C187E3D707FEB72702409387C702D2
:104318009E33C207C1832320F4FE032704FE91675E
:10432800FD177D8FB72702409387C70283C72702EF
:1043380093F7F70FBE86B687BA07958FBA97832685
:1043480084FE1167130707E833C7E602998F232E07
:10435800F4FC032784FEB797E4FF9387078CB347E1
:10436800F7020327C4FD63DEE700032784FEB7775F
:104378001B0093870774B347F7020327C4FD634FF5
:10438800F7080347F4FE894763EAE7088347F4FE22
:104398008507A307F4FE8327C4FD6356F00283272D
:1043A800C4FD13971700832684FEB7C70D009387B3
:1043B80007BAB3C7F602B347F702850713D7F70161
:1043C800BA97858725A08327C4FD139717008326EE
:1043D80084FEB7C70D00938707BAB3C7F602B34781
:1043E800F702FD1713D7F701BA978587232EF4FC38
:1043F800B72702409387C702BE2793960701C18259
:104408008327C4FD139707014183B7270240938789
:10441800C702369742074183BAA7B5B3B727024008
:104428009387C702DC3F13F7F70FB727024093873C
:10443800C702419B1377F70FD8BFB727024093876E
:10444800C702DC3F13F7F70FB72702409387C7026D
:10445800136727001377F70FD8BFB7270240938752
:10446800C70283C7370213F7F70FB72702409387AE
:10447800C702759B1377F70FA381E702B72702409E
:104488009387C70283C7370213F7F70FB72702408E
:104498009387C702136727001377F70FA381E702F3
:1044A800B72702409387C7029E3393960701C182BC
:1044B800B72702409387C7026177558F4207418328
:1044C8009AB3B72702409387C7029E339396070192
:1044D800C182B72702409387C7021167558F4207E9
:1044E80041839AB30100B72702409387C7029E33DE
:1044F800C207C183C207C187E3D707FEB7270240B7
:104508009387C7029E33C207C1832320F4FEB727CF
:1045180002409387C70283C7370213F7F70FB727FD
:1045280002409387C702759B1377F70FA381E702B1
:10453800B72702409387C70283C7370213F7F70FDD
:10454800B72702409387C702136727001377F70F2F
:10455800A381E702B72702409387C7029E33939649
:104568000701C182B72702409387C7026177558F39
:10457800420741839AB3B72702409387C7029E3305
:1045880093960701C182B72702409387C702116734
:10459800558F420741839AB3653A2322A4FE01004E
:1045A800453A2A87832744FEE38CE7FEB727024073
:1045B8009387C7029E3393960701C182B7270240AB
:1045C8009387C7021167558F420741839AB3010049
:1045D800B72702409387C7029E33C207C183C20729
:1045E800C187E3C707FE0100B72702409387C702C8
:1045F8009E33C207C183C207C187E3D707FEB72727
:1046080002409387C7029E33C207C1832320F4FE6A
:10461800032704FE9167FD177D8FB7270240938714
:10462800C70283C7270293F7F70FBE86B687BA0774
:10463800958FBA97832684FE37470F001307072400
:10464800B3C6E6021307803E3387E602998F232E0E
:10465800F4FC8327C4FD635FF0020327C4FD9307BE
:10466800800C3307F702832684FE9307803EB3C687
:10467800F6029307C02EB386F602A567938707CA8A
:10468800B3C7F602B347F702850713D7F701BA97FE
:1046980085872DA80327C4FD9307800C3307F702ED
:1046A800832684FE9307803EB3C6F6029307C02E86
:1046B800B386F602A567938707CAB3C7F602B3475E
:1046C800F702FD1713D7F701BA978587232EF4FC55
:1046D8008327C4FD6358F008B72702409387C702B1
:1046E800BE27C207C1839583C207C1833E8783273C
:1046F800C4FD3E979307F07F63D6E7060347E4FEC1
:10470800894763F5E702B72702409387C702BE27A8
:1047180093960701C182B72702409387C7020967AA
:104728000117558F42074183BAA7E5A8B72702406A
:104738009387C702BE27C207C183C207C18793F701
:10474800F70F139707014187A1678117D98F13972F
:1047580007014187B72702409387C7024207418371
:10476800BAA73DAB8327C4FD63D50708B727024026
:104778009387C702BE27C207C1839583C207C18337
:104788003E878327C4FDB307F0406354F706034709
:10479800E4FE894763F3E702B72702409387C7021D
:1047A800BE27139707014183B72702409387C702A3
:1047B8007D8B42074183BAA7ADA0B72702409387F4
:1047C800C702BE27C207C183C207C18793F7F70F85
:1047D80013970701418785678117D98F13970701B9
:1047E8004187B72702409387C70242074183BAA788
:1047F80045A9B72702409387C702BE2793960701AA
:10480800C1828327C4FDC207C18396071397070196
:104818004183B72702409387C702369742074183EF
:10482800BAA7B72702409387C702DC3F13F7F70FF1
:10483800B72702409387C702419B1377F70FD8BF6A
:10484800B72702409387C702DC3F93F6F70F832709
:10485800C4FC13F7F70FB72702409387C702558F99
:104868001377F70FD8BFB72702409387C70283C7CC
:10487800370213F7F70FB72702409387C702759BD4
:104888001377F70FA381E702B72702409387C70280
:1048980083C7370213F7F70FB72702409387C7027A
:1048A800136727001377F70FA381E702B7270240A2
:1048B8009387C7029E3393960701C182B7270240A8
:1048C8009387C7026177558F420741839AB3B72709
:1048D80002409387C7029E3393960701C182B72788
:1048E80002409387C7021167558F420741839AB3E5
:1048F8000100B72702409387C7029E33C207C183CE
:10490800C207C187E3D707FEB72702409387C702CC
:104918009E33C207C1832320F4FEB7270240938742
:10492800C70283C7370213F7F70FB72702409387E9
:10493800C702759B1377F70FA381E702B7270240D9
:104948009387C70283C7370213F7F70FB7270240C9
:104958009387C702136727001377F70FA381E7022E
:10496800B72702409387C7029E3393960701C182F7
:10497800B72702409387C7026177558F4207418363
:104988009AB3B72702409387C7029E3393960701CD
:10499800C182B72702409387C7021167558F420724
:1049A80041839AB3EFF0CFDA2322A4FE0100EFF09F
:1049B8002FDA2A87832744FEE38BE7FEB7270240D6
:1049C8009387C7029E3393960701C182B727024097
:1049D8009387C7021167558F420741839AB3010035
:1049E800B72702409387C7029E33C207C183C20715
:1049F800C187E3C707FE0100B72702409387C702B4
:104A08009E33C207C183C207C187E3D707FEB72712
:104A180002409387C70283C7370213F7F70FB727F8
:104A280002409387C702759B1377F70FA381E702AC
:104A3800B72702409387C7029E33C207C18323204A
:104A4800F4FE032704FE9167FD177D8FB727024008
:104A58009387C70283C7270293F7F70FBE86B687E7
:104A6800BA07958F3E978327C4FC8966938606F418
:104A7800B396F600032684FEB7470F0093870724F2
:104A8800B347F602B387F60293D6F74193F6F60FCB
:104A9800B697A1878E07B307F740232EF4FC832728
:104AA800C4FD635CF0040327C4FD9307800C33073F
:104AB800F7028327C4FC8546B397F60093D6F741DF
:104AC8008D8AB6978987BE869307C02EB386F6026D
:104AD800032684FE9307803EB347F602B386F602A8
:104AE800A567938707CAB3C7F602B347F7028507D6
:104AF80013D7F701BA97858791A80327C4FD9307B1
:104B0800800C3307F7028327C4FC8546B397F60069
:104B180093D6F7418D8AB6978987BE869307C02EAC
:104B2800B386F602032684FE9307803EB347F60257
:104B3800B386F602A567938707CAB3C7F602B347D9
:104B4800F702FD1713D7F701BA978587232EF4FCD0
:104B58008327C4FD6358F008B72702409387C7022C
:104B6800BE27C207C1839583C207C1833E878327B7
:104B7800C4FD3E979307F07F63D6E7060347E4FE3C
:104B8800894763F5E702B72702409387C702BE2724
:104B980093960701C182B72702409387C702096726
:104BA8000117558F42074183BAA7EDA8B7270240DE
:104BB8009387C702BE27C207C183C207C18793F77D
:104BC800F70F139707014187A1678117D98F1397AB
:104BD80007014187B72702409387C70242074183ED
:104BE800BAA77DA88327C4FD63D30708B727024067
:104BF8009387C702BE27C207C1839583C207C183B3
:104C08003E878327C4FDB307F0406352F706034786
:104C1800E4FE894763F3E702B72702409387C70298
:104C2800BE27139707014183B72702409387C7021E
:104C38007D8B42074183BAA7B5A0B7270240938767
:104C4800C702BE27C207C183C207C18793F7F70F00
:104C5800C207C18793E7077E139707014187B727E4
:104C680002409387C70242074183BAA715A8B7270E
:104C780002409387C702BE2793960701C182832704
:104C8800C4FDC207C1839607139707014183B7275D
:104C980002409387C702369742074183BAA719A0F3
:104CA8006FF0CFCDF250625421618280757106C7D2
:104CB80022C54AC34EC1D2DED6DCDADADED8E2D665
:104CC800E6D4EAD2EED00009232EA4F8232CB4F8B7
:104CD800014781472324E4FC2326F4FC2320E4FC39
:104CE8002322F4FC232E04FA232C04FA232A04FAA0
:104CF8008327C4F9232AF4FA8327C4F99E2BC20711
:104D0800C1832324F4FC232604FC032784FCB56711
:104D1800FD173378F7008327C4FC93F80700232492
:104D280004FD232614FD832784F9FE233E8681464D
:104D3800832784FCD18F2324F4F88327C4FCD58FE0
:104D48002326F4F8832784F80328C4F82324F4FCE2
:104D5800232604FD035784FC8327C4F99AAB8327D1
:104D6800C4F9DE27C207C1832324F4FC232604FCEC
:104D7800032784FCBD679387379FF98F2320F4F8B6
:104D88008327C4FC818B2322F4F8832704F80328A3
:104D980044F82324F4FC232604FD832784F9DA232A
:104DA800832784F99E27D98F139707014183832787
:104DB80084F9BE27D98FC207C1833E8E814E8327CF
:104DC80084FCB3E7C701232CF4F68327C4FCB3E7BC
:104DD800D701232EF4F6832784F70328C4F7232466
:104DE800F4FC232604FD035784FC8327C4F9DAA7BF
:104DF8008327C4F9DE2BC207C1832324F4FC2326AE
:104E080004FC032784FCC1679387F7CFF98F232815
:104E1800F4F68327C4FC818B232AF4F6832704F74E
:104E2800032844F72324F4FC232604FD832784F96C
:104E3800DE273E838143832784FC33EF6700832783
:104E4800C4FCB3EF77002324E4FD2326F4FD0357C5
:104E580084FC8327C4F9DAAB930704FA3E85EFE0B4
:104E6800FFCD032744FBB7470140938707806319A9
:104E7800F7008327C4FA2320F4FC232204FC39A07A
:104E8800832784FA2320F4FC232204FC032744FC10
:104E9800E5473307F702832704FC8146B387D70227
:104EA800B306F700032704FCE5473306F702B33BD4
:104EB800F702328BB3877601BE8B832784F99C4334
:104EC8008A072328F4F8232A04F8032604F98326FA
:104ED80044F95A85DE85EF2060162A87AE87232E8F
:104EE800E4FA0327C4FB93074006B357F702920777
:104EF8002324F4FC232604FC8327C4FCF20703279D
:104F080084FC1359470033E927018327C4FC93D94C
:104F180047004A8793074006B307F7020327C4FBF5
:104F2800B307F740232CF4FA832784FB92071387EF
:104F3800270393074006B357F702232CF4FA0327F5
:104F480084FBBD4763F7E702032684FC8326C4FC81
:104F5800414581453307A6003A883338C800B387EE
:104F6800B600B306F800B6872324E4FC2326F4FC35
:104F78002DA0832784FB3E8C814C137AFC0093FA86
:104F88000C00832784FC33ED47018327C4FCB3ED71
:104F980057012324A4FD2326B4FD035784FC83274B
:104FA800C4F99AA70100BA402A441A498A49765A8C
:104FB800E65A565BC65B365CA65C165D865D496143
:104FC8008280011122CE00102326A4FE2324B4FEE1
:104FD800832784FE85C38327C4FEDE271397070132
:104FE80041838967D98F1397070141838327C4FEBB
:104FF800DAA705A08327C4FEDE271397070141839C
:10500800F977FD17F98F1397070141838327C4FEAA
:10501800DAA70100724405618280011122CE0010D6
:105028002326A4FEAE872315F4FE8357A4FE93F728
:10503800F71F1397070141838327C4FEDAA30100F2
:10504800724405618280797122D60018232EA4FC4F
:10505800AE87231DF4FC232604FE8327C4FD9E236C
:10506800C207C1830357A4FDF98FC207C18389C74B
:1050780085472326F4FE19A0232604FE8327C4FEB1
:105088003E85325445618280411122C6000803A73B
:105098004183B7177A0093870720B357F70213F7AE
:1050A800F70F2384E18C83C7818C3E879307803E6A
:1050B800B307F7021397070141832395E18C010099
:1050C800324441018280797122D60018232EA4FC33
:1050D800B7F600E0D042B7F600E0799AD0C283C6AE
:1050E800818C36868326C4FDB386C6022326D4FE69
:1050F800B7F600E00326C4FE3287814798CADCCAA7
:10510800B7F700E09843B7F700E01367070198C3C3
:10511800B7F700E09843B7F700E01367170298C3A2
:105128000100B7F700E0DC4313F717008547E31ADF
:10513800F7FEB7F700E09843B7F700E0799B98C30C
:105148000100325445618280397106DE22DC80001C
:105158002326A4FC8545916713854700EFE05FCBC4
:10516800930700202312F4FE8D472324F4FEE14721
:105178002326F4FE930744FEBE85B7170140138526
:105188000780EFE06FE28327C4FC232AF4FC231C8A
:1051980004FC231D04FC231E04FC231004FEA14769
:1051A800231FF4FC930744FDBE85B74701401385D0
:1051B8000780ED3C8545B7470140138507801135C9
:1051C8000100F250625421618280797106D622D49E
:1051D8000018232EA4FC232CB4FC232AC4FC232669
:1051E80004FE232604FE81A0010093050004B747AE
:1051F800014013850780813DAA87E5DB832784FD6D
:1052080013871700232CE4FC83870700C207C18398
:10521800BE85B74701401385078001358327C4FE43
:1052280085072326F4FE0327C4FE832744FDE34DA8
:10523800F7FA832744FD3E85B250225445618280A7
:10524800011122CE00102326A4FEB707002003A7D1
:10525800C73D8327C4FE3E97B73700209387078151
:10526800636FF700B707002003A7C73D8327C4FE75
:105278003E97B70701209387078063F4E700FD573F
:105288002DA0B707002003A7C73D8327C4FE3E977C
:10529800B707002023AEE73CB707002003A7C73DA8
:1052A8008327C4FEB307F040BA973E857244056170
:1052B8008280411106C622C40008B70700209386E1
:1052C80007144146CD45B707002013850701EFA015
:1052D800906DAA873E85B24022444101828039718F
:1052E80006DE22DC8000232CB4FC232AC4FC2328FD
:1052F800D4FC3A86BE864287AA87231FF4FCB2876D
:10530800231EF4FCB6872317F4FCBA87A306F4FC23
:10531800A30704FE832784FDDC439C23139707011E
:105328004187832784FDDC4385079C23A207C207A6
:10533800C187D98FC207C1872316F4FE0357C4FE5D
:10534800F5779387D75DBA971307D0026361F73073
:1053580013972700B797020093878747BA979C430C
:1053680082870357C4FD9D4763F6E7009D47A3075F
:10537800F4FEF5A48357C4FD2147B307F74003574C
:10538800E4FC6373F700BA87139707014183832707
:1053980004FD9AA30357C4FD9387C18C3E978327C6
:1053A80004FD9E233E86BA85032544FDEFA03FF009
:1053B8007DA40357C4FDAD4763F6E7009D47A307E7
:1053C800F4FE71AC8357C4FD3147B307F740035768
:1053D800E4FC6373F700BA871397070141838327B7
:1053E80004FD9AA30357C4FDB79702009387873F2C
:1053F8003E97832704FD9E233E86BA85032544FDF8
:10540800EFA0FFEAA9AC0357C4FDB14763F6E70074
:105418009D47A307F4FEA1A48357C4FD3547B307EE
:10542800F7400357E4FC6373F700BA871397070143
:105438004183832704FD9AA30357C4FDB79702004D
:10544800938787403E97832704FD9E233E86BA852F
:10545800032544FDEFA0BFE519A40357C4FDC147C8
:1054680063F6E7009D47A307F4FED5AA8357C4FD5A
:105478004547B307F7400357E4FC6373F700BA875F
:10548800139707014183832704FD9AA30357C4FD9B
:10549800B7970200938787413E97832704FD9E2391
:1054A8003E86BA85032544FDEFA07FE04DAA035749
:1054B800C4FDC14763F6E7009D47A307F4FE45A274
:1054C8008357C4FD4547B307F7400357E4FC6373AC
:1054D800F700BA87139707014183832704FD9AA32E
:1054E8000357C4FDB79702009387C7423E978327A7
:1054F80004FD9E233E86BA85032544FDEFA03FDBCD
:10550800B9AA0357C4FDC14763F6E7009D47A3073F
:10551800F4FEB1A28357C4FD4547B307F7400357CC
:10552800E4FC6373F700BA87139707014183832765
:1055380004FD9AA30357C4FDB79702009387074455
:105548003E97832704FD9E233E86BA85032544FDA6
:10555800EFA0FFD529A20357C4FDC14763F6E700B2
:105568009D47A307F4FEE5A88357C4FD4547B30745
:10557800F7400357E4FC6373F700BA8713970701F2
:105588004183832704FD9AA30357C4FDB7970200FC
:10559800938747453E97832704FD9E233E86BA8519
:1055A800032544FDEFA0BFD05DA80357C4FDB54750
:1055B80063F6E7009D47A307F4FE55A08357C4FD93
:1055C8003947B307F7400357E4FC6373F700BA871A
:1055D800139707014183832704FD9AA30357C4FD4A
:1055E800B7970200938787463E97832704FD9E233B
:1055F8003E86BA85032544FDEFA07FCB8DA00357D7
:10560800C4FD994763F6E7009D47A307F4FE81A808
:105618008357C4FD1D47B307F7400357E4FC637382
:10562800F700BA87139707014183832704FD9AA3DC
:105638000357C4FD938741813E97832704FD9E232A
:105648003E86BA85032544FDEFA07FC609A88327B7
:1056580004FD23900700A947A307F4FE0100834730
:10566800F4FE3E85F250625421618280797106D63B
:1056780022D40018232EA4FCA30704FE9385818E50
:10568800C1671385F7FFEFA0B03C99671385A7B9E9
:10569800EFC050618327C4FD858B85C3B707002001
:1056A8009386072C4146C545B70700201385071B7D
:1056B800EFA0702FAA87A307F4FE8347F4FE3E8568
:1056C800B250225445618280011122CE0010232657
:1056D800A4FE8327C4FE99C70327C4FE23AAE18C2E
:1056E800814711A0C5473E85724405618280797162
:1056F80006D622D40018AA872E87232CC4FCA30F11
:10570800F4FCBA87231EF4FCA30704FE8347F4FDC8
:1057180011476360F70C13972700B7970200938728
:105728000753BA979C4382870357C4FD8547631A7A
:10573800F7000546832584FD1385818DEFA03FB7CB
:1057480069A8E147A307F4FE49A80357C4FD8547A4
:10575800631AF7000546832584FD1385C18DEFA0E4
:105768001FB5A5A8E147A307F4FE85A80357C4FD04
:105778008547631AF7000546832584FD1385018E46
:10578800EFA0FFB299A8E147A307F4FEB9A0035719
:10579800C4FD8547631AF7000546832584FD1385F4
:1057A800418EEFA0DFB015A8E147A307F4FE35A0AE
:1057B8000357C4FD9547631AF7001546832584FDF2
:1057C8001385C18EEFA0BFAE09A8E147A307F4FE79
:1057D80029A08947A307F4FE01008347F4FE3E850C
:1057E800B250225445618280797106D622D40018BD
:1057F800AA87232CB4FC231FF4FC0357E4FD9385EC
:10580800818E3A85EF809064AA872317F4FE835728
:10581800E4FE858B85C7B70700209387071B03D74E
:10582800A70B832784FD9AA38357E4FD01468325AC
:1058380084FD3E85EF901034AA8711A0C9473E85A4
:10584800B250225445618280397106DE22DC800024
:10585800232CB4FC232AC4FC2328D4FC3A86BE8615
:105868004287AA87231FF4FCB287231EF4FCB6875D
:105878002317F4FCBA87A306F4FCA30704FE835796
:10588800C4FD99C3AD47BDA2832784FD98238947EA
:105898006319F714832784FDDC439C2313970701BE
:1058A8004187832784FDDC4385079C23A207C20721
:1058B800C187D98FC207C1872316F4FE8357C4FE58
:1058C80041671517638BE70C416715176343F7109A
:1058D800416711176387E70841671117634BF70E94
:1058E800416705176387E70041670917638FE70278
:1058F800CDA00357E4FC854763F7E700832704FD41
:1059080005479AA331A0832704FD0357E4FC9AA313
:10591800832784FDD847832704FD9E233E86BA85C6
:10592800032544FDEFA0BF98E1A00357E4FC854799
:1059380063F7E700832704FD05479AA331A083276F
:1059480004FD0357E4FC9AA3832784FDD8478327E3
:1059580004FD9E233E86BA85032544FDEFA03F95AE
:1059680041A80357E4FC854763F7E700832704FD54
:1059780005479AA331A0832704FD0357E4FC9AA3A3
:10598800832784FDD847832704FD9E233E86BA8556
:10599800032544FDEFA0BF91A1A80357E4FC954758
:1059A80063F7E700832704FD15479AA331A08327EF
:1059B80004FD0357E4FC9AA3832784FDD847832773
:1059C80004FD9E233E86BA85032544FDEFA03F8E45
:1059D80005A0832704FD23900700A947A307F4FE29
:1059E80001A8832704FD239007008547A307F4FE39
:1059F8008347F4FE3E85F2506254216182807971BA
:105A080006D622D40018232CB4FC232AC4FC3686DC
:105A1800BA863E87AA87231FF4FCB287231EF4FCAC
:105A2800B6872319F4FCBA87A308F4FCA30704FE7D
:105A3800FD572307F4FE832784FD9C2793F707026D
:105A480099C3A14791A2832784FD98238947631BA3
:105A5800F70E832784FDDC439C23139707014187B6
:105A6800832784FDDC4385079C23A207C207C187DF
:105A7800D98FC207C1872316F4FE8357C4FE416736
:105A88000D17638DE70441670D176349F70A0D6722
:105A9800130727906383E708416705176390E70AB0
:105AA800835724FD91EB0357C4FD854763F9E7004D
:105AB800B547A307F4FE21A0AD47A307F4FE83472B
:105AC800F4FEC9E7832784FDDC470546832544FDAA
